{'from': '0x7aBd5Ccc4c3916af9b9f6066eA398F0698aA85dB', 'to': '0x3cce24A8543DC5224E08bE33A664F05527C5cbB5', 'value': 5000000000000000000, 'chainId': 111, 'gasPrice': 402276600000, 'gas': 15000, 'nonce': 0}
b'4^\x82\x06\xe3\xd0\x1f\x11\xc2\x85\x1e`\xa8Y\xb5\xcb2\xe6:l\xb2\xdb\xcb\xb4\xe3\x94\xa1\xcfC\x92\xa8\x81'
SignedTransaction(rawTransaction=HexBytes('0xf86e80855da98dc8c0823a98943cce24a8543dc5224e08be33a664f05527c5cbb5884563918244f4000080820102a0fb9cc0badada277d8f7cb6e74c9f26fcc47c38358df851dfd952767d6b84071aa033a87d6145134e57f46747f6befa26227766d93fc424273beb218fd00d2c737b'), hash=HexBytes('0x85cd2e10354d39f8252b5a64b898def637bb6e05027f93b82b9852ff5c782f82'), r=113807483309401778356244758422714109892294765683968980813304705671571957876506, s=23365650925312020073540795324205105190137236459328093501725602595752096068475, v=258)
