{
  "uid" : "5a7fdbcbf990867b",
  "name" : "test_rpc_call_eth_sendRawTransaction",
  "fullName" : "integration.tests.basic.test_transactions.TestRpcCallsTransactions#test_rpc_call_eth_sendRawTransaction",
  "historyId" : "f2266f2fcf46a3382764047e40d95c33",
  "time" : {
    "start" : 1646727962091,
    "stop" : 1646727963825,
    "duration" : 1734
  },
  "description" : "Verify implemented rpc calls work eth_sendRawTransaction",
  "descriptionHtml" : "<p>Verify implemented rpc calls work eth_sendRawTransaction</p>\n",
  "status" : "broken",
  "statusMessage" : "TypeError: Object of type HexBytes is not JSON serializable",
  "statusTrace" : "self = <integration.tests.basic.test_transactions.TestRpcCallsTransactions object at 0x7f6f5b0026a0>\n\n    @allure.step(\n        \"test: verify implemented rpc calls work eth_sendRawTransaction\")\n    def test_rpc_call_eth_sendRawTransaction(self):\n        \"\"\"Verify implemented rpc calls work eth_sendRawTransaction\"\"\"\n        sender_account = self.create_account_with_balance(GREAT_AMOUNT)\n        recipient_account = self.create_account_with_balance(\n            FIRST_FAUCET_REQUEST_AMOUNT)\n    \n        # TODO: chain id\n        transaction = {\n            \"from\":\n            sender_account.address,\n            \"to\":\n            recipient_account.address,\n            \"value\":\n            self.web3_client.toWei(SAMPLE_AMOUNT, \"ether\"),\n            \"chainId\":\n            111,\n            \"gasPrice\":\n            self.web3_client.gas_price(),\n            \"gas\":\n            0,\n            \"nonce\":\n            self.web3_client.eth.get_transaction_count(sender_account.address),\n        }\n        transaction[\"gas\"] = self.web3_client.eth.estimate_gas(transaction)\n    \n        #\n        print(transaction)\n        print(sender_account.key)\n        #\n    \n        signed_tx = self.web3_client.eth.account.sign_transaction(\n            transaction, sender_account.key)\n        params = [signed_tx.rawTransaction]\n    \n        #\n        print(signed_tx)\n        #\n    \n        model = RpcRequestFactory.get_send_raw_trx(params=params)\n>       response = self.jsonrpc_requester.request_json_rpc(model)\n\nintegration/tests/basic/test_transactions.py:96: \n_ _ _ _ _ _ _ _ _ _ _ _ _ _ _ _ _ _ _ _ _ _ _ _ _ _ _ _ _ _ _ _ _ _ _ _ _ _ _ _ \nintegration/tests/basic/helpers/json_rpc_requester.py:20: in request_json_rpc\n    return self._session.post(self._url, json=dataclasses.asdict(data))\n/opt/hostedtoolcache/Python/3.9.10/x64/lib/python3.9/site-packages/requests/sessions.py:577: in post\n    return self.request('POST', url, data=data, json=json, **kwargs)\n/opt/hostedtoolcache/Python/3.9.10/x64/lib/python3.9/site-packages/requests/sessions.py:515: in request\n    prep = self.prepare_request(req)\n/opt/hostedtoolcache/Python/3.9.10/x64/lib/python3.9/site-packages/requests/sessions.py:443: in prepare_request\n    p.prepare(\n/opt/hostedtoolcache/Python/3.9.10/x64/lib/python3.9/site-packages/requests/models.py:321: in prepare\n    self.prepare_body(data, files, json)\n/opt/hostedtoolcache/Python/3.9.10/x64/lib/python3.9/site-packages/requests/models.py:473: in prepare_body\n    body = complexjson.dumps(json, allow_nan=False)\n/opt/hostedtoolcache/Python/3.9.10/x64/lib/python3.9/json/__init__.py:234: in dumps\n    return cls(\n/opt/hostedtoolcache/Python/3.9.10/x64/lib/python3.9/json/encoder.py:199: in encode\n    chunks = self.iterencode(o, _one_shot=True)\n/opt/hostedtoolcache/Python/3.9.10/x64/lib/python3.9/json/encoder.py:257: in iterencode\n    return _iterencode(o, 0)\n_ _ _ _ _ _ _ _ _ _ _ _ _ _ _ _ _ _ _ _ _ _ _ _ _ _ _ _ _ _ _ _ _ _ _ _ _ _ _ _ \n\nself = <json.encoder.JSONEncoder object at 0x7f6f5b002190>\no = HexBytes('0xf86e80855eb84c6460823a98946452ba8777cda70328026bdc2d982d43edd970c3884563918244f4000080820102a0ca6ed3b5e79993fa1f0cda48d3610668df0ce496efb8b24fe2ffe970da669674a03b76d7046390f262915e8705f54dc855781faa54a820bf0253eec94a813c0f21')\n\n    def default(self, o):\n        \"\"\"Implement this method in a subclass such that it returns\n        a serializable object for ``o``, or calls the base implementation\n        (to raise a ``TypeError``).\n    \n        For example, to support arbitrary iterators, you could\n        implement default like this::\n    \n            def default(self, o):\n                try:\n                    iterable = iter(o)\n                except TypeError:\n                    pass\n                else:\n                    return list(iterable)\n                # Let the base class default method raise the TypeError\n                return JSONEncoder.default(self, o)\n    \n        \"\"\"\n>       raise TypeError(f'Object of type {o.__class__.__name__} '\n                        f'is not JSON serializable')\nE       TypeError: Object of type HexBytes is not JSON serializable\n\n/opt/hostedtoolcache/Python/3.9.10/x64/lib/python3.9/json/encoder.py:179: TypeError",
  "flaky" : false,
  "newFailed" : false,
  "newBroken" : true,
  "newPassed" : false,
  "retriesCount" : 0,
  "retriesStatusChange" : false,
  "beforeStages" : [ {
    "name" : "pytestconfig",
    "time" : {
      "start" : 1646727900529,
      "stop" : 1646727900529,
      "duration" : 0
    },
    "status" : "passed",
    "steps" : [ ],
    "attachments" : [ ],
    "parameters" : [ ],
    "stepsCount" : 0,
    "attachmentsCount" : 0,
    "shouldDisplayMessage" : false,
    "hasContent" : false
  }, {
    "name" : "web3_client",
    "time" : {
      "start" : 1646727900529,
      "stop" : 1646727900530,
      "duration" : 1
    },
    "status" : "passed",
    "steps" : [ ],
    "attachments" : [ ],
    "parameters" : [ ],
    "stepsCount" : 0,
    "attachmentsCount" : 0,
    "shouldDisplayMessage" : false,
    "hasContent" : false
  }, {
    "name" : "allure_environment",
    "time" : {
      "start" : 1646727900530,
      "stop" : 1646727901115,
      "duration" : 585
    },
    "status" : "passed",
    "steps" : [ ],
    "attachments" : [ ],
    "parameters" : [ ],
    "stepsCount" : 0,
    "attachmentsCount" : 0,
    "shouldDisplayMessage" : false,
    "hasContent" : false
  }, {
    "name" : "jsonrpc_requester",
    "time" : {
      "start" : 1646727901115,
      "stop" : 1646727901115,
      "duration" : 0
    },
    "status" : "passed",
    "steps" : [ ],
    "attachments" : [ ],
    "parameters" : [ ],
    "stepsCount" : 0,
    "attachmentsCount" : 0,
    "shouldDisplayMessage" : false,
    "hasContent" : false
  }, {
    "name" : "faucet",
    "time" : {
      "start" : 1646727901115,
      "stop" : 1646727901115,
      "duration" : 0
    },
    "status" : "passed",
    "steps" : [ ],
    "attachments" : [ ],
    "parameters" : [ ],
    "stepsCount" : 0,
    "attachmentsCount" : 0,
    "shouldDisplayMessage" : false,
    "hasContent" : false
  }, {
    "name" : "sol_client",
    "time" : {
      "start" : 1646727901116,
      "stop" : 1646727901116,
      "duration" : 0
    },
    "status" : "passed",
    "steps" : [ ],
    "attachments" : [ ],
    "parameters" : [ ],
    "stepsCount" : 0,
    "attachmentsCount" : 0,
    "shouldDisplayMessage" : false,
    "hasContent" : false
  }, {
    "name" : "operator",
    "time" : {
      "start" : 1646727901116,
      "stop" : 1646727901116,
      "duration" : 0
    },
    "status" : "passed",
    "steps" : [ ],
    "attachments" : [ ],
    "parameters" : [ ],
    "stepsCount" : 0,
    "attachmentsCount" : 0,
    "shouldDisplayMessage" : false,
    "hasContent" : false
  }, {
    "name" : "prepare_account",
    "time" : {
      "start" : 1646727950141,
      "stop" : 1646727953824,
      "duration" : 3683
    },
    "status" : "passed",
    "steps" : [ {
      "name" : "Create account for tests",
      "time" : {
        "start" : 1646727950141,
        "stop" : 1646727950144,
        "duration" : 3
      },
      "status" : "passed",
      "steps" : [ ],
      "attachments" : [ ],
      "parameters" : [ ],
      "stepsCount" : 0,
      "attachmentsCount" : 0,
      "shouldDisplayMessage" : false,
      "hasContent" : false
    }, {
      "name" : "Request 1000 NEON from faucet for 0xa2B5086EEe1cea4fEC9480eD98b239B54c903572",
      "time" : {
        "start" : 1646727950144,
        "stop" : 1646727950844,
        "duration" : 700
      },
      "status" : "passed",
      "steps" : [ ],
      "attachments" : [ ],
      "parameters" : [ ],
      "stepsCount" : 0,
      "attachmentsCount" : 0,
      "shouldDisplayMessage" : false,
      "hasContent" : false
    }, {
      "name" : "Operator initial balance: 0.0024690646060716040306 NEON 74070786.796575 SOL",
      "time" : {
        "start" : 1646727953824,
        "stop" : 1646727953824,
        "duration" : 0
      },
      "status" : "passed",
      "steps" : [ ],
      "attachments" : [ ],
      "parameters" : [ ],
      "stepsCount" : 0,
      "attachmentsCount" : 0,
      "shouldDisplayMessage" : false,
      "hasContent" : false
    } ],
    "attachments" : [ ],
    "parameters" : [ ],
    "stepsCount" : 3,
    "attachmentsCount" : 0,
    "shouldDisplayMessage" : false,
    "hasContent" : true
  }, {
    "name" : "prepare_json_rpc_requester",
    "time" : {
      "start" : 1646727962090,
      "stop" : 1646727962090,
      "duration" : 0
    },
    "status" : "passed",
    "steps" : [ ],
    "attachments" : [ ],
    "parameters" : [ ],
    "stepsCount" : 0,
    "attachmentsCount" : 0,
    "shouldDisplayMessage" : false,
    "hasContent" : false
  }, {
    "name" : "prepare",
    "time" : {
      "start" : 1646727962090,
      "stop" : 1646727962090,
      "duration" : 0
    },
    "status" : "passed",
    "steps" : [ ],
    "attachments" : [ ],
    "parameters" : [ ],
    "stepsCount" : 0,
    "attachmentsCount" : 0,
    "shouldDisplayMessage" : false,
    "hasContent" : false
  }, {
    "name" : "prepare_account",
    "time" : {
      "start" : 1646727962090,
      "stop" : 1646727962090,
      "duration" : 0
    },
    "status" : "passed",
    "steps" : [ ],
    "attachments" : [ ],
    "parameters" : [ ],
    "stepsCount" : 0,
    "attachmentsCount" : 0,
    "shouldDisplayMessage" : false,
    "hasContent" : false
  } ],
  "testStage" : {
    "description" : "Verify implemented rpc calls work eth_sendRawTransaction",
    "status" : "broken",
    "statusMessage" : "TypeError: Object of type HexBytes is not JSON serializable",
    "statusTrace" : "self = <integration.tests.basic.test_transactions.TestRpcCallsTransactions object at 0x7f6f5b0026a0>\n\n    @allure.step(\n        \"test: verify implemented rpc calls work eth_sendRawTransaction\")\n    def test_rpc_call_eth_sendRawTransaction(self):\n        \"\"\"Verify implemented rpc calls work eth_sendRawTransaction\"\"\"\n        sender_account = self.create_account_with_balance(GREAT_AMOUNT)\n        recipient_account = self.create_account_with_balance(\n            FIRST_FAUCET_REQUEST_AMOUNT)\n    \n        # TODO: chain id\n        transaction = {\n            \"from\":\n            sender_account.address,\n            \"to\":\n            recipient_account.address,\n            \"value\":\n            self.web3_client.toWei(SAMPLE_AMOUNT, \"ether\"),\n            \"chainId\":\n            111,\n            \"gasPrice\":\n            self.web3_client.gas_price(),\n            \"gas\":\n            0,\n            \"nonce\":\n            self.web3_client.eth.get_transaction_count(sender_account.address),\n        }\n        transaction[\"gas\"] = self.web3_client.eth.estimate_gas(transaction)\n    \n        #\n        print(transaction)\n        print(sender_account.key)\n        #\n    \n        signed_tx = self.web3_client.eth.account.sign_transaction(\n            transaction, sender_account.key)\n        params = [signed_tx.rawTransaction]\n    \n        #\n        print(signed_tx)\n        #\n    \n        model = RpcRequestFactory.get_send_raw_trx(params=params)\n>       response = self.jsonrpc_requester.request_json_rpc(model)\n\nintegration/tests/basic/test_transactions.py:96: \n_ _ _ _ _ _ _ _ _ _ _ _ _ _ _ _ _ _ _ _ _ _ _ _ _ _ _ _ _ _ _ _ _ _ _ _ _ _ _ _ \nintegration/tests/basic/helpers/json_rpc_requester.py:20: in request_json_rpc\n    return self._session.post(self._url, json=dataclasses.asdict(data))\n/opt/hostedtoolcache/Python/3.9.10/x64/lib/python3.9/site-packages/requests/sessions.py:577: in post\n    return self.request('POST', url, data=data, json=json, **kwargs)\n/opt/hostedtoolcache/Python/3.9.10/x64/lib/python3.9/site-packages/requests/sessions.py:515: in request\n    prep = self.prepare_request(req)\n/opt/hostedtoolcache/Python/3.9.10/x64/lib/python3.9/site-packages/requests/sessions.py:443: in prepare_request\n    p.prepare(\n/opt/hostedtoolcache/Python/3.9.10/x64/lib/python3.9/site-packages/requests/models.py:321: in prepare\n    self.prepare_body(data, files, json)\n/opt/hostedtoolcache/Python/3.9.10/x64/lib/python3.9/site-packages/requests/models.py:473: in prepare_body\n    body = complexjson.dumps(json, allow_nan=False)\n/opt/hostedtoolcache/Python/3.9.10/x64/lib/python3.9/json/__init__.py:234: in dumps\n    return cls(\n/opt/hostedtoolcache/Python/3.9.10/x64/lib/python3.9/json/encoder.py:199: in encode\n    chunks = self.iterencode(o, _one_shot=True)\n/opt/hostedtoolcache/Python/3.9.10/x64/lib/python3.9/json/encoder.py:257: in iterencode\n    return _iterencode(o, 0)\n_ _ _ _ _ _ _ _ _ _ _ _ _ _ _ _ _ _ _ _ _ _ _ _ _ _ _ _ _ _ _ _ _ _ _ _ _ _ _ _ \n\nself = <json.encoder.JSONEncoder object at 0x7f6f5b002190>\no = HexBytes('0xf86e80855eb84c6460823a98946452ba8777cda70328026bdc2d982d43edd970c3884563918244f4000080820102a0ca6ed3b5e79993fa1f0cda48d3610668df0ce496efb8b24fe2ffe970da669674a03b76d7046390f262915e8705f54dc855781faa54a820bf0253eec94a813c0f21')\n\n    def default(self, o):\n        \"\"\"Implement this method in a subclass such that it returns\n        a serializable object for ``o``, or calls the base implementation\n        (to raise a ``TypeError``).\n    \n        For example, to support arbitrary iterators, you could\n        implement default like this::\n    \n            def default(self, o):\n                try:\n                    iterable = iter(o)\n                except TypeError:\n                    pass\n                else:\n                    return list(iterable)\n                # Let the base class default method raise the TypeError\n                return JSONEncoder.default(self, o)\n    \n        \"\"\"\n>       raise TypeError(f'Object of type {o.__class__.__name__} '\n                        f'is not JSON serializable')\nE       TypeError: Object of type HexBytes is not JSON serializable\n\n/opt/hostedtoolcache/Python/3.9.10/x64/lib/python3.9/json/encoder.py:179: TypeError",
    "steps" : [ {
      "name" : "test: verify implemented rpc calls work eth_sendRawTransaction",
      "time" : {
        "start" : 1646727962091,
        "stop" : 1646727963825,
        "duration" : 1734
      },
      "status" : "broken",
      "statusMessage" : "TypeError: Object of type HexBytes is not JSON serializable\n",
      "statusTrace" : "  File \"/opt/hostedtoolcache/Python/3.9.10/x64/lib/python3.9/site-packages/allure_commons/_allure.py\", line 172, in impl\n    return func(*a, **kw)\n  File \"/home/runner/work/neon-tests/neon-tests/integration/tests/basic/test_transactions.py\", line 96, in test_rpc_call_eth_sendRawTransaction\n    response = self.jsonrpc_requester.request_json_rpc(model)\n  File \"/opt/hostedtoolcache/Python/3.9.10/x64/lib/python3.9/site-packages/allure_commons/_allure.py\", line 172, in impl\n    return func(*a, **kw)\n  File \"/home/runner/work/neon-tests/neon-tests/integration/tests/basic/helpers/json_rpc_requester.py\", line 20, in request_json_rpc\n    return self._session.post(self._url, json=dataclasses.asdict(data))\n  File \"/opt/hostedtoolcache/Python/3.9.10/x64/lib/python3.9/site-packages/requests/sessions.py\", line 577, in post\n    return self.request('POST', url, data=data, json=json, **kwargs)\n  File \"/opt/hostedtoolcache/Python/3.9.10/x64/lib/python3.9/site-packages/requests/sessions.py\", line 515, in request\n    prep = self.prepare_request(req)\n  File \"/opt/hostedtoolcache/Python/3.9.10/x64/lib/python3.9/site-packages/requests/sessions.py\", line 443, in prepare_request\n    p.prepare(\n  File \"/opt/hostedtoolcache/Python/3.9.10/x64/lib/python3.9/site-packages/requests/models.py\", line 321, in prepare\n    self.prepare_body(data, files, json)\n  File \"/opt/hostedtoolcache/Python/3.9.10/x64/lib/python3.9/site-packages/requests/models.py\", line 473, in prepare_body\n    body = complexjson.dumps(json, allow_nan=False)\n  File \"/opt/hostedtoolcache/Python/3.9.10/x64/lib/python3.9/json/__init__.py\", line 234, in dumps\n    return cls(\n  File \"/opt/hostedtoolcache/Python/3.9.10/x64/lib/python3.9/json/encoder.py\", line 199, in encode\n    chunks = self.iterencode(o, _one_shot=True)\n  File \"/opt/hostedtoolcache/Python/3.9.10/x64/lib/python3.9/json/encoder.py\", line 257, in iterencode\n    return _iterencode(o, 0)\n  File \"/opt/hostedtoolcache/Python/3.9.10/x64/lib/python3.9/json/encoder.py\", line 179, in default\n    raise TypeError(f'Object of type {o.__class__.__name__} '\n",
      "steps" : [ {
        "name" : "creating a new account with balance",
        "time" : {
          "start" : 1646727962091,
          "stop" : 1646727962697,
          "duration" : 606
        },
        "status" : "passed",
        "steps" : [ {
          "name" : "creating a new account",
          "time" : {
            "start" : 1646727962091,
            "stop" : 1646727962095,
            "duration" : 4
          },
          "status" : "passed",
          "steps" : [ ],
          "attachments" : [ ],
          "parameters" : [ ],
          "stepsCount" : 0,
          "attachmentsCount" : 0,
          "shouldDisplayMessage" : false,
          "hasContent" : false
        }, {
          "name" : "requesting faucet for Neon",
          "time" : {
            "start" : 1646727962095,
            "stop" : 1646727962697,
            "duration" : 602
          },
          "status" : "passed",
          "steps" : [ ],
          "attachments" : [ ],
          "parameters" : [ {
            "name" : "wallet",
            "value" : "'0xb652683C09147f87Cb0a246b1e7fb2c117a28Ed3'"
          }, {
            "name" : "amount",
            "value" : "1000"
          } ],
          "stepsCount" : 0,
          "attachmentsCount" : 0,
          "shouldDisplayMessage" : false,
          "hasContent" : true
        } ],
        "attachments" : [ ],
        "parameters" : [ {
          "name" : "amount",
          "value" : "1000"
        } ],
        "stepsCount" : 2,
        "attachmentsCount" : 0,
        "shouldDisplayMessage" : false,
        "hasContent" : true
      }, {
        "name" : "creating a new account with balance",
        "time" : {
          "start" : 1646727962698,
          "stop" : 1646727963306,
          "duration" : 608
        },
        "status" : "passed",
        "steps" : [ {
          "name" : "creating a new account",
          "time" : {
            "start" : 1646727962698,
            "stop" : 1646727962702,
            "duration" : 4
          },
          "status" : "passed",
          "steps" : [ ],
          "attachments" : [ ],
          "parameters" : [ ],
          "stepsCount" : 0,
          "attachmentsCount" : 0,
          "shouldDisplayMessage" : false,
          "hasContent" : false
        }, {
          "name" : "requesting faucet for Neon",
          "time" : {
            "start" : 1646727962702,
            "stop" : 1646727963306,
            "duration" : 604
          },
          "status" : "passed",
          "steps" : [ ],
          "attachments" : [ ],
          "parameters" : [ {
            "name" : "wallet",
            "value" : "'0x6452Ba8777CDA70328026bDC2D982d43Edd970c3'"
          }, {
            "name" : "amount",
            "value" : "5"
          } ],
          "stepsCount" : 0,
          "attachmentsCount" : 0,
          "shouldDisplayMessage" : false,
          "hasContent" : true
        } ],
        "attachments" : [ ],
        "parameters" : [ {
          "name" : "amount",
          "value" : "5"
        } ],
        "stepsCount" : 2,
        "attachmentsCount" : 0,
        "shouldDisplayMessage" : false,
        "hasContent" : true
      }, {
        "name" : "the model built",
        "time" : {
          "start" : 1646727963815,
          "stop" : 1646727963815,
          "duration" : 0
        },
        "status" : "passed",
        "steps" : [ ],
        "attachments" : [ ],
        "parameters" : [ ],
        "stepsCount" : 0,
        "attachmentsCount" : 0,
        "shouldDisplayMessage" : false,
        "hasContent" : false
      }, {
        "name" : "requesting Json-RPC",
        "time" : {
          "start" : 1646727963815,
          "stop" : 1646727963825,
          "duration" : 10
        },
        "status" : "broken",
        "statusMessage" : "TypeError: Object of type HexBytes is not JSON serializable\n",
        "statusTrace" : "  File \"/opt/hostedtoolcache/Python/3.9.10/x64/lib/python3.9/site-packages/allure_commons/_allure.py\", line 172, in impl\n    return func(*a, **kw)\n  File \"/home/runner/work/neon-tests/neon-tests/integration/tests/basic/helpers/json_rpc_requester.py\", line 20, in request_json_rpc\n    return self._session.post(self._url, json=dataclasses.asdict(data))\n  File \"/opt/hostedtoolcache/Python/3.9.10/x64/lib/python3.9/site-packages/requests/sessions.py\", line 577, in post\n    return self.request('POST', url, data=data, json=json, **kwargs)\n  File \"/opt/hostedtoolcache/Python/3.9.10/x64/lib/python3.9/site-packages/requests/sessions.py\", line 515, in request\n    prep = self.prepare_request(req)\n  File \"/opt/hostedtoolcache/Python/3.9.10/x64/lib/python3.9/site-packages/requests/sessions.py\", line 443, in prepare_request\n    p.prepare(\n  File \"/opt/hostedtoolcache/Python/3.9.10/x64/lib/python3.9/site-packages/requests/models.py\", line 321, in prepare\n    self.prepare_body(data, files, json)\n  File \"/opt/hostedtoolcache/Python/3.9.10/x64/lib/python3.9/site-packages/requests/models.py\", line 473, in prepare_body\n    body = complexjson.dumps(json, allow_nan=False)\n  File \"/opt/hostedtoolcache/Python/3.9.10/x64/lib/python3.9/json/__init__.py\", line 234, in dumps\n    return cls(\n  File \"/opt/hostedtoolcache/Python/3.9.10/x64/lib/python3.9/json/encoder.py\", line 199, in encode\n    chunks = self.iterencode(o, _one_shot=True)\n  File \"/opt/hostedtoolcache/Python/3.9.10/x64/lib/python3.9/json/encoder.py\", line 257, in iterencode\n    return _iterencode(o, 0)\n  File \"/opt/hostedtoolcache/Python/3.9.10/x64/lib/python3.9/json/encoder.py\", line 179, in default\n    raise TypeError(f'Object of type {o.__class__.__name__} '\n",
        "steps" : [ {
          "name" : "getting response",
          "time" : {
            "start" : 1646727963815,
            "stop" : 1646727963815,
            "duration" : 0
          },
          "status" : "broken",
          "statusMessage" : "TypeError: Object of type HexBytes is not JSON serializable\n",
          "statusTrace" : "  File \"/home/runner/work/neon-tests/neon-tests/integration/tests/basic/helpers/json_rpc_requester.py\", line 20, in request_json_rpc\n    return self._session.post(self._url, json=dataclasses.asdict(data))\n  File \"/opt/hostedtoolcache/Python/3.9.10/x64/lib/python3.9/site-packages/requests/sessions.py\", line 577, in post\n    return self.request('POST', url, data=data, json=json, **kwargs)\n  File \"/opt/hostedtoolcache/Python/3.9.10/x64/lib/python3.9/site-packages/requests/sessions.py\", line 515, in request\n    prep = self.prepare_request(req)\n  File \"/opt/hostedtoolcache/Python/3.9.10/x64/lib/python3.9/site-packages/requests/sessions.py\", line 443, in prepare_request\n    p.prepare(\n  File \"/opt/hostedtoolcache/Python/3.9.10/x64/lib/python3.9/site-packages/requests/models.py\", line 321, in prepare\n    self.prepare_body(data, files, json)\n  File \"/opt/hostedtoolcache/Python/3.9.10/x64/lib/python3.9/site-packages/requests/models.py\", line 473, in prepare_body\n    body = complexjson.dumps(json, allow_nan=False)\n  File \"/opt/hostedtoolcache/Python/3.9.10/x64/lib/python3.9/json/__init__.py\", line 234, in dumps\n    return cls(\n  File \"/opt/hostedtoolcache/Python/3.9.10/x64/lib/python3.9/json/encoder.py\", line 199, in encode\n    chunks = self.iterencode(o, _one_shot=True)\n  File \"/opt/hostedtoolcache/Python/3.9.10/x64/lib/python3.9/json/encoder.py\", line 257, in iterencode\n    return _iterencode(o, 0)\n  File \"/opt/hostedtoolcache/Python/3.9.10/x64/lib/python3.9/json/encoder.py\", line 179, in default\n    raise TypeError(f'Object of type {o.__class__.__name__} '\n",
          "steps" : [ ],
          "attachments" : [ ],
          "parameters" : [ ],
          "stepsCount" : 0,
          "attachmentsCount" : 0,
          "shouldDisplayMessage" : true,
          "hasContent" : true
        } ],
        "attachments" : [ ],
        "parameters" : [ {
          "name" : "data",
          "value" : "JsonRpcRequest(id=92, method='eth_sendRawTransaction', params=[HexBytes('0xf86e80855eb84c6460823a98946452ba8777cda70328026bdc2d982d43edd970c3884563918244f4000080820102a0ca6ed3b5e79993fa1f0cda48d3610668df0ce496efb8b24fe2ffe970da669674a03b76d7046390f262915e8705f54dc855781faa54a820bf0253eec94a813c0f21')], jsonrpc='2.0')"
        } ],
        "stepsCount" : 1,
        "attachmentsCount" : 0,
        "shouldDisplayMessage" : false,
        "hasContent" : true
      } ],
      "attachments" : [ ],
      "parameters" : [ ],
      "stepsCount" : 9,
      "attachmentsCount" : 0,
      "shouldDisplayMessage" : false,
      "hasContent" : true
    } ],
    "attachments" : [ {
      "uid" : "165856e8f94a2a9f",
      "name" : "stdout",
      "source" : "165856e8f94a2a9f.txt",
      "type" : "text/plain",
      "size" : 838
    } ],
    "parameters" : [ ],
    "stepsCount" : 10,
    "attachmentsCount" : 1,
    "shouldDisplayMessage" : true,
    "hasContent" : true
  },
  "afterStages" : [ {
    "name" : "prepare_account::0",
    "time" : {
      "start" : 1646727963879,
      "stop" : 1646727966945,
      "duration" : 3066
    },
    "status" : "passed",
    "steps" : [ {
      "name" : "Operator end balance: 0.0024696890094044419702 NEON 74070785.06073496 SOL",
      "time" : {
        "start" : 1646727966848,
        "stop" : 1646727966848,
        "duration" : 0
      },
      "status" : "passed",
      "steps" : [ ],
      "attachments" : [ ],
      "parameters" : [ ],
      "stepsCount" : 0,
      "attachmentsCount" : 0,
      "shouldDisplayMessage" : false,
      "hasContent" : false
    }, {
      "name" : "Account end balance: 1000 NEON",
      "time" : {
        "start" : 1646727966945,
        "stop" : 1646727966945,
        "duration" : 0
      },
      "status" : "passed",
      "steps" : [ ],
      "attachments" : [ ],
      "parameters" : [ ],
      "stepsCount" : 0,
      "attachmentsCount" : 0,
      "shouldDisplayMessage" : false,
      "hasContent" : false
    } ],
    "attachments" : [ ],
    "parameters" : [ ],
    "stepsCount" : 2,
    "attachmentsCount" : 0,
    "shouldDisplayMessage" : false,
    "hasContent" : true
  }, {
    "name" : "allure_environment::0",
    "time" : {
      "start" : 1646727999378,
      "stop" : 1646727999378,
      "duration" : 0
    },
    "status" : "passed",
    "steps" : [ ],
    "attachments" : [ ],
    "parameters" : [ ],
    "stepsCount" : 0,
    "attachmentsCount" : 0,
    "shouldDisplayMessage" : false,
    "hasContent" : false
  } ],
  "labels" : [ {
    "name" : "story",
    "value" : "Basic: Json-RPC call tests - transactions"
  }, {
    "name" : "parentSuite",
    "value" : "integration.tests.basic"
  }, {
    "name" : "suite",
    "value" : "test_transactions"
  }, {
    "name" : "subSuite",
    "value" : "TestRpcCallsTransactions"
  }, {
    "name" : "host",
    "value" : "fv-az190-350"
  }, {
    "name" : "thread",
    "value" : "1730-MainThread"
  }, {
    "name" : "framework",
    "value" : "pytest"
  }, {
    "name" : "language",
    "value" : "cpython3"
  }, {
    "name" : "package",
    "value" : "integration.tests.basic.test_transactions"
  }, {
    "name" : "resultFormat",
    "value" : "allure2"
  } ],
  "parameters" : [ ],
  "links" : [ ],
  "hidden" : false,
  "retry" : false,
  "extra" : {
    "severity" : "normal",
    "retries" : [ ],
    "categories" : [ {
      "name" : "Test defects",
      "matchedStatuses" : [ ],
      "flaky" : false
    } ],
    "history" : {
      "statistic" : {
        "failed" : 1,
        "broken" : 1,
        "skipped" : 0,
        "passed" : 0,
        "unknown" : 0,
        "total" : 2
      },
      "items" : [ {
        "uid" : "f9714ed2036dc5f6",
        "reportUrl" : "https://apetrovskiy.github.io/neon-tests/release-stand/feature/254i/349//#testresult/f9714ed2036dc5f6",
        "status" : "failed",
        "statusDetails" : "AssertionError: The response type is error response\nassert False\n +  where False = isinstance(JsonRpcErrorResponse(id=7, error={'code': -32000, 'message': 'non-hexadecimal number found in fromhex() arg at position 0'}, jsonrpc='2.0'), JsonRpcResponse)",
        "time" : {
          "start" : 1646726081557,
          "stop" : 1646726083631,
          "duration" : 2074
        }
      } ]
    },
    "tags" : [ ]
  },
  "source" : "5a7fdbcbf990867b.json",
  "parameterValues" : [ ]
}