{'from': '0x4296F9F2fE595343a4E3c179cD11F264f4b6ffd1', 'to': '0xe73616eBc3805D51aD03AEb0d9436F0D4a748bAa', 'value': 5000000000000000000, 'chainId': 111, 'gasPrice': 400442240000, 'gas': 15000, 'nonce': 0}
b'\x9d\xba\x9eZ\x94\xdf\xdd\xc3\xf2PsNF\x02\x0f\x83s\x1e8\xb0\xa9a#YZ\xe5\xfbv\xd6\xaa\r\x1b'
SignedTransaction(rawTransaction=HexBytes('0xf86e80855d3c37ac00823a9894e73616ebc3805d51ad03aeb0d9436f0d4a748baa884563918244f4000080820102a0d72d9e81cac8c9d092363c1d2b054f81014c499d6cff52e4391b7ce704fbd588a0506661217d5edfb6aa4493b2c52d3f33ab1f346a9b8f8a91402d7c8d72ba7639'), hash=HexBytes('0xd24a44885090821ca641ff214262937f2b11cc594343df1e1f73e3d2110f6cf8'), r=97327864538428896215290664311664465969292073431655785458602909716074056111496, s=36365916659545650281599962067765113172651311292704604406123949868370515097145, v=258)
