{'from': '0xb652683C09147f87Cb0a246b1e7fb2c117a28Ed3', 'to': '0x6452Ba8777CDA70328026bDC2D982d43Edd970c3', 'value': 5000000000000000000, 'chainId': 111, 'gasPrice': 406818940000, 'gas': 15000, 'nonce': 0}
b'\xda\xc2\xc3\xb9+\x11\x85c\xce\xc8\x12c\x80}\x15\xad\x1f\xbeh\xfe\x02\xdf\xef\xf79\xdeG\xe2+\xa9\x0c\r'
SignedTransaction(rawTransaction=HexBytes('0xf86e80855eb84c6460823a98946452ba8777cda70328026bdc2d982d43edd970c3884563918244f4000080820102a0ca6ed3b5e79993fa1f0cda48d3610668df0ce496efb8b24fe2ffe970da669674a03b76d7046390f262915e8705f54dc855781faa54a820bf0253eec94a813c0f21'), hash=HexBytes('0x3ec1a6f65d0b5fb8c2f2d0b1babc63f182c64a3ed00e32677262d4a92c984ab7'), r=91563009763565270005574129658131767248203340346516639097743428242812514506356, s=26896430013846457441711661435955996137332481973970599446755560974749292826401, v=258)
