{'from': '0x976A08efF61E928ee8BfF4cd7ad9d42b3BB4d082', 'to': '0x3e446fD172C5E734dA6e621f74CA5CB8B9F086F3', 'value': 5000000000000000000, 'chainId': 111, 'gasPrice': 401405400000, 'gas': 15000, 'nonce': 0}
b'}\xabr\xf8\x17\x99\x0b\xda\xc9\x9b2\xd0\xf1\x98\xf1\x94\xb42~\x99]\r\xdd=Sp\xe0$|1*\x12'
SignedTransaction(rawTransaction=HexBytes('0xf86e80855d75a053c0823a98943e446fd172c5e734da6e621f74ca5cb8b9f086f3884563918244f4000080820101a0f621628f54a68dcf42d483da88da1971bb0c650d58199d16542c3b16672c3673a04cae21d5b11a63e46e9b3a14804065277ae06d4d9ad92e84797fcf02af89527d'), hash=HexBytes('0x2e5fa9933f4108f9665e577db9da48c968d255c6bfe6448dc63f547c957da70a'), r=111327946939950325919057255133192933086133107671210445273774242016137090709107, s=34683441400348900507126238676421783554242197882742433803378311836598557823613, v=257)
