{
  "uid" : "f9714ed2036dc5f6",
  "name" : "test_rpc_call_eth_sendRawTransaction",
  "fullName" : "integration.tests.basic.test_transactions.TestRpcCallsTransactions#test_rpc_call_eth_sendRawTransaction",
  "historyId" : "f2266f2fcf46a3382764047e40d95c33",
  "time" : {
    "start" : 1646726081557,
    "stop" : 1646726083631,
    "duration" : 2074
  },
  "description" : "Verify implemented rpc calls work eth_sendRawTransaction",
  "descriptionHtml" : "<p>Verify implemented rpc calls work eth_sendRawTransaction</p>\n",
  "status" : "failed",
  "statusMessage" : "AssertionError: The response type is error response\nassert False\n +  where False = isinstance(JsonRpcErrorResponse(id=7, error={'code': -32000, 'message': 'non-hexadecimal number found in fromhex() arg at position 0'}, jsonrpc='2.0'), JsonRpcResponse)",
  "statusTrace" : "self = <integration.tests.basic.test_transactions.TestRpcCallsTransactions object at 0x7fae73e616d0>\n\n    @allure.step(\n        \"test: verify implemented rpc calls work eth_sendRawTransaction\")\n    def test_rpc_call_eth_sendRawTransaction(self):\n        \"\"\"Verify implemented rpc calls work eth_sendRawTransaction\"\"\"\n        sender_account = self.create_account_with_balance(GREAT_AMOUNT)\n        recipient_account = self.create_account_with_balance(\n            FIRST_FAUCET_REQUEST_AMOUNT)\n    \n        # TODO: chain id\n        transaction = {\n            \"from\":\n            sender_account.address,\n            \"to\":\n            recipient_account.address,\n            \"value\":\n            self.web3_client.toWei(SAMPLE_AMOUNT, \"ether\"),\n            \"chainId\":\n            111,\n            \"gasPrice\":\n            self.web3_client.gas_price(),\n            \"gas\":\n            0,\n            \"nonce\":\n            self.web3_client.eth.get_transaction_count(sender_account.address),\n        }\n        transaction[\"gas\"] = self.web3_client.eth.estimate_gas(transaction)\n    \n        #\n        print(transaction)\n        print(sender_account.key)\n        #\n    \n        signed_tx = self.web3_client.eth.account.sign_transaction(\n            transaction, sender_account.key)\n        params = [str(signed_tx)]\n    \n        #\n        print(signed_tx)\n        #\n    \n        model = RpcRequestFactory.get_send_raw_trx(params=params)\n        response = self.jsonrpc_requester.request_json_rpc(model)\n        actual_result = self.jsonrpc_requester.deserialize_response(response)\n    \n        assert actual_result.id == model.id, AssertMessage.WRONG_ID.value\n>       assert isinstance(actual_result,\n                          JsonRpcResponse), AssertMessage.WRONG_TYPE.value\nE       AssertionError: The response type is error response\nE       assert False\nE        +  where False = isinstance(JsonRpcErrorResponse(id=7, error={'code': -32000, 'message': 'non-hexadecimal number found in fromhex() arg at position 0'}, jsonrpc='2.0'), JsonRpcResponse)\n\nintegration/tests/basic/test_transactions.py:100: AssertionError",
  "flaky" : false,
  "newFailed" : false,
  "newBroken" : false,
  "newPassed" : false,
  "retriesCount" : 0,
  "retriesStatusChange" : false,
  "beforeStages" : [ {
    "name" : "pytestconfig",
    "time" : {
      "start" : 1646726014208,
      "stop" : 1646726014208,
      "duration" : 0
    },
    "status" : "passed",
    "steps" : [ ],
    "attachments" : [ ],
    "parameters" : [ ],
    "stepsCount" : 0,
    "attachmentsCount" : 0,
    "shouldDisplayMessage" : false,
    "hasContent" : false
  }, {
    "name" : "web3_client",
    "time" : {
      "start" : 1646726014208,
      "stop" : 1646726014209,
      "duration" : 1
    },
    "status" : "passed",
    "steps" : [ ],
    "attachments" : [ ],
    "parameters" : [ ],
    "stepsCount" : 0,
    "attachmentsCount" : 0,
    "shouldDisplayMessage" : false,
    "hasContent" : false
  }, {
    "name" : "allure_environment",
    "time" : {
      "start" : 1646726014209,
      "stop" : 1646726015216,
      "duration" : 1007
    },
    "status" : "passed",
    "steps" : [ ],
    "attachments" : [ ],
    "parameters" : [ ],
    "stepsCount" : 0,
    "attachmentsCount" : 0,
    "shouldDisplayMessage" : false,
    "hasContent" : false
  }, {
    "name" : "jsonrpc_requester",
    "time" : {
      "start" : 1646726015216,
      "stop" : 1646726015217,
      "duration" : 1
    },
    "status" : "passed",
    "steps" : [ ],
    "attachments" : [ ],
    "parameters" : [ ],
    "stepsCount" : 0,
    "attachmentsCount" : 0,
    "shouldDisplayMessage" : false,
    "hasContent" : false
  }, {
    "name" : "faucet",
    "time" : {
      "start" : 1646726015216,
      "stop" : 1646726015216,
      "duration" : 0
    },
    "status" : "passed",
    "steps" : [ ],
    "attachments" : [ ],
    "parameters" : [ ],
    "stepsCount" : 0,
    "attachmentsCount" : 0,
    "shouldDisplayMessage" : false,
    "hasContent" : false
  }, {
    "name" : "operator",
    "time" : {
      "start" : 1646726015217,
      "stop" : 1646726015217,
      "duration" : 0
    },
    "status" : "passed",
    "steps" : [ ],
    "attachments" : [ ],
    "parameters" : [ ],
    "stepsCount" : 0,
    "attachmentsCount" : 0,
    "shouldDisplayMessage" : false,
    "hasContent" : false
  }, {
    "name" : "sol_client",
    "time" : {
      "start" : 1646726015217,
      "stop" : 1646726015217,
      "duration" : 0
    },
    "status" : "passed",
    "steps" : [ ],
    "attachments" : [ ],
    "parameters" : [ ],
    "stepsCount" : 0,
    "attachmentsCount" : 0,
    "shouldDisplayMessage" : false,
    "hasContent" : false
  }, {
    "name" : "prepare_account",
    "time" : {
      "start" : 1646726073967,
      "stop" : 1646726078733,
      "duration" : 4766
    },
    "status" : "passed",
    "steps" : [ {
      "name" : "Create account for tests",
      "time" : {
        "start" : 1646726073967,
        "stop" : 1646726073971,
        "duration" : 4
      },
      "status" : "passed",
      "steps" : [ ],
      "attachments" : [ ],
      "parameters" : [ ],
      "stepsCount" : 0,
      "attachmentsCount" : 0,
      "shouldDisplayMessage" : false,
      "hasContent" : false
    }, {
      "name" : "Request 1000 NEON from faucet for 0x7A1dC39B77eA18d6836d8E145208a6013486513D",
      "time" : {
        "start" : 1646726073971,
        "stop" : 1646726074739,
        "duration" : 768
      },
      "status" : "passed",
      "steps" : [ ],
      "attachments" : [ ],
      "parameters" : [ ],
      "stepsCount" : 0,
      "attachmentsCount" : 0,
      "shouldDisplayMessage" : false,
      "hasContent" : false
    }, {
      "name" : "Operator initial balance: 0.002446364692292945303 NEON 74070842.40630823 SOL",
      "time" : {
        "start" : 1646726078733,
        "stop" : 1646726078733,
        "duration" : 0
      },
      "status" : "passed",
      "steps" : [ ],
      "attachments" : [ ],
      "parameters" : [ ],
      "stepsCount" : 0,
      "attachmentsCount" : 0,
      "shouldDisplayMessage" : false,
      "hasContent" : false
    } ],
    "attachments" : [ ],
    "parameters" : [ ],
    "stepsCount" : 3,
    "attachmentsCount" : 0,
    "shouldDisplayMessage" : false,
    "hasContent" : true
  }, {
    "name" : "prepare",
    "time" : {
      "start" : 1646726081556,
      "stop" : 1646726081557,
      "duration" : 1
    },
    "status" : "passed",
    "steps" : [ ],
    "attachments" : [ ],
    "parameters" : [ ],
    "stepsCount" : 0,
    "attachmentsCount" : 0,
    "shouldDisplayMessage" : false,
    "hasContent" : false
  }, {
    "name" : "prepare_json_rpc_requester",
    "time" : {
      "start" : 1646726081557,
      "stop" : 1646726081557,
      "duration" : 0
    },
    "status" : "passed",
    "steps" : [ ],
    "attachments" : [ ],
    "parameters" : [ ],
    "stepsCount" : 0,
    "attachmentsCount" : 0,
    "shouldDisplayMessage" : false,
    "hasContent" : false
  }, {
    "name" : "prepare_account",
    "time" : {
      "start" : 1646726081557,
      "stop" : 1646726081557,
      "duration" : 0
    },
    "status" : "passed",
    "steps" : [ ],
    "attachments" : [ ],
    "parameters" : [ ],
    "stepsCount" : 0,
    "attachmentsCount" : 0,
    "shouldDisplayMessage" : false,
    "hasContent" : false
  } ],
  "testStage" : {
    "description" : "Verify implemented rpc calls work eth_sendRawTransaction",
    "status" : "failed",
    "statusMessage" : "AssertionError: The response type is error response\nassert False\n +  where False = isinstance(JsonRpcErrorResponse(id=7, error={'code': -32000, 'message': 'non-hexadecimal number found in fromhex() arg at position 0'}, jsonrpc='2.0'), JsonRpcResponse)",
    "statusTrace" : "self = <integration.tests.basic.test_transactions.TestRpcCallsTransactions object at 0x7fae73e616d0>\n\n    @allure.step(\n        \"test: verify implemented rpc calls work eth_sendRawTransaction\")\n    def test_rpc_call_eth_sendRawTransaction(self):\n        \"\"\"Verify implemented rpc calls work eth_sendRawTransaction\"\"\"\n        sender_account = self.create_account_with_balance(GREAT_AMOUNT)\n        recipient_account = self.create_account_with_balance(\n            FIRST_FAUCET_REQUEST_AMOUNT)\n    \n        # TODO: chain id\n        transaction = {\n            \"from\":\n            sender_account.address,\n            \"to\":\n            recipient_account.address,\n            \"value\":\n            self.web3_client.toWei(SAMPLE_AMOUNT, \"ether\"),\n            \"chainId\":\n            111,\n            \"gasPrice\":\n            self.web3_client.gas_price(),\n            \"gas\":\n            0,\n            \"nonce\":\n            self.web3_client.eth.get_transaction_count(sender_account.address),\n        }\n        transaction[\"gas\"] = self.web3_client.eth.estimate_gas(transaction)\n    \n        #\n        print(transaction)\n        print(sender_account.key)\n        #\n    \n        signed_tx = self.web3_client.eth.account.sign_transaction(\n            transaction, sender_account.key)\n        params = [str(signed_tx)]\n    \n        #\n        print(signed_tx)\n        #\n    \n        model = RpcRequestFactory.get_send_raw_trx(params=params)\n        response = self.jsonrpc_requester.request_json_rpc(model)\n        actual_result = self.jsonrpc_requester.deserialize_response(response)\n    \n        assert actual_result.id == model.id, AssertMessage.WRONG_ID.value\n>       assert isinstance(actual_result,\n                          JsonRpcResponse), AssertMessage.WRONG_TYPE.value\nE       AssertionError: The response type is error response\nE       assert False\nE        +  where False = isinstance(JsonRpcErrorResponse(id=7, error={'code': -32000, 'message': 'non-hexadecimal number found in fromhex() arg at position 0'}, jsonrpc='2.0'), JsonRpcResponse)\n\nintegration/tests/basic/test_transactions.py:100: AssertionError",
    "steps" : [ {
      "name" : "test: verify implemented rpc calls work eth_sendRawTransaction",
      "time" : {
        "start" : 1646726081557,
        "stop" : 1646726083630,
        "duration" : 2073
      },
      "status" : "failed",
      "statusMessage" : "AssertionError: The response type is error response\nassert False\n +  where False = isinstance(JsonRpcErrorResponse(id=7, error={'code': -32000, 'message': 'non-hexadecimal number found in fromhex() arg at position 0'}, jsonrpc='2.0'), JsonRpcResponse)\n",
      "statusTrace" : "  File \"/opt/hostedtoolcache/Python/3.9.10/x64/lib/python3.9/site-packages/allure_commons/_allure.py\", line 172, in impl\n    return func(*a, **kw)\n  File \"/home/runner/work/neon-tests/neon-tests/integration/tests/basic/test_transactions.py\", line 100, in test_rpc_call_eth_sendRawTransaction\n    assert isinstance(actual_result,\n",
      "steps" : [ {
        "name" : "creating a new account with balance",
        "time" : {
          "start" : 1646726081557,
          "stop" : 1646726082196,
          "duration" : 639
        },
        "status" : "passed",
        "steps" : [ {
          "name" : "creating a new account",
          "time" : {
            "start" : 1646726081558,
            "stop" : 1646726081562,
            "duration" : 4
          },
          "status" : "passed",
          "steps" : [ ],
          "attachments" : [ ],
          "parameters" : [ ],
          "stepsCount" : 0,
          "attachmentsCount" : 0,
          "shouldDisplayMessage" : false,
          "hasContent" : false
        }, {
          "name" : "requesting faucet for Neon",
          "time" : {
            "start" : 1646726081562,
            "stop" : 1646726082196,
            "duration" : 634
          },
          "status" : "passed",
          "steps" : [ ],
          "attachments" : [ ],
          "parameters" : [ {
            "name" : "wallet",
            "value" : "'0xc9caee0951E1969DEaAD5C2f7a0532368D1a9712'"
          }, {
            "name" : "amount",
            "value" : "1000"
          } ],
          "stepsCount" : 0,
          "attachmentsCount" : 0,
          "shouldDisplayMessage" : false,
          "hasContent" : true
        } ],
        "attachments" : [ ],
        "parameters" : [ {
          "name" : "amount",
          "value" : "1000"
        } ],
        "stepsCount" : 2,
        "attachmentsCount" : 0,
        "shouldDisplayMessage" : false,
        "hasContent" : true
      }, {
        "name" : "creating a new account with balance",
        "time" : {
          "start" : 1646726082196,
          "stop" : 1646726082837,
          "duration" : 641
        },
        "status" : "passed",
        "steps" : [ {
          "name" : "creating a new account",
          "time" : {
            "start" : 1646726082197,
            "stop" : 1646726082201,
            "duration" : 4
          },
          "status" : "passed",
          "steps" : [ ],
          "attachments" : [ ],
          "parameters" : [ ],
          "stepsCount" : 0,
          "attachmentsCount" : 0,
          "shouldDisplayMessage" : false,
          "hasContent" : false
        }, {
          "name" : "requesting faucet for Neon",
          "time" : {
            "start" : 1646726082201,
            "stop" : 1646726082837,
            "duration" : 636
          },
          "status" : "passed",
          "steps" : [ ],
          "attachments" : [ ],
          "parameters" : [ {
            "name" : "wallet",
            "value" : "'0x91fDe64885558b02D08EcF58A4f803ba97ec487a'"
          }, {
            "name" : "amount",
            "value" : "5"
          } ],
          "stepsCount" : 0,
          "attachmentsCount" : 0,
          "shouldDisplayMessage" : false,
          "hasContent" : true
        } ],
        "attachments" : [ ],
        "parameters" : [ {
          "name" : "amount",
          "value" : "5"
        } ],
        "stepsCount" : 2,
        "attachmentsCount" : 0,
        "shouldDisplayMessage" : false,
        "hasContent" : true
      }, {
        "name" : "the model built",
        "time" : {
          "start" : 1646726083506,
          "stop" : 1646726083506,
          "duration" : 0
        },
        "status" : "passed",
        "steps" : [ ],
        "attachments" : [ ],
        "parameters" : [ ],
        "stepsCount" : 0,
        "attachmentsCount" : 0,
        "shouldDisplayMessage" : false,
        "hasContent" : false
      }, {
        "name" : "requesting Json-RPC",
        "time" : {
          "start" : 1646726083506,
          "stop" : 1646726083630,
          "duration" : 124
        },
        "status" : "passed",
        "steps" : [ {
          "name" : "getting response",
          "time" : {
            "start" : 1646726083506,
            "stop" : 1646726083630,
            "duration" : 124
          },
          "status" : "passed",
          "steps" : [ ],
          "attachments" : [ ],
          "parameters" : [ ],
          "stepsCount" : 0,
          "attachmentsCount" : 0,
          "shouldDisplayMessage" : false,
          "hasContent" : false
        } ],
        "attachments" : [ ],
        "parameters" : [ {
          "name" : "data",
          "value" : "JsonRpcRequest(id=7, method='eth_sendRawTransaction', params=[\"SignedTransaction(rawTransaction=HexBytes('0xf86e80855dac704f40823a989491fde64885558b02d08ecf58a4f803ba97ec487a884563918244f4000080820102a0dd3dbcc49c8853a98428b169cf072415a52c0c14b2ac8518040a81b66f2984e9a00a4ae80c248b2ca08d2544418b8cd53e14821de6dab1459c88693569c602913d'), hash=HexBytes('0xa5902f4fb1760d27eeb91bd45c25be9b1459d7d1c64d167d824012c922363d18'), r=100070220036800895757298895144626846446316752421865464176989855128421281662185, s=4655476701146575237234843078598554033416556247069920889926175585200786018621, v=258)\"], jsonrpc='2.0')"
        } ],
        "stepsCount" : 1,
        "attachmentsCount" : 0,
        "shouldDisplayMessage" : false,
        "hasContent" : true
      }, {
        "name" : "deserializing response from JSON",
        "time" : {
          "start" : 1646726083630,
          "stop" : 1646726083630,
          "duration" : 0
        },
        "status" : "passed",
        "steps" : [ {
          "name" : "showing as JSON",
          "time" : {
            "start" : 1646726083630,
            "stop" : 1646726083630,
            "duration" : 0
          },
          "status" : "passed",
          "steps" : [ ],
          "attachments" : [ ],
          "parameters" : [ {
            "name" : "data",
            "value" : "{'jsonrpc': '2.0', 'id': 7, 'error': {'code': -32000, 'message': 'non-hexadecimal number found in fromhex() arg at position 0'}}"
          } ],
          "stepsCount" : 0,
          "attachmentsCount" : 0,
          "shouldDisplayMessage" : false,
          "hasContent" : true
        }, {
          "name" : "deserialized",
          "time" : {
            "start" : 1646726083630,
            "stop" : 1646726083630,
            "duration" : 0
          },
          "status" : "passed",
          "steps" : [ ],
          "attachments" : [ ],
          "parameters" : [ ],
          "stepsCount" : 0,
          "attachmentsCount" : 0,
          "shouldDisplayMessage" : false,
          "hasContent" : false
        } ],
        "attachments" : [ ],
        "parameters" : [ {
          "name" : "response",
          "value" : "<Response [200]>"
        } ],
        "stepsCount" : 2,
        "attachmentsCount" : 0,
        "shouldDisplayMessage" : false,
        "hasContent" : true
      } ],
      "attachments" : [ ],
      "parameters" : [ ],
      "stepsCount" : 12,
      "attachmentsCount" : 0,
      "shouldDisplayMessage" : true,
      "hasContent" : true
    } ],
    "attachments" : [ {
      "uid" : "aa2e2f3c1050c199",
      "name" : "stdout",
      "source" : "aa2e2f3c1050c199.txt",
      "type" : "text/plain",
      "size" : 831
    } ],
    "parameters" : [ ],
    "stepsCount" : 13,
    "attachmentsCount" : 1,
    "shouldDisplayMessage" : true,
    "hasContent" : true
  },
  "afterStages" : [ {
    "name" : "prepare_account::0",
    "time" : {
      "start" : 1646726083639,
      "stop" : 1646726087755,
      "duration" : 4116
    },
    "status" : "passed",
    "steps" : [ {
      "name" : "Operator end balance: 0.002446364704358702303 NEON 74070842.38594571 SOL",
      "time" : {
        "start" : 1646726087626,
        "stop" : 1646726087626,
        "duration" : 0
      },
      "status" : "passed",
      "steps" : [ ],
      "attachments" : [ ],
      "parameters" : [ ],
      "stepsCount" : 0,
      "attachmentsCount" : 0,
      "shouldDisplayMessage" : false,
      "hasContent" : false
    }, {
      "name" : "Account end balance: 1000 NEON",
      "time" : {
        "start" : 1646726087755,
        "stop" : 1646726087755,
        "duration" : 0
      },
      "status" : "passed",
      "steps" : [ ],
      "attachments" : [ ],
      "parameters" : [ ],
      "stepsCount" : 0,
      "attachmentsCount" : 0,
      "shouldDisplayMessage" : false,
      "hasContent" : false
    } ],
    "attachments" : [ ],
    "parameters" : [ ],
    "stepsCount" : 2,
    "attachmentsCount" : 0,
    "shouldDisplayMessage" : false,
    "hasContent" : true
  }, {
    "name" : "allure_environment::0",
    "time" : {
      "start" : 1646726117709,
      "stop" : 1646726117710,
      "duration" : 1
    },
    "status" : "passed",
    "steps" : [ ],
    "attachments" : [ ],
    "parameters" : [ ],
    "stepsCount" : 0,
    "attachmentsCount" : 0,
    "shouldDisplayMessage" : false,
    "hasContent" : false
  } ],
  "labels" : [ {
    "name" : "story",
    "value" : "Basic: Json-RPC call tests - transactions"
  }, {
    "name" : "parentSuite",
    "value" : "integration.tests.basic"
  }, {
    "name" : "suite",
    "value" : "test_transactions"
  }, {
    "name" : "subSuite",
    "value" : "TestRpcCallsTransactions"
  }, {
    "name" : "host",
    "value" : "fv-az173-848"
  }, {
    "name" : "thread",
    "value" : "1763-MainThread"
  }, {
    "name" : "framework",
    "value" : "pytest"
  }, {
    "name" : "language",
    "value" : "cpython3"
  }, {
    "name" : "package",
    "value" : "integration.tests.basic.test_transactions"
  }, {
    "name" : "resultFormat",
    "value" : "allure2"
  } ],
  "parameters" : [ ],
  "links" : [ ],
  "hidden" : false,
  "retry" : false,
  "extra" : {
    "severity" : "normal",
    "retries" : [ ],
    "categories" : [ {
      "name" : "Product defects",
      "matchedStatuses" : [ ],
      "flaky" : false
    } ],
    "tags" : [ ]
  },
  "source" : "f9714ed2036dc5f6.json",
  "parameterValues" : [ ]
}