{
  "uid" : "f0b090ca9b63b221",
  "name" : "test_rpc_call_eth_sendRawTransaction",
  "fullName" : "integration.tests.basic.test_transactions.TestRpcCallsTransactions#test_rpc_call_eth_sendRawTransaction",
  "historyId" : "f2266f2fcf46a3382764047e40d95c33",
  "time" : {
    "start" : 1646727998807,
    "stop" : 1646728001566,
    "duration" : 2759
  },
  "description" : "Verify implemented rpc calls work eth_sendRawTransaction",
  "descriptionHtml" : "<p>Verify implemented rpc calls work eth_sendRawTransaction</p>\n",
  "status" : "broken",
  "statusMessage" : "TypeError: Object of type HexBytes is not JSON serializable",
  "statusTrace" : "self = <integration.tests.basic.test_transactions.TestRpcCallsTransactions object at 0x7f54c6f4bc40>\n\n    @allure.step(\n        \"test: verify implemented rpc calls work eth_sendRawTransaction\")\n    def test_rpc_call_eth_sendRawTransaction(self):\n        \"\"\"Verify implemented rpc calls work eth_sendRawTransaction\"\"\"\n        sender_account = self.create_account_with_balance(GREAT_AMOUNT)\n        recipient_account = self.create_account_with_balance(\n            FIRST_FAUCET_REQUEST_AMOUNT)\n    \n        # TODO: chain id\n        transaction = {\n            \"from\":\n            sender_account.address,\n            \"to\":\n            recipient_account.address,\n            \"value\":\n            self.web3_client.toWei(SAMPLE_AMOUNT, \"ether\"),\n            \"chainId\":\n            111,\n            \"gasPrice\":\n            self.web3_client.gas_price(),\n            \"gas\":\n            0,\n            \"nonce\":\n            self.web3_client.eth.get_transaction_count(sender_account.address),\n        }\n        transaction[\"gas\"] = self.web3_client.eth.estimate_gas(transaction)\n    \n        #\n        print(transaction)\n        print(sender_account.key)\n        #\n    \n        signed_tx = self.web3_client.eth.account.sign_transaction(\n            transaction, sender_account.key)\n        params = [signed_tx.rawTransaction]\n    \n        #\n        print(signed_tx)\n        #\n    \n        model = RpcRequestFactory.get_send_raw_trx(params=params)\n>       response = self.jsonrpc_requester.request_json_rpc(model)\n\nintegration/tests/basic/test_transactions.py:96: \n_ _ _ _ _ _ _ _ _ _ _ _ _ _ _ _ _ _ _ _ _ _ _ _ _ _ _ _ _ _ _ _ _ _ _ _ _ _ _ _ \nintegration/tests/basic/helpers/json_rpc_requester.py:20: in request_json_rpc\n    return self._session.post(self._url, json=dataclasses.asdict(data))\n/opt/hostedtoolcache/Python/3.9.10/x64/lib/python3.9/site-packages/requests/sessions.py:577: in post\n    return self.request('POST', url, data=data, json=json, **kwargs)\n/opt/hostedtoolcache/Python/3.9.10/x64/lib/python3.9/site-packages/requests/sessions.py:515: in request\n    prep = self.prepare_request(req)\n/opt/hostedtoolcache/Python/3.9.10/x64/lib/python3.9/site-packages/requests/sessions.py:443: in prepare_request\n    p.prepare(\n/opt/hostedtoolcache/Python/3.9.10/x64/lib/python3.9/site-packages/requests/models.py:321: in prepare\n    self.prepare_body(data, files, json)\n/opt/hostedtoolcache/Python/3.9.10/x64/lib/python3.9/site-packages/requests/models.py:473: in prepare_body\n    body = complexjson.dumps(json, allow_nan=False)\n/opt/hostedtoolcache/Python/3.9.10/x64/lib/python3.9/json/__init__.py:234: in dumps\n    return cls(\n/opt/hostedtoolcache/Python/3.9.10/x64/lib/python3.9/json/encoder.py:199: in encode\n    chunks = self.iterencode(o, _one_shot=True)\n/opt/hostedtoolcache/Python/3.9.10/x64/lib/python3.9/json/encoder.py:257: in iterencode\n    return _iterencode(o, 0)\n_ _ _ _ _ _ _ _ _ _ _ _ _ _ _ _ _ _ _ _ _ _ _ _ _ _ _ _ _ _ _ _ _ _ _ _ _ _ _ _ \n\nself = <json.encoder.JSONEncoder object at 0x7f54c6e94f70>\no = HexBytes('0xf86e80855e8d0682e0823a9894a0df9f5b3282304e2aabb3ad84373be0f6ace825884563918244f4000080820101a04e0ffdc153bfa5cf7ec5edb39173ff3c06ddd85738566199fcdb3c20cb6a3ffea00665977bbe7a29fa5cbb1d5f2f3ca83230d6613e231a67386dfa3fbd8a4d8999')\n\n    def default(self, o):\n        \"\"\"Implement this method in a subclass such that it returns\n        a serializable object for ``o``, or calls the base implementation\n        (to raise a ``TypeError``).\n    \n        For example, to support arbitrary iterators, you could\n        implement default like this::\n    \n            def default(self, o):\n                try:\n                    iterable = iter(o)\n                except TypeError:\n                    pass\n                else:\n                    return list(iterable)\n                # Let the base class default method raise the TypeError\n                return JSONEncoder.default(self, o)\n    \n        \"\"\"\n>       raise TypeError(f'Object of type {o.__class__.__name__} '\n                        f'is not JSON serializable')\nE       TypeError: Object of type HexBytes is not JSON serializable\n\n/opt/hostedtoolcache/Python/3.9.10/x64/lib/python3.9/json/encoder.py:179: TypeError",
  "flaky" : false,
  "newFailed" : false,
  "newBroken" : true,
  "newPassed" : false,
  "retriesCount" : 0,
  "retriesStatusChange" : false,
  "beforeStages" : [ {
    "name" : "web3_client",
    "time" : {
      "start" : 1646727914425,
      "stop" : 1646727914427,
      "duration" : 2
    },
    "status" : "passed",
    "steps" : [ ],
    "attachments" : [ ],
    "parameters" : [ ],
    "stepsCount" : 0,
    "attachmentsCount" : 0,
    "shouldDisplayMessage" : false,
    "hasContent" : false
  }, {
    "name" : "pytestconfig",
    "time" : {
      "start" : 1646727914425,
      "stop" : 1646727914425,
      "duration" : 0
    },
    "status" : "passed",
    "steps" : [ ],
    "attachments" : [ ],
    "parameters" : [ ],
    "stepsCount" : 0,
    "attachmentsCount" : 0,
    "shouldDisplayMessage" : false,
    "hasContent" : false
  }, {
    "name" : "allure_environment",
    "time" : {
      "start" : 1646727914427,
      "stop" : 1646727915509,
      "duration" : 1082
    },
    "status" : "passed",
    "steps" : [ ],
    "attachments" : [ ],
    "parameters" : [ ],
    "stepsCount" : 0,
    "attachmentsCount" : 0,
    "shouldDisplayMessage" : false,
    "hasContent" : false
  }, {
    "name" : "faucet",
    "time" : {
      "start" : 1646727915510,
      "stop" : 1646727915510,
      "duration" : 0
    },
    "status" : "passed",
    "steps" : [ ],
    "attachments" : [ ],
    "parameters" : [ ],
    "stepsCount" : 0,
    "attachmentsCount" : 0,
    "shouldDisplayMessage" : false,
    "hasContent" : false
  }, {
    "name" : "jsonrpc_requester",
    "time" : {
      "start" : 1646727915510,
      "stop" : 1646727915510,
      "duration" : 0
    },
    "status" : "passed",
    "steps" : [ ],
    "attachments" : [ ],
    "parameters" : [ ],
    "stepsCount" : 0,
    "attachmentsCount" : 0,
    "shouldDisplayMessage" : false,
    "hasContent" : false
  }, {
    "name" : "operator",
    "time" : {
      "start" : 1646727915510,
      "stop" : 1646727915510,
      "duration" : 0
    },
    "status" : "passed",
    "steps" : [ ],
    "attachments" : [ ],
    "parameters" : [ ],
    "stepsCount" : 0,
    "attachmentsCount" : 0,
    "shouldDisplayMessage" : false,
    "hasContent" : false
  }, {
    "name" : "sol_client",
    "time" : {
      "start" : 1646727915510,
      "stop" : 1646727915510,
      "duration" : 0
    },
    "status" : "passed",
    "steps" : [ ],
    "attachments" : [ ],
    "parameters" : [ ],
    "stepsCount" : 0,
    "attachmentsCount" : 0,
    "shouldDisplayMessage" : false,
    "hasContent" : false
  }, {
    "name" : "prepare_account",
    "time" : {
      "start" : 1646727989018,
      "stop" : 1646727995071,
      "duration" : 6053
    },
    "status" : "passed",
    "steps" : [ {
      "name" : "Create account for tests",
      "time" : {
        "start" : 1646727989018,
        "stop" : 1646727989023,
        "duration" : 5
      },
      "status" : "passed",
      "steps" : [ ],
      "attachments" : [ ],
      "parameters" : [ ],
      "stepsCount" : 0,
      "attachmentsCount" : 0,
      "shouldDisplayMessage" : false,
      "hasContent" : false
    }, {
      "name" : "Request 1000 NEON from faucet for 0x79C92bCb40Ec553549B2FA2221DD7Db4ce566b73",
      "time" : {
        "start" : 1646727989023,
        "stop" : 1646727989864,
        "duration" : 841
      },
      "status" : "passed",
      "steps" : [ ],
      "attachments" : [ ],
      "parameters" : [ ],
      "stepsCount" : 0,
      "attachmentsCount" : 0,
      "shouldDisplayMessage" : false,
      "hasContent" : false
    }, {
      "name" : "Operator initial balance: 0.0024707901128411374522 NEON 74070782.39034808 SOL",
      "time" : {
        "start" : 1646727995071,
        "stop" : 1646727995071,
        "duration" : 0
      },
      "status" : "passed",
      "steps" : [ ],
      "attachments" : [ ],
      "parameters" : [ ],
      "stepsCount" : 0,
      "attachmentsCount" : 0,
      "shouldDisplayMessage" : false,
      "hasContent" : false
    } ],
    "attachments" : [ ],
    "parameters" : [ ],
    "stepsCount" : 3,
    "attachmentsCount" : 0,
    "shouldDisplayMessage" : false,
    "hasContent" : true
  }, {
    "name" : "prepare_account",
    "time" : {
      "start" : 1646727998806,
      "stop" : 1646727998806,
      "duration" : 0
    },
    "status" : "passed",
    "steps" : [ ],
    "attachments" : [ ],
    "parameters" : [ ],
    "stepsCount" : 0,
    "attachmentsCount" : 0,
    "shouldDisplayMessage" : false,
    "hasContent" : false
  }, {
    "name" : "prepare",
    "time" : {
      "start" : 1646727998806,
      "stop" : 1646727998806,
      "duration" : 0
    },
    "status" : "passed",
    "steps" : [ ],
    "attachments" : [ ],
    "parameters" : [ ],
    "stepsCount" : 0,
    "attachmentsCount" : 0,
    "shouldDisplayMessage" : false,
    "hasContent" : false
  }, {
    "name" : "prepare_json_rpc_requester",
    "time" : {
      "start" : 1646727998806,
      "stop" : 1646727998807,
      "duration" : 1
    },
    "status" : "passed",
    "steps" : [ ],
    "attachments" : [ ],
    "parameters" : [ ],
    "stepsCount" : 0,
    "attachmentsCount" : 0,
    "shouldDisplayMessage" : false,
    "hasContent" : false
  } ],
  "testStage" : {
    "description" : "Verify implemented rpc calls work eth_sendRawTransaction",
    "status" : "broken",
    "statusMessage" : "TypeError: Object of type HexBytes is not JSON serializable",
    "statusTrace" : "self = <integration.tests.basic.test_transactions.TestRpcCallsTransactions object at 0x7f54c6f4bc40>\n\n    @allure.step(\n        \"test: verify implemented rpc calls work eth_sendRawTransaction\")\n    def test_rpc_call_eth_sendRawTransaction(self):\n        \"\"\"Verify implemented rpc calls work eth_sendRawTransaction\"\"\"\n        sender_account = self.create_account_with_balance(GREAT_AMOUNT)\n        recipient_account = self.create_account_with_balance(\n            FIRST_FAUCET_REQUEST_AMOUNT)\n    \n        # TODO: chain id\n        transaction = {\n            \"from\":\n            sender_account.address,\n            \"to\":\n            recipient_account.address,\n            \"value\":\n            self.web3_client.toWei(SAMPLE_AMOUNT, \"ether\"),\n            \"chainId\":\n            111,\n            \"gasPrice\":\n            self.web3_client.gas_price(),\n            \"gas\":\n            0,\n            \"nonce\":\n            self.web3_client.eth.get_transaction_count(sender_account.address),\n        }\n        transaction[\"gas\"] = self.web3_client.eth.estimate_gas(transaction)\n    \n        #\n        print(transaction)\n        print(sender_account.key)\n        #\n    \n        signed_tx = self.web3_client.eth.account.sign_transaction(\n            transaction, sender_account.key)\n        params = [signed_tx.rawTransaction]\n    \n        #\n        print(signed_tx)\n        #\n    \n        model = RpcRequestFactory.get_send_raw_trx(params=params)\n>       response = self.jsonrpc_requester.request_json_rpc(model)\n\nintegration/tests/basic/test_transactions.py:96: \n_ _ _ _ _ _ _ _ _ _ _ _ _ _ _ _ _ _ _ _ _ _ _ _ _ _ _ _ _ _ _ _ _ _ _ _ _ _ _ _ \nintegration/tests/basic/helpers/json_rpc_requester.py:20: in request_json_rpc\n    return self._session.post(self._url, json=dataclasses.asdict(data))\n/opt/hostedtoolcache/Python/3.9.10/x64/lib/python3.9/site-packages/requests/sessions.py:577: in post\n    return self.request('POST', url, data=data, json=json, **kwargs)\n/opt/hostedtoolcache/Python/3.9.10/x64/lib/python3.9/site-packages/requests/sessions.py:515: in request\n    prep = self.prepare_request(req)\n/opt/hostedtoolcache/Python/3.9.10/x64/lib/python3.9/site-packages/requests/sessions.py:443: in prepare_request\n    p.prepare(\n/opt/hostedtoolcache/Python/3.9.10/x64/lib/python3.9/site-packages/requests/models.py:321: in prepare\n    self.prepare_body(data, files, json)\n/opt/hostedtoolcache/Python/3.9.10/x64/lib/python3.9/site-packages/requests/models.py:473: in prepare_body\n    body = complexjson.dumps(json, allow_nan=False)\n/opt/hostedtoolcache/Python/3.9.10/x64/lib/python3.9/json/__init__.py:234: in dumps\n    return cls(\n/opt/hostedtoolcache/Python/3.9.10/x64/lib/python3.9/json/encoder.py:199: in encode\n    chunks = self.iterencode(o, _one_shot=True)\n/opt/hostedtoolcache/Python/3.9.10/x64/lib/python3.9/json/encoder.py:257: in iterencode\n    return _iterencode(o, 0)\n_ _ _ _ _ _ _ _ _ _ _ _ _ _ _ _ _ _ _ _ _ _ _ _ _ _ _ _ _ _ _ _ _ _ _ _ _ _ _ _ \n\nself = <json.encoder.JSONEncoder object at 0x7f54c6e94f70>\no = HexBytes('0xf86e80855e8d0682e0823a9894a0df9f5b3282304e2aabb3ad84373be0f6ace825884563918244f4000080820101a04e0ffdc153bfa5cf7ec5edb39173ff3c06ddd85738566199fcdb3c20cb6a3ffea00665977bbe7a29fa5cbb1d5f2f3ca83230d6613e231a67386dfa3fbd8a4d8999')\n\n    def default(self, o):\n        \"\"\"Implement this method in a subclass such that it returns\n        a serializable object for ``o``, or calls the base implementation\n        (to raise a ``TypeError``).\n    \n        For example, to support arbitrary iterators, you could\n        implement default like this::\n    \n            def default(self, o):\n                try:\n                    iterable = iter(o)\n                except TypeError:\n                    pass\n                else:\n                    return list(iterable)\n                # Let the base class default method raise the TypeError\n                return JSONEncoder.default(self, o)\n    \n        \"\"\"\n>       raise TypeError(f'Object of type {o.__class__.__name__} '\n                        f'is not JSON serializable')\nE       TypeError: Object of type HexBytes is not JSON serializable\n\n/opt/hostedtoolcache/Python/3.9.10/x64/lib/python3.9/json/encoder.py:179: TypeError",
    "steps" : [ {
      "name" : "test: verify implemented rpc calls work eth_sendRawTransaction",
      "time" : {
        "start" : 1646727998807,
        "stop" : 1646728001565,
        "duration" : 2758
      },
      "status" : "broken",
      "statusMessage" : "TypeError: Object of type HexBytes is not JSON serializable\n",
      "statusTrace" : "  File \"/opt/hostedtoolcache/Python/3.9.10/x64/lib/python3.9/site-packages/allure_commons/_allure.py\", line 172, in impl\n    return func(*a, **kw)\n  File \"/home/runner/work/neon-tests/neon-tests/integration/tests/basic/test_transactions.py\", line 96, in test_rpc_call_eth_sendRawTransaction\n    response = self.jsonrpc_requester.request_json_rpc(model)\n  File \"/opt/hostedtoolcache/Python/3.9.10/x64/lib/python3.9/site-packages/allure_commons/_allure.py\", line 172, in impl\n    return func(*a, **kw)\n  File \"/home/runner/work/neon-tests/neon-tests/integration/tests/basic/helpers/json_rpc_requester.py\", line 20, in request_json_rpc\n    return self._session.post(self._url, json=dataclasses.asdict(data))\n  File \"/opt/hostedtoolcache/Python/3.9.10/x64/lib/python3.9/site-packages/requests/sessions.py\", line 577, in post\n    return self.request('POST', url, data=data, json=json, **kwargs)\n  File \"/opt/hostedtoolcache/Python/3.9.10/x64/lib/python3.9/site-packages/requests/sessions.py\", line 515, in request\n    prep = self.prepare_request(req)\n  File \"/opt/hostedtoolcache/Python/3.9.10/x64/lib/python3.9/site-packages/requests/sessions.py\", line 443, in prepare_request\n    p.prepare(\n  File \"/opt/hostedtoolcache/Python/3.9.10/x64/lib/python3.9/site-packages/requests/models.py\", line 321, in prepare\n    self.prepare_body(data, files, json)\n  File \"/opt/hostedtoolcache/Python/3.9.10/x64/lib/python3.9/site-packages/requests/models.py\", line 473, in prepare_body\n    body = complexjson.dumps(json, allow_nan=False)\n  File \"/opt/hostedtoolcache/Python/3.9.10/x64/lib/python3.9/json/__init__.py\", line 234, in dumps\n    return cls(\n  File \"/opt/hostedtoolcache/Python/3.9.10/x64/lib/python3.9/json/encoder.py\", line 199, in encode\n    chunks = self.iterencode(o, _one_shot=True)\n  File \"/opt/hostedtoolcache/Python/3.9.10/x64/lib/python3.9/json/encoder.py\", line 257, in iterencode\n    return _iterencode(o, 0)\n  File \"/opt/hostedtoolcache/Python/3.9.10/x64/lib/python3.9/json/encoder.py\", line 179, in default\n    raise TypeError(f'Object of type {o.__class__.__name__} '\n",
      "steps" : [ {
        "name" : "creating a new account with balance",
        "time" : {
          "start" : 1646727998807,
          "stop" : 1646727999485,
          "duration" : 678
        },
        "status" : "passed",
        "steps" : [ {
          "name" : "creating a new account",
          "time" : {
            "start" : 1646727998808,
            "stop" : 1646727998813,
            "duration" : 5
          },
          "status" : "passed",
          "steps" : [ ],
          "attachments" : [ ],
          "parameters" : [ ],
          "stepsCount" : 0,
          "attachmentsCount" : 0,
          "shouldDisplayMessage" : false,
          "hasContent" : false
        }, {
          "name" : "requesting faucet for Neon",
          "time" : {
            "start" : 1646727998813,
            "stop" : 1646727999485,
            "duration" : 672
          },
          "status" : "passed",
          "steps" : [ ],
          "attachments" : [ ],
          "parameters" : [ {
            "name" : "wallet",
            "value" : "'0x38B69B365C296C340F35aB74f10B9D9D094a0619'"
          }, {
            "name" : "amount",
            "value" : "1000"
          } ],
          "stepsCount" : 0,
          "attachmentsCount" : 0,
          "shouldDisplayMessage" : false,
          "hasContent" : true
        } ],
        "attachments" : [ ],
        "parameters" : [ {
          "name" : "amount",
          "value" : "1000"
        } ],
        "stepsCount" : 2,
        "attachmentsCount" : 0,
        "shouldDisplayMessage" : false,
        "hasContent" : true
      }, {
        "name" : "creating a new account with balance",
        "time" : {
          "start" : 1646727999485,
          "stop" : 1646728000667,
          "duration" : 1182
        },
        "status" : "passed",
        "steps" : [ {
          "name" : "creating a new account",
          "time" : {
            "start" : 1646727999485,
            "stop" : 1646727999491,
            "duration" : 6
          },
          "status" : "passed",
          "steps" : [ ],
          "attachments" : [ ],
          "parameters" : [ ],
          "stepsCount" : 0,
          "attachmentsCount" : 0,
          "shouldDisplayMessage" : false,
          "hasContent" : false
        }, {
          "name" : "requesting faucet for Neon",
          "time" : {
            "start" : 1646727999491,
            "stop" : 1646728000666,
            "duration" : 1175
          },
          "status" : "passed",
          "steps" : [ ],
          "attachments" : [ ],
          "parameters" : [ {
            "name" : "wallet",
            "value" : "'0xa0Df9F5B3282304E2Aabb3ad84373Be0F6ACE825'"
          }, {
            "name" : "amount",
            "value" : "5"
          } ],
          "stepsCount" : 0,
          "attachmentsCount" : 0,
          "shouldDisplayMessage" : false,
          "hasContent" : true
        } ],
        "attachments" : [ ],
        "parameters" : [ {
          "name" : "amount",
          "value" : "5"
        } ],
        "stepsCount" : 2,
        "attachmentsCount" : 0,
        "shouldDisplayMessage" : false,
        "hasContent" : true
      }, {
        "name" : "the model built",
        "time" : {
          "start" : 1646728001537,
          "stop" : 1646728001537,
          "duration" : 0
        },
        "status" : "passed",
        "steps" : [ ],
        "attachments" : [ ],
        "parameters" : [ ],
        "stepsCount" : 0,
        "attachmentsCount" : 0,
        "shouldDisplayMessage" : false,
        "hasContent" : false
      }, {
        "name" : "requesting Json-RPC",
        "time" : {
          "start" : 1646728001537,
          "stop" : 1646728001565,
          "duration" : 28
        },
        "status" : "broken",
        "statusMessage" : "TypeError: Object of type HexBytes is not JSON serializable\n",
        "statusTrace" : "  File \"/opt/hostedtoolcache/Python/3.9.10/x64/lib/python3.9/site-packages/allure_commons/_allure.py\", line 172, in impl\n    return func(*a, **kw)\n  File \"/home/runner/work/neon-tests/neon-tests/integration/tests/basic/helpers/json_rpc_requester.py\", line 20, in request_json_rpc\n    return self._session.post(self._url, json=dataclasses.asdict(data))\n  File \"/opt/hostedtoolcache/Python/3.9.10/x64/lib/python3.9/site-packages/requests/sessions.py\", line 577, in post\n    return self.request('POST', url, data=data, json=json, **kwargs)\n  File \"/opt/hostedtoolcache/Python/3.9.10/x64/lib/python3.9/site-packages/requests/sessions.py\", line 515, in request\n    prep = self.prepare_request(req)\n  File \"/opt/hostedtoolcache/Python/3.9.10/x64/lib/python3.9/site-packages/requests/sessions.py\", line 443, in prepare_request\n    p.prepare(\n  File \"/opt/hostedtoolcache/Python/3.9.10/x64/lib/python3.9/site-packages/requests/models.py\", line 321, in prepare\n    self.prepare_body(data, files, json)\n  File \"/opt/hostedtoolcache/Python/3.9.10/x64/lib/python3.9/site-packages/requests/models.py\", line 473, in prepare_body\n    body = complexjson.dumps(json, allow_nan=False)\n  File \"/opt/hostedtoolcache/Python/3.9.10/x64/lib/python3.9/json/__init__.py\", line 234, in dumps\n    return cls(\n  File \"/opt/hostedtoolcache/Python/3.9.10/x64/lib/python3.9/json/encoder.py\", line 199, in encode\n    chunks = self.iterencode(o, _one_shot=True)\n  File \"/opt/hostedtoolcache/Python/3.9.10/x64/lib/python3.9/json/encoder.py\", line 257, in iterencode\n    return _iterencode(o, 0)\n  File \"/opt/hostedtoolcache/Python/3.9.10/x64/lib/python3.9/json/encoder.py\", line 179, in default\n    raise TypeError(f'Object of type {o.__class__.__name__} '\n",
        "steps" : [ {
          "name" : "getting response",
          "time" : {
            "start" : 1646728001537,
            "stop" : 1646728001538,
            "duration" : 1
          },
          "status" : "broken",
          "statusMessage" : "TypeError: Object of type HexBytes is not JSON serializable\n",
          "statusTrace" : "  File \"/home/runner/work/neon-tests/neon-tests/integration/tests/basic/helpers/json_rpc_requester.py\", line 20, in request_json_rpc\n    return self._session.post(self._url, json=dataclasses.asdict(data))\n  File \"/opt/hostedtoolcache/Python/3.9.10/x64/lib/python3.9/site-packages/requests/sessions.py\", line 577, in post\n    return self.request('POST', url, data=data, json=json, **kwargs)\n  File \"/opt/hostedtoolcache/Python/3.9.10/x64/lib/python3.9/site-packages/requests/sessions.py\", line 515, in request\n    prep = self.prepare_request(req)\n  File \"/opt/hostedtoolcache/Python/3.9.10/x64/lib/python3.9/site-packages/requests/sessions.py\", line 443, in prepare_request\n    p.prepare(\n  File \"/opt/hostedtoolcache/Python/3.9.10/x64/lib/python3.9/site-packages/requests/models.py\", line 321, in prepare\n    self.prepare_body(data, files, json)\n  File \"/opt/hostedtoolcache/Python/3.9.10/x64/lib/python3.9/site-packages/requests/models.py\", line 473, in prepare_body\n    body = complexjson.dumps(json, allow_nan=False)\n  File \"/opt/hostedtoolcache/Python/3.9.10/x64/lib/python3.9/json/__init__.py\", line 234, in dumps\n    return cls(\n  File \"/opt/hostedtoolcache/Python/3.9.10/x64/lib/python3.9/json/encoder.py\", line 199, in encode\n    chunks = self.iterencode(o, _one_shot=True)\n  File \"/opt/hostedtoolcache/Python/3.9.10/x64/lib/python3.9/json/encoder.py\", line 257, in iterencode\n    return _iterencode(o, 0)\n  File \"/opt/hostedtoolcache/Python/3.9.10/x64/lib/python3.9/json/encoder.py\", line 179, in default\n    raise TypeError(f'Object of type {o.__class__.__name__} '\n",
          "steps" : [ ],
          "attachments" : [ ],
          "parameters" : [ ],
          "stepsCount" : 0,
          "attachmentsCount" : 0,
          "shouldDisplayMessage" : true,
          "hasContent" : true
        } ],
        "attachments" : [ ],
        "parameters" : [ {
          "name" : "data",
          "value" : "JsonRpcRequest(id=2, method='eth_sendRawTransaction', params=[HexBytes('0xf86e80855e8d0682e0823a9894a0df9f5b3282304e2aabb3ad84373be0f6ace825884563918244f4000080820101a04e0ffdc153bfa5cf7ec5edb39173ff3c06ddd85738566199fcdb3c20cb6a3ffea00665977bbe7a29fa5cbb1d5f2f3ca83230d6613e231a67386dfa3fbd8a4d8999')], jsonrpc='2.0')"
        } ],
        "stepsCount" : 1,
        "attachmentsCount" : 0,
        "shouldDisplayMessage" : false,
        "hasContent" : true
      } ],
      "attachments" : [ ],
      "parameters" : [ ],
      "stepsCount" : 9,
      "attachmentsCount" : 0,
      "shouldDisplayMessage" : false,
      "hasContent" : true
    } ],
    "attachments" : [ {
      "uid" : "a9cdc93cdec0581c",
      "name" : "stdout",
      "source" : "a9cdc93cdec0581c.txt",
      "type" : "text/plain",
      "size" : 822
    } ],
    "parameters" : [ ],
    "stepsCount" : 10,
    "attachmentsCount" : 1,
    "shouldDisplayMessage" : true,
    "hasContent" : true
  },
  "afterStages" : [ {
    "name" : "prepare_account::0",
    "time" : {
      "start" : 1646728001642,
      "stop" : 1646728007028,
      "duration" : 5386
    },
    "status" : "passed",
    "steps" : [ {
      "name" : "Operator end balance: 0.0024711951464588199394 NEON 74070781.54204372 SOL",
      "time" : {
        "start" : 1646728006858,
        "stop" : 1646728006859,
        "duration" : 1
      },
      "status" : "passed",
      "steps" : [ ],
      "attachments" : [ ],
      "parameters" : [ ],
      "stepsCount" : 0,
      "attachmentsCount" : 0,
      "shouldDisplayMessage" : false,
      "hasContent" : false
    }, {
      "name" : "Account end balance: 1000 NEON",
      "time" : {
        "start" : 1646728007028,
        "stop" : 1646728007028,
        "duration" : 0
      },
      "status" : "passed",
      "steps" : [ ],
      "attachments" : [ ],
      "parameters" : [ ],
      "stepsCount" : 0,
      "attachmentsCount" : 0,
      "shouldDisplayMessage" : false,
      "hasContent" : false
    } ],
    "attachments" : [ ],
    "parameters" : [ ],
    "stepsCount" : 2,
    "attachmentsCount" : 0,
    "shouldDisplayMessage" : false,
    "hasContent" : true
  }, {
    "name" : "allure_environment::0",
    "time" : {
      "start" : 1646728046213,
      "stop" : 1646728046214,
      "duration" : 1
    },
    "status" : "passed",
    "steps" : [ ],
    "attachments" : [ ],
    "parameters" : [ ],
    "stepsCount" : 0,
    "attachmentsCount" : 0,
    "shouldDisplayMessage" : false,
    "hasContent" : false
  } ],
  "labels" : [ {
    "name" : "story",
    "value" : "Basic: Json-RPC call tests - transactions"
  }, {
    "name" : "parentSuite",
    "value" : "integration.tests.basic"
  }, {
    "name" : "suite",
    "value" : "test_transactions"
  }, {
    "name" : "subSuite",
    "value" : "TestRpcCallsTransactions"
  }, {
    "name" : "host",
    "value" : "fv-az449-688"
  }, {
    "name" : "thread",
    "value" : "1770-MainThread"
  }, {
    "name" : "framework",
    "value" : "pytest"
  }, {
    "name" : "language",
    "value" : "cpython3"
  }, {
    "name" : "package",
    "value" : "integration.tests.basic.test_transactions"
  }, {
    "name" : "resultFormat",
    "value" : "allure2"
  } ],
  "parameters" : [ ],
  "links" : [ ],
  "hidden" : false,
  "retry" : false,
  "extra" : {
    "severity" : "normal",
    "retries" : [ ],
    "categories" : [ {
      "name" : "Test defects",
      "matchedStatuses" : [ ],
      "flaky" : false
    } ],
    "history" : {
      "statistic" : {
        "failed" : 1,
        "broken" : 3,
        "skipped" : 0,
        "passed" : 0,
        "unknown" : 0,
        "total" : 4
      },
      "items" : [ {
        "uid" : "fc99d938ebd7b279",
        "reportUrl" : "https://apetrovskiy.github.io/neon-tests/feature/254i/348//#testresult/fc99d938ebd7b279",
        "status" : "failed",
        "statusDetails" : "AssertionError: The response type is error response\nassert False\n +  where False = isinstance(JsonRpcErrorResponse(id=23, error={'code': -32000, 'message': 'non-hexadecimal number found in fromhex() arg at position 0'}, jsonrpc='2.0'), JsonRpcResponse)",
        "time" : {
          "start" : 1646726060267,
          "stop" : 1646726062243,
          "duration" : 1976
        }
      }, {
        "uid" : "5ffadf30d2d7cdfa",
        "reportUrl" : "https://apetrovskiy.github.io/neon-tests/feature/254i/346//#testresult/5ffadf30d2d7cdfa",
        "status" : "broken",
        "statusDetails" : "TypeError: Object of type HexBytes is not JSON serializable",
        "time" : {
          "start" : 1646724154720,
          "stop" : 1646724156673,
          "duration" : 1953
        }
      }, {
        "uid" : "d201aafbcc685cf",
        "reportUrl" : "https://apetrovskiy.github.io/neon-tests/feature/254i/344//#testresult/d201aafbcc685cf",
        "status" : "broken",
        "statusDetails" : "TypeError: Object of type HexBytes is not JSON serializable",
        "time" : {
          "start" : 1646723533766,
          "stop" : 1646723535716,
          "duration" : 1950
        }
      } ]
    },
    "tags" : [ ]
  },
  "source" : "f0b090ca9b63b221.json",
  "parameterValues" : [ ]
}