{
  "uid" : "8e92ed93ed8256bf",
  "name" : "test_eth_get_block_by_number_via_numbers",
  "fullName" : "integration.tests.basic.test_rpc_calls.TestRpcCalls#test_eth_get_block_by_number_via_numbers",
  "historyId" : "e934ff18d7963eef63124ce75e94c2d0",
  "time" : {
    "start" : 1652714035176,
    "stop" : 1652714035901,
    "duration" : 725
  },
  "description" : "Verify implemented rpc calls work eth_getBlockByNumber",
  "descriptionHtml" : "<p>Verify implemented rpc calls work eth_getBlockByNumber</p>\n",
  "status" : "broken",
  "statusMessage" : "ValueError: {'code': -32002, 'message': 'nonce too low: address 0xfed2014144b1e422b98ec8477d03490636dbc9fa, tx: 4 state: 5'}",
  "statusTrace" : "self = <integration.tests.basic.test_rpc_calls.TestRpcCalls object at 0x7f160add24f0>\n\n    def test_eth_get_block_by_number_via_numbers(self):\n        \"\"\"Verify implemented rpc calls work eth_getBlockByNumber\"\"\"\n    \n>       tx_receipt = self.process_transaction(\n            self.sender_account, self.recipient_account, input_data.InputData.SAMPLE_AMOUNT.value\n        )\n\nintegration/tests/basic/test_rpc_calls.py:333: \n_ _ _ _ _ _ _ _ _ _ _ _ _ _ _ _ _ _ _ _ _ _ _ _ _ _ _ _ _ _ _ _ _ _ _ _ _ _ _ _ \nintegration/tests/basic/helpers/basic.py:82: in process_transaction\n    return self.web3_client.send_neon(sender_account, recipient_account, amount)\nutils/web3client.py:78: in send_neon\n    tx = self._web3.eth.send_raw_transaction(signed_tx.rawTransaction)\n/opt/hostedtoolcache/Python/3.9.12/x64/lib/python3.9/site-packages/web3/eth.py:783: in send_raw_transaction\n    return self._send_raw_transaction(transaction)\n/opt/hostedtoolcache/Python/3.9.12/x64/lib/python3.9/site-packages/web3/module.py:57: in caller\n    result = w3.manager.request_blocking(method_str,\n/opt/hostedtoolcache/Python/3.9.12/x64/lib/python3.9/site-packages/web3/manager.py:198: in request_blocking\n    return self.formatted_response(response,\n_ _ _ _ _ _ _ _ _ _ _ _ _ _ _ _ _ _ _ _ _ _ _ _ _ _ _ _ _ _ _ _ _ _ _ _ _ _ _ _ \n\nself = <web3.manager.RequestManager object at 0x7f160acafb50>\nresponse = {'error': {'code': -32002, 'message': 'nonce too low: address 0xfed2014144b1e422b98ec8477d03490636dbc9fa, tx: 4 state: 5'}, 'id': 40, 'jsonrpc': '2.0'}\nparams = ('0xf86f04853af4aa6980825208941c4fb2c93b7d46def2dcbd963467064a2ea9ad4587470de4df82000080841d3581c0a073e98f53363f278c794b7cccbd63dec0d2eb437c3408e4c830468c03e36e1761a02399072cc4ee4759bd84c190a7d4425b12ee193ceab35214898b888e9b4676dd',)\nerror_formatters = <cyfunction identity at 0x7f1610812040>\nnull_result_formatters = <cyfunction identity at 0x7f1610812040>\n\n    def formatted_response(\n        self,\n        response: RPCResponse,\n        params: Any,\n        error_formatters: Optional[Callable[..., Any]] = None,\n        null_result_formatters: Optional[Callable[..., Any]] = None,\n    ) -> Any:\n        if \"error\" in response:\n            apply_error_formatters(error_formatters, response)\n>           raise ValueError(response[\"error\"])\nE           ValueError: {'code': -32002, 'message': 'nonce too low: address 0xfed2014144b1e422b98ec8477d03490636dbc9fa, tx: 4 state: 5'}\n\n/opt/hostedtoolcache/Python/3.9.12/x64/lib/python3.9/site-packages/web3/manager.py:171: ValueError",
  "flaky" : false,
  "newFailed" : false,
  "newBroken" : true,
  "newPassed" : false,
  "retriesCount" : 0,
  "retriesStatusChange" : false,
  "beforeStages" : [ {
    "name" : "web3_client",
    "time" : {
      "start" : 1652714002629,
      "stop" : 1652714002631,
      "duration" : 2
    },
    "status" : "passed",
    "steps" : [ ],
    "attachments" : [ ],
    "parameters" : [ ],
    "stepsCount" : 0,
    "attachmentsCount" : 0,
    "shouldDisplayMessage" : false,
    "hasContent" : false
  }, {
    "name" : "pytestconfig",
    "time" : {
      "start" : 1652714002629,
      "stop" : 1652714002629,
      "duration" : 0
    },
    "status" : "passed",
    "steps" : [ ],
    "attachments" : [ ],
    "parameters" : [ ],
    "stepsCount" : 0,
    "attachmentsCount" : 0,
    "shouldDisplayMessage" : false,
    "hasContent" : false
  }, {
    "name" : "allure_environment",
    "time" : {
      "start" : 1652714002631,
      "stop" : 1652714003490,
      "duration" : 859
    },
    "status" : "passed",
    "steps" : [ ],
    "attachments" : [ ],
    "parameters" : [ ],
    "stepsCount" : 0,
    "attachmentsCount" : 0,
    "shouldDisplayMessage" : false,
    "hasContent" : false
  }, {
    "name" : "operator",
    "time" : {
      "start" : 1652714003491,
      "stop" : 1652714003491,
      "duration" : 0
    },
    "status" : "passed",
    "steps" : [ ],
    "attachments" : [ ],
    "parameters" : [ ],
    "stepsCount" : 0,
    "attachmentsCount" : 0,
    "shouldDisplayMessage" : false,
    "hasContent" : false
  }, {
    "name" : "json_rpc_client",
    "time" : {
      "start" : 1652714003491,
      "stop" : 1652714003491,
      "duration" : 0
    },
    "status" : "passed",
    "steps" : [ ],
    "attachments" : [ ],
    "parameters" : [ ],
    "stepsCount" : 0,
    "attachmentsCount" : 0,
    "shouldDisplayMessage" : false,
    "hasContent" : false
  }, {
    "name" : "faucet",
    "time" : {
      "start" : 1652714003491,
      "stop" : 1652714003491,
      "duration" : 0
    },
    "status" : "passed",
    "steps" : [ ],
    "attachments" : [ ],
    "parameters" : [ ],
    "stepsCount" : 0,
    "attachmentsCount" : 0,
    "shouldDisplayMessage" : false,
    "hasContent" : false
  }, {
    "name" : "sol_client",
    "time" : {
      "start" : 1652714003491,
      "stop" : 1652714003491,
      "duration" : 0
    },
    "status" : "passed",
    "steps" : [ ],
    "attachments" : [ ],
    "parameters" : [ ],
    "stepsCount" : 0,
    "attachmentsCount" : 0,
    "shouldDisplayMessage" : false,
    "hasContent" : false
  }, {
    "name" : "prepare_account",
    "time" : {
      "start" : 1652714035175,
      "stop" : 1652714035175,
      "duration" : 0
    },
    "status" : "passed",
    "steps" : [ ],
    "attachments" : [ ],
    "parameters" : [ ],
    "stepsCount" : 0,
    "attachmentsCount" : 0,
    "shouldDisplayMessage" : false,
    "hasContent" : false
  }, {
    "name" : "prepare_env",
    "time" : {
      "start" : 1652714035175,
      "stop" : 1652714035176,
      "duration" : 1
    },
    "status" : "passed",
    "steps" : [ ],
    "attachments" : [ ],
    "parameters" : [ ],
    "stepsCount" : 0,
    "attachmentsCount" : 0,
    "shouldDisplayMessage" : false,
    "hasContent" : false
  }, {
    "name" : "prepare",
    "time" : {
      "start" : 1652714035175,
      "stop" : 1652714035175,
      "duration" : 0
    },
    "status" : "passed",
    "steps" : [ ],
    "attachments" : [ ],
    "parameters" : [ ],
    "stepsCount" : 0,
    "attachmentsCount" : 0,
    "shouldDisplayMessage" : false,
    "hasContent" : false
  } ],
  "testStage" : {
    "description" : "Verify implemented rpc calls work eth_getBlockByNumber",
    "status" : "broken",
    "statusMessage" : "ValueError: {'code': -32002, 'message': 'nonce too low: address 0xfed2014144b1e422b98ec8477d03490636dbc9fa, tx: 4 state: 5'}",
    "statusTrace" : "self = <integration.tests.basic.test_rpc_calls.TestRpcCalls object at 0x7f160add24f0>\n\n    def test_eth_get_block_by_number_via_numbers(self):\n        \"\"\"Verify implemented rpc calls work eth_getBlockByNumber\"\"\"\n    \n>       tx_receipt = self.process_transaction(\n            self.sender_account, self.recipient_account, input_data.InputData.SAMPLE_AMOUNT.value\n        )\n\nintegration/tests/basic/test_rpc_calls.py:333: \n_ _ _ _ _ _ _ _ _ _ _ _ _ _ _ _ _ _ _ _ _ _ _ _ _ _ _ _ _ _ _ _ _ _ _ _ _ _ _ _ \nintegration/tests/basic/helpers/basic.py:82: in process_transaction\n    return self.web3_client.send_neon(sender_account, recipient_account, amount)\nutils/web3client.py:78: in send_neon\n    tx = self._web3.eth.send_raw_transaction(signed_tx.rawTransaction)\n/opt/hostedtoolcache/Python/3.9.12/x64/lib/python3.9/site-packages/web3/eth.py:783: in send_raw_transaction\n    return self._send_raw_transaction(transaction)\n/opt/hostedtoolcache/Python/3.9.12/x64/lib/python3.9/site-packages/web3/module.py:57: in caller\n    result = w3.manager.request_blocking(method_str,\n/opt/hostedtoolcache/Python/3.9.12/x64/lib/python3.9/site-packages/web3/manager.py:198: in request_blocking\n    return self.formatted_response(response,\n_ _ _ _ _ _ _ _ _ _ _ _ _ _ _ _ _ _ _ _ _ _ _ _ _ _ _ _ _ _ _ _ _ _ _ _ _ _ _ _ \n\nself = <web3.manager.RequestManager object at 0x7f160acafb50>\nresponse = {'error': {'code': -32002, 'message': 'nonce too low: address 0xfed2014144b1e422b98ec8477d03490636dbc9fa, tx: 4 state: 5'}, 'id': 40, 'jsonrpc': '2.0'}\nparams = ('0xf86f04853af4aa6980825208941c4fb2c93b7d46def2dcbd963467064a2ea9ad4587470de4df82000080841d3581c0a073e98f53363f278c794b7cccbd63dec0d2eb437c3408e4c830468c03e36e1761a02399072cc4ee4759bd84c190a7d4425b12ee193ceab35214898b888e9b4676dd',)\nerror_formatters = <cyfunction identity at 0x7f1610812040>\nnull_result_formatters = <cyfunction identity at 0x7f1610812040>\n\n    def formatted_response(\n        self,\n        response: RPCResponse,\n        params: Any,\n        error_formatters: Optional[Callable[..., Any]] = None,\n        null_result_formatters: Optional[Callable[..., Any]] = None,\n    ) -> Any:\n        if \"error\" in response:\n            apply_error_formatters(error_formatters, response)\n>           raise ValueError(response[\"error\"])\nE           ValueError: {'code': -32002, 'message': 'nonce too low: address 0xfed2014144b1e422b98ec8477d03490636dbc9fa, tx: 4 state: 5'}\n\n/opt/hostedtoolcache/Python/3.9.12/x64/lib/python3.9/site-packages/web3/manager.py:171: ValueError",
    "steps" : [ {
      "name" : "Sending 0.02 from 0xFeD2014144B1e422B98Ec8477d03490636Dbc9FA to 0x1c4fB2c93b7d46DeF2dCbD963467064a2EA9ad45",
      "time" : {
        "start" : 1652714035176,
        "stop" : 1652714035900,
        "duration" : 724
      },
      "status" : "broken",
      "statusMessage" : "ValueError: {'code': -32002, 'message': 'nonce too low: address 0xfed2014144b1e422b98ec8477d03490636dbc9fa, tx: 4 state: 5'}\n",
      "statusTrace" : "  File \"/home/runner/work/neon-tests/neon-tests/integration/tests/basic/helpers/basic.py\", line 82, in process_transaction\n    return self.web3_client.send_neon(sender_account, recipient_account, amount)\n  File \"/home/runner/work/neon-tests/neon-tests/utils/web3client.py\", line 78, in send_neon\n    tx = self._web3.eth.send_raw_transaction(signed_tx.rawTransaction)\n  File \"/opt/hostedtoolcache/Python/3.9.12/x64/lib/python3.9/site-packages/web3/eth.py\", line 783, in send_raw_transaction\n    return self._send_raw_transaction(transaction)\n  File \"/opt/hostedtoolcache/Python/3.9.12/x64/lib/python3.9/site-packages/web3/module.py\", line 57, in caller\n    result = w3.manager.request_blocking(method_str,\n  File \"/opt/hostedtoolcache/Python/3.9.12/x64/lib/python3.9/site-packages/web3/manager.py\", line 198, in request_blocking\n    return self.formatted_response(response,\n  File \"/opt/hostedtoolcache/Python/3.9.12/x64/lib/python3.9/site-packages/web3/manager.py\", line 171, in formatted_response\n    raise ValueError(response[\"error\"])\n",
      "steps" : [ ],
      "attachments" : [ ],
      "parameters" : [ ],
      "stepsCount" : 0,
      "attachmentsCount" : 0,
      "shouldDisplayMessage" : true,
      "hasContent" : true
    } ],
    "attachments" : [ ],
    "parameters" : [ ],
    "stepsCount" : 1,
    "attachmentsCount" : 0,
    "shouldDisplayMessage" : true,
    "hasContent" : true
  },
  "afterStages" : [ {
    "name" : "allure_environment::0",
    "time" : {
      "start" : 1652714330825,
      "stop" : 1652714330825,
      "duration" : 0
    },
    "status" : "passed",
    "steps" : [ ],
    "attachments" : [ ],
    "parameters" : [ ],
    "stepsCount" : 0,
    "attachmentsCount" : 0,
    "shouldDisplayMessage" : false,
    "hasContent" : false
  } ],
  "labels" : [ {
    "name" : "story",
    "value" : "Basic: Json-RPC call tests"
  }, {
    "name" : "parentSuite",
    "value" : "integration.tests.basic"
  }, {
    "name" : "suite",
    "value" : "test_rpc_calls"
  }, {
    "name" : "subSuite",
    "value" : "TestRpcCalls"
  }, {
    "name" : "host",
    "value" : "fv-az453-250"
  }, {
    "name" : "thread",
    "value" : "1834-MainThread"
  }, {
    "name" : "framework",
    "value" : "pytest"
  }, {
    "name" : "language",
    "value" : "cpython3"
  }, {
    "name" : "package",
    "value" : "integration.tests.basic.test_rpc_calls"
  }, {
    "name" : "resultFormat",
    "value" : "allure2"
  } ],
  "parameters" : [ ],
  "links" : [ ],
  "hidden" : false,
  "retry" : false,
  "extra" : {
    "severity" : "normal",
    "retries" : [ ],
    "categories" : [ {
      "name" : "Test defects",
      "matchedStatuses" : [ ],
      "flaky" : false
    } ],
    "history" : {
      "statistic" : {
        "failed" : 1,
        "broken" : 4,
        "skipped" : 0,
        "passed" : 10,
        "unknown" : 0,
        "total" : 15
      },
      "items" : [ {
        "uid" : "5b0a206d1541c6f2",
        "reportUrl" : "https://apetrovskiy.github.io/neon-tests/devnet/feature/25p/1170//#testresult/5b0a206d1541c6f2",
        "status" : "passed",
        "time" : {
          "start" : 1652711717403,
          "stop" : 1652711720488,
          "duration" : 3085
        }
      }, {
        "uid" : "965551be2e9e1a92",
        "reportUrl" : "https://apetrovskiy.github.io/neon-tests/devnet/feature/25p/1168//#testresult/965551be2e9e1a92",
        "status" : "passed",
        "time" : {
          "start" : 1652710544908,
          "stop" : 1652710547196,
          "duration" : 2288
        }
      }, {
        "uid" : "467f6c259ac6669a",
        "reportUrl" : "https://apetrovskiy.github.io/neon-tests/devnet/feature/25p/1166//#testresult/467f6c259ac6669a",
        "status" : "passed",
        "time" : {
          "start" : 1652709974089,
          "stop" : 1652709976797,
          "duration" : 2708
        }
      }, {
        "uid" : "dc8fef6d2b92d1e",
        "reportUrl" : "https://apetrovskiy.github.io/neon-tests/devnet/feature/25p/1164//#testresult/dc8fef6d2b92d1e",
        "status" : "passed",
        "time" : {
          "start" : 1652708567575,
          "stop" : 1652708570296,
          "duration" : 2721
        }
      }, {
        "uid" : "18e97723e6f2216b",
        "reportUrl" : "https://apetrovskiy.github.io/neon-tests/devnet/feature/25p/1162//#testresult/18e97723e6f2216b",
        "status" : "passed",
        "time" : {
          "start" : 1652704417337,
          "stop" : 1652704419618,
          "duration" : 2281
        }
      }, {
        "uid" : "17ba11d66c2e4d6c",
        "reportUrl" : "https://apetrovskiy.github.io/neon-tests/devnet/feature/25p/1159//#testresult/17ba11d66c2e4d6c",
        "status" : "passed",
        "time" : {
          "start" : 1652702735642,
          "stop" : 1652702737917,
          "duration" : 2275
        }
      }, {
        "uid" : "89fccd863174bed4",
        "reportUrl" : "https://apetrovskiy.github.io/neon-tests/devnet/feature/25p/1156//#testresult/89fccd863174bed4",
        "status" : "passed",
        "time" : {
          "start" : 1652699576216,
          "stop" : 1652699580102,
          "duration" : 3886
        }
      }, {
        "uid" : "40e2cd1fce6846e4",
        "reportUrl" : "https://apetrovskiy.github.io/neon-tests/devnet/feature/25p/1154//#testresult/40e2cd1fce6846e4",
        "status" : "passed",
        "time" : {
          "start" : 1652697889638,
          "stop" : 1652697892018,
          "duration" : 2380
        }
      }, {
        "uid" : "b697700a1097c94c",
        "reportUrl" : "https://apetrovskiy.github.io/neon-tests/devnet/feature/25p/1152//#testresult/b697700a1097c94c",
        "status" : "failed",
        "statusDetails" : "AssertionError: assert 0 == 10000\n +  where 0 = <bound method NeonWeb3Client.get_balance of <utils.web3client.NeonWeb3Client object at 0x7f7ac20dd9d0>>(<eth_account.signers.local.LocalAccount object at 0x7f7ac2046760>)\n +    where <bound method NeonWeb3Client.get_balance of <utils.web3client.NeonWeb3Client object at 0x7f7ac20dd9d0>> = <utils.web3client.NeonWeb3Client object at 0x7f7ac20dd9d0>.get_balance",
        "time" : {
          "start" : 1652696805164,
          "stop" : 1652696805164,
          "duration" : 0
        }
      }, {
        "uid" : "6c776114380d5c38",
        "reportUrl" : "https://apetrovskiy.github.io/neon-tests/devnet/feature/25p/1150//#testresult/6c776114380d5c38",
        "status" : "passed",
        "time" : {
          "start" : 1652695896174,
          "stop" : 1652695898069,
          "duration" : 1895
        }
      }, {
        "uid" : "cde0dfe1b430e389",
        "reportUrl" : "https://apetrovskiy.github.io/neon-tests/devnet/feature/25p/1148//#testresult/cde0dfe1b430e389",
        "status" : "passed",
        "time" : {
          "start" : 1652694705634,
          "stop" : 1652694707862,
          "duration" : 2228
        }
      }, {
        "uid" : "927bfd8c8d30a7b2",
        "reportUrl" : "https://apetrovskiy.github.io/neon-tests/devnet/feature/25p/1146//#testresult/927bfd8c8d30a7b2",
        "status" : "broken",
        "statusDetails" : "TypeError: 'bool' object is not callable",
        "time" : {
          "start" : 1652693956891,
          "stop" : 1652693956891,
          "duration" : 0
        }
      }, {
        "uid" : "b5d62cdb8dfe1232",
        "reportUrl" : "https://apetrovskiy.github.io/neon-tests/devnet/feature/25p/1144//#testresult/b5d62cdb8dfe1232",
        "status" : "broken",
        "statusDetails" : "AttributeError: 'bool' object has no attribute 'status_code'",
        "time" : {
          "start" : 1652693560627,
          "stop" : 1652693560627,
          "duration" : 0
        }
      }, {
        "uid" : "25f596209df5d589",
        "reportUrl" : "https://apetrovskiy.github.io/neon-tests/devnet/feature/25p/1142//#testresult/25f596209df5d589",
        "status" : "broken",
        "statusDetails" : "NameError: name 'HttpStatus' is not defined",
        "time" : {
          "start" : 1652693058213,
          "stop" : 1652693058213,
          "duration" : 0
        }
      } ]
    },
    "tags" : [ ]
  },
  "source" : "8e92ed93ed8256bf.json",
  "parameterValues" : [ ]
}