{
  "uid" : "b47b4cd9086c284d",
  "name" : "test_rpc_call_eth_getBlockByNumber_via_numbers",
  "fullName" : "integration.tests.basic.test_blocks.TestRpcCallsBlocks#test_rpc_call_eth_getBlockByNumber_via_numbers",
  "historyId" : "b31c84439c31d432fef0bc4132e23d4a",
  "time" : {
    "start" : 1647658476469,
    "stop" : 1647658478828,
    "duration" : 2359
  },
  "description" : "Verify implemented rpc calls work eth_getBlockByNumber",
  "descriptionHtml" : "<p>Verify implemented rpc calls work eth_getBlockByNumber</p>\n",
  "status" : "broken",
  "statusMessage" : "ValueError: {'code': -32002, 'message': 'Verifying nonce before send transaction: Error processing Instruction 1: invalid program argument', 'data': {'logs': ['/src/entrypoint.rs Invalid Ethereum transaction nonce: acc 79, trx 78']}}",
  "statusTrace" : "self = <integration.tests.basic.test_blocks.TestRpcCallsBlocks object at 0x7f835ba15b80>\nprepare_accounts = None\n\n    def test_rpc_call_eth_getBlockByNumber_via_numbers(self, prepare_accounts):\n        \"\"\"Verify implemented rpc calls work eth_getBlockByNumber\"\"\"\n    \n>       tx_receipt = self.transfer_neon(self.sender_account,\n                                        self.recipient_account,\n                                        InputData.SAMPLE_AMOUNT.value)\n\nintegration/tests/basic/test_blocks.py:85: \n_ _ _ _ _ _ _ _ _ _ _ _ _ _ _ _ _ _ _ _ _ _ _ _ _ _ _ _ _ _ _ _ _ _ _ _ _ _ _ _ \nintegration/tests/basic/helpers/basic.py:119: in transfer_neon\n    return self.process_transaction(sender_account, recipient_account,\nintegration/tests/basic/helpers/basic.py:88: in process_transaction\n    return self.web3_client.send_neon(sender_account,\nutils/web3client.py:64: in send_neon\n    tx = self._web3.eth.send_raw_transaction(signed_tx.rawTransaction)\n/opt/hostedtoolcache/Python/3.9.10/x64/lib/python3.9/site-packages/web3/eth.py:783: in send_raw_transaction\n    return self._send_raw_transaction(transaction)\n/opt/hostedtoolcache/Python/3.9.10/x64/lib/python3.9/site-packages/web3/module.py:57: in caller\n    result = w3.manager.request_blocking(method_str,\n/opt/hostedtoolcache/Python/3.9.10/x64/lib/python3.9/site-packages/web3/manager.py:198: in request_blocking\n    return self.formatted_response(response,\n_ _ _ _ _ _ _ _ _ _ _ _ _ _ _ _ _ _ _ _ _ _ _ _ _ _ _ _ _ _ _ _ _ _ _ _ _ _ _ _ \n\nself = <web3.manager.RequestManager object at 0x7f835b9dd730>\nresponse = {'error': {'code': -32002, 'data': {'logs': ['/src/entrypoint.rs Invalid Ethereum transaction nonce: acc 79, trx 78']}... nonce before send transaction: Error processing Instruction 1: invalid program argument'}, 'id': 12, 'jsonrpc': '2.0'}\nparams = ('0xf8714e8564da717c00831818209455f7f9f8c12c4dcfb800da85ea98f1ea86ea3951881bc16d674ec8000080841d3581c0a033377a9c28cfdf2a4515ae14215175799bcd134a7bb35482441846d21bfd9028a0231d50aa8277b13b63e2d63919857b553fe7a2c52a2c9459497b8e75cde88f4b',)\nerror_formatters = <cyfunction identity at 0x7f8360d53ee0>\nnull_result_formatters = <cyfunction identity at 0x7f8360d53ee0>\n\n    def formatted_response(\n        self,\n        response: RPCResponse,\n        params: Any,\n        error_formatters: Optional[Callable[..., Any]] = None,\n        null_result_formatters: Optional[Callable[..., Any]] = None,\n    ) -> Any:\n        if \"error\" in response:\n            apply_error_formatters(error_formatters, response)\n>           raise ValueError(response[\"error\"])\nE           ValueError: {'code': -32002, 'message': 'Verifying nonce before send transaction: Error processing Instruction 1: invalid program argument', 'data': {'logs': ['/src/entrypoint.rs Invalid Ethereum transaction nonce: acc 79, trx 78']}}\n\n/opt/hostedtoolcache/Python/3.9.10/x64/lib/python3.9/site-packages/web3/manager.py:171: ValueError",
  "flaky" : false,
  "newFailed" : false,
  "newBroken" : false,
  "newPassed" : false,
  "retriesCount" : 0,
  "retriesStatusChange" : false,
  "beforeStages" : [ {
    "name" : "pytestconfig",
    "time" : {
      "start" : 1647658473823,
      "stop" : 1647658473824,
      "duration" : 1
    },
    "status" : "passed",
    "steps" : [ ],
    "attachments" : [ ],
    "parameters" : [ ],
    "attachmentsCount" : 0,
    "shouldDisplayMessage" : false,
    "hasContent" : false,
    "stepsCount" : 0
  }, {
    "name" : "web3_client",
    "time" : {
      "start" : 1647658473824,
      "stop" : 1647658473825,
      "duration" : 1
    },
    "status" : "passed",
    "steps" : [ ],
    "attachments" : [ ],
    "parameters" : [ ],
    "attachmentsCount" : 0,
    "shouldDisplayMessage" : false,
    "hasContent" : false,
    "stepsCount" : 0
  }, {
    "name" : "allure_environment",
    "time" : {
      "start" : 1647658473825,
      "stop" : 1647658474035,
      "duration" : 210
    },
    "status" : "passed",
    "steps" : [ ],
    "attachments" : [ ],
    "parameters" : [ ],
    "attachmentsCount" : 0,
    "shouldDisplayMessage" : false,
    "hasContent" : false,
    "stepsCount" : 0
  }, {
    "name" : "faucet",
    "time" : {
      "start" : 1647658474036,
      "stop" : 1647658474036,
      "duration" : 0
    },
    "status" : "passed",
    "steps" : [ ],
    "attachments" : [ ],
    "parameters" : [ ],
    "attachmentsCount" : 0,
    "shouldDisplayMessage" : false,
    "hasContent" : false,
    "stepsCount" : 0
  }, {
    "name" : "jsonrpc_requester",
    "time" : {
      "start" : 1647658474036,
      "stop" : 1647658474036,
      "duration" : 0
    },
    "status" : "passed",
    "steps" : [ ],
    "attachments" : [ ],
    "parameters" : [ ],
    "attachmentsCount" : 0,
    "shouldDisplayMessage" : false,
    "hasContent" : false,
    "stepsCount" : 0
  }, {
    "name" : "operator",
    "time" : {
      "start" : 1647658474036,
      "stop" : 1647658474036,
      "duration" : 0
    },
    "status" : "passed",
    "steps" : [ ],
    "attachments" : [ ],
    "parameters" : [ ],
    "attachmentsCount" : 0,
    "shouldDisplayMessage" : false,
    "hasContent" : false,
    "stepsCount" : 0
  }, {
    "name" : "sol_client",
    "time" : {
      "start" : 1647658474036,
      "stop" : 1647658474036,
      "duration" : 0
    },
    "status" : "passed",
    "steps" : [ ],
    "attachments" : [ ],
    "parameters" : [ ],
    "attachmentsCount" : 0,
    "shouldDisplayMessage" : false,
    "hasContent" : false,
    "stepsCount" : 0
  }, {
    "name" : "prepare_json_rpc_requester",
    "time" : {
      "start" : 1647658476464,
      "stop" : 1647658476464,
      "duration" : 0
    },
    "status" : "passed",
    "steps" : [ ],
    "attachments" : [ ],
    "parameters" : [ ],
    "attachmentsCount" : 0,
    "shouldDisplayMessage" : false,
    "hasContent" : false,
    "stepsCount" : 0
  }, {
    "name" : "prepare",
    "time" : {
      "start" : 1647658476464,
      "stop" : 1647658476464,
      "duration" : 0
    },
    "status" : "passed",
    "steps" : [ ],
    "attachments" : [ ],
    "parameters" : [ ],
    "attachmentsCount" : 0,
    "shouldDisplayMessage" : false,
    "hasContent" : false,
    "stepsCount" : 0
  }, {
    "name" : "prepare_accounts",
    "time" : {
      "start" : 1647658476464,
      "stop" : 1647658476468,
      "duration" : 4
    },
    "status" : "passed",
    "steps" : [ ],
    "attachments" : [ ],
    "parameters" : [ ],
    "attachmentsCount" : 0,
    "shouldDisplayMessage" : false,
    "hasContent" : false,
    "stepsCount" : 0
  } ],
  "testStage" : {
    "description" : "Verify implemented rpc calls work eth_getBlockByNumber",
    "status" : "broken",
    "statusMessage" : "ValueError: {'code': -32002, 'message': 'Verifying nonce before send transaction: Error processing Instruction 1: invalid program argument', 'data': {'logs': ['/src/entrypoint.rs Invalid Ethereum transaction nonce: acc 79, trx 78']}}",
    "statusTrace" : "self = <integration.tests.basic.test_blocks.TestRpcCallsBlocks object at 0x7f835ba15b80>\nprepare_accounts = None\n\n    def test_rpc_call_eth_getBlockByNumber_via_numbers(self, prepare_accounts):\n        \"\"\"Verify implemented rpc calls work eth_getBlockByNumber\"\"\"\n    \n>       tx_receipt = self.transfer_neon(self.sender_account,\n                                        self.recipient_account,\n                                        InputData.SAMPLE_AMOUNT.value)\n\nintegration/tests/basic/test_blocks.py:85: \n_ _ _ _ _ _ _ _ _ _ _ _ _ _ _ _ _ _ _ _ _ _ _ _ _ _ _ _ _ _ _ _ _ _ _ _ _ _ _ _ \nintegration/tests/basic/helpers/basic.py:119: in transfer_neon\n    return self.process_transaction(sender_account, recipient_account,\nintegration/tests/basic/helpers/basic.py:88: in process_transaction\n    return self.web3_client.send_neon(sender_account,\nutils/web3client.py:64: in send_neon\n    tx = self._web3.eth.send_raw_transaction(signed_tx.rawTransaction)\n/opt/hostedtoolcache/Python/3.9.10/x64/lib/python3.9/site-packages/web3/eth.py:783: in send_raw_transaction\n    return self._send_raw_transaction(transaction)\n/opt/hostedtoolcache/Python/3.9.10/x64/lib/python3.9/site-packages/web3/module.py:57: in caller\n    result = w3.manager.request_blocking(method_str,\n/opt/hostedtoolcache/Python/3.9.10/x64/lib/python3.9/site-packages/web3/manager.py:198: in request_blocking\n    return self.formatted_response(response,\n_ _ _ _ _ _ _ _ _ _ _ _ _ _ _ _ _ _ _ _ _ _ _ _ _ _ _ _ _ _ _ _ _ _ _ _ _ _ _ _ \n\nself = <web3.manager.RequestManager object at 0x7f835b9dd730>\nresponse = {'error': {'code': -32002, 'data': {'logs': ['/src/entrypoint.rs Invalid Ethereum transaction nonce: acc 79, trx 78']}... nonce before send transaction: Error processing Instruction 1: invalid program argument'}, 'id': 12, 'jsonrpc': '2.0'}\nparams = ('0xf8714e8564da717c00831818209455f7f9f8c12c4dcfb800da85ea98f1ea86ea3951881bc16d674ec8000080841d3581c0a033377a9c28cfdf2a4515ae14215175799bcd134a7bb35482441846d21bfd9028a0231d50aa8277b13b63e2d63919857b553fe7a2c52a2c9459497b8e75cde88f4b',)\nerror_formatters = <cyfunction identity at 0x7f8360d53ee0>\nnull_result_formatters = <cyfunction identity at 0x7f8360d53ee0>\n\n    def formatted_response(\n        self,\n        response: RPCResponse,\n        params: Any,\n        error_formatters: Optional[Callable[..., Any]] = None,\n        null_result_formatters: Optional[Callable[..., Any]] = None,\n    ) -> Any:\n        if \"error\" in response:\n            apply_error_formatters(error_formatters, response)\n>           raise ValueError(response[\"error\"])\nE           ValueError: {'code': -32002, 'message': 'Verifying nonce before send transaction: Error processing Instruction 1: invalid program argument', 'data': {'logs': ['/src/entrypoint.rs Invalid Ethereum transaction nonce: acc 79, trx 78']}}\n\n/opt/hostedtoolcache/Python/3.9.10/x64/lib/python3.9/site-packages/web3/manager.py:171: ValueError",
    "steps" : [ {
      "name" : "Sending 2 from 0x10bA76E88cd03842eb45875e66a0CfD995Ab4D4A to 0x55F7F9f8C12c4dcfb800dA85eA98F1eA86eA3951",
      "time" : {
        "start" : 1647658476469,
        "stop" : 1647658478827,
        "duration" : 2358
      },
      "status" : "broken",
      "statusMessage" : "ValueError: {'code': -32002, 'message': 'Verifying nonce before send transaction: Error processing Instruction 1: invalid program argument', 'data': {'logs': ['/src/entrypoint.rs Invalid Ethereum transaction nonce: acc 79, trx 78']}}\n",
      "statusTrace" : "  File \"/home/runner/work/neon-tests/neon-tests/integration/tests/basic/helpers/basic.py\", line 88, in process_transaction\n    return self.web3_client.send_neon(sender_account,\n  File \"/home/runner/work/neon-tests/neon-tests/utils/web3client.py\", line 64, in send_neon\n    tx = self._web3.eth.send_raw_transaction(signed_tx.rawTransaction)\n  File \"/opt/hostedtoolcache/Python/3.9.10/x64/lib/python3.9/site-packages/web3/eth.py\", line 783, in send_raw_transaction\n    return self._send_raw_transaction(transaction)\n  File \"/opt/hostedtoolcache/Python/3.9.10/x64/lib/python3.9/site-packages/web3/module.py\", line 57, in caller\n    result = w3.manager.request_blocking(method_str,\n  File \"/opt/hostedtoolcache/Python/3.9.10/x64/lib/python3.9/site-packages/web3/manager.py\", line 198, in request_blocking\n    return self.formatted_response(response,\n  File \"/opt/hostedtoolcache/Python/3.9.10/x64/lib/python3.9/site-packages/web3/manager.py\", line 171, in formatted_response\n    raise ValueError(response[\"error\"])\n",
      "steps" : [ ],
      "attachments" : [ ],
      "parameters" : [ ],
      "attachmentsCount" : 0,
      "shouldDisplayMessage" : true,
      "hasContent" : true,
      "stepsCount" : 0
    } ],
    "attachments" : [ ],
    "parameters" : [ ],
    "attachmentsCount" : 0,
    "shouldDisplayMessage" : true,
    "hasContent" : true,
    "stepsCount" : 1
  },
  "afterStages" : [ {
    "name" : "prepare_accounts::0",
    "time" : {
      "start" : 1647658478929,
      "stop" : 1647658478929,
      "duration" : 0
    },
    "status" : "passed",
    "steps" : [ ],
    "attachments" : [ ],
    "parameters" : [ ],
    "attachmentsCount" : 0,
    "shouldDisplayMessage" : false,
    "hasContent" : false,
    "stepsCount" : 0
  }, {
    "name" : "allure_environment::0",
    "time" : {
      "start" : 1647658511621,
      "stop" : 1647658511621,
      "duration" : 0
    },
    "status" : "passed",
    "steps" : [ ],
    "attachments" : [ ],
    "parameters" : [ ],
    "attachmentsCount" : 0,
    "shouldDisplayMessage" : false,
    "hasContent" : false,
    "stepsCount" : 0
  } ],
  "labels" : [ {
    "name" : "story",
    "value" : "Basic: Json-RPC call tests - blocks"
  }, {
    "name" : "parentSuite",
    "value" : "integration.tests.basic"
  }, {
    "name" : "suite",
    "value" : "test_blocks"
  }, {
    "name" : "subSuite",
    "value" : "TestRpcCallsBlocks"
  }, {
    "name" : "host",
    "value" : "fv-az182-62"
  }, {
    "name" : "thread",
    "value" : "1723-MainThread"
  }, {
    "name" : "framework",
    "value" : "pytest"
  }, {
    "name" : "language",
    "value" : "cpython3"
  }, {
    "name" : "package",
    "value" : "integration.tests.basic.test_blocks"
  }, {
    "name" : "resultFormat",
    "value" : "allure2"
  } ],
  "parameters" : [ ],
  "links" : [ ],
  "hidden" : false,
  "retry" : false,
  "extra" : {
    "severity" : "normal",
    "retries" : [ ],
    "categories" : [ {
      "name" : "Test defects",
      "matchedStatuses" : [ ],
      "flaky" : false
    } ],
    "history" : {
      "statistic" : {
        "failed" : 0,
        "broken" : 2,
        "skipped" : 0,
        "passed" : 0,
        "unknown" : 0,
        "total" : 2
      },
      "items" : [ {
        "uid" : "5a77392b0547f53",
        "reportUrl" : "https://apetrovskiy.github.io/neon-tests/release-stand/feature/254t/659//#testresult/5a77392b0547f53",
        "status" : "broken",
        "statusDetails" : "ValueError: {'code': -32002, 'message': 'Verifying nonce before send transaction: Error processing Instruction 1: invalid program argument', 'data': {'logs': ['/src/entrypoint.rs Invalid Ethereum transaction nonce: acc 65, trx 64']}}",
        "time" : {
          "start" : 1647658436620,
          "stop" : 1647658438807,
          "duration" : 2187
        }
      } ]
    },
    "tags" : [ ]
  },
  "source" : "b47b4cd9086c284d.json",
  "parameterValues" : [ ]
}