{'from': '0xc9caee0951E1969DEaAD5C2f7a0532368D1a9712', 'to': '0x91fDe64885558b02D08EcF58A4f803ba97ec487a', 'value': 5000000000000000000, 'chainId': 111, 'gasPrice': 402325000000, 'gas': 15000, 'nonce': 0}
b'\x9a\x9et\xf0\x99\xa0^\xca\xf1\x1e6\x89\xe0e\xaf\xed\xddy}U\x11\xeb\xd0\xbb\x1b\x80\xca.9\x16|j'
SignedTransaction(rawTransaction=HexBytes('0xf86e80855dac704f40823a989491fde64885558b02d08ecf58a4f803ba97ec487a884563918244f4000080820102a0dd3dbcc49c8853a98428b169cf072415a52c0c14b2ac8518040a81b66f2984e9a00a4ae80c248b2ca08d2544418b8cd53e14821de6dab1459c88693569c602913d'), hash=HexBytes('0xa5902f4fb1760d27eeb91bd45c25be9b1459d7d1c64d167d824012c922363d18'), r=100070220036800895757298895144626846446316752421865464176989855128421281662185, s=4655476701146575237234843078598554033416556247069920889926175585200786018621, v=258)
