{
  "uid" : "e027d5e336879ef3",
  "name" : "test_rpc_call_eth_sendRawTransaction",
  "fullName" : "integration.tests.basic.test_transactions.TestRpcCallsTransactions#test_rpc_call_eth_sendRawTransaction",
  "historyId" : "f2266f2fcf46a3382764047e40d95c33",
  "time" : {
    "start" : 1647245405219,
    "stop" : 1647245406448,
    "duration" : 1229
  },
  "description" : "Verify implemented rpc calls work eth_sendRawTransaction",
  "descriptionHtml" : "<p>Verify implemented rpc calls work eth_sendRawTransaction</p>\n",
  "status" : "broken",
  "statusMessage" : "IndexError: Replacement index 1 out of range for positional args tuple",
  "statusTrace" : "self = <integration.tests.basic.test_transactions.TestRpcCallsTransactions object at 0x7fca2c2a3eb0>\nprepare_accounts = None\n\n    @allure.step(\n        \"test: verify implemented rpc calls work eth_sendRawTransaction\")\n    def test_rpc_call_eth_sendRawTransaction(self, prepare_accounts):\n        \"\"\"Verify implemented rpc calls work eth_sendRawTransaction\"\"\"\n    \n        # TODO: chain id\n        transaction = {\n            \"from\":\n            self.sender_account.address,\n            \"to\":\n            self.recipient_account.address,\n            \"value\":\n            self.web3_client.toWei(InputData.SAMPLE_AMOUNT.value, \"ether\"),\n            \"chainId\":\n            111,\n            \"gasPrice\":\n            self.web3_client.gas_price(),\n            \"gas\":\n            0,\n            \"nonce\":\n            self.web3_client.eth.get_transaction_count(\n                self.sender_account.address),\n        }\n        transaction[\"gas\"] = self.web3_client.eth.estimate_gas(transaction)\n    \n        signed_tx = self.web3_client.eth.account.sign_transaction(\n            transaction, self.sender_account.key)\n    \n        params = [signed_tx.rawTransaction.hex()]\n    \n        model = RpcRequestFactory.get_send_raw_trx(params=params)\n        response = self.jsonrpc_requester.request_json_rpc(model)\n>       actual_result = self.jsonrpc_requester.deserialize_response(response)\n\nintegration/tests/basic/test_transactions.py:82: \n_ _ _ _ _ _ _ _ _ _ _ _ _ _ _ _ _ _ _ _ _ _ _ _ _ _ _ _ _ _ _ _ _ _ _ _ _ _ _ _ \n\nself = <integration.tests.basic.helpers.json_rpc_requester.JsonRpcRequester object at 0x7fca2c61b820>\nresponse = <Response [200]>, type = None\n\n    def deserialize_response(\n            self,\n            response: Response,\n            type: Type = None) -> Union[JsonRpcResponse, JsonRpcErrorResponse]:\n        str_data = self.stringify(response.json())\n        if 'result' in str_data:\n>           return self.deserialize_successful_response(response=response,\nE           IndexError: Replacement index 1 out of range for positional args tuple\n\nintegration/tests/basic/helpers/json_rpc_requester.py:27: IndexError",
  "flaky" : false,
  "newFailed" : false,
  "newBroken" : false,
  "newPassed" : false,
  "retriesCount" : 0,
  "retriesStatusChange" : false,
  "beforeStages" : [ {
    "name" : "pytestconfig",
    "time" : {
      "start" : 1647245227034,
      "stop" : 1647245227034,
      "duration" : 0
    },
    "status" : "passed",
    "steps" : [ ],
    "attachments" : [ ],
    "parameters" : [ ],
    "stepsCount" : 0,
    "attachmentsCount" : 0,
    "shouldDisplayMessage" : false,
    "hasContent" : false
  }, {
    "name" : "web3_client",
    "time" : {
      "start" : 1647245227034,
      "stop" : 1647245227035,
      "duration" : 1
    },
    "status" : "passed",
    "steps" : [ ],
    "attachments" : [ ],
    "parameters" : [ ],
    "stepsCount" : 0,
    "attachmentsCount" : 0,
    "shouldDisplayMessage" : false,
    "hasContent" : false
  }, {
    "name" : "allure_environment",
    "time" : {
      "start" : 1647245227035,
      "stop" : 1647245227890,
      "duration" : 855
    },
    "status" : "passed",
    "steps" : [ ],
    "attachments" : [ ],
    "parameters" : [ ],
    "stepsCount" : 0,
    "attachmentsCount" : 0,
    "shouldDisplayMessage" : false,
    "hasContent" : false
  }, {
    "name" : "faucet",
    "time" : {
      "start" : 1647245227891,
      "stop" : 1647245227891,
      "duration" : 0
    },
    "status" : "passed",
    "steps" : [ ],
    "attachments" : [ ],
    "parameters" : [ ],
    "stepsCount" : 0,
    "attachmentsCount" : 0,
    "shouldDisplayMessage" : false,
    "hasContent" : false
  }, {
    "name" : "operator",
    "time" : {
      "start" : 1647245227891,
      "stop" : 1647245227891,
      "duration" : 0
    },
    "status" : "passed",
    "steps" : [ ],
    "attachments" : [ ],
    "parameters" : [ ],
    "stepsCount" : 0,
    "attachmentsCount" : 0,
    "shouldDisplayMessage" : false,
    "hasContent" : false
  }, {
    "name" : "jsonrpc_requester",
    "time" : {
      "start" : 1647245227891,
      "stop" : 1647245227891,
      "duration" : 0
    },
    "status" : "passed",
    "steps" : [ ],
    "attachments" : [ ],
    "parameters" : [ ],
    "stepsCount" : 0,
    "attachmentsCount" : 0,
    "shouldDisplayMessage" : false,
    "hasContent" : false
  }, {
    "name" : "sol_client",
    "time" : {
      "start" : 1647245227891,
      "stop" : 1647245227891,
      "duration" : 0
    },
    "status" : "passed",
    "steps" : [ ],
    "attachments" : [ ],
    "parameters" : [ ],
    "stepsCount" : 0,
    "attachmentsCount" : 0,
    "shouldDisplayMessage" : false,
    "hasContent" : false
  }, {
    "name" : "prepare_account",
    "time" : {
      "start" : 1647245394515,
      "stop" : 1647245401018,
      "duration" : 6503
    },
    "status" : "passed",
    "steps" : [ {
      "name" : "Create account for tests",
      "time" : {
        "start" : 1647245394515,
        "stop" : 1647245394520,
        "duration" : 5
      },
      "status" : "passed",
      "steps" : [ ],
      "attachments" : [ ],
      "parameters" : [ ],
      "stepsCount" : 0,
      "attachmentsCount" : 0,
      "shouldDisplayMessage" : false,
      "hasContent" : false
    }, {
      "name" : "Request 1000 NEON from faucet for 0x02AF648e5eA17b75073a3924B357B40c17C9a7a9",
      "time" : {
        "start" : 1647245394520,
        "stop" : 1647245395286,
        "duration" : 766
      },
      "status" : "passed",
      "steps" : [ ],
      "attachments" : [ ],
      "parameters" : [ ],
      "stepsCount" : 0,
      "attachmentsCount" : 0,
      "shouldDisplayMessage" : false,
      "hasContent" : false
    }, {
      "name" : "Operator initial balance: 0.00220483682079618164544 NEON 74064668.3717319 SOL",
      "time" : {
        "start" : 1647245401018,
        "stop" : 1647245401018,
        "duration" : 0
      },
      "status" : "passed",
      "steps" : [ ],
      "attachments" : [ ],
      "parameters" : [ ],
      "stepsCount" : 0,
      "attachmentsCount" : 0,
      "shouldDisplayMessage" : false,
      "hasContent" : false
    } ],
    "attachments" : [ ],
    "parameters" : [ ],
    "stepsCount" : 3,
    "attachmentsCount" : 0,
    "shouldDisplayMessage" : false,
    "hasContent" : true
  }, {
    "name" : "prepare_account",
    "time" : {
      "start" : 1647245403943,
      "stop" : 1647245403943,
      "duration" : 0
    },
    "status" : "passed",
    "steps" : [ ],
    "attachments" : [ ],
    "parameters" : [ ],
    "stepsCount" : 0,
    "attachmentsCount" : 0,
    "shouldDisplayMessage" : false,
    "hasContent" : false
  }, {
    "name" : "prepare",
    "time" : {
      "start" : 1647245403943,
      "stop" : 1647245403943,
      "duration" : 0
    },
    "status" : "passed",
    "steps" : [ ],
    "attachments" : [ ],
    "parameters" : [ ],
    "stepsCount" : 0,
    "attachmentsCount" : 0,
    "shouldDisplayMessage" : false,
    "hasContent" : false
  }, {
    "name" : "prepare_json_rpc_requester",
    "time" : {
      "start" : 1647245403943,
      "stop" : 1647245403943,
      "duration" : 0
    },
    "status" : "passed",
    "steps" : [ ],
    "attachments" : [ ],
    "parameters" : [ ],
    "stepsCount" : 0,
    "attachmentsCount" : 0,
    "shouldDisplayMessage" : false,
    "hasContent" : false
  }, {
    "name" : "prepare_accounts",
    "time" : {
      "start" : 1647245403944,
      "stop" : 1647245405218,
      "duration" : 1274
    },
    "status" : "passed",
    "steps" : [ {
      "name" : "creating a new account with balance",
      "time" : {
        "start" : 1647245403944,
        "stop" : 1647245404580,
        "duration" : 636
      },
      "status" : "passed",
      "steps" : [ {
        "name" : "creating a new account",
        "time" : {
          "start" : 1647245403944,
          "stop" : 1647245403947,
          "duration" : 3
        },
        "status" : "passed",
        "steps" : [ ],
        "attachments" : [ ],
        "parameters" : [ ],
        "stepsCount" : 0,
        "attachmentsCount" : 0,
        "shouldDisplayMessage" : false,
        "hasContent" : false
      }, {
        "name" : "requesting faucet for Neon",
        "time" : {
          "start" : 1647245403947,
          "stop" : 1647245404580,
          "duration" : 633
        },
        "status" : "passed",
        "steps" : [ ],
        "attachments" : [ ],
        "parameters" : [ {
          "name" : "wallet",
          "value" : "'0x89b4b48575ade36Df6f91AD4750e1E23a0D3a880'"
        }, {
          "name" : "amount",
          "value" : "5"
        } ],
        "stepsCount" : 0,
        "attachmentsCount" : 0,
        "shouldDisplayMessage" : false,
        "hasContent" : true
      } ],
      "attachments" : [ ],
      "parameters" : [ {
        "name" : "amount",
        "value" : "5"
      } ],
      "stepsCount" : 2,
      "attachmentsCount" : 0,
      "shouldDisplayMessage" : false,
      "hasContent" : true
    }, {
      "name" : "creating a new account with balance",
      "time" : {
        "start" : 1647245404580,
        "stop" : 1647245405218,
        "duration" : 638
      },
      "status" : "passed",
      "steps" : [ {
        "name" : "creating a new account",
        "time" : {
          "start" : 1647245404580,
          "stop" : 1647245404585,
          "duration" : 5
        },
        "status" : "passed",
        "steps" : [ ],
        "attachments" : [ ],
        "parameters" : [ ],
        "stepsCount" : 0,
        "attachmentsCount" : 0,
        "shouldDisplayMessage" : false,
        "hasContent" : false
      }, {
        "name" : "requesting faucet for Neon",
        "time" : {
          "start" : 1647245404585,
          "stop" : 1647245405218,
          "duration" : 633
        },
        "status" : "passed",
        "steps" : [ ],
        "attachments" : [ ],
        "parameters" : [ {
          "name" : "wallet",
          "value" : "'0xd3F49F57EbA33Bba8Cac7518a94ba83382348d39'"
        }, {
          "name" : "amount",
          "value" : "5"
        } ],
        "stepsCount" : 0,
        "attachmentsCount" : 0,
        "shouldDisplayMessage" : false,
        "hasContent" : true
      } ],
      "attachments" : [ ],
      "parameters" : [ {
        "name" : "amount",
        "value" : "5"
      } ],
      "stepsCount" : 2,
      "attachmentsCount" : 0,
      "shouldDisplayMessage" : false,
      "hasContent" : true
    } ],
    "attachments" : [ ],
    "parameters" : [ ],
    "stepsCount" : 6,
    "attachmentsCount" : 0,
    "shouldDisplayMessage" : false,
    "hasContent" : true
  } ],
  "testStage" : {
    "description" : "Verify implemented rpc calls work eth_sendRawTransaction",
    "status" : "broken",
    "statusMessage" : "IndexError: Replacement index 1 out of range for positional args tuple",
    "statusTrace" : "self = <integration.tests.basic.test_transactions.TestRpcCallsTransactions object at 0x7fca2c2a3eb0>\nprepare_accounts = None\n\n    @allure.step(\n        \"test: verify implemented rpc calls work eth_sendRawTransaction\")\n    def test_rpc_call_eth_sendRawTransaction(self, prepare_accounts):\n        \"\"\"Verify implemented rpc calls work eth_sendRawTransaction\"\"\"\n    \n        # TODO: chain id\n        transaction = {\n            \"from\":\n            self.sender_account.address,\n            \"to\":\n            self.recipient_account.address,\n            \"value\":\n            self.web3_client.toWei(InputData.SAMPLE_AMOUNT.value, \"ether\"),\n            \"chainId\":\n            111,\n            \"gasPrice\":\n            self.web3_client.gas_price(),\n            \"gas\":\n            0,\n            \"nonce\":\n            self.web3_client.eth.get_transaction_count(\n                self.sender_account.address),\n        }\n        transaction[\"gas\"] = self.web3_client.eth.estimate_gas(transaction)\n    \n        signed_tx = self.web3_client.eth.account.sign_transaction(\n            transaction, self.sender_account.key)\n    \n        params = [signed_tx.rawTransaction.hex()]\n    \n        model = RpcRequestFactory.get_send_raw_trx(params=params)\n        response = self.jsonrpc_requester.request_json_rpc(model)\n>       actual_result = self.jsonrpc_requester.deserialize_response(response)\n\nintegration/tests/basic/test_transactions.py:82: \n_ _ _ _ _ _ _ _ _ _ _ _ _ _ _ _ _ _ _ _ _ _ _ _ _ _ _ _ _ _ _ _ _ _ _ _ _ _ _ _ \n\nself = <integration.tests.basic.helpers.json_rpc_requester.JsonRpcRequester object at 0x7fca2c61b820>\nresponse = <Response [200]>, type = None\n\n    def deserialize_response(\n            self,\n            response: Response,\n            type: Type = None) -> Union[JsonRpcResponse, JsonRpcErrorResponse]:\n        str_data = self.stringify(response.json())\n        if 'result' in str_data:\n>           return self.deserialize_successful_response(response=response,\nE           IndexError: Replacement index 1 out of range for positional args tuple\n\nintegration/tests/basic/helpers/json_rpc_requester.py:27: IndexError",
    "steps" : [ {
      "name" : "test: verify implemented rpc calls work eth_sendRawTransaction",
      "time" : {
        "start" : 1647245405219,
        "stop" : 1647245406448,
        "duration" : 1229
      },
      "status" : "broken",
      "statusMessage" : "IndexError: Replacement index 1 out of range for positional args tuple\n",
      "statusTrace" : "  File \"/opt/hostedtoolcache/Python/3.9.10/x64/lib/python3.9/site-packages/allure_commons/_allure.py\", line 172, in impl\n    return func(*a, **kw)\n  File \"/home/runner/work/neon-tests/neon-tests/integration/tests/basic/test_transactions.py\", line 82, in test_rpc_call_eth_sendRawTransaction\n    actual_result = self.jsonrpc_requester.deserialize_response(response)\n  File \"/home/runner/work/neon-tests/neon-tests/integration/tests/basic/helpers/json_rpc_requester.py\", line 27, in deserialize_response\n    return self.deserialize_successful_response(response=response,\n  File \"/opt/hostedtoolcache/Python/3.9.10/x64/lib/python3.9/site-packages/allure_commons/_allure.py\", line 171, in impl\n    with StepContext(self.title.format(*args, **params), params):\n",
      "steps" : [ {
        "name" : "requesting Json-RPC",
        "time" : {
          "start" : 1647245405899,
          "stop" : 1647245406448,
          "duration" : 549
        },
        "status" : "passed",
        "steps" : [ ],
        "attachments" : [ ],
        "parameters" : [ {
          "name" : "data",
          "value" : "JsonRpcRequest(id=20, method='eth_sendRawTransaction', params=['0xf86e80855ae40e6340823a9894d3f49f57eba33bba8cac7518a94ba83382348d39883782dace9d90000080820102a045972ad1a293ae85a3e9610846d578317cb6ee6c5408fd74052cb4980ff2ca7fa03ebb578e9c57c9d40eea78f45aaff95fc5a124dbc4cf90f072e62c0d28ada883'], jsonrpc='2.0')"
        } ],
        "stepsCount" : 0,
        "attachmentsCount" : 0,
        "shouldDisplayMessage" : false,
        "hasContent" : true
      }, {
        "name" : "showing as JSON",
        "time" : {
          "start" : 1647245406448,
          "stop" : 1647245406448,
          "duration" : 0
        },
        "status" : "passed",
        "steps" : [ ],
        "attachments" : [ ],
        "parameters" : [ {
          "name" : "data",
          "value" : "{'jsonrpc': '2.0', 'id': 20, 'result': '0xeae228c5ed55a5befb57a69ec0358b87ffb8d4596bea0f5638d21daf54256763'}"
        } ],
        "stepsCount" : 0,
        "attachmentsCount" : 0,
        "shouldDisplayMessage" : false,
        "hasContent" : true
      } ],
      "attachments" : [ ],
      "parameters" : [ {
        "name" : "prepare_accounts",
        "value" : "None"
      } ],
      "stepsCount" : 2,
      "attachmentsCount" : 0,
      "shouldDisplayMessage" : true,
      "hasContent" : true
    } ],
    "attachments" : [ ],
    "parameters" : [ ],
    "stepsCount" : 3,
    "attachmentsCount" : 0,
    "shouldDisplayMessage" : true,
    "hasContent" : true
  },
  "afterStages" : [ {
    "name" : "prepare_accounts::0",
    "time" : {
      "start" : 1647245406454,
      "stop" : 1647245406454,
      "duration" : 0
    },
    "status" : "passed",
    "steps" : [ ],
    "attachments" : [ ],
    "parameters" : [ ],
    "stepsCount" : 0,
    "attachmentsCount" : 0,
    "shouldDisplayMessage" : false,
    "hasContent" : false
  }, {
    "name" : "prepare_account::0",
    "time" : {
      "start" : 1647245412290,
      "stop" : 1647245418151,
      "duration" : 5861
    },
    "status" : "passed",
    "steps" : [ {
      "name" : "Operator end balance: 0.00220483685007417200544 NEON 74064668.29341991 SOL",
      "time" : {
        "start" : 1647245418019,
        "stop" : 1647245418019,
        "duration" : 0
      },
      "status" : "passed",
      "steps" : [ ],
      "attachments" : [ ],
      "parameters" : [ ],
      "stepsCount" : 0,
      "attachmentsCount" : 0,
      "shouldDisplayMessage" : false,
      "hasContent" : false
    }, {
      "name" : "Account end balance: 1000 NEON",
      "time" : {
        "start" : 1647245418151,
        "stop" : 1647245418151,
        "duration" : 0
      },
      "status" : "passed",
      "steps" : [ ],
      "attachments" : [ ],
      "parameters" : [ ],
      "stepsCount" : 0,
      "attachmentsCount" : 0,
      "shouldDisplayMessage" : false,
      "hasContent" : false
    } ],
    "attachments" : [ ],
    "parameters" : [ ],
    "stepsCount" : 2,
    "attachmentsCount" : 0,
    "shouldDisplayMessage" : false,
    "hasContent" : true
  }, {
    "name" : "allure_environment::0",
    "time" : {
      "start" : 1647245453620,
      "stop" : 1647245453620,
      "duration" : 0
    },
    "status" : "passed",
    "steps" : [ ],
    "attachments" : [ ],
    "parameters" : [ ],
    "stepsCount" : 0,
    "attachmentsCount" : 0,
    "shouldDisplayMessage" : false,
    "hasContent" : false
  } ],
  "labels" : [ {
    "name" : "story",
    "value" : "Basic: Json-RPC call tests - transactions"
  }, {
    "name" : "parentSuite",
    "value" : "integration.tests.basic"
  }, {
    "name" : "suite",
    "value" : "test_transactions"
  }, {
    "name" : "subSuite",
    "value" : "TestRpcCallsTransactions"
  }, {
    "name" : "host",
    "value" : "fv-az129-842"
  }, {
    "name" : "thread",
    "value" : "1715-MainThread"
  }, {
    "name" : "framework",
    "value" : "pytest"
  }, {
    "name" : "language",
    "value" : "cpython3"
  }, {
    "name" : "package",
    "value" : "integration.tests.basic.test_transactions"
  }, {
    "name" : "resultFormat",
    "value" : "allure2"
  } ],
  "parameters" : [ ],
  "links" : [ ],
  "hidden" : false,
  "retry" : false,
  "extra" : {
    "severity" : "normal",
    "retries" : [ ],
    "categories" : [ {
      "name" : "Test defects",
      "matchedStatuses" : [ ],
      "flaky" : false
    } ],
    "history" : {
      "statistic" : {
        "failed" : 0,
        "broken" : 2,
        "skipped" : 0,
        "passed" : 5,
        "unknown" : 0,
        "total" : 7
      },
      "items" : [ {
        "uid" : "3f2eb47597ed90ae",
        "reportUrl" : "https://apetrovskiy.github.io/neon-tests/feature/254q/520//#testresult/3f2eb47597ed90ae",
        "status" : "broken",
        "statusDetails" : "IndexError: Replacement index 2 out of range for positional args tuple",
        "time" : {
          "start" : 1647244210706,
          "stop" : 1647244212058,
          "duration" : 1352
        }
      }, {
        "uid" : "f36fd447d3b9cb2e",
        "reportUrl" : "https://apetrovskiy.github.io/neon-tests/feature/254q/516//#testresult/f36fd447d3b9cb2e",
        "status" : "passed",
        "time" : {
          "start" : 1647242946375,
          "stop" : 1647242947524,
          "duration" : 1149
        }
      }, {
        "uid" : "8b45110baf8f3030",
        "reportUrl" : "https://apetrovskiy.github.io/neon-tests/feature/254q/514//#testresult/8b45110baf8f3030",
        "status" : "passed",
        "time" : {
          "start" : 1647242849848,
          "stop" : 1647242851474,
          "duration" : 1626
        }
      }, {
        "uid" : "c01af46f124cadcb",
        "reportUrl" : "https://apetrovskiy.github.io/neon-tests/feature/254q/510//#testresult/c01af46f124cadcb",
        "status" : "passed",
        "time" : {
          "start" : 1647241802429,
          "stop" : 1647241804174,
          "duration" : 1745
        }
      }, {
        "uid" : "1c3ee7cb2f02a6b9",
        "reportUrl" : "https://apetrovskiy.github.io/neon-tests/feature/254q/508//#testresult/1c3ee7cb2f02a6b9",
        "status" : "passed",
        "time" : {
          "start" : 1647239871926,
          "stop" : 1647239873060,
          "duration" : 1134
        }
      }, {
        "uid" : "768b921488cfa6b8",
        "reportUrl" : "https://apetrovskiy.github.io/neon-tests/feature/254q/506//#testresult/768b921488cfa6b8",
        "status" : "passed",
        "time" : {
          "start" : 1647239613560,
          "stop" : 1647239615308,
          "duration" : 1748
        }
      } ]
    },
    "tags" : [ ]
  },
  "source" : "e027d5e336879ef3.json",
  "parameterValues" : [ ]
}