{
  "uid" : "3b8ff0f3ab019657",
  "name" : "test_rpc_call_eth_sendRawTransaction",
  "fullName" : "integration.tests.basic.test_transactions.TestRpcCallsTransactions#test_rpc_call_eth_sendRawTransaction",
  "historyId" : "f2266f2fcf46a3382764047e40d95c33",
  "time" : {
    "start" : 1646724181293,
    "stop" : 1646724183528,
    "duration" : 2235
  },
  "description" : "Verify implemented rpc calls work eth_sendRawTransaction",
  "descriptionHtml" : "<p>Verify implemented rpc calls work eth_sendRawTransaction</p>\n",
  "status" : "broken",
  "statusMessage" : "TypeError: Object of type HexBytes is not JSON serializable",
  "statusTrace" : "self = <integration.tests.basic.test_transactions.TestRpcCallsTransactions object at 0x7f96bb02da30>\n\n    @allure.step(\n        \"test: verify implemented rpc calls work eth_sendRawTransaction\")\n    def test_rpc_call_eth_sendRawTransaction(self):\n        \"\"\"Verify implemented rpc calls work eth_sendRawTransaction\"\"\"\n        sender_account = self.create_account_with_balance(GREAT_AMOUNT)\n        recipient_account = self.create_account_with_balance(\n            FIRST_FAUCET_REQUEST_AMOUNT)\n    \n        # TODO: chain id\n        transaction = {\n            \"from\":\n            sender_account.address,\n            \"to\":\n            recipient_account.address,\n            \"value\":\n            self.web3_client.toWei(SAMPLE_AMOUNT, \"ether\"),\n            \"chainId\":\n            111,\n            \"gasPrice\":\n            self.web3_client.gas_price(),\n            \"gas\":\n            0,\n            \"nonce\":\n            self.web3_client.eth.get_transaction_count(sender_account.address),\n        }\n        transaction[\"gas\"] = self.web3_client.eth.estimate_gas(transaction)\n    \n        #\n        print(transaction)\n        print(sender_account.key)\n        #\n    \n        signed_tx = self.web3_client.eth.account.sign_transaction(\n            transaction, sender_account.key)\n        params = [signed_tx]\n    \n        #\n        print(signed_tx)\n        #\n    \n        model = RpcRequestFactory.get_send_raw_trx(params=params)\n>       response = self.jsonrpc_requester.request_json_rpc(model)\n\nintegration/tests/basic/test_transactions.py:96: \n_ _ _ _ _ _ _ _ _ _ _ _ _ _ _ _ _ _ _ _ _ _ _ _ _ _ _ _ _ _ _ _ _ _ _ _ _ _ _ _ \nintegration/tests/basic/helpers/json_rpc_requester.py:20: in request_json_rpc\n    return self._session.post(self._url, json=dataclasses.asdict(data))\n/opt/hostedtoolcache/Python/3.9.10/x64/lib/python3.9/site-packages/requests/sessions.py:577: in post\n    return self.request('POST', url, data=data, json=json, **kwargs)\n/opt/hostedtoolcache/Python/3.9.10/x64/lib/python3.9/site-packages/requests/sessions.py:515: in request\n    prep = self.prepare_request(req)\n/opt/hostedtoolcache/Python/3.9.10/x64/lib/python3.9/site-packages/requests/sessions.py:443: in prepare_request\n    p.prepare(\n/opt/hostedtoolcache/Python/3.9.10/x64/lib/python3.9/site-packages/requests/models.py:321: in prepare\n    self.prepare_body(data, files, json)\n/opt/hostedtoolcache/Python/3.9.10/x64/lib/python3.9/site-packages/requests/models.py:473: in prepare_body\n    body = complexjson.dumps(json, allow_nan=False)\n/opt/hostedtoolcache/Python/3.9.10/x64/lib/python3.9/json/__init__.py:234: in dumps\n    return cls(\n/opt/hostedtoolcache/Python/3.9.10/x64/lib/python3.9/json/encoder.py:199: in encode\n    chunks = self.iterencode(o, _one_shot=True)\n/opt/hostedtoolcache/Python/3.9.10/x64/lib/python3.9/json/encoder.py:257: in iterencode\n    return _iterencode(o, 0)\n_ _ _ _ _ _ _ _ _ _ _ _ _ _ _ _ _ _ _ _ _ _ _ _ _ _ _ _ _ _ _ _ _ _ _ _ _ _ _ _ \n\nself = <json.encoder.JSONEncoder object at 0x7f96baf13a00>\no = HexBytes('0xf86e80855d75a053c0823a98943e446fd172c5e734da6e621f74ca5cb8b9f086f3884563918244f4000080820101a0f621628f54a68dcf42d483da88da1971bb0c650d58199d16542c3b16672c3673a04cae21d5b11a63e46e9b3a14804065277ae06d4d9ad92e84797fcf02af89527d')\n\n    def default(self, o):\n        \"\"\"Implement this method in a subclass such that it returns\n        a serializable object for ``o``, or calls the base implementation\n        (to raise a ``TypeError``).\n    \n        For example, to support arbitrary iterators, you could\n        implement default like this::\n    \n            def default(self, o):\n                try:\n                    iterable = iter(o)\n                except TypeError:\n                    pass\n                else:\n                    return list(iterable)\n                # Let the base class default method raise the TypeError\n                return JSONEncoder.default(self, o)\n    \n        \"\"\"\n>       raise TypeError(f'Object of type {o.__class__.__name__} '\n                        f'is not JSON serializable')\nE       TypeError: Object of type HexBytes is not JSON serializable\n\n/opt/hostedtoolcache/Python/3.9.10/x64/lib/python3.9/json/encoder.py:179: TypeError",
  "flaky" : false,
  "newFailed" : false,
  "newBroken" : false,
  "newPassed" : false,
  "retriesCount" : 0,
  "retriesStatusChange" : false,
  "beforeStages" : [ {
    "name" : "web3_client",
    "time" : {
      "start" : 1646724102172,
      "stop" : 1646724102174,
      "duration" : 2
    },
    "status" : "passed",
    "steps" : [ ],
    "attachments" : [ ],
    "parameters" : [ ],
    "stepsCount" : 0,
    "attachmentsCount" : 0,
    "shouldDisplayMessage" : false,
    "hasContent" : false
  }, {
    "name" : "pytestconfig",
    "time" : {
      "start" : 1646724102172,
      "stop" : 1646724102172,
      "duration" : 0
    },
    "status" : "passed",
    "steps" : [ ],
    "attachments" : [ ],
    "parameters" : [ ],
    "stepsCount" : 0,
    "attachmentsCount" : 0,
    "shouldDisplayMessage" : false,
    "hasContent" : false
  }, {
    "name" : "allure_environment",
    "time" : {
      "start" : 1646724102174,
      "stop" : 1646724103230,
      "duration" : 1056
    },
    "status" : "passed",
    "steps" : [ ],
    "attachments" : [ ],
    "parameters" : [ ],
    "stepsCount" : 0,
    "attachmentsCount" : 0,
    "shouldDisplayMessage" : false,
    "hasContent" : false
  }, {
    "name" : "faucet",
    "time" : {
      "start" : 1646724103230,
      "stop" : 1646724103230,
      "duration" : 0
    },
    "status" : "passed",
    "steps" : [ ],
    "attachments" : [ ],
    "parameters" : [ ],
    "stepsCount" : 0,
    "attachmentsCount" : 0,
    "shouldDisplayMessage" : false,
    "hasContent" : false
  }, {
    "name" : "jsonrpc_requester",
    "time" : {
      "start" : 1646724103230,
      "stop" : 1646724103230,
      "duration" : 0
    },
    "status" : "passed",
    "steps" : [ ],
    "attachments" : [ ],
    "parameters" : [ ],
    "stepsCount" : 0,
    "attachmentsCount" : 0,
    "shouldDisplayMessage" : false,
    "hasContent" : false
  }, {
    "name" : "operator",
    "time" : {
      "start" : 1646724103231,
      "stop" : 1646724103231,
      "duration" : 0
    },
    "status" : "passed",
    "steps" : [ ],
    "attachments" : [ ],
    "parameters" : [ ],
    "stepsCount" : 0,
    "attachmentsCount" : 0,
    "shouldDisplayMessage" : false,
    "hasContent" : false
  }, {
    "name" : "sol_client",
    "time" : {
      "start" : 1646724103231,
      "stop" : 1646724103231,
      "duration" : 0
    },
    "status" : "passed",
    "steps" : [ ],
    "attachments" : [ ],
    "parameters" : [ ],
    "stepsCount" : 0,
    "attachmentsCount" : 0,
    "shouldDisplayMessage" : false,
    "hasContent" : false
  }, {
    "name" : "prepare_account",
    "time" : {
      "start" : 1646724172058,
      "stop" : 1646724178137,
      "duration" : 6079
    },
    "status" : "passed",
    "steps" : [ {
      "name" : "Create account for tests",
      "time" : {
        "start" : 1646724172058,
        "stop" : 1646724172063,
        "duration" : 5
      },
      "status" : "passed",
      "steps" : [ ],
      "attachments" : [ ],
      "parameters" : [ ],
      "stepsCount" : 0,
      "attachmentsCount" : 0,
      "shouldDisplayMessage" : false,
      "hasContent" : false
    }, {
      "name" : "Request 1000 NEON from faucet for 0xD74a1605f82C41e35a16E4495f31681F56EC4daa",
      "time" : {
        "start" : 1646724172063,
        "stop" : 1646724172906,
        "duration" : 843
      },
      "status" : "passed",
      "steps" : [ ],
      "attachments" : [ ],
      "parameters" : [ ],
      "stepsCount" : 0,
      "attachmentsCount" : 0,
      "shouldDisplayMessage" : false,
      "hasContent" : false
    }, {
      "name" : "Operator initial balance: 0.0024343865158119048454 NEON 74070870.66225055 SOL",
      "time" : {
        "start" : 1646724178136,
        "stop" : 1646724178136,
        "duration" : 0
      },
      "status" : "passed",
      "steps" : [ ],
      "attachments" : [ ],
      "parameters" : [ ],
      "stepsCount" : 0,
      "attachmentsCount" : 0,
      "shouldDisplayMessage" : false,
      "hasContent" : false
    } ],
    "attachments" : [ ],
    "parameters" : [ ],
    "stepsCount" : 3,
    "attachmentsCount" : 0,
    "shouldDisplayMessage" : false,
    "hasContent" : true
  }, {
    "name" : "prepare_json_rpc_requester",
    "time" : {
      "start" : 1646724181292,
      "stop" : 1646724181292,
      "duration" : 0
    },
    "status" : "passed",
    "steps" : [ ],
    "attachments" : [ ],
    "parameters" : [ ],
    "stepsCount" : 0,
    "attachmentsCount" : 0,
    "shouldDisplayMessage" : false,
    "hasContent" : false
  }, {
    "name" : "prepare",
    "time" : {
      "start" : 1646724181292,
      "stop" : 1646724181292,
      "duration" : 0
    },
    "status" : "passed",
    "steps" : [ ],
    "attachments" : [ ],
    "parameters" : [ ],
    "stepsCount" : 0,
    "attachmentsCount" : 0,
    "shouldDisplayMessage" : false,
    "hasContent" : false
  }, {
    "name" : "prepare_account",
    "time" : {
      "start" : 1646724181292,
      "stop" : 1646724181292,
      "duration" : 0
    },
    "status" : "passed",
    "steps" : [ ],
    "attachments" : [ ],
    "parameters" : [ ],
    "stepsCount" : 0,
    "attachmentsCount" : 0,
    "shouldDisplayMessage" : false,
    "hasContent" : false
  } ],
  "testStage" : {
    "description" : "Verify implemented rpc calls work eth_sendRawTransaction",
    "status" : "broken",
    "statusMessage" : "TypeError: Object of type HexBytes is not JSON serializable",
    "statusTrace" : "self = <integration.tests.basic.test_transactions.TestRpcCallsTransactions object at 0x7f96bb02da30>\n\n    @allure.step(\n        \"test: verify implemented rpc calls work eth_sendRawTransaction\")\n    def test_rpc_call_eth_sendRawTransaction(self):\n        \"\"\"Verify implemented rpc calls work eth_sendRawTransaction\"\"\"\n        sender_account = self.create_account_with_balance(GREAT_AMOUNT)\n        recipient_account = self.create_account_with_balance(\n            FIRST_FAUCET_REQUEST_AMOUNT)\n    \n        # TODO: chain id\n        transaction = {\n            \"from\":\n            sender_account.address,\n            \"to\":\n            recipient_account.address,\n            \"value\":\n            self.web3_client.toWei(SAMPLE_AMOUNT, \"ether\"),\n            \"chainId\":\n            111,\n            \"gasPrice\":\n            self.web3_client.gas_price(),\n            \"gas\":\n            0,\n            \"nonce\":\n            self.web3_client.eth.get_transaction_count(sender_account.address),\n        }\n        transaction[\"gas\"] = self.web3_client.eth.estimate_gas(transaction)\n    \n        #\n        print(transaction)\n        print(sender_account.key)\n        #\n    \n        signed_tx = self.web3_client.eth.account.sign_transaction(\n            transaction, sender_account.key)\n        params = [signed_tx]\n    \n        #\n        print(signed_tx)\n        #\n    \n        model = RpcRequestFactory.get_send_raw_trx(params=params)\n>       response = self.jsonrpc_requester.request_json_rpc(model)\n\nintegration/tests/basic/test_transactions.py:96: \n_ _ _ _ _ _ _ _ _ _ _ _ _ _ _ _ _ _ _ _ _ _ _ _ _ _ _ _ _ _ _ _ _ _ _ _ _ _ _ _ \nintegration/tests/basic/helpers/json_rpc_requester.py:20: in request_json_rpc\n    return self._session.post(self._url, json=dataclasses.asdict(data))\n/opt/hostedtoolcache/Python/3.9.10/x64/lib/python3.9/site-packages/requests/sessions.py:577: in post\n    return self.request('POST', url, data=data, json=json, **kwargs)\n/opt/hostedtoolcache/Python/3.9.10/x64/lib/python3.9/site-packages/requests/sessions.py:515: in request\n    prep = self.prepare_request(req)\n/opt/hostedtoolcache/Python/3.9.10/x64/lib/python3.9/site-packages/requests/sessions.py:443: in prepare_request\n    p.prepare(\n/opt/hostedtoolcache/Python/3.9.10/x64/lib/python3.9/site-packages/requests/models.py:321: in prepare\n    self.prepare_body(data, files, json)\n/opt/hostedtoolcache/Python/3.9.10/x64/lib/python3.9/site-packages/requests/models.py:473: in prepare_body\n    body = complexjson.dumps(json, allow_nan=False)\n/opt/hostedtoolcache/Python/3.9.10/x64/lib/python3.9/json/__init__.py:234: in dumps\n    return cls(\n/opt/hostedtoolcache/Python/3.9.10/x64/lib/python3.9/json/encoder.py:199: in encode\n    chunks = self.iterencode(o, _one_shot=True)\n/opt/hostedtoolcache/Python/3.9.10/x64/lib/python3.9/json/encoder.py:257: in iterencode\n    return _iterencode(o, 0)\n_ _ _ _ _ _ _ _ _ _ _ _ _ _ _ _ _ _ _ _ _ _ _ _ _ _ _ _ _ _ _ _ _ _ _ _ _ _ _ _ \n\nself = <json.encoder.JSONEncoder object at 0x7f96baf13a00>\no = HexBytes('0xf86e80855d75a053c0823a98943e446fd172c5e734da6e621f74ca5cb8b9f086f3884563918244f4000080820101a0f621628f54a68dcf42d483da88da1971bb0c650d58199d16542c3b16672c3673a04cae21d5b11a63e46e9b3a14804065277ae06d4d9ad92e84797fcf02af89527d')\n\n    def default(self, o):\n        \"\"\"Implement this method in a subclass such that it returns\n        a serializable object for ``o``, or calls the base implementation\n        (to raise a ``TypeError``).\n    \n        For example, to support arbitrary iterators, you could\n        implement default like this::\n    \n            def default(self, o):\n                try:\n                    iterable = iter(o)\n                except TypeError:\n                    pass\n                else:\n                    return list(iterable)\n                # Let the base class default method raise the TypeError\n                return JSONEncoder.default(self, o)\n    \n        \"\"\"\n>       raise TypeError(f'Object of type {o.__class__.__name__} '\n                        f'is not JSON serializable')\nE       TypeError: Object of type HexBytes is not JSON serializable\n\n/opt/hostedtoolcache/Python/3.9.10/x64/lib/python3.9/json/encoder.py:179: TypeError",
    "steps" : [ {
      "name" : "test: verify implemented rpc calls work eth_sendRawTransaction",
      "time" : {
        "start" : 1646724181293,
        "stop" : 1646724183528,
        "duration" : 2235
      },
      "status" : "broken",
      "statusMessage" : "TypeError: Object of type HexBytes is not JSON serializable\n",
      "statusTrace" : "  File \"/opt/hostedtoolcache/Python/3.9.10/x64/lib/python3.9/site-packages/allure_commons/_allure.py\", line 172, in impl\n    return func(*a, **kw)\n  File \"/home/runner/work/neon-tests/neon-tests/integration/tests/basic/test_transactions.py\", line 96, in test_rpc_call_eth_sendRawTransaction\n    response = self.jsonrpc_requester.request_json_rpc(model)\n  File \"/opt/hostedtoolcache/Python/3.9.10/x64/lib/python3.9/site-packages/allure_commons/_allure.py\", line 172, in impl\n    return func(*a, **kw)\n  File \"/home/runner/work/neon-tests/neon-tests/integration/tests/basic/helpers/json_rpc_requester.py\", line 20, in request_json_rpc\n    return self._session.post(self._url, json=dataclasses.asdict(data))\n  File \"/opt/hostedtoolcache/Python/3.9.10/x64/lib/python3.9/site-packages/requests/sessions.py\", line 577, in post\n    return self.request('POST', url, data=data, json=json, **kwargs)\n  File \"/opt/hostedtoolcache/Python/3.9.10/x64/lib/python3.9/site-packages/requests/sessions.py\", line 515, in request\n    prep = self.prepare_request(req)\n  File \"/opt/hostedtoolcache/Python/3.9.10/x64/lib/python3.9/site-packages/requests/sessions.py\", line 443, in prepare_request\n    p.prepare(\n  File \"/opt/hostedtoolcache/Python/3.9.10/x64/lib/python3.9/site-packages/requests/models.py\", line 321, in prepare\n    self.prepare_body(data, files, json)\n  File \"/opt/hostedtoolcache/Python/3.9.10/x64/lib/python3.9/site-packages/requests/models.py\", line 473, in prepare_body\n    body = complexjson.dumps(json, allow_nan=False)\n  File \"/opt/hostedtoolcache/Python/3.9.10/x64/lib/python3.9/json/__init__.py\", line 234, in dumps\n    return cls(\n  File \"/opt/hostedtoolcache/Python/3.9.10/x64/lib/python3.9/json/encoder.py\", line 199, in encode\n    chunks = self.iterencode(o, _one_shot=True)\n  File \"/opt/hostedtoolcache/Python/3.9.10/x64/lib/python3.9/json/encoder.py\", line 257, in iterencode\n    return _iterencode(o, 0)\n  File \"/opt/hostedtoolcache/Python/3.9.10/x64/lib/python3.9/json/encoder.py\", line 179, in default\n    raise TypeError(f'Object of type {o.__class__.__name__} '\n",
      "steps" : [ {
        "name" : "creating a new account with balance",
        "time" : {
          "start" : 1646724181293,
          "stop" : 1646724181969,
          "duration" : 676
        },
        "status" : "passed",
        "steps" : [ {
          "name" : "creating a new account",
          "time" : {
            "start" : 1646724181293,
            "stop" : 1646724181297,
            "duration" : 4
          },
          "status" : "passed",
          "steps" : [ ],
          "attachments" : [ ],
          "parameters" : [ ],
          "stepsCount" : 0,
          "attachmentsCount" : 0,
          "shouldDisplayMessage" : false,
          "hasContent" : false
        }, {
          "name" : "requesting faucet for Neon",
          "time" : {
            "start" : 1646724181297,
            "stop" : 1646724181969,
            "duration" : 672
          },
          "status" : "passed",
          "steps" : [ ],
          "attachments" : [ ],
          "parameters" : [ {
            "name" : "wallet",
            "value" : "'0x976A08efF61E928ee8BfF4cd7ad9d42b3BB4d082'"
          }, {
            "name" : "amount",
            "value" : "1000"
          } ],
          "stepsCount" : 0,
          "attachmentsCount" : 0,
          "shouldDisplayMessage" : false,
          "hasContent" : true
        } ],
        "attachments" : [ ],
        "parameters" : [ {
          "name" : "amount",
          "value" : "1000"
        } ],
        "stepsCount" : 2,
        "attachmentsCount" : 0,
        "shouldDisplayMessage" : false,
        "hasContent" : true
      }, {
        "name" : "creating a new account with balance",
        "time" : {
          "start" : 1646724181970,
          "stop" : 1646724182644,
          "duration" : 674
        },
        "status" : "passed",
        "steps" : [ {
          "name" : "creating a new account",
          "time" : {
            "start" : 1646724181970,
            "stop" : 1646724181974,
            "duration" : 4
          },
          "status" : "passed",
          "steps" : [ ],
          "attachments" : [ ],
          "parameters" : [ ],
          "stepsCount" : 0,
          "attachmentsCount" : 0,
          "shouldDisplayMessage" : false,
          "hasContent" : false
        }, {
          "name" : "requesting faucet for Neon",
          "time" : {
            "start" : 1646724181974,
            "stop" : 1646724182644,
            "duration" : 670
          },
          "status" : "passed",
          "steps" : [ ],
          "attachments" : [ ],
          "parameters" : [ {
            "name" : "wallet",
            "value" : "'0x3e446fD172C5E734dA6e621f74CA5CB8B9F086F3'"
          }, {
            "name" : "amount",
            "value" : "5"
          } ],
          "stepsCount" : 0,
          "attachmentsCount" : 0,
          "shouldDisplayMessage" : false,
          "hasContent" : true
        } ],
        "attachments" : [ ],
        "parameters" : [ {
          "name" : "amount",
          "value" : "5"
        } ],
        "stepsCount" : 2,
        "attachmentsCount" : 0,
        "shouldDisplayMessage" : false,
        "hasContent" : true
      }, {
        "name" : "the model built",
        "time" : {
          "start" : 1646724183502,
          "stop" : 1646724183502,
          "duration" : 0
        },
        "status" : "passed",
        "steps" : [ ],
        "attachments" : [ ],
        "parameters" : [ ],
        "stepsCount" : 0,
        "attachmentsCount" : 0,
        "shouldDisplayMessage" : false,
        "hasContent" : false
      }, {
        "name" : "requesting Json-RPC",
        "time" : {
          "start" : 1646724183502,
          "stop" : 1646724183528,
          "duration" : 26
        },
        "status" : "broken",
        "statusMessage" : "TypeError: Object of type HexBytes is not JSON serializable\n",
        "statusTrace" : "  File \"/opt/hostedtoolcache/Python/3.9.10/x64/lib/python3.9/site-packages/allure_commons/_allure.py\", line 172, in impl\n    return func(*a, **kw)\n  File \"/home/runner/work/neon-tests/neon-tests/integration/tests/basic/helpers/json_rpc_requester.py\", line 20, in request_json_rpc\n    return self._session.post(self._url, json=dataclasses.asdict(data))\n  File \"/opt/hostedtoolcache/Python/3.9.10/x64/lib/python3.9/site-packages/requests/sessions.py\", line 577, in post\n    return self.request('POST', url, data=data, json=json, **kwargs)\n  File \"/opt/hostedtoolcache/Python/3.9.10/x64/lib/python3.9/site-packages/requests/sessions.py\", line 515, in request\n    prep = self.prepare_request(req)\n  File \"/opt/hostedtoolcache/Python/3.9.10/x64/lib/python3.9/site-packages/requests/sessions.py\", line 443, in prepare_request\n    p.prepare(\n  File \"/opt/hostedtoolcache/Python/3.9.10/x64/lib/python3.9/site-packages/requests/models.py\", line 321, in prepare\n    self.prepare_body(data, files, json)\n  File \"/opt/hostedtoolcache/Python/3.9.10/x64/lib/python3.9/site-packages/requests/models.py\", line 473, in prepare_body\n    body = complexjson.dumps(json, allow_nan=False)\n  File \"/opt/hostedtoolcache/Python/3.9.10/x64/lib/python3.9/json/__init__.py\", line 234, in dumps\n    return cls(\n  File \"/opt/hostedtoolcache/Python/3.9.10/x64/lib/python3.9/json/encoder.py\", line 199, in encode\n    chunks = self.iterencode(o, _one_shot=True)\n  File \"/opt/hostedtoolcache/Python/3.9.10/x64/lib/python3.9/json/encoder.py\", line 257, in iterencode\n    return _iterencode(o, 0)\n  File \"/opt/hostedtoolcache/Python/3.9.10/x64/lib/python3.9/json/encoder.py\", line 179, in default\n    raise TypeError(f'Object of type {o.__class__.__name__} '\n",
        "steps" : [ {
          "name" : "getting response",
          "time" : {
            "start" : 1646724183502,
            "stop" : 1646724183502,
            "duration" : 0
          },
          "status" : "broken",
          "statusMessage" : "TypeError: Object of type HexBytes is not JSON serializable\n",
          "statusTrace" : "  File \"/home/runner/work/neon-tests/neon-tests/integration/tests/basic/helpers/json_rpc_requester.py\", line 20, in request_json_rpc\n    return self._session.post(self._url, json=dataclasses.asdict(data))\n  File \"/opt/hostedtoolcache/Python/3.9.10/x64/lib/python3.9/site-packages/requests/sessions.py\", line 577, in post\n    return self.request('POST', url, data=data, json=json, **kwargs)\n  File \"/opt/hostedtoolcache/Python/3.9.10/x64/lib/python3.9/site-packages/requests/sessions.py\", line 515, in request\n    prep = self.prepare_request(req)\n  File \"/opt/hostedtoolcache/Python/3.9.10/x64/lib/python3.9/site-packages/requests/sessions.py\", line 443, in prepare_request\n    p.prepare(\n  File \"/opt/hostedtoolcache/Python/3.9.10/x64/lib/python3.9/site-packages/requests/models.py\", line 321, in prepare\n    self.prepare_body(data, files, json)\n  File \"/opt/hostedtoolcache/Python/3.9.10/x64/lib/python3.9/site-packages/requests/models.py\", line 473, in prepare_body\n    body = complexjson.dumps(json, allow_nan=False)\n  File \"/opt/hostedtoolcache/Python/3.9.10/x64/lib/python3.9/json/__init__.py\", line 234, in dumps\n    return cls(\n  File \"/opt/hostedtoolcache/Python/3.9.10/x64/lib/python3.9/json/encoder.py\", line 199, in encode\n    chunks = self.iterencode(o, _one_shot=True)\n  File \"/opt/hostedtoolcache/Python/3.9.10/x64/lib/python3.9/json/encoder.py\", line 257, in iterencode\n    return _iterencode(o, 0)\n  File \"/opt/hostedtoolcache/Python/3.9.10/x64/lib/python3.9/json/encoder.py\", line 179, in default\n    raise TypeError(f'Object of type {o.__class__.__name__} '\n",
          "steps" : [ ],
          "attachments" : [ ],
          "parameters" : [ ],
          "stepsCount" : 0,
          "attachmentsCount" : 0,
          "shouldDisplayMessage" : true,
          "hasContent" : true
        } ],
        "attachments" : [ ],
        "parameters" : [ {
          "name" : "data",
          "value" : "JsonRpcRequest(id=19, method='eth_sendRawTransaction', params=[SignedTransaction(rawTransaction=HexBytes('0xf86e80855d75a053c0823a98943e446fd172c5e734da6e621f74ca5cb8b9f086f3884563918244f4000080820101a0f621628f54a68dcf42d483da88da1971bb0c650d58199d16542c3b16672c3673a04cae21d5b11a63e46e9b3a14804065277ae06d4d9ad92e84797fcf02af89527d'), hash=HexBytes('0x2e5fa9933f4108f9665e577db9da48c968d255c6bfe6448dc63f547c957da70a'), r=111327946939950325919057255133192933086133107671210445273774242016137090709107, s=34683441400348900507126238676421783554242197882742433803378311836598557823613, v=257)], jsonrpc='2.0')"
        } ],
        "stepsCount" : 1,
        "attachmentsCount" : 0,
        "shouldDisplayMessage" : false,
        "hasContent" : true
      } ],
      "attachments" : [ ],
      "parameters" : [ ],
      "stepsCount" : 9,
      "attachmentsCount" : 0,
      "shouldDisplayMessage" : false,
      "hasContent" : true
    } ],
    "attachments" : [ {
      "uid" : "7a222de22288fb9a",
      "name" : "stdout",
      "source" : "7a222de22288fb9a.txt",
      "type" : "text/plain",
      "size" : 824
    } ],
    "parameters" : [ ],
    "stepsCount" : 10,
    "attachmentsCount" : 1,
    "shouldDisplayMessage" : true,
    "hasContent" : true
  },
  "afterStages" : [ {
    "name" : "prepare_account::0",
    "time" : {
      "start" : 1646724183596,
      "stop" : 1646724188957,
      "duration" : 5361
    },
    "status" : "passed",
    "steps" : [ {
      "name" : "Operator end balance: 0.002434693617623147793 NEON 74070870.03272568 SOL",
      "time" : {
        "start" : 1646724188788,
        "stop" : 1646724188788,
        "duration" : 0
      },
      "status" : "passed",
      "steps" : [ ],
      "attachments" : [ ],
      "parameters" : [ ],
      "stepsCount" : 0,
      "attachmentsCount" : 0,
      "shouldDisplayMessage" : false,
      "hasContent" : false
    }, {
      "name" : "Account end balance: 1000 NEON",
      "time" : {
        "start" : 1646724188957,
        "stop" : 1646724188957,
        "duration" : 0
      },
      "status" : "passed",
      "steps" : [ ],
      "attachments" : [ ],
      "parameters" : [ ],
      "stepsCount" : 0,
      "attachmentsCount" : 0,
      "shouldDisplayMessage" : false,
      "hasContent" : false
    } ],
    "attachments" : [ ],
    "parameters" : [ ],
    "stepsCount" : 2,
    "attachmentsCount" : 0,
    "shouldDisplayMessage" : false,
    "hasContent" : true
  }, {
    "name" : "allure_environment::0",
    "time" : {
      "start" : 1646724223790,
      "stop" : 1646724223791,
      "duration" : 1
    },
    "status" : "passed",
    "steps" : [ ],
    "attachments" : [ ],
    "parameters" : [ ],
    "stepsCount" : 0,
    "attachmentsCount" : 0,
    "shouldDisplayMessage" : false,
    "hasContent" : false
  } ],
  "labels" : [ {
    "name" : "story",
    "value" : "Basic: Json-RPC call tests - transactions"
  }, {
    "name" : "parentSuite",
    "value" : "integration.tests.basic"
  }, {
    "name" : "suite",
    "value" : "test_transactions"
  }, {
    "name" : "subSuite",
    "value" : "TestRpcCallsTransactions"
  }, {
    "name" : "host",
    "value" : "fv-az445-188"
  }, {
    "name" : "thread",
    "value" : "1769-MainThread"
  }, {
    "name" : "framework",
    "value" : "pytest"
  }, {
    "name" : "language",
    "value" : "cpython3"
  }, {
    "name" : "package",
    "value" : "integration.tests.basic.test_transactions"
  }, {
    "name" : "resultFormat",
    "value" : "allure2"
  } ],
  "parameters" : [ ],
  "links" : [ ],
  "hidden" : false,
  "retry" : false,
  "extra" : {
    "severity" : "normal",
    "retries" : [ ],
    "categories" : [ {
      "name" : "Test defects",
      "matchedStatuses" : [ ],
      "flaky" : false
    } ],
    "tags" : [ ]
  },
  "source" : "3b8ff0f3ab019657.json",
  "parameterValues" : [ ]
}