{
  "uid" : "e3802e13a3c04797",
  "name" : "test_rpc_call_eth_sendRawTransaction",
  "fullName" : "integration.tests.basic.test_transactions.TestRpcCallsTransactions#test_rpc_call_eth_sendRawTransaction",
  "historyId" : "f2266f2fcf46a3382764047e40d95c33",
  "time" : {
    "start" : 1647245571186,
    "stop" : 1647245572539,
    "duration" : 1353
  },
  "description" : "Verify implemented rpc calls work eth_sendRawTransaction",
  "descriptionHtml" : "<p>Verify implemented rpc calls work eth_sendRawTransaction</p>\n",
  "status" : "broken",
  "statusMessage" : "IndexError: Replacement index 1 out of range for positional args tuple",
  "statusTrace" : "self = <integration.tests.basic.test_transactions.TestRpcCallsTransactions object at 0x7ff1304fb790>\nprepare_accounts = None\n\n    @allure.step(\n        \"test: verify implemented rpc calls work eth_sendRawTransaction\")\n    def test_rpc_call_eth_sendRawTransaction(self, prepare_accounts):\n        \"\"\"Verify implemented rpc calls work eth_sendRawTransaction\"\"\"\n    \n        # TODO: chain id\n        transaction = {\n            \"from\":\n            self.sender_account.address,\n            \"to\":\n            self.recipient_account.address,\n            \"value\":\n            self.web3_client.toWei(InputData.SAMPLE_AMOUNT.value, \"ether\"),\n            \"chainId\":\n            111,\n            \"gasPrice\":\n            self.web3_client.gas_price(),\n            \"gas\":\n            0,\n            \"nonce\":\n            self.web3_client.eth.get_transaction_count(\n                self.sender_account.address),\n        }\n        transaction[\"gas\"] = self.web3_client.eth.estimate_gas(transaction)\n    \n        signed_tx = self.web3_client.eth.account.sign_transaction(\n            transaction, self.sender_account.key)\n    \n        params = [signed_tx.rawTransaction.hex()]\n    \n        model = RpcRequestFactory.get_send_raw_trx(params=params)\n        response = self.jsonrpc_requester.request_json_rpc(model)\n>       actual_result = self.jsonrpc_requester.deserialize_response(response)\n\nintegration/tests/basic/test_transactions.py:82: \n_ _ _ _ _ _ _ _ _ _ _ _ _ _ _ _ _ _ _ _ _ _ _ _ _ _ _ _ _ _ _ _ _ _ _ _ _ _ _ _ \n\nself = <integration.tests.basic.helpers.json_rpc_requester.JsonRpcRequester object at 0x7ff13083e7f0>\nresponse = <Response [200]>, type = None\n\n    def deserialize_response(\n            self,\n            response: Response,\n            type: Type = None) -> Union[JsonRpcResponse, JsonRpcErrorResponse]:\n        str_data = self.stringify(response.json())\n        if 'result' in str_data:\n>           return self.deserialize_successful_response(response=response,\nE           IndexError: Replacement index 1 out of range for positional args tuple\n\nintegration/tests/basic/helpers/json_rpc_requester.py:27: IndexError",
  "flaky" : false,
  "newFailed" : false,
  "newBroken" : false,
  "newPassed" : false,
  "retriesCount" : 0,
  "retriesStatusChange" : false,
  "beforeStages" : [ {
    "name" : "web3_client",
    "time" : {
      "start" : 1647245368612,
      "stop" : 1647245368614,
      "duration" : 2
    },
    "status" : "passed",
    "steps" : [ ],
    "attachments" : [ ],
    "parameters" : [ ],
    "stepsCount" : 0,
    "attachmentsCount" : 0,
    "shouldDisplayMessage" : false,
    "hasContent" : false
  }, {
    "name" : "pytestconfig",
    "time" : {
      "start" : 1647245368612,
      "stop" : 1647245368612,
      "duration" : 0
    },
    "status" : "passed",
    "steps" : [ ],
    "attachments" : [ ],
    "parameters" : [ ],
    "stepsCount" : 0,
    "attachmentsCount" : 0,
    "shouldDisplayMessage" : false,
    "hasContent" : false
  }, {
    "name" : "allure_environment",
    "time" : {
      "start" : 1647245368614,
      "stop" : 1647245369603,
      "duration" : 989
    },
    "status" : "passed",
    "steps" : [ ],
    "attachments" : [ ],
    "parameters" : [ ],
    "stepsCount" : 0,
    "attachmentsCount" : 0,
    "shouldDisplayMessage" : false,
    "hasContent" : false
  }, {
    "name" : "jsonrpc_requester",
    "time" : {
      "start" : 1647245369604,
      "stop" : 1647245369604,
      "duration" : 0
    },
    "status" : "passed",
    "steps" : [ ],
    "attachments" : [ ],
    "parameters" : [ ],
    "stepsCount" : 0,
    "attachmentsCount" : 0,
    "shouldDisplayMessage" : false,
    "hasContent" : false
  }, {
    "name" : "operator",
    "time" : {
      "start" : 1647245369604,
      "stop" : 1647245369604,
      "duration" : 0
    },
    "status" : "passed",
    "steps" : [ ],
    "attachments" : [ ],
    "parameters" : [ ],
    "stepsCount" : 0,
    "attachmentsCount" : 0,
    "shouldDisplayMessage" : false,
    "hasContent" : false
  }, {
    "name" : "faucet",
    "time" : {
      "start" : 1647245369604,
      "stop" : 1647245369604,
      "duration" : 0
    },
    "status" : "passed",
    "steps" : [ ],
    "attachments" : [ ],
    "parameters" : [ ],
    "stepsCount" : 0,
    "attachmentsCount" : 0,
    "shouldDisplayMessage" : false,
    "hasContent" : false
  }, {
    "name" : "sol_client",
    "time" : {
      "start" : 1647245369604,
      "stop" : 1647245369604,
      "duration" : 0
    },
    "status" : "passed",
    "steps" : [ ],
    "attachments" : [ ],
    "parameters" : [ ],
    "stepsCount" : 0,
    "attachmentsCount" : 0,
    "shouldDisplayMessage" : false,
    "hasContent" : false
  }, {
    "name" : "prepare_account",
    "time" : {
      "start" : 1647245558308,
      "stop" : 1647245566558,
      "duration" : 8250
    },
    "status" : "passed",
    "steps" : [ {
      "name" : "Create account for tests",
      "time" : {
        "start" : 1647245558309,
        "stop" : 1647245558314,
        "duration" : 5
      },
      "status" : "passed",
      "steps" : [ ],
      "attachments" : [ ],
      "parameters" : [ ],
      "stepsCount" : 0,
      "attachmentsCount" : 0,
      "shouldDisplayMessage" : false,
      "hasContent" : false
    }, {
      "name" : "Request 1000 NEON from faucet for 0x9Ba56CdE08E1B5Bbc92DabFBE48f071d37eD42E7",
      "time" : {
        "start" : 1647245558314,
        "stop" : 1647245559156,
        "duration" : 842
      },
      "status" : "passed",
      "steps" : [ ],
      "attachments" : [ ],
      "parameters" : [ ],
      "stepsCount" : 0,
      "attachmentsCount" : 0,
      "shouldDisplayMessage" : false,
      "hasContent" : false
    }, {
      "name" : "Operator initial balance: 0.00220483696706058733344 NEON 74064667.92194243 SOL",
      "time" : {
        "start" : 1647245566558,
        "stop" : 1647245566558,
        "duration" : 0
      },
      "status" : "passed",
      "steps" : [ ],
      "attachments" : [ ],
      "parameters" : [ ],
      "stepsCount" : 0,
      "attachmentsCount" : 0,
      "shouldDisplayMessage" : false,
      "hasContent" : false
    } ],
    "attachments" : [ ],
    "parameters" : [ ],
    "stepsCount" : 3,
    "attachmentsCount" : 0,
    "shouldDisplayMessage" : false,
    "hasContent" : true
  }, {
    "name" : "prepare_json_rpc_requester",
    "time" : {
      "start" : 1647245569828,
      "stop" : 1647245569828,
      "duration" : 0
    },
    "status" : "passed",
    "steps" : [ ],
    "attachments" : [ ],
    "parameters" : [ ],
    "stepsCount" : 0,
    "attachmentsCount" : 0,
    "shouldDisplayMessage" : false,
    "hasContent" : false
  }, {
    "name" : "prepare_account",
    "time" : {
      "start" : 1647245569828,
      "stop" : 1647245569828,
      "duration" : 0
    },
    "status" : "passed",
    "steps" : [ ],
    "attachments" : [ ],
    "parameters" : [ ],
    "stepsCount" : 0,
    "attachmentsCount" : 0,
    "shouldDisplayMessage" : false,
    "hasContent" : false
  }, {
    "name" : "prepare_accounts",
    "time" : {
      "start" : 1647245569828,
      "stop" : 1647245571185,
      "duration" : 1357
    },
    "status" : "passed",
    "steps" : [ {
      "name" : "creating a new account with balance",
      "time" : {
        "start" : 1647245569829,
        "stop" : 1647245570507,
        "duration" : 678
      },
      "status" : "passed",
      "steps" : [ {
        "name" : "creating a new account",
        "time" : {
          "start" : 1647245569829,
          "stop" : 1647245569833,
          "duration" : 4
        },
        "status" : "passed",
        "steps" : [ ],
        "attachments" : [ ],
        "parameters" : [ ],
        "stepsCount" : 0,
        "attachmentsCount" : 0,
        "shouldDisplayMessage" : false,
        "hasContent" : false
      }, {
        "name" : "requesting faucet for Neon",
        "time" : {
          "start" : 1647245569833,
          "stop" : 1647245570507,
          "duration" : 674
        },
        "status" : "passed",
        "steps" : [ ],
        "attachments" : [ ],
        "parameters" : [ {
          "name" : "wallet",
          "value" : "'0xe04b29d0B387EEC3b118b293FeB93f0e0FCfCDc4'"
        }, {
          "name" : "amount",
          "value" : "5"
        } ],
        "stepsCount" : 0,
        "attachmentsCount" : 0,
        "shouldDisplayMessage" : false,
        "hasContent" : true
      } ],
      "attachments" : [ ],
      "parameters" : [ {
        "name" : "amount",
        "value" : "5"
      } ],
      "stepsCount" : 2,
      "attachmentsCount" : 0,
      "shouldDisplayMessage" : false,
      "hasContent" : true
    }, {
      "name" : "creating a new account with balance",
      "time" : {
        "start" : 1647245570507,
        "stop" : 1647245571185,
        "duration" : 678
      },
      "status" : "passed",
      "steps" : [ {
        "name" : "creating a new account",
        "time" : {
          "start" : 1647245570507,
          "stop" : 1647245570512,
          "duration" : 5
        },
        "status" : "passed",
        "steps" : [ ],
        "attachments" : [ ],
        "parameters" : [ ],
        "stepsCount" : 0,
        "attachmentsCount" : 0,
        "shouldDisplayMessage" : false,
        "hasContent" : false
      }, {
        "name" : "requesting faucet for Neon",
        "time" : {
          "start" : 1647245570512,
          "stop" : 1647245571185,
          "duration" : 673
        },
        "status" : "passed",
        "steps" : [ ],
        "attachments" : [ ],
        "parameters" : [ {
          "name" : "wallet",
          "value" : "'0xF8e76A901F9286655272a0737Fb5F32E75F3769E'"
        }, {
          "name" : "amount",
          "value" : "5"
        } ],
        "stepsCount" : 0,
        "attachmentsCount" : 0,
        "shouldDisplayMessage" : false,
        "hasContent" : true
      } ],
      "attachments" : [ ],
      "parameters" : [ {
        "name" : "amount",
        "value" : "5"
      } ],
      "stepsCount" : 2,
      "attachmentsCount" : 0,
      "shouldDisplayMessage" : false,
      "hasContent" : true
    } ],
    "attachments" : [ ],
    "parameters" : [ ],
    "stepsCount" : 6,
    "attachmentsCount" : 0,
    "shouldDisplayMessage" : false,
    "hasContent" : true
  }, {
    "name" : "prepare",
    "time" : {
      "start" : 1647245569828,
      "stop" : 1647245569828,
      "duration" : 0
    },
    "status" : "passed",
    "steps" : [ ],
    "attachments" : [ ],
    "parameters" : [ ],
    "stepsCount" : 0,
    "attachmentsCount" : 0,
    "shouldDisplayMessage" : false,
    "hasContent" : false
  } ],
  "testStage" : {
    "description" : "Verify implemented rpc calls work eth_sendRawTransaction",
    "status" : "broken",
    "statusMessage" : "IndexError: Replacement index 1 out of range for positional args tuple",
    "statusTrace" : "self = <integration.tests.basic.test_transactions.TestRpcCallsTransactions object at 0x7ff1304fb790>\nprepare_accounts = None\n\n    @allure.step(\n        \"test: verify implemented rpc calls work eth_sendRawTransaction\")\n    def test_rpc_call_eth_sendRawTransaction(self, prepare_accounts):\n        \"\"\"Verify implemented rpc calls work eth_sendRawTransaction\"\"\"\n    \n        # TODO: chain id\n        transaction = {\n            \"from\":\n            self.sender_account.address,\n            \"to\":\n            self.recipient_account.address,\n            \"value\":\n            self.web3_client.toWei(InputData.SAMPLE_AMOUNT.value, \"ether\"),\n            \"chainId\":\n            111,\n            \"gasPrice\":\n            self.web3_client.gas_price(),\n            \"gas\":\n            0,\n            \"nonce\":\n            self.web3_client.eth.get_transaction_count(\n                self.sender_account.address),\n        }\n        transaction[\"gas\"] = self.web3_client.eth.estimate_gas(transaction)\n    \n        signed_tx = self.web3_client.eth.account.sign_transaction(\n            transaction, self.sender_account.key)\n    \n        params = [signed_tx.rawTransaction.hex()]\n    \n        model = RpcRequestFactory.get_send_raw_trx(params=params)\n        response = self.jsonrpc_requester.request_json_rpc(model)\n>       actual_result = self.jsonrpc_requester.deserialize_response(response)\n\nintegration/tests/basic/test_transactions.py:82: \n_ _ _ _ _ _ _ _ _ _ _ _ _ _ _ _ _ _ _ _ _ _ _ _ _ _ _ _ _ _ _ _ _ _ _ _ _ _ _ _ \n\nself = <integration.tests.basic.helpers.json_rpc_requester.JsonRpcRequester object at 0x7ff13083e7f0>\nresponse = <Response [200]>, type = None\n\n    def deserialize_response(\n            self,\n            response: Response,\n            type: Type = None) -> Union[JsonRpcResponse, JsonRpcErrorResponse]:\n        str_data = self.stringify(response.json())\n        if 'result' in str_data:\n>           return self.deserialize_successful_response(response=response,\nE           IndexError: Replacement index 1 out of range for positional args tuple\n\nintegration/tests/basic/helpers/json_rpc_requester.py:27: IndexError",
    "steps" : [ {
      "name" : "test: verify implemented rpc calls work eth_sendRawTransaction",
      "time" : {
        "start" : 1647245571186,
        "stop" : 1647245572539,
        "duration" : 1353
      },
      "status" : "broken",
      "statusMessage" : "IndexError: Replacement index 1 out of range for positional args tuple\n",
      "statusTrace" : "  File \"/opt/hostedtoolcache/Python/3.9.10/x64/lib/python3.9/site-packages/allure_commons/_allure.py\", line 172, in impl\n    return func(*a, **kw)\n  File \"/home/runner/work/neon-tests/neon-tests/integration/tests/basic/test_transactions.py\", line 82, in test_rpc_call_eth_sendRawTransaction\n    actual_result = self.jsonrpc_requester.deserialize_response(response)\n  File \"/home/runner/work/neon-tests/neon-tests/integration/tests/basic/helpers/json_rpc_requester.py\", line 27, in deserialize_response\n    return self.deserialize_successful_response(response=response,\n  File \"/opt/hostedtoolcache/Python/3.9.10/x64/lib/python3.9/site-packages/allure_commons/_allure.py\", line 171, in impl\n    with StepContext(self.title.format(*args, **params), params):\n",
      "steps" : [ {
        "name" : "requesting Json-RPC",
        "time" : {
          "start" : 1647245572051,
          "stop" : 1647245572538,
          "duration" : 487
        },
        "status" : "passed",
        "steps" : [ ],
        "attachments" : [ ],
        "parameters" : [ {
          "name" : "data",
          "value" : "JsonRpcRequest(id=35, method='eth_sendRawTransaction', params=['0xf86e80855af5ac2100823a9894f8e76a901f9286655272a0737fb5f32e75f3769e883782dace9d90000080820102a057e9332a320523dfe4e583f84cb58816d32c9c57ed43e48c3fcfd89cbef4dac6a05afe8ce4da1063da4ad3a167cf735e78bb5c6db30e8c6ad8051671f9df1aa87f'], jsonrpc='2.0')"
        } ],
        "stepsCount" : 0,
        "attachmentsCount" : 0,
        "shouldDisplayMessage" : false,
        "hasContent" : true
      }, {
        "name" : "showing as JSON",
        "time" : {
          "start" : 1647245572539,
          "stop" : 1647245572539,
          "duration" : 0
        },
        "status" : "passed",
        "steps" : [ ],
        "attachments" : [ ],
        "parameters" : [ {
          "name" : "data",
          "value" : "{'jsonrpc': '2.0', 'id': 35, 'result': '0xefc9a910d843866cf4bf994627aa6d4eb74987cff64bed1660fb8c8bcb5a8823'}"
        } ],
        "stepsCount" : 0,
        "attachmentsCount" : 0,
        "shouldDisplayMessage" : false,
        "hasContent" : true
      } ],
      "attachments" : [ ],
      "parameters" : [ {
        "name" : "prepare_accounts",
        "value" : "None"
      } ],
      "stepsCount" : 2,
      "attachmentsCount" : 0,
      "shouldDisplayMessage" : true,
      "hasContent" : true
    } ],
    "attachments" : [ ],
    "parameters" : [ ],
    "stepsCount" : 3,
    "attachmentsCount" : 0,
    "shouldDisplayMessage" : true,
    "hasContent" : true
  },
  "afterStages" : [ {
    "name" : "prepare_accounts::0",
    "time" : {
      "start" : 1647245572545,
      "stop" : 1647245572545,
      "duration" : 0
    },
    "status" : "passed",
    "steps" : [ ],
    "attachments" : [ ],
    "parameters" : [ ],
    "stepsCount" : 0,
    "attachmentsCount" : 0,
    "shouldDisplayMessage" : false,
    "hasContent" : false
  }, {
    "name" : "prepare_account::0",
    "time" : {
      "start" : 1647245578999,
      "stop" : 1647245586569,
      "duration" : 7570
    },
    "status" : "passed",
    "steps" : [ {
      "name" : "Operator end balance: 0.00220483699050071264544 NEON 74064667.90937011 SOL",
      "time" : {
        "start" : 1647245586401,
        "stop" : 1647245586401,
        "duration" : 0
      },
      "status" : "passed",
      "steps" : [ ],
      "attachments" : [ ],
      "parameters" : [ ],
      "stepsCount" : 0,
      "attachmentsCount" : 0,
      "shouldDisplayMessage" : false,
      "hasContent" : false
    }, {
      "name" : "Account end balance: 1000 NEON",
      "time" : {
        "start" : 1647245586569,
        "stop" : 1647245586569,
        "duration" : 0
      },
      "status" : "passed",
      "steps" : [ ],
      "attachments" : [ ],
      "parameters" : [ ],
      "stepsCount" : 0,
      "attachmentsCount" : 0,
      "shouldDisplayMessage" : false,
      "hasContent" : false
    } ],
    "attachments" : [ ],
    "parameters" : [ ],
    "stepsCount" : 2,
    "attachmentsCount" : 0,
    "shouldDisplayMessage" : false,
    "hasContent" : true
  }, {
    "name" : "allure_environment::0",
    "time" : {
      "start" : 1647245627949,
      "stop" : 1647245627949,
      "duration" : 0
    },
    "status" : "passed",
    "steps" : [ ],
    "attachments" : [ ],
    "parameters" : [ ],
    "stepsCount" : 0,
    "attachmentsCount" : 0,
    "shouldDisplayMessage" : false,
    "hasContent" : false
  } ],
  "labels" : [ {
    "name" : "story",
    "value" : "Basic: Json-RPC call tests - transactions"
  }, {
    "name" : "parentSuite",
    "value" : "integration.tests.basic"
  }, {
    "name" : "suite",
    "value" : "test_transactions"
  }, {
    "name" : "subSuite",
    "value" : "TestRpcCallsTransactions"
  }, {
    "name" : "host",
    "value" : "fv-az447-564"
  }, {
    "name" : "thread",
    "value" : "1937-MainThread"
  }, {
    "name" : "framework",
    "value" : "pytest"
  }, {
    "name" : "language",
    "value" : "cpython3"
  }, {
    "name" : "package",
    "value" : "integration.tests.basic.test_transactions"
  }, {
    "name" : "resultFormat",
    "value" : "allure2"
  } ],
  "parameters" : [ ],
  "links" : [ ],
  "hidden" : false,
  "retry" : false,
  "extra" : {
    "severity" : "normal",
    "retries" : [ ],
    "categories" : [ {
      "name" : "Test defects",
      "matchedStatuses" : [ ],
      "flaky" : false
    } ],
    "history" : {
      "statistic" : {
        "failed" : 0,
        "broken" : 4,
        "skipped" : 0,
        "passed" : 5,
        "unknown" : 0,
        "total" : 9
      },
      "items" : [ {
        "uid" : "fdb194849dfbf2df",
        "reportUrl" : "https://apetrovskiy.github.io/neon-tests/release-stand/feature/254q/523//#testresult/fdb194849dfbf2df",
        "status" : "broken",
        "statusDetails" : "IndexError: Replacement index 1 out of range for positional args tuple",
        "time" : {
          "start" : 1647245106183,
          "stop" : 1647245107726,
          "duration" : 1543
        }
      }, {
        "uid" : "7117048101c0eb75",
        "reportUrl" : "https://apetrovskiy.github.io/neon-tests/release-stand/feature/254q/521//#testresult/7117048101c0eb75",
        "status" : "broken",
        "statusDetails" : "IndexError: Replacement index 2 out of range for positional args tuple",
        "time" : {
          "start" : 1647244252544,
          "stop" : 1647244254218,
          "duration" : 1674
        }
      }, {
        "uid" : "a901ad18701db8be",
        "reportUrl" : "https://apetrovskiy.github.io/neon-tests/release-stand/feature/254q/519//#testresult/a901ad18701db8be",
        "status" : "broken",
        "statusDetails" : "IndexError: Replacement index 2 out of range for positional args tuple",
        "time" : {
          "start" : 1647243641348,
          "stop" : 1647243642707,
          "duration" : 1359
        }
      }, {
        "uid" : "15db567c2681fc14",
        "reportUrl" : "https://apetrovskiy.github.io/neon-tests/release-stand/feature/254q/517//#testresult/15db567c2681fc14",
        "status" : "passed",
        "time" : {
          "start" : 1647242997847,
          "stop" : 1647242999594,
          "duration" : 1747
        }
      }, {
        "uid" : "b1077149add85c2",
        "reportUrl" : "https://apetrovskiy.github.io/neon-tests/release-stand/feature/254q/515//#testresult/b1077149add85c2",
        "status" : "passed",
        "time" : {
          "start" : 1647242794856,
          "stop" : 1647242795981,
          "duration" : 1125
        }
      }, {
        "uid" : "ce8bcc330b0b0415",
        "reportUrl" : "https://apetrovskiy.github.io/neon-tests/release-stand/feature/254q/511//#testresult/ce8bcc330b0b0415",
        "status" : "passed",
        "time" : {
          "start" : 1647241773246,
          "stop" : 1647241774723,
          "duration" : 1477
        }
      }, {
        "uid" : "d801edb15aabbf84",
        "reportUrl" : "https://apetrovskiy.github.io/neon-tests/release-stand/feature/254q/507//#testresult/d801edb15aabbf84",
        "status" : "passed",
        "time" : {
          "start" : 1647239581724,
          "stop" : 1647239582976,
          "duration" : 1252
        }
      }, {
        "uid" : "760e586ff032ad1",
        "reportUrl" : "https://apetrovskiy.github.io/neon-tests/release-stand/feature/254q/509//#testresult/760e586ff032ad1",
        "status" : "passed",
        "time" : {
          "start" : 1647239641164,
          "stop" : 1647239642894,
          "duration" : 1730
        }
      } ]
    },
    "tags" : [ ]
  },
  "source" : "e3802e13a3c04797.json",
  "parameterValues" : [ ]
}