{
  "uid" : "bcd23dcdec4396a",
  "name" : "test_send_neon_from_one_account_to_another[1]",
  "fullName" : "integration.tests.basic.test_transfers.TestTransfer#test_send_neon_from_one_account_to_another",
  "historyId" : "e0fb2960146feb86d2510769aeee9644",
  "time" : {
    "start" : 1647627416904,
    "stop" : 1647627418979,
    "duration" : 2075
  },
  "description" : "Send neon from one account to another",
  "descriptionHtml" : "<p>Send neon from one account to another</p>\n",
  "status" : "broken",
  "statusMessage" : "ValueError: {'code': -32002, 'message': 'Verifying nonce before send transaction: Error processing Instruction 1: invalid program argument', 'data': {'logs': ['/src/entrypoint.rs Invalid Ethereum transaction nonce: acc 12, trx 11']}}",
  "statusTrace" : "self = <integration.tests.basic.test_transfers.TestTransfer object at 0x7f08e9ac4d30>\namount = 1, prepare_accounts = None\n\n    @pytest.mark.parametrize(\"amount\", TRANSFER_AMOUNT_DATA)\n    def test_send_neon_from_one_account_to_another(self, amount: Union[int,\n                                                                       float],\n                                                   prepare_accounts):\n        \"\"\"Send neon from one account to another\"\"\"\n    \n>       tx_receipt = self.transfer_neon(self.sender_account,\n                                        self.recipient_account, amount)\n\nintegration/tests/basic/test_transfers.py:25: \n_ _ _ _ _ _ _ _ _ _ _ _ _ _ _ _ _ _ _ _ _ _ _ _ _ _ _ _ _ _ _ _ _ _ _ _ _ _ _ _ \nintegration/tests/basic/helpers/basic.py:124: in transfer_neon\n    return self.process_transaction(sender_account, recipient_account,\nintegration/tests/basic/helpers/basic.py:93: in process_transaction\n    return self.web3_client.send_neon(sender_account,\nutils/web3client.py:64: in send_neon\n    tx = self._web3.eth.send_raw_transaction(signed_tx.rawTransaction)\n/opt/hostedtoolcache/Python/3.9.10/x64/lib/python3.9/site-packages/web3/eth.py:783: in send_raw_transaction\n    return self._send_raw_transaction(transaction)\n/opt/hostedtoolcache/Python/3.9.10/x64/lib/python3.9/site-packages/web3/module.py:57: in caller\n    result = w3.manager.request_blocking(method_str,\n/opt/hostedtoolcache/Python/3.9.10/x64/lib/python3.9/site-packages/web3/manager.py:198: in request_blocking\n    return self.formatted_response(response,\n_ _ _ _ _ _ _ _ _ _ _ _ _ _ _ _ _ _ _ _ _ _ _ _ _ _ _ _ _ _ _ _ _ _ _ _ _ _ _ _ \n\nself = <web3.manager.RequestManager object at 0x7f08e9e62e80>\nresponse = {'error': {'code': -32002, 'data': {'logs': ['/src/entrypoint.rs Invalid Ethereum transaction nonce: acc 12, trx 11']}... nonce before send transaction: Error processing Instruction 1: invalid program argument'}, 'id': 54, 'jsonrpc': '2.0'}\nparams = ('0xf8710b85653c0112008318182094abe615b67838f5b4e321c3ae3defd1bec36a75b2880de0b6b3a764000080841d3581c0a0ba6472756797a2fc362d35824a8d27fa260bd59ac034462cdf488b8a5e6501fea075a0b331d8e9638ab614273b0152e5ac69826fd103afb32007b7056bac1098ad',)\nerror_formatters = <cyfunction identity at 0x7f08ef176ee0>\nnull_result_formatters = <cyfunction identity at 0x7f08ef176ee0>\n\n    def formatted_response(\n        self,\n        response: RPCResponse,\n        params: Any,\n        error_formatters: Optional[Callable[..., Any]] = None,\n        null_result_formatters: Optional[Callable[..., Any]] = None,\n    ) -> Any:\n        if \"error\" in response:\n            apply_error_formatters(error_formatters, response)\n>           raise ValueError(response[\"error\"])\nE           ValueError: {'code': -32002, 'message': 'Verifying nonce before send transaction: Error processing Instruction 1: invalid program argument', 'data': {'logs': ['/src/entrypoint.rs Invalid Ethereum transaction nonce: acc 12, trx 11']}}\n\n/opt/hostedtoolcache/Python/3.9.10/x64/lib/python3.9/site-packages/web3/manager.py:171: ValueError",
  "flaky" : false,
  "newFailed" : false,
  "newBroken" : true,
  "newPassed" : false,
  "retriesCount" : 0,
  "retriesStatusChange" : false,
  "beforeStages" : [ {
    "name" : "pytestconfig",
    "time" : {
      "start" : 1647627390587,
      "stop" : 1647627390587,
      "duration" : 0
    },
    "status" : "passed",
    "steps" : [ ],
    "attachments" : [ ],
    "parameters" : [ ],
    "stepsCount" : 0,
    "attachmentsCount" : 0,
    "shouldDisplayMessage" : false,
    "hasContent" : false
  }, {
    "name" : "web3_client",
    "time" : {
      "start" : 1647627390588,
      "stop" : 1647627390589,
      "duration" : 1
    },
    "status" : "passed",
    "steps" : [ ],
    "attachments" : [ ],
    "parameters" : [ ],
    "stepsCount" : 0,
    "attachmentsCount" : 0,
    "shouldDisplayMessage" : false,
    "hasContent" : false
  }, {
    "name" : "allure_environment",
    "time" : {
      "start" : 1647627390590,
      "stop" : 1647627391907,
      "duration" : 1317
    },
    "status" : "passed",
    "steps" : [ ],
    "attachments" : [ ],
    "parameters" : [ ],
    "stepsCount" : 0,
    "attachmentsCount" : 0,
    "shouldDisplayMessage" : false,
    "hasContent" : false
  }, {
    "name" : "faucet",
    "time" : {
      "start" : 1647627391907,
      "stop" : 1647627391907,
      "duration" : 0
    },
    "status" : "passed",
    "steps" : [ ],
    "attachments" : [ ],
    "parameters" : [ ],
    "stepsCount" : 0,
    "attachmentsCount" : 0,
    "shouldDisplayMessage" : false,
    "hasContent" : false
  }, {
    "name" : "jsonrpc_requester",
    "time" : {
      "start" : 1647627391908,
      "stop" : 1647627391908,
      "duration" : 0
    },
    "status" : "passed",
    "steps" : [ ],
    "attachments" : [ ],
    "parameters" : [ ],
    "stepsCount" : 0,
    "attachmentsCount" : 0,
    "shouldDisplayMessage" : false,
    "hasContent" : false
  }, {
    "name" : "sol_client",
    "time" : {
      "start" : 1647627391908,
      "stop" : 1647627391908,
      "duration" : 0
    },
    "status" : "passed",
    "steps" : [ ],
    "attachments" : [ ],
    "parameters" : [ ],
    "stepsCount" : 0,
    "attachmentsCount" : 0,
    "shouldDisplayMessage" : false,
    "hasContent" : false
  }, {
    "name" : "operator",
    "time" : {
      "start" : 1647627391908,
      "stop" : 1647627391908,
      "duration" : 0
    },
    "status" : "passed",
    "steps" : [ ],
    "attachments" : [ ],
    "parameters" : [ ],
    "stepsCount" : 0,
    "attachmentsCount" : 0,
    "shouldDisplayMessage" : false,
    "hasContent" : false
  }, {
    "name" : "prepare",
    "time" : {
      "start" : 1647627416898,
      "stop" : 1647627416898,
      "duration" : 0
    },
    "status" : "passed",
    "steps" : [ ],
    "attachments" : [ ],
    "parameters" : [ ],
    "stepsCount" : 0,
    "attachmentsCount" : 0,
    "shouldDisplayMessage" : false,
    "hasContent" : false
  }, {
    "name" : "prepare_accounts",
    "time" : {
      "start" : 1647627416898,
      "stop" : 1647627416904,
      "duration" : 6
    },
    "status" : "passed",
    "steps" : [ ],
    "attachments" : [ ],
    "parameters" : [ ],
    "stepsCount" : 0,
    "attachmentsCount" : 0,
    "shouldDisplayMessage" : false,
    "hasContent" : false
  }, {
    "name" : "prepare_json_rpc_requester",
    "time" : {
      "start" : 1647627416898,
      "stop" : 1647627416898,
      "duration" : 0
    },
    "status" : "passed",
    "steps" : [ ],
    "attachments" : [ ],
    "parameters" : [ ],
    "stepsCount" : 0,
    "attachmentsCount" : 0,
    "shouldDisplayMessage" : false,
    "hasContent" : false
  } ],
  "testStage" : {
    "description" : "Send neon from one account to another",
    "status" : "broken",
    "statusMessage" : "ValueError: {'code': -32002, 'message': 'Verifying nonce before send transaction: Error processing Instruction 1: invalid program argument', 'data': {'logs': ['/src/entrypoint.rs Invalid Ethereum transaction nonce: acc 12, trx 11']}}",
    "statusTrace" : "self = <integration.tests.basic.test_transfers.TestTransfer object at 0x7f08e9ac4d30>\namount = 1, prepare_accounts = None\n\n    @pytest.mark.parametrize(\"amount\", TRANSFER_AMOUNT_DATA)\n    def test_send_neon_from_one_account_to_another(self, amount: Union[int,\n                                                                       float],\n                                                   prepare_accounts):\n        \"\"\"Send neon from one account to another\"\"\"\n    \n>       tx_receipt = self.transfer_neon(self.sender_account,\n                                        self.recipient_account, amount)\n\nintegration/tests/basic/test_transfers.py:25: \n_ _ _ _ _ _ _ _ _ _ _ _ _ _ _ _ _ _ _ _ _ _ _ _ _ _ _ _ _ _ _ _ _ _ _ _ _ _ _ _ \nintegration/tests/basic/helpers/basic.py:124: in transfer_neon\n    return self.process_transaction(sender_account, recipient_account,\nintegration/tests/basic/helpers/basic.py:93: in process_transaction\n    return self.web3_client.send_neon(sender_account,\nutils/web3client.py:64: in send_neon\n    tx = self._web3.eth.send_raw_transaction(signed_tx.rawTransaction)\n/opt/hostedtoolcache/Python/3.9.10/x64/lib/python3.9/site-packages/web3/eth.py:783: in send_raw_transaction\n    return self._send_raw_transaction(transaction)\n/opt/hostedtoolcache/Python/3.9.10/x64/lib/python3.9/site-packages/web3/module.py:57: in caller\n    result = w3.manager.request_blocking(method_str,\n/opt/hostedtoolcache/Python/3.9.10/x64/lib/python3.9/site-packages/web3/manager.py:198: in request_blocking\n    return self.formatted_response(response,\n_ _ _ _ _ _ _ _ _ _ _ _ _ _ _ _ _ _ _ _ _ _ _ _ _ _ _ _ _ _ _ _ _ _ _ _ _ _ _ _ \n\nself = <web3.manager.RequestManager object at 0x7f08e9e62e80>\nresponse = {'error': {'code': -32002, 'data': {'logs': ['/src/entrypoint.rs Invalid Ethereum transaction nonce: acc 12, trx 11']}... nonce before send transaction: Error processing Instruction 1: invalid program argument'}, 'id': 54, 'jsonrpc': '2.0'}\nparams = ('0xf8710b85653c0112008318182094abe615b67838f5b4e321c3ae3defd1bec36a75b2880de0b6b3a764000080841d3581c0a0ba6472756797a2fc362d35824a8d27fa260bd59ac034462cdf488b8a5e6501fea075a0b331d8e9638ab614273b0152e5ac69826fd103afb32007b7056bac1098ad',)\nerror_formatters = <cyfunction identity at 0x7f08ef176ee0>\nnull_result_formatters = <cyfunction identity at 0x7f08ef176ee0>\n\n    def formatted_response(\n        self,\n        response: RPCResponse,\n        params: Any,\n        error_formatters: Optional[Callable[..., Any]] = None,\n        null_result_formatters: Optional[Callable[..., Any]] = None,\n    ) -> Any:\n        if \"error\" in response:\n            apply_error_formatters(error_formatters, response)\n>           raise ValueError(response[\"error\"])\nE           ValueError: {'code': -32002, 'message': 'Verifying nonce before send transaction: Error processing Instruction 1: invalid program argument', 'data': {'logs': ['/src/entrypoint.rs Invalid Ethereum transaction nonce: acc 12, trx 11']}}\n\n/opt/hostedtoolcache/Python/3.9.10/x64/lib/python3.9/site-packages/web3/manager.py:171: ValueError",
    "steps" : [ {
      "name" : "Sending 1 from 0x10bA76E88cd03842eb45875e66a0CfD995Ab4D4A to 0xAbe615b67838f5b4e321C3aE3dEfd1Bec36A75B2",
      "time" : {
        "start" : 1647627416904,
        "stop" : 1647627418978,
        "duration" : 2074
      },
      "status" : "broken",
      "statusMessage" : "ValueError: {'code': -32002, 'message': 'Verifying nonce before send transaction: Error processing Instruction 1: invalid program argument', 'data': {'logs': ['/src/entrypoint.rs Invalid Ethereum transaction nonce: acc 12, trx 11']}}\n",
      "statusTrace" : "  File \"/home/runner/work/neon-tests/neon-tests/integration/tests/basic/helpers/basic.py\", line 93, in process_transaction\n    return self.web3_client.send_neon(sender_account,\n  File \"/home/runner/work/neon-tests/neon-tests/utils/web3client.py\", line 64, in send_neon\n    tx = self._web3.eth.send_raw_transaction(signed_tx.rawTransaction)\n  File \"/opt/hostedtoolcache/Python/3.9.10/x64/lib/python3.9/site-packages/web3/eth.py\", line 783, in send_raw_transaction\n    return self._send_raw_transaction(transaction)\n  File \"/opt/hostedtoolcache/Python/3.9.10/x64/lib/python3.9/site-packages/web3/module.py\", line 57, in caller\n    result = w3.manager.request_blocking(method_str,\n  File \"/opt/hostedtoolcache/Python/3.9.10/x64/lib/python3.9/site-packages/web3/manager.py\", line 198, in request_blocking\n    return self.formatted_response(response,\n  File \"/opt/hostedtoolcache/Python/3.9.10/x64/lib/python3.9/site-packages/web3/manager.py\", line 171, in formatted_response\n    raise ValueError(response[\"error\"])\n",
      "steps" : [ ],
      "attachments" : [ ],
      "parameters" : [ ],
      "stepsCount" : 0,
      "attachmentsCount" : 0,
      "shouldDisplayMessage" : true,
      "hasContent" : true
    } ],
    "attachments" : [ {
      "uid" : "c7f2e76d31f16c6",
      "name" : "stdout",
      "source" : "c7f2e76d31f16c6.txt",
      "type" : "text/plain",
      "size" : 122
    } ],
    "parameters" : [ ],
    "stepsCount" : 1,
    "attachmentsCount" : 1,
    "shouldDisplayMessage" : true,
    "hasContent" : true
  },
  "afterStages" : [ {
    "name" : "prepare_accounts::0",
    "time" : {
      "start" : 1647627419013,
      "stop" : 1647627419013,
      "duration" : 0
    },
    "status" : "passed",
    "steps" : [ ],
    "attachments" : [ ],
    "parameters" : [ ],
    "stepsCount" : 0,
    "attachmentsCount" : 0,
    "shouldDisplayMessage" : false,
    "hasContent" : false
  }, {
    "name" : "allure_environment::0",
    "time" : {
      "start" : 1647627432665,
      "stop" : 1647627432665,
      "duration" : 0
    },
    "status" : "passed",
    "steps" : [ ],
    "attachments" : [ ],
    "parameters" : [ ],
    "stepsCount" : 0,
    "attachmentsCount" : 0,
    "shouldDisplayMessage" : false,
    "hasContent" : false
  } ],
  "labels" : [ {
    "name" : "story",
    "value" : "Basic: transfer tests"
  }, {
    "name" : "parentSuite",
    "value" : "integration.tests.basic"
  }, {
    "name" : "suite",
    "value" : "test_transfers"
  }, {
    "name" : "subSuite",
    "value" : "TestTransfer"
  }, {
    "name" : "host",
    "value" : "fv-az275-29"
  }, {
    "name" : "thread",
    "value" : "1739-MainThread"
  }, {
    "name" : "framework",
    "value" : "pytest"
  }, {
    "name" : "language",
    "value" : "cpython3"
  }, {
    "name" : "package",
    "value" : "integration.tests.basic.test_transfers"
  }, {
    "name" : "resultFormat",
    "value" : "allure2"
  } ],
  "parameters" : [ {
    "name" : "amount",
    "value" : "1"
  } ],
  "links" : [ ],
  "hidden" : false,
  "retry" : false,
  "extra" : {
    "severity" : "normal",
    "retries" : [ ],
    "categories" : [ {
      "name" : "Test defects",
      "matchedStatuses" : [ ],
      "flaky" : false
    } ],
    "history" : {
      "statistic" : {
        "failed" : 1,
        "broken" : 2,
        "skipped" : 0,
        "passed" : 0,
        "unknown" : 0,
        "total" : 3
      },
      "items" : [ {
        "uid" : "9bea7f354ea0ebb7",
        "reportUrl" : "https://apetrovskiy.github.io/neon-tests/feature/254t/637//#testresult/9bea7f354ea0ebb7",
        "status" : "failed",
        "statusDetails" : "AssertionError",
        "time" : {
          "start" : 1647623803358,
          "stop" : 1647623803358,
          "duration" : 0
        }
      }, {
        "uid" : "6972c7ee8144c13",
        "reportUrl" : "https://apetrovskiy.github.io/neon-tests/feature/254t/628//#testresult/6972c7ee8144c13",
        "status" : "broken",
        "statusDetails" : "ValueError: {'code': -32000, 'message': 'connection already closed'}",
        "time" : {
          "start" : 1647622839133,
          "stop" : 1647622839810,
          "duration" : 677
        }
      } ]
    },
    "tags" : [ ]
  },
  "source" : "bcd23dcdec4396a.json",
  "parameterValues" : [ "1" ]
}