{
  "uid" : "1bb74a8b07a12d07",
  "name" : "test_rpc_call_eth_sendRawTransaction",
  "fullName" : "integration.tests.basic.test_transactions.TestRpcCallsTransactions#test_rpc_call_eth_sendRawTransaction",
  "historyId" : "f2266f2fcf46a3382764047e40d95c33",
  "time" : {
    "start" : 1647248129569,
    "stop" : 1647248131034,
    "duration" : 1465
  },
  "description" : "Verify implemented rpc calls work eth_sendRawTransaction",
  "descriptionHtml" : "<p>Verify implemented rpc calls work eth_sendRawTransaction</p>\n",
  "status" : "broken",
  "statusMessage" : "KeyError: 'type(2)'",
  "statusTrace" : "self = <integration.tests.basic.test_transactions.TestRpcCallsTransactions object at 0x7fdd5bee6610>\nprepare_accounts = None\n\n    @allure.step(\n        \"test: verify implemented rpc calls work eth_sendRawTransaction\")\n    def test_rpc_call_eth_sendRawTransaction(self, prepare_accounts):\n        \"\"\"Verify implemented rpc calls work eth_sendRawTransaction\"\"\"\n    \n        # TODO: chain id\n        transaction = {\n            \"from\":\n            self.sender_account.address,\n            \"to\":\n            self.recipient_account.address,\n            \"value\":\n            self.web3_client.toWei(InputData.SAMPLE_AMOUNT.value, \"ether\"),\n            \"chainId\":\n            111,\n            \"gasPrice\":\n            self.web3_client.gas_price(),\n            \"gas\":\n            0,\n            \"nonce\":\n            self.web3_client.eth.get_transaction_count(\n                self.sender_account.address),\n        }\n        transaction[\"gas\"] = self.web3_client.eth.estimate_gas(transaction)\n    \n        signed_tx = self.web3_client.eth.account.sign_transaction(\n            transaction, self.sender_account.key)\n    \n        params = [signed_tx.rawTransaction.hex()]\n    \n        model = RpcRequestFactory.get_send_raw_trx(params=params)\n        response = self.jsonrpc_requester.request_json_rpc(model)\n>       actual_result = self.jsonrpc_requester.deserialize_response(response)\nE       KeyError: 'type(2)'\n\nintegration/tests/basic/test_transactions.py:82: KeyError",
  "flaky" : false,
  "newFailed" : false,
  "newBroken" : false,
  "newPassed" : false,
  "retriesCount" : 0,
  "retriesStatusChange" : false,
  "beforeStages" : [ {
    "name" : "web3_client",
    "time" : {
      "start" : 1647247927115,
      "stop" : 1647247927116,
      "duration" : 1
    },
    "status" : "passed",
    "steps" : [ ],
    "attachments" : [ ],
    "parameters" : [ ],
    "stepsCount" : 0,
    "attachmentsCount" : 0,
    "shouldDisplayMessage" : false,
    "hasContent" : false
  }, {
    "name" : "pytestconfig",
    "time" : {
      "start" : 1647247927115,
      "stop" : 1647247927115,
      "duration" : 0
    },
    "status" : "passed",
    "steps" : [ ],
    "attachments" : [ ],
    "parameters" : [ ],
    "stepsCount" : 0,
    "attachmentsCount" : 0,
    "shouldDisplayMessage" : false,
    "hasContent" : false
  }, {
    "name" : "allure_environment",
    "time" : {
      "start" : 1647247927116,
      "stop" : 1647247928430,
      "duration" : 1314
    },
    "status" : "passed",
    "steps" : [ ],
    "attachments" : [ ],
    "parameters" : [ ],
    "stepsCount" : 0,
    "attachmentsCount" : 0,
    "shouldDisplayMessage" : false,
    "hasContent" : false
  }, {
    "name" : "sol_client",
    "time" : {
      "start" : 1647247928431,
      "stop" : 1647247928431,
      "duration" : 0
    },
    "status" : "passed",
    "steps" : [ ],
    "attachments" : [ ],
    "parameters" : [ ],
    "stepsCount" : 0,
    "attachmentsCount" : 0,
    "shouldDisplayMessage" : false,
    "hasContent" : false
  }, {
    "name" : "faucet",
    "time" : {
      "start" : 1647247928431,
      "stop" : 1647247928431,
      "duration" : 0
    },
    "status" : "passed",
    "steps" : [ ],
    "attachments" : [ ],
    "parameters" : [ ],
    "stepsCount" : 0,
    "attachmentsCount" : 0,
    "shouldDisplayMessage" : false,
    "hasContent" : false
  }, {
    "name" : "jsonrpc_requester",
    "time" : {
      "start" : 1647247928431,
      "stop" : 1647247928431,
      "duration" : 0
    },
    "status" : "passed",
    "steps" : [ ],
    "attachments" : [ ],
    "parameters" : [ ],
    "stepsCount" : 0,
    "attachmentsCount" : 0,
    "shouldDisplayMessage" : false,
    "hasContent" : false
  }, {
    "name" : "operator",
    "time" : {
      "start" : 1647247928431,
      "stop" : 1647247928431,
      "duration" : 0
    },
    "status" : "passed",
    "steps" : [ ],
    "attachments" : [ ],
    "parameters" : [ ],
    "stepsCount" : 0,
    "attachmentsCount" : 0,
    "shouldDisplayMessage" : false,
    "hasContent" : false
  }, {
    "name" : "prepare_account",
    "time" : {
      "start" : 1647248116697,
      "stop" : 1647248124961,
      "duration" : 8264
    },
    "status" : "passed",
    "steps" : [ {
      "name" : "Create account for tests",
      "time" : {
        "start" : 1647248116697,
        "stop" : 1647248116703,
        "duration" : 6
      },
      "status" : "passed",
      "steps" : [ ],
      "attachments" : [ ],
      "parameters" : [ ],
      "stepsCount" : 0,
      "attachmentsCount" : 0,
      "shouldDisplayMessage" : false,
      "hasContent" : false
    }, {
      "name" : "Request 1000 NEON from faucet for 0xF66E8711Bc2Ce3Dde9367481ED55ee1C487E0354",
      "time" : {
        "start" : 1647248116703,
        "stop" : 1647248117550,
        "duration" : 847
      },
      "status" : "passed",
      "steps" : [ ],
      "attachments" : [ ],
      "parameters" : [ ],
      "stepsCount" : 0,
      "attachmentsCount" : 0,
      "shouldDisplayMessage" : false,
      "hasContent" : false
    }, {
      "name" : "Operator initial balance: 0.00220483750534143656544 NEON 74064666.05967076 SOL",
      "time" : {
        "start" : 1647248124961,
        "stop" : 1647248124961,
        "duration" : 0
      },
      "status" : "passed",
      "steps" : [ ],
      "attachments" : [ ],
      "parameters" : [ ],
      "stepsCount" : 0,
      "attachmentsCount" : 0,
      "shouldDisplayMessage" : false,
      "hasContent" : false
    } ],
    "attachments" : [ ],
    "parameters" : [ ],
    "stepsCount" : 3,
    "attachmentsCount" : 0,
    "shouldDisplayMessage" : false,
    "hasContent" : true
  }, {
    "name" : "prepare_account",
    "time" : {
      "start" : 1647248128213,
      "stop" : 1647248128213,
      "duration" : 0
    },
    "status" : "passed",
    "steps" : [ ],
    "attachments" : [ ],
    "parameters" : [ ],
    "stepsCount" : 0,
    "attachmentsCount" : 0,
    "shouldDisplayMessage" : false,
    "hasContent" : false
  }, {
    "name" : "prepare",
    "time" : {
      "start" : 1647248128213,
      "stop" : 1647248128213,
      "duration" : 0
    },
    "status" : "passed",
    "steps" : [ ],
    "attachments" : [ ],
    "parameters" : [ ],
    "stepsCount" : 0,
    "attachmentsCount" : 0,
    "shouldDisplayMessage" : false,
    "hasContent" : false
  }, {
    "name" : "prepare_accounts",
    "time" : {
      "start" : 1647248128214,
      "stop" : 1647248129569,
      "duration" : 1355
    },
    "status" : "passed",
    "steps" : [ {
      "name" : "creating a new account with balance",
      "time" : {
        "start" : 1647248128214,
        "stop" : 1647248128891,
        "duration" : 677
      },
      "status" : "passed",
      "steps" : [ {
        "name" : "creating a new account",
        "time" : {
          "start" : 1647248128214,
          "stop" : 1647248128218,
          "duration" : 4
        },
        "status" : "passed",
        "steps" : [ ],
        "attachments" : [ ],
        "parameters" : [ ],
        "stepsCount" : 0,
        "attachmentsCount" : 0,
        "shouldDisplayMessage" : false,
        "hasContent" : false
      }, {
        "name" : "requesting faucet for Neon",
        "time" : {
          "start" : 1647248128219,
          "stop" : 1647248128891,
          "duration" : 672
        },
        "status" : "passed",
        "steps" : [ ],
        "attachments" : [ ],
        "parameters" : [ {
          "name" : "wallet",
          "value" : "'0x7AFFb21F6B6CE41165Ddb004bb5aa9DFf4BC7BB0'"
        }, {
          "name" : "amount",
          "value" : "5"
        } ],
        "stepsCount" : 0,
        "attachmentsCount" : 0,
        "shouldDisplayMessage" : false,
        "hasContent" : true
      } ],
      "attachments" : [ ],
      "parameters" : [ {
        "name" : "amount",
        "value" : "5"
      } ],
      "stepsCount" : 2,
      "attachmentsCount" : 0,
      "shouldDisplayMessage" : false,
      "hasContent" : true
    }, {
      "name" : "creating a new account with balance",
      "time" : {
        "start" : 1647248128891,
        "stop" : 1647248129568,
        "duration" : 677
      },
      "status" : "passed",
      "steps" : [ {
        "name" : "creating a new account",
        "time" : {
          "start" : 1647248128891,
          "stop" : 1647248128896,
          "duration" : 5
        },
        "status" : "passed",
        "steps" : [ ],
        "attachments" : [ ],
        "parameters" : [ ],
        "stepsCount" : 0,
        "attachmentsCount" : 0,
        "shouldDisplayMessage" : false,
        "hasContent" : false
      }, {
        "name" : "requesting faucet for Neon",
        "time" : {
          "start" : 1647248128896,
          "stop" : 1647248129568,
          "duration" : 672
        },
        "status" : "passed",
        "steps" : [ ],
        "attachments" : [ ],
        "parameters" : [ {
          "name" : "wallet",
          "value" : "'0x7572dEAC987ce52Fa0aF4aA31F9c76285dE302eE'"
        }, {
          "name" : "amount",
          "value" : "5"
        } ],
        "stepsCount" : 0,
        "attachmentsCount" : 0,
        "shouldDisplayMessage" : false,
        "hasContent" : true
      } ],
      "attachments" : [ ],
      "parameters" : [ {
        "name" : "amount",
        "value" : "5"
      } ],
      "stepsCount" : 2,
      "attachmentsCount" : 0,
      "shouldDisplayMessage" : false,
      "hasContent" : true
    } ],
    "attachments" : [ ],
    "parameters" : [ ],
    "stepsCount" : 6,
    "attachmentsCount" : 0,
    "shouldDisplayMessage" : false,
    "hasContent" : true
  }, {
    "name" : "prepare_json_rpc_requester",
    "time" : {
      "start" : 1647248128214,
      "stop" : 1647248128214,
      "duration" : 0
    },
    "status" : "passed",
    "steps" : [ ],
    "attachments" : [ ],
    "parameters" : [ ],
    "stepsCount" : 0,
    "attachmentsCount" : 0,
    "shouldDisplayMessage" : false,
    "hasContent" : false
  } ],
  "testStage" : {
    "description" : "Verify implemented rpc calls work eth_sendRawTransaction",
    "status" : "broken",
    "statusMessage" : "KeyError: 'type(2)'",
    "statusTrace" : "self = <integration.tests.basic.test_transactions.TestRpcCallsTransactions object at 0x7fdd5bee6610>\nprepare_accounts = None\n\n    @allure.step(\n        \"test: verify implemented rpc calls work eth_sendRawTransaction\")\n    def test_rpc_call_eth_sendRawTransaction(self, prepare_accounts):\n        \"\"\"Verify implemented rpc calls work eth_sendRawTransaction\"\"\"\n    \n        # TODO: chain id\n        transaction = {\n            \"from\":\n            self.sender_account.address,\n            \"to\":\n            self.recipient_account.address,\n            \"value\":\n            self.web3_client.toWei(InputData.SAMPLE_AMOUNT.value, \"ether\"),\n            \"chainId\":\n            111,\n            \"gasPrice\":\n            self.web3_client.gas_price(),\n            \"gas\":\n            0,\n            \"nonce\":\n            self.web3_client.eth.get_transaction_count(\n                self.sender_account.address),\n        }\n        transaction[\"gas\"] = self.web3_client.eth.estimate_gas(transaction)\n    \n        signed_tx = self.web3_client.eth.account.sign_transaction(\n            transaction, self.sender_account.key)\n    \n        params = [signed_tx.rawTransaction.hex()]\n    \n        model = RpcRequestFactory.get_send_raw_trx(params=params)\n        response = self.jsonrpc_requester.request_json_rpc(model)\n>       actual_result = self.jsonrpc_requester.deserialize_response(response)\nE       KeyError: 'type(2)'\n\nintegration/tests/basic/test_transactions.py:82: KeyError",
    "steps" : [ {
      "name" : "test: verify implemented rpc calls work eth_sendRawTransaction",
      "time" : {
        "start" : 1647248129570,
        "stop" : 1647248131034,
        "duration" : 1464
      },
      "status" : "broken",
      "statusMessage" : "KeyError: 'type(2)'\n",
      "statusTrace" : "  File \"/opt/hostedtoolcache/Python/3.9.10/x64/lib/python3.9/site-packages/allure_commons/_allure.py\", line 172, in impl\n    return func(*a, **kw)\n  File \"/home/runner/work/neon-tests/neon-tests/integration/tests/basic/test_transactions.py\", line 82, in test_rpc_call_eth_sendRawTransaction\n    actual_result = self.jsonrpc_requester.deserialize_response(response)\n  File \"/opt/hostedtoolcache/Python/3.9.10/x64/lib/python3.9/site-packages/allure_commons/_allure.py\", line 171, in impl\n    with StepContext(self.title.format(*args, **params), params):\n",
      "steps" : [ {
        "name" : "requesting Json-RPC",
        "time" : {
          "start" : 1647248130441,
          "stop" : 1647248131033,
          "duration" : 592
        },
        "status" : "passed",
        "steps" : [ ],
        "attachments" : [ ],
        "parameters" : [ {
          "name" : "data",
          "value" : "JsonRpcRequest(id=88, method='eth_sendRawTransaction', params=['0xf86e80855af2ce3e00823a98947572deac987ce52fa0af4aa31f9c76285de302ee883782dace9d90000080820102a02f47cace7a6c001ede32545a77b52692126de2c34e522954eb9ece5bf059fc71a0013169ab1574a1d465e60e80155c6ddb9e5b01335fcb20a698995aa2b44c9360'], jsonrpc='2.0')"
        } ],
        "stepsCount" : 0,
        "attachmentsCount" : 0,
        "shouldDisplayMessage" : false,
        "hasContent" : true
      } ],
      "attachments" : [ ],
      "parameters" : [ {
        "name" : "prepare_accounts",
        "value" : "None"
      } ],
      "stepsCount" : 1,
      "attachmentsCount" : 0,
      "shouldDisplayMessage" : true,
      "hasContent" : true
    } ],
    "attachments" : [ ],
    "parameters" : [ ],
    "stepsCount" : 2,
    "attachmentsCount" : 0,
    "shouldDisplayMessage" : true,
    "hasContent" : true
  },
  "afterStages" : [ {
    "name" : "prepare_accounts::0",
    "time" : {
      "start" : 1647248131039,
      "stop" : 1647248131039,
      "duration" : 0
    },
    "status" : "passed",
    "steps" : [ ],
    "attachments" : [ ],
    "parameters" : [ ],
    "stepsCount" : 0,
    "attachmentsCount" : 0,
    "shouldDisplayMessage" : false,
    "hasContent" : false
  }, {
    "name" : "prepare_account::0",
    "time" : {
      "start" : 1647248137539,
      "stop" : 1647248145154,
      "duration" : 7615
    },
    "status" : "passed",
    "steps" : [ {
      "name" : "Operator end balance: 0.00220483753463798600544 NEON 74064666.03144303 SOL",
      "time" : {
        "start" : 1647248144983,
        "stop" : 1647248144983,
        "duration" : 0
      },
      "status" : "passed",
      "steps" : [ ],
      "attachments" : [ ],
      "parameters" : [ ],
      "stepsCount" : 0,
      "attachmentsCount" : 0,
      "shouldDisplayMessage" : false,
      "hasContent" : false
    }, {
      "name" : "Account end balance: 1000 NEON",
      "time" : {
        "start" : 1647248145154,
        "stop" : 1647248145154,
        "duration" : 0
      },
      "status" : "passed",
      "steps" : [ ],
      "attachments" : [ ],
      "parameters" : [ ],
      "stepsCount" : 0,
      "attachmentsCount" : 0,
      "shouldDisplayMessage" : false,
      "hasContent" : false
    } ],
    "attachments" : [ ],
    "parameters" : [ ],
    "stepsCount" : 2,
    "attachmentsCount" : 0,
    "shouldDisplayMessage" : false,
    "hasContent" : true
  }, {
    "name" : "allure_environment::0",
    "time" : {
      "start" : 1647248187316,
      "stop" : 1647248187316,
      "duration" : 0
    },
    "status" : "passed",
    "steps" : [ ],
    "attachments" : [ ],
    "parameters" : [ ],
    "stepsCount" : 0,
    "attachmentsCount" : 0,
    "shouldDisplayMessage" : false,
    "hasContent" : false
  } ],
  "labels" : [ {
    "name" : "story",
    "value" : "Basic: Json-RPC call tests - transactions"
  }, {
    "name" : "parentSuite",
    "value" : "integration.tests.basic"
  }, {
    "name" : "suite",
    "value" : "test_transactions"
  }, {
    "name" : "subSuite",
    "value" : "TestRpcCallsTransactions"
  }, {
    "name" : "host",
    "value" : "fv-az460-208"
  }, {
    "name" : "thread",
    "value" : "1718-MainThread"
  }, {
    "name" : "framework",
    "value" : "pytest"
  }, {
    "name" : "language",
    "value" : "cpython3"
  }, {
    "name" : "package",
    "value" : "integration.tests.basic.test_transactions"
  }, {
    "name" : "resultFormat",
    "value" : "allure2"
  } ],
  "parameters" : [ ],
  "links" : [ ],
  "hidden" : false,
  "retry" : false,
  "extra" : {
    "severity" : "normal",
    "retries" : [ ],
    "categories" : [ {
      "name" : "Test defects",
      "matchedStatuses" : [ ],
      "flaky" : false
    } ],
    "history" : {
      "statistic" : {
        "failed" : 0,
        "broken" : 6,
        "skipped" : 0,
        "passed" : 6,
        "unknown" : 0,
        "total" : 12
      },
      "items" : [ {
        "uid" : "9d894b1bd4b496f7",
        "reportUrl" : "https://apetrovskiy.github.io/neon-tests/release-stand/feature/254q/533//#testresult/9d894b1bd4b496f7",
        "status" : "broken",
        "statusDetails" : "IndexError: Replacement index 2 out of range for positional args tuple",
        "time" : {
          "start" : 1647247851934,
          "stop" : 1647247853531,
          "duration" : 1597
        }
      }, {
        "uid" : "6b45896d2cb4159",
        "reportUrl" : "https://apetrovskiy.github.io/neon-tests/release-stand/feature/254q/531//#testresult/6b45896d2cb4159",
        "status" : "passed",
        "time" : {
          "start" : 1647246282564,
          "stop" : 1647246284312,
          "duration" : 1748
        }
      }, {
        "uid" : "e3802e13a3c04797",
        "reportUrl" : "https://apetrovskiy.github.io/neon-tests/release-stand/feature/254q/527//#testresult/e3802e13a3c04797",
        "status" : "broken",
        "statusDetails" : "IndexError: Replacement index 1 out of range for positional args tuple",
        "time" : {
          "start" : 1647245571186,
          "stop" : 1647245572539,
          "duration" : 1353
        }
      }, {
        "uid" : "fdb194849dfbf2df",
        "reportUrl" : "https://apetrovskiy.github.io/neon-tests/release-stand/feature/254q/523//#testresult/fdb194849dfbf2df",
        "status" : "broken",
        "statusDetails" : "IndexError: Replacement index 1 out of range for positional args tuple",
        "time" : {
          "start" : 1647245106183,
          "stop" : 1647245107726,
          "duration" : 1543
        }
      }, {
        "uid" : "7117048101c0eb75",
        "reportUrl" : "https://apetrovskiy.github.io/neon-tests/release-stand/feature/254q/521//#testresult/7117048101c0eb75",
        "status" : "broken",
        "statusDetails" : "IndexError: Replacement index 2 out of range for positional args tuple",
        "time" : {
          "start" : 1647244252544,
          "stop" : 1647244254218,
          "duration" : 1674
        }
      }, {
        "uid" : "a901ad18701db8be",
        "reportUrl" : "https://apetrovskiy.github.io/neon-tests/release-stand/feature/254q/519//#testresult/a901ad18701db8be",
        "status" : "broken",
        "statusDetails" : "IndexError: Replacement index 2 out of range for positional args tuple",
        "time" : {
          "start" : 1647243641348,
          "stop" : 1647243642707,
          "duration" : 1359
        }
      }, {
        "uid" : "15db567c2681fc14",
        "reportUrl" : "https://apetrovskiy.github.io/neon-tests/release-stand/feature/254q/517//#testresult/15db567c2681fc14",
        "status" : "passed",
        "time" : {
          "start" : 1647242997847,
          "stop" : 1647242999594,
          "duration" : 1747
        }
      }, {
        "uid" : "b1077149add85c2",
        "reportUrl" : "https://apetrovskiy.github.io/neon-tests/release-stand/feature/254q/515//#testresult/b1077149add85c2",
        "status" : "passed",
        "time" : {
          "start" : 1647242794856,
          "stop" : 1647242795981,
          "duration" : 1125
        }
      }, {
        "uid" : "ce8bcc330b0b0415",
        "reportUrl" : "https://apetrovskiy.github.io/neon-tests/release-stand/feature/254q/511//#testresult/ce8bcc330b0b0415",
        "status" : "passed",
        "time" : {
          "start" : 1647241773246,
          "stop" : 1647241774723,
          "duration" : 1477
        }
      }, {
        "uid" : "d801edb15aabbf84",
        "reportUrl" : "https://apetrovskiy.github.io/neon-tests/release-stand/feature/254q/507//#testresult/d801edb15aabbf84",
        "status" : "passed",
        "time" : {
          "start" : 1647239581724,
          "stop" : 1647239582976,
          "duration" : 1252
        }
      }, {
        "uid" : "760e586ff032ad1",
        "reportUrl" : "https://apetrovskiy.github.io/neon-tests/release-stand/feature/254q/509//#testresult/760e586ff032ad1",
        "status" : "passed",
        "time" : {
          "start" : 1647239641164,
          "stop" : 1647239642894,
          "duration" : 1730
        }
      } ]
    },
    "tags" : [ ]
  },
  "source" : "1bb74a8b07a12d07.json",
  "parameterValues" : [ ]
}