{
  "uid" : "e294010a74db273d",
  "name" : "test_rpc_call_eth_sendRawTransaction",
  "fullName" : "integration.tests.basic.test_transactions.TestRpcCallsTransactions#test_rpc_call_eth_sendRawTransaction",
  "historyId" : "f2266f2fcf46a3382764047e40d95c33",
  "time" : {
    "start" : 1647243635660,
    "stop" : 1647243637018,
    "duration" : 1358
  },
  "description" : "Verify implemented rpc calls work eth_sendRawTransaction",
  "descriptionHtml" : "<p>Verify implemented rpc calls work eth_sendRawTransaction</p>\n",
  "status" : "broken",
  "statusMessage" : "IndexError: Replacement index 2 out of range for positional args tuple",
  "statusTrace" : "self = <integration.tests.basic.test_transactions.TestRpcCallsTransactions object at 0x7fcbc309b9d0>\nprepare_accounts = None\n\n    @allure.step(\n        \"test: verify implemented rpc calls work eth_sendRawTransaction\")\n    def test_rpc_call_eth_sendRawTransaction(self, prepare_accounts):\n        \"\"\"Verify implemented rpc calls work eth_sendRawTransaction\"\"\"\n    \n        # TODO: chain id\n        transaction = {\n            \"from\":\n            self.sender_account.address,\n            \"to\":\n            self.recipient_account.address,\n            \"value\":\n            self.web3_client.toWei(InputData.SAMPLE_AMOUNT.value, \"ether\"),\n            \"chainId\":\n            111,\n            \"gasPrice\":\n            self.web3_client.gas_price(),\n            \"gas\":\n            0,\n            \"nonce\":\n            self.web3_client.eth.get_transaction_count(\n                self.sender_account.address),\n        }\n        transaction[\"gas\"] = self.web3_client.eth.estimate_gas(transaction)\n    \n        signed_tx = self.web3_client.eth.account.sign_transaction(\n            transaction, self.sender_account.key)\n    \n        params = [signed_tx.rawTransaction.hex()]\n    \n        model = RpcRequestFactory.get_send_raw_trx(params=params)\n        response = self.jsonrpc_requester.request_json_rpc(model)\n>       actual_result = self.jsonrpc_requester.deserialize_response(response)\n\nintegration/tests/basic/test_transactions.py:82: \n_ _ _ _ _ _ _ _ _ _ _ _ _ _ _ _ _ _ _ _ _ _ _ _ _ _ _ _ _ _ _ _ _ _ _ _ _ _ _ _ \n\nself = <integration.tests.basic.helpers.json_rpc_requester.JsonRpcRequester object at 0x7fcbc345aeb0>\nresponse = <Response [200]>, type = None\n\n    def deserialize_response(\n            self,\n            response: Response,\n            type: Type = None) -> Union[JsonRpcResponse, JsonRpcErrorResponse]:\n        str_data = self.stringify(response.json())\n        if 'result' in str_data:\n>           return self.deserialize_successful_response(response=response,\nE           IndexError: Replacement index 2 out of range for positional args tuple\n\nintegration/tests/basic/helpers/json_rpc_requester.py:27: IndexError",
  "flaky" : false,
  "newFailed" : false,
  "newBroken" : true,
  "newPassed" : false,
  "retriesCount" : 0,
  "retriesStatusChange" : false,
  "beforeStages" : [ {
    "name" : "web3_client",
    "time" : {
      "start" : 1647243432808,
      "stop" : 1647243432809,
      "duration" : 1
    },
    "status" : "passed",
    "steps" : [ ],
    "attachments" : [ ],
    "parameters" : [ ],
    "stepsCount" : 0,
    "attachmentsCount" : 0,
    "shouldDisplayMessage" : false,
    "hasContent" : false
  }, {
    "name" : "pytestconfig",
    "time" : {
      "start" : 1647243432808,
      "stop" : 1647243432808,
      "duration" : 0
    },
    "status" : "passed",
    "steps" : [ ],
    "attachments" : [ ],
    "parameters" : [ ],
    "stepsCount" : 0,
    "attachmentsCount" : 0,
    "shouldDisplayMessage" : false,
    "hasContent" : false
  }, {
    "name" : "allure_environment",
    "time" : {
      "start" : 1647243432809,
      "stop" : 1647243433810,
      "duration" : 1001
    },
    "status" : "passed",
    "steps" : [ ],
    "attachments" : [ ],
    "parameters" : [ ],
    "stepsCount" : 0,
    "attachmentsCount" : 0,
    "shouldDisplayMessage" : false,
    "hasContent" : false
  }, {
    "name" : "faucet",
    "time" : {
      "start" : 1647243433810,
      "stop" : 1647243433811,
      "duration" : 1
    },
    "status" : "passed",
    "steps" : [ ],
    "attachments" : [ ],
    "parameters" : [ ],
    "stepsCount" : 0,
    "attachmentsCount" : 0,
    "shouldDisplayMessage" : false,
    "hasContent" : false
  }, {
    "name" : "jsonrpc_requester",
    "time" : {
      "start" : 1647243433811,
      "stop" : 1647243433811,
      "duration" : 0
    },
    "status" : "passed",
    "steps" : [ ],
    "attachments" : [ ],
    "parameters" : [ ],
    "stepsCount" : 0,
    "attachmentsCount" : 0,
    "shouldDisplayMessage" : false,
    "hasContent" : false
  }, {
    "name" : "sol_client",
    "time" : {
      "start" : 1647243433811,
      "stop" : 1647243433811,
      "duration" : 0
    },
    "status" : "passed",
    "steps" : [ ],
    "attachments" : [ ],
    "parameters" : [ ],
    "stepsCount" : 0,
    "attachmentsCount" : 0,
    "shouldDisplayMessage" : false,
    "hasContent" : false
  }, {
    "name" : "operator",
    "time" : {
      "start" : 1647243433811,
      "stop" : 1647243433811,
      "duration" : 0
    },
    "status" : "passed",
    "steps" : [ ],
    "attachments" : [ ],
    "parameters" : [ ],
    "stepsCount" : 0,
    "attachmentsCount" : 0,
    "shouldDisplayMessage" : false,
    "hasContent" : false
  }, {
    "name" : "prepare_account",
    "time" : {
      "start" : 1647243622731,
      "stop" : 1647243630958,
      "duration" : 8227
    },
    "status" : "passed",
    "steps" : [ {
      "name" : "Create account for tests",
      "time" : {
        "start" : 1647243622732,
        "stop" : 1647243622736,
        "duration" : 4
      },
      "status" : "passed",
      "steps" : [ ],
      "attachments" : [ ],
      "parameters" : [ ],
      "stepsCount" : 0,
      "attachmentsCount" : 0,
      "shouldDisplayMessage" : false,
      "hasContent" : false
    }, {
      "name" : "Request 1000 NEON from faucet for 0xC1f526771775d4C316d9aF612c926270Be2C2Dda",
      "time" : {
        "start" : 1647243622736,
        "stop" : 1647243623581,
        "duration" : 845
      },
      "status" : "passed",
      "steps" : [ ],
      "attachments" : [ ],
      "parameters" : [ ],
      "stepsCount" : 0,
      "attachmentsCount" : 0,
      "shouldDisplayMessage" : false,
      "hasContent" : false
    }, {
      "name" : "Operator initial balance: 0.00220483638370387681344 NEON 74064669.8354722 SOL",
      "time" : {
        "start" : 1647243630958,
        "stop" : 1647243630958,
        "duration" : 0
      },
      "status" : "passed",
      "steps" : [ ],
      "attachments" : [ ],
      "parameters" : [ ],
      "stepsCount" : 0,
      "attachmentsCount" : 0,
      "shouldDisplayMessage" : false,
      "hasContent" : false
    } ],
    "attachments" : [ ],
    "parameters" : [ ],
    "stepsCount" : 3,
    "attachmentsCount" : 0,
    "shouldDisplayMessage" : false,
    "hasContent" : true
  }, {
    "name" : "prepare",
    "time" : {
      "start" : 1647243634298,
      "stop" : 1647243634298,
      "duration" : 0
    },
    "status" : "passed",
    "steps" : [ ],
    "attachments" : [ ],
    "parameters" : [ ],
    "stepsCount" : 0,
    "attachmentsCount" : 0,
    "shouldDisplayMessage" : false,
    "hasContent" : false
  }, {
    "name" : "prepare_account",
    "time" : {
      "start" : 1647243634298,
      "stop" : 1647243634298,
      "duration" : 0
    },
    "status" : "passed",
    "steps" : [ ],
    "attachments" : [ ],
    "parameters" : [ ],
    "stepsCount" : 0,
    "attachmentsCount" : 0,
    "shouldDisplayMessage" : false,
    "hasContent" : false
  }, {
    "name" : "prepare_accounts",
    "time" : {
      "start" : 1647243634299,
      "stop" : 1647243635659,
      "duration" : 1360
    },
    "status" : "passed",
    "steps" : [ {
      "name" : "creating a new account with balance",
      "time" : {
        "start" : 1647243634299,
        "stop" : 1647243634982,
        "duration" : 683
      },
      "status" : "passed",
      "steps" : [ {
        "name" : "creating a new account",
        "time" : {
          "start" : 1647243634299,
          "stop" : 1647243634308,
          "duration" : 9
        },
        "status" : "passed",
        "steps" : [ ],
        "attachments" : [ ],
        "parameters" : [ ],
        "stepsCount" : 0,
        "attachmentsCount" : 0,
        "shouldDisplayMessage" : false,
        "hasContent" : false
      }, {
        "name" : "requesting faucet for Neon",
        "time" : {
          "start" : 1647243634309,
          "stop" : 1647243634982,
          "duration" : 673
        },
        "status" : "passed",
        "steps" : [ ],
        "attachments" : [ ],
        "parameters" : [ {
          "name" : "wallet",
          "value" : "'0x9C3815F94Af478c250FaD46A8DB150F5216f8cbE'"
        }, {
          "name" : "amount",
          "value" : "5"
        } ],
        "stepsCount" : 0,
        "attachmentsCount" : 0,
        "shouldDisplayMessage" : false,
        "hasContent" : true
      } ],
      "attachments" : [ ],
      "parameters" : [ {
        "name" : "amount",
        "value" : "5"
      } ],
      "stepsCount" : 2,
      "attachmentsCount" : 0,
      "shouldDisplayMessage" : false,
      "hasContent" : true
    }, {
      "name" : "creating a new account with balance",
      "time" : {
        "start" : 1647243634982,
        "stop" : 1647243635659,
        "duration" : 677
      },
      "status" : "passed",
      "steps" : [ {
        "name" : "creating a new account",
        "time" : {
          "start" : 1647243634982,
          "stop" : 1647243634987,
          "duration" : 5
        },
        "status" : "passed",
        "steps" : [ ],
        "attachments" : [ ],
        "parameters" : [ ],
        "stepsCount" : 0,
        "attachmentsCount" : 0,
        "shouldDisplayMessage" : false,
        "hasContent" : false
      }, {
        "name" : "requesting faucet for Neon",
        "time" : {
          "start" : 1647243634987,
          "stop" : 1647243635659,
          "duration" : 672
        },
        "status" : "passed",
        "steps" : [ ],
        "attachments" : [ ],
        "parameters" : [ {
          "name" : "wallet",
          "value" : "'0x28fc768D1618f50C464Ec4db6EdEca820959A6d3'"
        }, {
          "name" : "amount",
          "value" : "5"
        } ],
        "stepsCount" : 0,
        "attachmentsCount" : 0,
        "shouldDisplayMessage" : false,
        "hasContent" : true
      } ],
      "attachments" : [ ],
      "parameters" : [ {
        "name" : "amount",
        "value" : "5"
      } ],
      "stepsCount" : 2,
      "attachmentsCount" : 0,
      "shouldDisplayMessage" : false,
      "hasContent" : true
    } ],
    "attachments" : [ ],
    "parameters" : [ ],
    "stepsCount" : 6,
    "attachmentsCount" : 0,
    "shouldDisplayMessage" : false,
    "hasContent" : true
  }, {
    "name" : "prepare_json_rpc_requester",
    "time" : {
      "start" : 1647243634299,
      "stop" : 1647243634299,
      "duration" : 0
    },
    "status" : "passed",
    "steps" : [ ],
    "attachments" : [ ],
    "parameters" : [ ],
    "stepsCount" : 0,
    "attachmentsCount" : 0,
    "shouldDisplayMessage" : false,
    "hasContent" : false
  } ],
  "testStage" : {
    "description" : "Verify implemented rpc calls work eth_sendRawTransaction",
    "status" : "broken",
    "statusMessage" : "IndexError: Replacement index 2 out of range for positional args tuple",
    "statusTrace" : "self = <integration.tests.basic.test_transactions.TestRpcCallsTransactions object at 0x7fcbc309b9d0>\nprepare_accounts = None\n\n    @allure.step(\n        \"test: verify implemented rpc calls work eth_sendRawTransaction\")\n    def test_rpc_call_eth_sendRawTransaction(self, prepare_accounts):\n        \"\"\"Verify implemented rpc calls work eth_sendRawTransaction\"\"\"\n    \n        # TODO: chain id\n        transaction = {\n            \"from\":\n            self.sender_account.address,\n            \"to\":\n            self.recipient_account.address,\n            \"value\":\n            self.web3_client.toWei(InputData.SAMPLE_AMOUNT.value, \"ether\"),\n            \"chainId\":\n            111,\n            \"gasPrice\":\n            self.web3_client.gas_price(),\n            \"gas\":\n            0,\n            \"nonce\":\n            self.web3_client.eth.get_transaction_count(\n                self.sender_account.address),\n        }\n        transaction[\"gas\"] = self.web3_client.eth.estimate_gas(transaction)\n    \n        signed_tx = self.web3_client.eth.account.sign_transaction(\n            transaction, self.sender_account.key)\n    \n        params = [signed_tx.rawTransaction.hex()]\n    \n        model = RpcRequestFactory.get_send_raw_trx(params=params)\n        response = self.jsonrpc_requester.request_json_rpc(model)\n>       actual_result = self.jsonrpc_requester.deserialize_response(response)\n\nintegration/tests/basic/test_transactions.py:82: \n_ _ _ _ _ _ _ _ _ _ _ _ _ _ _ _ _ _ _ _ _ _ _ _ _ _ _ _ _ _ _ _ _ _ _ _ _ _ _ _ \n\nself = <integration.tests.basic.helpers.json_rpc_requester.JsonRpcRequester object at 0x7fcbc345aeb0>\nresponse = <Response [200]>, type = None\n\n    def deserialize_response(\n            self,\n            response: Response,\n            type: Type = None) -> Union[JsonRpcResponse, JsonRpcErrorResponse]:\n        str_data = self.stringify(response.json())\n        if 'result' in str_data:\n>           return self.deserialize_successful_response(response=response,\nE           IndexError: Replacement index 2 out of range for positional args tuple\n\nintegration/tests/basic/helpers/json_rpc_requester.py:27: IndexError",
    "steps" : [ {
      "name" : "test: verify implemented rpc calls work eth_sendRawTransaction",
      "time" : {
        "start" : 1647243635660,
        "stop" : 1647243637017,
        "duration" : 1357
      },
      "status" : "broken",
      "statusMessage" : "IndexError: Replacement index 2 out of range for positional args tuple\n",
      "statusTrace" : "  File \"/opt/hostedtoolcache/Python/3.9.10/x64/lib/python3.9/site-packages/allure_commons/_allure.py\", line 172, in impl\n    return func(*a, **kw)\n  File \"/home/runner/work/neon-tests/neon-tests/integration/tests/basic/test_transactions.py\", line 82, in test_rpc_call_eth_sendRawTransaction\n    actual_result = self.jsonrpc_requester.deserialize_response(response)\n  File \"/home/runner/work/neon-tests/neon-tests/integration/tests/basic/helpers/json_rpc_requester.py\", line 27, in deserialize_response\n    return self.deserialize_successful_response(response=response,\n  File \"/opt/hostedtoolcache/Python/3.9.10/x64/lib/python3.9/site-packages/allure_commons/_allure.py\", line 171, in impl\n    with StepContext(self.title.format(*args, **params), params):\n",
      "steps" : [ {
        "name" : "requesting Json-RPC",
        "time" : {
          "start" : 1647243636519,
          "stop" : 1647243637017,
          "duration" : 498
        },
        "status" : "passed",
        "steps" : [ ],
        "attachments" : [ ],
        "parameters" : [ {
          "name" : "data",
          "value" : "JsonRpcRequest(id=48, method='eth_sendRawTransaction', params=['0xf86e80855a30762480823a989428fc768d1618f50c464ec4db6edeca820959a6d3883782dace9d90000080820102a04c66336f626bb38e1059b48fe6911a2e831e97c8fe05247d0e3052dbe63d9554a06f6caea9f02bafd5c759f73cc6a2116945f06878b6ffa580f63a018376d20168'], jsonrpc='2.0')"
        } ],
        "stepsCount" : 0,
        "attachmentsCount" : 0,
        "shouldDisplayMessage" : false,
        "hasContent" : true
      }, {
        "name" : "showing as JSON",
        "time" : {
          "start" : 1647243637017,
          "stop" : 1647243637017,
          "duration" : 0
        },
        "status" : "passed",
        "steps" : [ ],
        "attachments" : [ ],
        "parameters" : [ {
          "name" : "data",
          "value" : "{'jsonrpc': '2.0', 'id': 48, 'result': '0xf5f7783e6afd8bb19a8271b95b19f64f46daf47a68edcfd2dbf8fb6df54304e7'}"
        } ],
        "stepsCount" : 0,
        "attachmentsCount" : 0,
        "shouldDisplayMessage" : false,
        "hasContent" : true
      } ],
      "attachments" : [ ],
      "parameters" : [ {
        "name" : "prepare_accounts",
        "value" : "None"
      } ],
      "stepsCount" : 2,
      "attachmentsCount" : 0,
      "shouldDisplayMessage" : true,
      "hasContent" : true
    } ],
    "attachments" : [ ],
    "parameters" : [ ],
    "stepsCount" : 3,
    "attachmentsCount" : 0,
    "shouldDisplayMessage" : true,
    "hasContent" : true
  },
  "afterStages" : [ {
    "name" : "prepare_accounts::0",
    "time" : {
      "start" : 1647243637023,
      "stop" : 1647243637024,
      "duration" : 1
    },
    "status" : "passed",
    "steps" : [ ],
    "attachments" : [ ],
    "parameters" : [ ],
    "stepsCount" : 0,
    "attachmentsCount" : 0,
    "shouldDisplayMessage" : false,
    "hasContent" : false
  }, {
    "name" : "prepare_account::0",
    "time" : {
      "start" : 1647243643545,
      "stop" : 1647243651097,
      "duration" : 7552
    },
    "status" : "passed",
    "steps" : [ {
      "name" : "Operator end balance: 0.00220483641856628631744 NEON 74064669.8118916 SOL",
      "time" : {
        "start" : 1647243650928,
        "stop" : 1647243650928,
        "duration" : 0
      },
      "status" : "passed",
      "steps" : [ ],
      "attachments" : [ ],
      "parameters" : [ ],
      "stepsCount" : 0,
      "attachmentsCount" : 0,
      "shouldDisplayMessage" : false,
      "hasContent" : false
    }, {
      "name" : "Account end balance: 1000 NEON",
      "time" : {
        "start" : 1647243651097,
        "stop" : 1647243651097,
        "duration" : 0
      },
      "status" : "passed",
      "steps" : [ ],
      "attachments" : [ ],
      "parameters" : [ ],
      "stepsCount" : 0,
      "attachmentsCount" : 0,
      "shouldDisplayMessage" : false,
      "hasContent" : false
    } ],
    "attachments" : [ ],
    "parameters" : [ ],
    "stepsCount" : 2,
    "attachmentsCount" : 0,
    "shouldDisplayMessage" : false,
    "hasContent" : true
  }, {
    "name" : "allure_environment::0",
    "time" : {
      "start" : 1647243693500,
      "stop" : 1647243693500,
      "duration" : 0
    },
    "status" : "passed",
    "steps" : [ ],
    "attachments" : [ ],
    "parameters" : [ ],
    "stepsCount" : 0,
    "attachmentsCount" : 0,
    "shouldDisplayMessage" : false,
    "hasContent" : false
  } ],
  "labels" : [ {
    "name" : "story",
    "value" : "Basic: Json-RPC call tests - transactions"
  }, {
    "name" : "parentSuite",
    "value" : "integration.tests.basic"
  }, {
    "name" : "suite",
    "value" : "test_transactions"
  }, {
    "name" : "subSuite",
    "value" : "TestRpcCallsTransactions"
  }, {
    "name" : "host",
    "value" : "fv-az447-564"
  }, {
    "name" : "thread",
    "value" : "1741-MainThread"
  }, {
    "name" : "framework",
    "value" : "pytest"
  }, {
    "name" : "language",
    "value" : "cpython3"
  }, {
    "name" : "package",
    "value" : "integration.tests.basic.test_transactions"
  }, {
    "name" : "resultFormat",
    "value" : "allure2"
  } ],
  "parameters" : [ ],
  "links" : [ ],
  "hidden" : false,
  "retry" : false,
  "extra" : {
    "severity" : "normal",
    "retries" : [ ],
    "categories" : [ {
      "name" : "Test defects",
      "matchedStatuses" : [ ],
      "flaky" : false
    } ],
    "history" : {
      "statistic" : {
        "failed" : 0,
        "broken" : 1,
        "skipped" : 0,
        "passed" : 5,
        "unknown" : 0,
        "total" : 6
      },
      "items" : [ {
        "uid" : "f36fd447d3b9cb2e",
        "reportUrl" : "https://apetrovskiy.github.io/neon-tests/feature/254q/516//#testresult/f36fd447d3b9cb2e",
        "status" : "passed",
        "time" : {
          "start" : 1647242946375,
          "stop" : 1647242947524,
          "duration" : 1149
        }
      }, {
        "uid" : "8b45110baf8f3030",
        "reportUrl" : "https://apetrovskiy.github.io/neon-tests/feature/254q/514//#testresult/8b45110baf8f3030",
        "status" : "passed",
        "time" : {
          "start" : 1647242849848,
          "stop" : 1647242851474,
          "duration" : 1626
        }
      }, {
        "uid" : "c01af46f124cadcb",
        "reportUrl" : "https://apetrovskiy.github.io/neon-tests/feature/254q/510//#testresult/c01af46f124cadcb",
        "status" : "passed",
        "time" : {
          "start" : 1647241802429,
          "stop" : 1647241804174,
          "duration" : 1745
        }
      }, {
        "uid" : "1c3ee7cb2f02a6b9",
        "reportUrl" : "https://apetrovskiy.github.io/neon-tests/feature/254q/508//#testresult/1c3ee7cb2f02a6b9",
        "status" : "passed",
        "time" : {
          "start" : 1647239871926,
          "stop" : 1647239873060,
          "duration" : 1134
        }
      }, {
        "uid" : "768b921488cfa6b8",
        "reportUrl" : "https://apetrovskiy.github.io/neon-tests/feature/254q/506//#testresult/768b921488cfa6b8",
        "status" : "passed",
        "time" : {
          "start" : 1647239613560,
          "stop" : 1647239615308,
          "duration" : 1748
        }
      } ]
    },
    "tags" : [ ]
  },
  "source" : "e294010a74db273d.json",
  "parameterValues" : [ ]
}