{'from': '0x2956a5a9C4Ea5d32A5c1373FD42a1Bf41cf0Cf89', 'to': '0x9e85AA23aFc0cC2F24e900675CF285b6c074fc80', 'value': 5000000000000000000, 'chainId': 111, 'gasPrice': 400316400000, 'gas': 15000, 'nonce': 0}
b'\xa6\x1c\xc5 f)"\xdeU\\ub\x1d\xa8\xbf\x1d`\x86D6\x15\xbe\xf64\xc9c\xa5RI_\x1a\xc5'
SignedTransaction(rawTransaction=HexBytes('0xf86e80855d34b78180823a98949e85aa23afc0cc2f24e900675cf285b6c074fc80884563918244f4000080820101a02807c179f381e964190246830cc8a8a6a2ca179b8d7077df6c51d4ac2ad4a5a9a01f8f5d2d23a38fa644af02baef03ec07d745dfe392d70c0ce6132e53f056cb91'), hash=HexBytes('0xf5348f8ba5c6d2f993123cb8fdc3df40f26f8a0979b9a84175bb601d2cde1a06'), r=18106217197626910971599146858486789140423805484912701267513789764750431004073, s=14275000515705633897848158331189251480941136295559702080606423437914959956881, v=257)
