{'from': '0x64f1cEaB661A324b00C02031D0F13884A9c9e55e', 'to': '0x703Cee6574c6c00EB09252dEAaFd9eaC4d993AdF', 'value': 5000000000000000000, 'chainId': 111, 'gasPrice': 529702800000, 'gas': 15000, 'nonce': 0}
b'\x8b\x1d\xfd\xffa}P:\xb6\xcd\x98h-\xee\xfb\xb8\xa0Z\xe2\n\xc4^,\xe7\xd7\x03\xc6JIY\x86\xc3'
SignedTransaction(rawTransaction=HexBytes('0xf86e80857b54bf4a80823a9894703cee6574c6c00eb09252deaafd9eac4d993adf884563918244f4000080820101a0bcea660a3e2c2d28969f213e0ef173bfc716e5ff214e9fff6c85f58fb128e781a03e40e018e462ac080471fe46d0258a56b446a9d15a99eacf8d85cabd9dc084fa'), hash=HexBytes('0x62d04b462835956f08642c5d3f3e702f4187457dc0526e8a043a07ea072df8c3'), r=85448962001086597456890520844441112858492294896657700228899641170589079103361, s=28158021486580527579898002074288277899109702240844396475216193806836061734138, v=257)
