{
  "uid" : "1a54de7a07c79a19",
  "name" : "test_rpc_call_eth_getBlockByHash",
  "fullName" : "integration.tests.basic.test_blocks.TestRpcCallsBlocks#test_rpc_call_eth_getBlockByHash",
  "historyId" : "67dd2f24ec2162eee765b2dd1d070a59",
  "time" : {
    "start" : 1647634676955,
    "stop" : 1647634679999,
    "duration" : 3044
  },
  "description" : "Verify implemented rpc calls work eth_getBlockByHash",
  "descriptionHtml" : "<p>Verify implemented rpc calls work eth_getBlockByHash</p>\n",
  "status" : "broken",
  "statusMessage" : "ValueError: InvalidArgument",
  "statusTrace" : "self = <integration.tests.basic.test_blocks.TestRpcCallsBlocks object at 0x7f29566b6f10>\nprepare_accounts = None\n\n    def test_rpc_call_eth_getBlockByHash(self, prepare_accounts):\n        \"\"\"Verify implemented rpc calls work eth_getBlockByHash\"\"\"\n    \n>       tx_receipt = self.transfer_neon(self.sender_account,\n                                        self.recipient_account,\n                                        InputData.SAMPLE_AMOUNT.value)\n\nintegration/tests/basic/test_blocks.py:45: \n_ _ _ _ _ _ _ _ _ _ _ _ _ _ _ _ _ _ _ _ _ _ _ _ _ _ _ _ _ _ _ _ _ _ _ _ _ _ _ _ \nintegration/tests/basic/helpers/basic.py:119: in transfer_neon\n    return self.process_transaction(sender_account, recipient_account,\nintegration/tests/basic/helpers/basic.py:88: in process_transaction\n    return self.web3_client.send_neon(sender_account,\nutils/web3client.py:64: in send_neon\n    tx = self._web3.eth.send_raw_transaction(signed_tx.rawTransaction)\n/opt/hostedtoolcache/Python/3.9.10/x64/lib/python3.9/site-packages/web3/eth.py:783: in send_raw_transaction\n    return self._send_raw_transaction(transaction)\n/opt/hostedtoolcache/Python/3.9.10/x64/lib/python3.9/site-packages/web3/module.py:57: in caller\n    result = w3.manager.request_blocking(method_str,\n/opt/hostedtoolcache/Python/3.9.10/x64/lib/python3.9/site-packages/web3/manager.py:198: in request_blocking\n    return self.formatted_response(response,\n_ _ _ _ _ _ _ _ _ _ _ _ _ _ _ _ _ _ _ _ _ _ _ _ _ _ _ _ _ _ _ _ _ _ _ _ _ _ _ _ \n\nself = <web3.manager.RequestManager object at 0x7f29566b5e80>\nresponse = {'error': 'InvalidArgument', 'id': 5, 'jsonrpc': '2.0'}\nparams = ('0xf8712e85652265e50083181820944a47c5e1a36185942c6acb129a5e075c044f0c2a883782dace9d90000080841d3581bfa0541a186e046b0010c75313c3fde99836b8746ed1da5bbb19f44c933a55a63811a02c58c2bc12664b6f4bdbd80feb54a98248edcc75bd862937f89cebec47dde080',)\nerror_formatters = <cyfunction identity at 0x7f295b9eeee0>\nnull_result_formatters = <cyfunction identity at 0x7f295b9eeee0>\n\n    def formatted_response(\n        self,\n        response: RPCResponse,\n        params: Any,\n        error_formatters: Optional[Callable[..., Any]] = None,\n        null_result_formatters: Optional[Callable[..., Any]] = None,\n    ) -> Any:\n        if \"error\" in response:\n            apply_error_formatters(error_formatters, response)\n>           raise ValueError(response[\"error\"])\nE           ValueError: InvalidArgument\n\n/opt/hostedtoolcache/Python/3.9.10/x64/lib/python3.9/site-packages/web3/manager.py:171: ValueError",
  "flaky" : true,
  "newFailed" : false,
  "newBroken" : false,
  "newPassed" : false,
  "retriesCount" : 0,
  "retriesStatusChange" : false,
  "beforeStages" : [ {
    "name" : "pytestconfig",
    "time" : {
      "start" : 1647634676047,
      "stop" : 1647634676048,
      "duration" : 1
    },
    "status" : "passed",
    "steps" : [ ],
    "attachments" : [ ],
    "parameters" : [ ],
    "stepsCount" : 0,
    "attachmentsCount" : 0,
    "shouldDisplayMessage" : false,
    "hasContent" : false
  }, {
    "name" : "web3_client",
    "time" : {
      "start" : 1647634676048,
      "stop" : 1647634676049,
      "duration" : 1
    },
    "status" : "passed",
    "steps" : [ ],
    "attachments" : [ ],
    "parameters" : [ ],
    "stepsCount" : 0,
    "attachmentsCount" : 0,
    "shouldDisplayMessage" : false,
    "hasContent" : false
  }, {
    "name" : "allure_environment",
    "time" : {
      "start" : 1647634676050,
      "stop" : 1647634676939,
      "duration" : 889
    },
    "status" : "passed",
    "steps" : [ ],
    "attachments" : [ ],
    "parameters" : [ ],
    "stepsCount" : 0,
    "attachmentsCount" : 0,
    "shouldDisplayMessage" : false,
    "hasContent" : false
  }, {
    "name" : "operator",
    "time" : {
      "start" : 1647634676940,
      "stop" : 1647634676940,
      "duration" : 0
    },
    "status" : "passed",
    "steps" : [ ],
    "attachments" : [ ],
    "parameters" : [ ],
    "stepsCount" : 0,
    "attachmentsCount" : 0,
    "shouldDisplayMessage" : false,
    "hasContent" : false
  }, {
    "name" : "jsonrpc_requester",
    "time" : {
      "start" : 1647634676940,
      "stop" : 1647634676940,
      "duration" : 0
    },
    "status" : "passed",
    "steps" : [ ],
    "attachments" : [ ],
    "parameters" : [ ],
    "stepsCount" : 0,
    "attachmentsCount" : 0,
    "shouldDisplayMessage" : false,
    "hasContent" : false
  }, {
    "name" : "faucet",
    "time" : {
      "start" : 1647634676940,
      "stop" : 1647634676940,
      "duration" : 0
    },
    "status" : "passed",
    "steps" : [ ],
    "attachments" : [ ],
    "parameters" : [ ],
    "stepsCount" : 0,
    "attachmentsCount" : 0,
    "shouldDisplayMessage" : false,
    "hasContent" : false
  }, {
    "name" : "sol_client",
    "time" : {
      "start" : 1647634676941,
      "stop" : 1647634676941,
      "duration" : 0
    },
    "status" : "passed",
    "steps" : [ ],
    "attachments" : [ ],
    "parameters" : [ ],
    "stepsCount" : 0,
    "attachmentsCount" : 0,
    "shouldDisplayMessage" : false,
    "hasContent" : false
  }, {
    "name" : "prepare_json_rpc_requester",
    "time" : {
      "start" : 1647634676941,
      "stop" : 1647634676941,
      "duration" : 0
    },
    "status" : "passed",
    "steps" : [ ],
    "attachments" : [ ],
    "parameters" : [ ],
    "stepsCount" : 0,
    "attachmentsCount" : 0,
    "shouldDisplayMessage" : false,
    "hasContent" : false
  }, {
    "name" : "prepare",
    "time" : {
      "start" : 1647634676941,
      "stop" : 1647634676941,
      "duration" : 0
    },
    "status" : "passed",
    "steps" : [ ],
    "attachments" : [ ],
    "parameters" : [ ],
    "stepsCount" : 0,
    "attachmentsCount" : 0,
    "shouldDisplayMessage" : false,
    "hasContent" : false
  }, {
    "name" : "prepare_accounts",
    "time" : {
      "start" : 1647634676941,
      "stop" : 1647634676954,
      "duration" : 13
    },
    "status" : "passed",
    "steps" : [ ],
    "attachments" : [ ],
    "parameters" : [ ],
    "stepsCount" : 0,
    "attachmentsCount" : 0,
    "shouldDisplayMessage" : false,
    "hasContent" : false
  } ],
  "testStage" : {
    "description" : "Verify implemented rpc calls work eth_getBlockByHash",
    "status" : "broken",
    "statusMessage" : "ValueError: InvalidArgument",
    "statusTrace" : "self = <integration.tests.basic.test_blocks.TestRpcCallsBlocks object at 0x7f29566b6f10>\nprepare_accounts = None\n\n    def test_rpc_call_eth_getBlockByHash(self, prepare_accounts):\n        \"\"\"Verify implemented rpc calls work eth_getBlockByHash\"\"\"\n    \n>       tx_receipt = self.transfer_neon(self.sender_account,\n                                        self.recipient_account,\n                                        InputData.SAMPLE_AMOUNT.value)\n\nintegration/tests/basic/test_blocks.py:45: \n_ _ _ _ _ _ _ _ _ _ _ _ _ _ _ _ _ _ _ _ _ _ _ _ _ _ _ _ _ _ _ _ _ _ _ _ _ _ _ _ \nintegration/tests/basic/helpers/basic.py:119: in transfer_neon\n    return self.process_transaction(sender_account, recipient_account,\nintegration/tests/basic/helpers/basic.py:88: in process_transaction\n    return self.web3_client.send_neon(sender_account,\nutils/web3client.py:64: in send_neon\n    tx = self._web3.eth.send_raw_transaction(signed_tx.rawTransaction)\n/opt/hostedtoolcache/Python/3.9.10/x64/lib/python3.9/site-packages/web3/eth.py:783: in send_raw_transaction\n    return self._send_raw_transaction(transaction)\n/opt/hostedtoolcache/Python/3.9.10/x64/lib/python3.9/site-packages/web3/module.py:57: in caller\n    result = w3.manager.request_blocking(method_str,\n/opt/hostedtoolcache/Python/3.9.10/x64/lib/python3.9/site-packages/web3/manager.py:198: in request_blocking\n    return self.formatted_response(response,\n_ _ _ _ _ _ _ _ _ _ _ _ _ _ _ _ _ _ _ _ _ _ _ _ _ _ _ _ _ _ _ _ _ _ _ _ _ _ _ _ \n\nself = <web3.manager.RequestManager object at 0x7f29566b5e80>\nresponse = {'error': 'InvalidArgument', 'id': 5, 'jsonrpc': '2.0'}\nparams = ('0xf8712e85652265e50083181820944a47c5e1a36185942c6acb129a5e075c044f0c2a883782dace9d90000080841d3581bfa0541a186e046b0010c75313c3fde99836b8746ed1da5bbb19f44c933a55a63811a02c58c2bc12664b6f4bdbd80feb54a98248edcc75bd862937f89cebec47dde080',)\nerror_formatters = <cyfunction identity at 0x7f295b9eeee0>\nnull_result_formatters = <cyfunction identity at 0x7f295b9eeee0>\n\n    def formatted_response(\n        self,\n        response: RPCResponse,\n        params: Any,\n        error_formatters: Optional[Callable[..., Any]] = None,\n        null_result_formatters: Optional[Callable[..., Any]] = None,\n    ) -> Any:\n        if \"error\" in response:\n            apply_error_formatters(error_formatters, response)\n>           raise ValueError(response[\"error\"])\nE           ValueError: InvalidArgument\n\n/opt/hostedtoolcache/Python/3.9.10/x64/lib/python3.9/site-packages/web3/manager.py:171: ValueError",
    "steps" : [ {
      "name" : "Sending 4 from 0x10bA76E88cd03842eb45875e66a0CfD995Ab4D4A to 0x4a47c5e1A36185942c6aCB129a5e075c044F0C2a",
      "time" : {
        "start" : 1647634676955,
        "stop" : 1647634679998,
        "duration" : 3043
      },
      "status" : "broken",
      "statusMessage" : "ValueError: InvalidArgument\n",
      "statusTrace" : "  File \"/home/runner/work/neon-tests/neon-tests/integration/tests/basic/helpers/basic.py\", line 88, in process_transaction\n    return self.web3_client.send_neon(sender_account,\n  File \"/home/runner/work/neon-tests/neon-tests/utils/web3client.py\", line 64, in send_neon\n    tx = self._web3.eth.send_raw_transaction(signed_tx.rawTransaction)\n  File \"/opt/hostedtoolcache/Python/3.9.10/x64/lib/python3.9/site-packages/web3/eth.py\", line 783, in send_raw_transaction\n    return self._send_raw_transaction(transaction)\n  File \"/opt/hostedtoolcache/Python/3.9.10/x64/lib/python3.9/site-packages/web3/module.py\", line 57, in caller\n    result = w3.manager.request_blocking(method_str,\n  File \"/opt/hostedtoolcache/Python/3.9.10/x64/lib/python3.9/site-packages/web3/manager.py\", line 198, in request_blocking\n    return self.formatted_response(response,\n  File \"/opt/hostedtoolcache/Python/3.9.10/x64/lib/python3.9/site-packages/web3/manager.py\", line 171, in formatted_response\n    raise ValueError(response[\"error\"])\n",
      "steps" : [ ],
      "attachments" : [ ],
      "parameters" : [ ],
      "stepsCount" : 0,
      "attachmentsCount" : 0,
      "shouldDisplayMessage" : true,
      "hasContent" : true
    } ],
    "attachments" : [ ],
    "parameters" : [ ],
    "stepsCount" : 1,
    "attachmentsCount" : 0,
    "shouldDisplayMessage" : true,
    "hasContent" : true
  },
  "afterStages" : [ {
    "name" : "prepare_accounts::0",
    "time" : {
      "start" : 1647634680129,
      "stop" : 1647634680129,
      "duration" : 0
    },
    "status" : "passed",
    "steps" : [ ],
    "attachments" : [ ],
    "parameters" : [ ],
    "stepsCount" : 0,
    "attachmentsCount" : 0,
    "shouldDisplayMessage" : false,
    "hasContent" : false
  }, {
    "name" : "allure_environment::0",
    "time" : {
      "start" : 1647634714629,
      "stop" : 1647634714629,
      "duration" : 0
    },
    "status" : "passed",
    "steps" : [ ],
    "attachments" : [ ],
    "parameters" : [ ],
    "stepsCount" : 0,
    "attachmentsCount" : 0,
    "shouldDisplayMessage" : false,
    "hasContent" : false
  } ],
  "labels" : [ {
    "name" : "story",
    "value" : "Basic: Json-RPC call tests - blocks"
  }, {
    "name" : "parentSuite",
    "value" : "integration.tests.basic"
  }, {
    "name" : "suite",
    "value" : "test_blocks"
  }, {
    "name" : "subSuite",
    "value" : "TestRpcCallsBlocks"
  }, {
    "name" : "host",
    "value" : "fv-az445-625"
  }, {
    "name" : "thread",
    "value" : "1748-MainThread"
  }, {
    "name" : "framework",
    "value" : "pytest"
  }, {
    "name" : "language",
    "value" : "cpython3"
  }, {
    "name" : "package",
    "value" : "integration.tests.basic.test_blocks"
  }, {
    "name" : "resultFormat",
    "value" : "allure2"
  } ],
  "parameters" : [ ],
  "links" : [ ],
  "hidden" : false,
  "retry" : false,
  "extra" : {
    "severity" : "normal",
    "retries" : [ ],
    "categories" : [ {
      "name" : "Test defects",
      "matchedStatuses" : [ ],
      "flaky" : false
    } ],
    "history" : {
      "statistic" : {
        "failed" : 3,
        "broken" : 3,
        "skipped" : 0,
        "passed" : 3,
        "unknown" : 0,
        "total" : 9
      },
      "items" : [ {
        "uid" : "1d1c8eaf53ba9cfa",
        "reportUrl" : "https://apetrovskiy.github.io/neon-tests/release-stand/feature/254t/650//#testresult/1d1c8eaf53ba9cfa",
        "status" : "broken",
        "statusDetails" : "ValueError: {'code': -32002, 'message': 'Verifying nonce before send transaction: Error processing Instruction 1: invalid program argument', 'data': {'logs': ['/src/entrypoint.rs Invalid Ethereum transaction nonce: acc 27, trx 26']}}",
        "time" : {
          "start" : 1647632715057,
          "stop" : 1647632717615,
          "duration" : 2558
        }
      }, {
        "uid" : "ff944abdfab45bd0",
        "reportUrl" : "https://apetrovskiy.github.io/neon-tests/release-stand/feature/254t/647//#testresult/ff944abdfab45bd0",
        "status" : "broken",
        "statusDetails" : "AttributeError: 'JsonRpcRequester' object has no attribute 'get_proxy_url'",
        "time" : {
          "start" : 1647629301347,
          "stop" : 1647629301347,
          "duration" : 0
        }
      }, {
        "uid" : "3f5b0873f6712336",
        "reportUrl" : "https://apetrovskiy.github.io/neon-tests/release-stand/feature/254t/644//#testresult/3f5b0873f6712336",
        "status" : "passed",
        "time" : {
          "start" : 1647627395435,
          "stop" : 1647627398156,
          "duration" : 2721
        }
      }, {
        "uid" : "f0f80fb4de060122",
        "reportUrl" : "https://apetrovskiy.github.io/neon-tests/release-stand/feature/254t/641//#testresult/f0f80fb4de060122",
        "status" : "failed",
        "statusDetails" : "AssertionError",
        "time" : {
          "start" : 1647624109449,
          "stop" : 1647624109449,
          "duration" : 0
        }
      }, {
        "uid" : "700896d6688ca182",
        "reportUrl" : "https://apetrovskiy.github.io/neon-tests/release-stand/feature/254t/635//#testresult/700896d6688ca182",
        "status" : "failed",
        "statusDetails" : "AssertionError",
        "time" : {
          "start" : 1647623111621,
          "stop" : 1647623111621,
          "duration" : 0
        }
      }, {
        "uid" : "7905c9da0a204516",
        "reportUrl" : "https://apetrovskiy.github.io/neon-tests/release-stand/feature/254t/632//#testresult/7905c9da0a204516",
        "status" : "failed",
        "statusDetails" : "AssertionError",
        "time" : {
          "start" : 1647622862839,
          "stop" : 1647622862839,
          "duration" : 0
        }
      }, {
        "uid" : "4e90e51d88dc9d23",
        "reportUrl" : "https://apetrovskiy.github.io/neon-tests/release-stand/feature/254t/629//#testresult/4e90e51d88dc9d23",
        "status" : "passed",
        "time" : {
          "start" : 1647622752801,
          "stop" : 1647622754079,
          "duration" : 1278
        }
      }, {
        "uid" : "add22ff28251849e",
        "reportUrl" : "https://apetrovskiy.github.io/neon-tests/release-stand/feature/254t/624//#testresult/add22ff28251849e",
        "status" : "passed",
        "time" : {
          "start" : 1647622060376,
          "stop" : 1647622062167,
          "duration" : 1791
        }
      } ]
    },
    "tags" : [ ]
  },
  "source" : "1a54de7a07c79a19.json",
  "parameterValues" : [ ]
}