{
  "uid" : "7f3d84d1b0ad7508",
  "name" : "test_rpc_call_eth_getTransactionByHash",
  "fullName" : "integration.tests.basic.test_transactions.TestRpcCallsTransactions#test_rpc_call_eth_getTransactionByHash",
  "historyId" : "6ac4a8f7a5e8b0d870eb9a8c83c848c5",
  "time" : {
    "start" : 1647634690469,
    "stop" : 1647634693830,
    "duration" : 3361
  },
  "description" : "Verify implemented rpc calls work eth_getTransactionByHash",
  "descriptionHtml" : "<p>Verify implemented rpc calls work eth_getTransactionByHash</p>\n",
  "status" : "broken",
  "statusMessage" : "ValueError: InvalidArgument",
  "statusTrace" : "self = <integration.tests.basic.test_transactions.TestRpcCallsTransactions object at 0x7f2956302e80>\nprepare_accounts = None\n\n    def test_rpc_call_eth_getTransactionByHash(self, prepare_accounts):\n        \"\"\"Verify implemented rpc calls work eth_getTransactionByHash\"\"\"\n    \n>       tx_receipt = self.transfer_neon(self.sender_account,\n                                        self.recipient_account,\n                                        InputData.SAMPLE_AMOUNT.value)\n\nintegration/tests/basic/test_transactions.py:101: \n_ _ _ _ _ _ _ _ _ _ _ _ _ _ _ _ _ _ _ _ _ _ _ _ _ _ _ _ _ _ _ _ _ _ _ _ _ _ _ _ \nintegration/tests/basic/helpers/basic.py:119: in transfer_neon\n    return self.process_transaction(sender_account, recipient_account,\nintegration/tests/basic/helpers/basic.py:88: in process_transaction\n    return self.web3_client.send_neon(sender_account,\nutils/web3client.py:64: in send_neon\n    tx = self._web3.eth.send_raw_transaction(signed_tx.rawTransaction)\n/opt/hostedtoolcache/Python/3.9.10/x64/lib/python3.9/site-packages/web3/eth.py:783: in send_raw_transaction\n    return self._send_raw_transaction(transaction)\n/opt/hostedtoolcache/Python/3.9.10/x64/lib/python3.9/site-packages/web3/module.py:57: in caller\n    result = w3.manager.request_blocking(method_str,\n/opt/hostedtoolcache/Python/3.9.10/x64/lib/python3.9/site-packages/web3/manager.py:198: in request_blocking\n    return self.formatted_response(response,\n_ _ _ _ _ _ _ _ _ _ _ _ _ _ _ _ _ _ _ _ _ _ _ _ _ _ _ _ _ _ _ _ _ _ _ _ _ _ _ _ \n\nself = <web3.manager.RequestManager object at 0x7f29566b5e80>\nresponse = {'error': 'InvalidArgument', 'id': 29, 'jsonrpc': '2.0'}\nparams = ('0xf8713385652265e5008318182094ee6cdaf290d4b129c838eadac38a5a50a766a122883782dace9d90000080841d3581bfa02fb51de7037c3272e80a7ad4a59193d6cb57b636dbd537718357b1cc1a0c11a5a067e3b2badd7225cea6f0b6561092b423e8f11d19b2956941e6e576acfdba6f7e',)\nerror_formatters = <cyfunction identity at 0x7f295b9eeee0>\nnull_result_formatters = <cyfunction identity at 0x7f295b9eeee0>\n\n    def formatted_response(\n        self,\n        response: RPCResponse,\n        params: Any,\n        error_formatters: Optional[Callable[..., Any]] = None,\n        null_result_formatters: Optional[Callable[..., Any]] = None,\n    ) -> Any:\n        if \"error\" in response:\n            apply_error_formatters(error_formatters, response)\n>           raise ValueError(response[\"error\"])\nE           ValueError: InvalidArgument\n\n/opt/hostedtoolcache/Python/3.9.10/x64/lib/python3.9/site-packages/web3/manager.py:171: ValueError",
  "flaky" : true,
  "newFailed" : false,
  "newBroken" : false,
  "newPassed" : false,
  "retriesCount" : 0,
  "retriesStatusChange" : false,
  "beforeStages" : [ {
    "name" : "pytestconfig",
    "time" : {
      "start" : 1647634676047,
      "stop" : 1647634676048,
      "duration" : 1
    },
    "status" : "passed",
    "steps" : [ ],
    "attachments" : [ ],
    "parameters" : [ ],
    "stepsCount" : 0,
    "attachmentsCount" : 0,
    "shouldDisplayMessage" : false,
    "hasContent" : false
  }, {
    "name" : "web3_client",
    "time" : {
      "start" : 1647634676048,
      "stop" : 1647634676049,
      "duration" : 1
    },
    "status" : "passed",
    "steps" : [ ],
    "attachments" : [ ],
    "parameters" : [ ],
    "stepsCount" : 0,
    "attachmentsCount" : 0,
    "shouldDisplayMessage" : false,
    "hasContent" : false
  }, {
    "name" : "allure_environment",
    "time" : {
      "start" : 1647634676050,
      "stop" : 1647634676939,
      "duration" : 889
    },
    "status" : "passed",
    "steps" : [ ],
    "attachments" : [ ],
    "parameters" : [ ],
    "stepsCount" : 0,
    "attachmentsCount" : 0,
    "shouldDisplayMessage" : false,
    "hasContent" : false
  }, {
    "name" : "operator",
    "time" : {
      "start" : 1647634676940,
      "stop" : 1647634676940,
      "duration" : 0
    },
    "status" : "passed",
    "steps" : [ ],
    "attachments" : [ ],
    "parameters" : [ ],
    "stepsCount" : 0,
    "attachmentsCount" : 0,
    "shouldDisplayMessage" : false,
    "hasContent" : false
  }, {
    "name" : "jsonrpc_requester",
    "time" : {
      "start" : 1647634676940,
      "stop" : 1647634676940,
      "duration" : 0
    },
    "status" : "passed",
    "steps" : [ ],
    "attachments" : [ ],
    "parameters" : [ ],
    "stepsCount" : 0,
    "attachmentsCount" : 0,
    "shouldDisplayMessage" : false,
    "hasContent" : false
  }, {
    "name" : "faucet",
    "time" : {
      "start" : 1647634676940,
      "stop" : 1647634676940,
      "duration" : 0
    },
    "status" : "passed",
    "steps" : [ ],
    "attachments" : [ ],
    "parameters" : [ ],
    "stepsCount" : 0,
    "attachmentsCount" : 0,
    "shouldDisplayMessage" : false,
    "hasContent" : false
  }, {
    "name" : "sol_client",
    "time" : {
      "start" : 1647634676941,
      "stop" : 1647634676941,
      "duration" : 0
    },
    "status" : "passed",
    "steps" : [ ],
    "attachments" : [ ],
    "parameters" : [ ],
    "stepsCount" : 0,
    "attachmentsCount" : 0,
    "shouldDisplayMessage" : false,
    "hasContent" : false
  }, {
    "name" : "prepare",
    "time" : {
      "start" : 1647634690462,
      "stop" : 1647634690463,
      "duration" : 1
    },
    "status" : "passed",
    "steps" : [ ],
    "attachments" : [ ],
    "parameters" : [ ],
    "stepsCount" : 0,
    "attachmentsCount" : 0,
    "shouldDisplayMessage" : false,
    "hasContent" : false
  }, {
    "name" : "prepare_accounts",
    "time" : {
      "start" : 1647634690463,
      "stop" : 1647634690468,
      "duration" : 5
    },
    "status" : "passed",
    "steps" : [ ],
    "attachments" : [ ],
    "parameters" : [ ],
    "stepsCount" : 0,
    "attachmentsCount" : 0,
    "shouldDisplayMessage" : false,
    "hasContent" : false
  }, {
    "name" : "prepare_json_rpc_requester",
    "time" : {
      "start" : 1647634690463,
      "stop" : 1647634690463,
      "duration" : 0
    },
    "status" : "passed",
    "steps" : [ ],
    "attachments" : [ ],
    "parameters" : [ ],
    "stepsCount" : 0,
    "attachmentsCount" : 0,
    "shouldDisplayMessage" : false,
    "hasContent" : false
  } ],
  "testStage" : {
    "description" : "Verify implemented rpc calls work eth_getTransactionByHash",
    "status" : "broken",
    "statusMessage" : "ValueError: InvalidArgument",
    "statusTrace" : "self = <integration.tests.basic.test_transactions.TestRpcCallsTransactions object at 0x7f2956302e80>\nprepare_accounts = None\n\n    def test_rpc_call_eth_getTransactionByHash(self, prepare_accounts):\n        \"\"\"Verify implemented rpc calls work eth_getTransactionByHash\"\"\"\n    \n>       tx_receipt = self.transfer_neon(self.sender_account,\n                                        self.recipient_account,\n                                        InputData.SAMPLE_AMOUNT.value)\n\nintegration/tests/basic/test_transactions.py:101: \n_ _ _ _ _ _ _ _ _ _ _ _ _ _ _ _ _ _ _ _ _ _ _ _ _ _ _ _ _ _ _ _ _ _ _ _ _ _ _ _ \nintegration/tests/basic/helpers/basic.py:119: in transfer_neon\n    return self.process_transaction(sender_account, recipient_account,\nintegration/tests/basic/helpers/basic.py:88: in process_transaction\n    return self.web3_client.send_neon(sender_account,\nutils/web3client.py:64: in send_neon\n    tx = self._web3.eth.send_raw_transaction(signed_tx.rawTransaction)\n/opt/hostedtoolcache/Python/3.9.10/x64/lib/python3.9/site-packages/web3/eth.py:783: in send_raw_transaction\n    return self._send_raw_transaction(transaction)\n/opt/hostedtoolcache/Python/3.9.10/x64/lib/python3.9/site-packages/web3/module.py:57: in caller\n    result = w3.manager.request_blocking(method_str,\n/opt/hostedtoolcache/Python/3.9.10/x64/lib/python3.9/site-packages/web3/manager.py:198: in request_blocking\n    return self.formatted_response(response,\n_ _ _ _ _ _ _ _ _ _ _ _ _ _ _ _ _ _ _ _ _ _ _ _ _ _ _ _ _ _ _ _ _ _ _ _ _ _ _ _ \n\nself = <web3.manager.RequestManager object at 0x7f29566b5e80>\nresponse = {'error': 'InvalidArgument', 'id': 29, 'jsonrpc': '2.0'}\nparams = ('0xf8713385652265e5008318182094ee6cdaf290d4b129c838eadac38a5a50a766a122883782dace9d90000080841d3581bfa02fb51de7037c3272e80a7ad4a59193d6cb57b636dbd537718357b1cc1a0c11a5a067e3b2badd7225cea6f0b6561092b423e8f11d19b2956941e6e576acfdba6f7e',)\nerror_formatters = <cyfunction identity at 0x7f295b9eeee0>\nnull_result_formatters = <cyfunction identity at 0x7f295b9eeee0>\n\n    def formatted_response(\n        self,\n        response: RPCResponse,\n        params: Any,\n        error_formatters: Optional[Callable[..., Any]] = None,\n        null_result_formatters: Optional[Callable[..., Any]] = None,\n    ) -> Any:\n        if \"error\" in response:\n            apply_error_formatters(error_formatters, response)\n>           raise ValueError(response[\"error\"])\nE           ValueError: InvalidArgument\n\n/opt/hostedtoolcache/Python/3.9.10/x64/lib/python3.9/site-packages/web3/manager.py:171: ValueError",
    "steps" : [ {
      "name" : "Sending 4 from 0x10bA76E88cd03842eb45875e66a0CfD995Ab4D4A to 0xEE6CDAf290d4b129C838eaDac38A5a50A766A122",
      "time" : {
        "start" : 1647634690469,
        "stop" : 1647634693830,
        "duration" : 3361
      },
      "status" : "broken",
      "statusMessage" : "ValueError: InvalidArgument\n",
      "statusTrace" : "  File \"/home/runner/work/neon-tests/neon-tests/integration/tests/basic/helpers/basic.py\", line 88, in process_transaction\n    return self.web3_client.send_neon(sender_account,\n  File \"/home/runner/work/neon-tests/neon-tests/utils/web3client.py\", line 64, in send_neon\n    tx = self._web3.eth.send_raw_transaction(signed_tx.rawTransaction)\n  File \"/opt/hostedtoolcache/Python/3.9.10/x64/lib/python3.9/site-packages/web3/eth.py\", line 783, in send_raw_transaction\n    return self._send_raw_transaction(transaction)\n  File \"/opt/hostedtoolcache/Python/3.9.10/x64/lib/python3.9/site-packages/web3/module.py\", line 57, in caller\n    result = w3.manager.request_blocking(method_str,\n  File \"/opt/hostedtoolcache/Python/3.9.10/x64/lib/python3.9/site-packages/web3/manager.py\", line 198, in request_blocking\n    return self.formatted_response(response,\n  File \"/opt/hostedtoolcache/Python/3.9.10/x64/lib/python3.9/site-packages/web3/manager.py\", line 171, in formatted_response\n    raise ValueError(response[\"error\"])\n",
      "steps" : [ ],
      "attachments" : [ ],
      "parameters" : [ ],
      "stepsCount" : 0,
      "attachmentsCount" : 0,
      "shouldDisplayMessage" : true,
      "hasContent" : true
    } ],
    "attachments" : [ ],
    "parameters" : [ ],
    "stepsCount" : 1,
    "attachmentsCount" : 0,
    "shouldDisplayMessage" : true,
    "hasContent" : true
  },
  "afterStages" : [ {
    "name" : "prepare_accounts::0",
    "time" : {
      "start" : 1647634693869,
      "stop" : 1647634693869,
      "duration" : 0
    },
    "status" : "passed",
    "steps" : [ ],
    "attachments" : [ ],
    "parameters" : [ ],
    "stepsCount" : 0,
    "attachmentsCount" : 0,
    "shouldDisplayMessage" : false,
    "hasContent" : false
  }, {
    "name" : "allure_environment::0",
    "time" : {
      "start" : 1647634714629,
      "stop" : 1647634714629,
      "duration" : 0
    },
    "status" : "passed",
    "steps" : [ ],
    "attachments" : [ ],
    "parameters" : [ ],
    "stepsCount" : 0,
    "attachmentsCount" : 0,
    "shouldDisplayMessage" : false,
    "hasContent" : false
  } ],
  "labels" : [ {
    "name" : "story",
    "value" : "Basic: Json-RPC call tests - transactions"
  }, {
    "name" : "parentSuite",
    "value" : "integration.tests.basic"
  }, {
    "name" : "suite",
    "value" : "test_transactions"
  }, {
    "name" : "subSuite",
    "value" : "TestRpcCallsTransactions"
  }, {
    "name" : "host",
    "value" : "fv-az445-625"
  }, {
    "name" : "thread",
    "value" : "1748-MainThread"
  }, {
    "name" : "framework",
    "value" : "pytest"
  }, {
    "name" : "language",
    "value" : "cpython3"
  }, {
    "name" : "package",
    "value" : "integration.tests.basic.test_transactions"
  }, {
    "name" : "resultFormat",
    "value" : "allure2"
  } ],
  "parameters" : [ ],
  "links" : [ ],
  "hidden" : false,
  "retry" : false,
  "extra" : {
    "severity" : "normal",
    "retries" : [ ],
    "categories" : [ {
      "name" : "Test defects",
      "matchedStatuses" : [ ],
      "flaky" : false
    } ],
    "history" : {
      "statistic" : {
        "failed" : 3,
        "broken" : 3,
        "skipped" : 0,
        "passed" : 3,
        "unknown" : 0,
        "total" : 9
      },
      "items" : [ {
        "uid" : "c3d86145aa3632c",
        "reportUrl" : "https://apetrovskiy.github.io/neon-tests/release-stand/feature/254t/650//#testresult/c3d86145aa3632c",
        "status" : "broken",
        "statusDetails" : "ValueError: {'code': -32002, 'message': 'Verifying nonce before send transaction: Error processing Instruction 1: invalid program argument', 'data': {'logs': ['/src/entrypoint.rs Invalid Ethereum transaction nonce: acc 32, trx 31']}}",
        "time" : {
          "start" : 1647632728044,
          "stop" : 1647632729638,
          "duration" : 1594
        }
      }, {
        "uid" : "a99964fe80cc7425",
        "reportUrl" : "https://apetrovskiy.github.io/neon-tests/release-stand/feature/254t/647//#testresult/a99964fe80cc7425",
        "status" : "broken",
        "statusDetails" : "AttributeError: 'JsonRpcRequester' object has no attribute 'get_proxy_url'",
        "time" : {
          "start" : 1647629303195,
          "stop" : 1647629303195,
          "duration" : 0
        }
      }, {
        "uid" : "718b5a934fe6b8d",
        "reportUrl" : "https://apetrovskiy.github.io/neon-tests/release-stand/feature/254t/644//#testresult/718b5a934fe6b8d",
        "status" : "passed",
        "time" : {
          "start" : 1647627407759,
          "stop" : 1647627410846,
          "duration" : 3087
        }
      }, {
        "uid" : "e2128824481f8906",
        "reportUrl" : "https://apetrovskiy.github.io/neon-tests/release-stand/feature/254t/641//#testresult/e2128824481f8906",
        "status" : "failed",
        "statusDetails" : "AssertionError",
        "time" : {
          "start" : 1647624114919,
          "stop" : 1647624114919,
          "duration" : 0
        }
      }, {
        "uid" : "b9aa3286be8ee58f",
        "reportUrl" : "https://apetrovskiy.github.io/neon-tests/release-stand/feature/254t/635//#testresult/b9aa3286be8ee58f",
        "status" : "failed",
        "statusDetails" : "AssertionError",
        "time" : {
          "start" : 1647623113758,
          "stop" : 1647623113758,
          "duration" : 0
        }
      }, {
        "uid" : "dffdb9dd7b5f4e46",
        "reportUrl" : "https://apetrovskiy.github.io/neon-tests/release-stand/feature/254t/632//#testresult/dffdb9dd7b5f4e46",
        "status" : "failed",
        "statusDetails" : "AssertionError",
        "time" : {
          "start" : 1647622865146,
          "stop" : 1647622865146,
          "duration" : 0
        }
      }, {
        "uid" : "5f88a85028c70750",
        "reportUrl" : "https://apetrovskiy.github.io/neon-tests/release-stand/feature/254t/629//#testresult/5f88a85028c70750",
        "status" : "passed",
        "time" : {
          "start" : 1647622819167,
          "stop" : 1647622820450,
          "duration" : 1283
        }
      }, {
        "uid" : "e9b07ffe6c6acc88",
        "reportUrl" : "https://apetrovskiy.github.io/neon-tests/release-stand/feature/254t/624//#testresult/e9b07ffe6c6acc88",
        "status" : "passed",
        "time" : {
          "start" : 1647622169575,
          "stop" : 1647622171063,
          "duration" : 1488
        }
      } ]
    },
    "tags" : [ ]
  },
  "source" : "7f3d84d1b0ad7508.json",
  "parameterValues" : [ ]
}