{
  "uid" : "183679597ba91839",
  "name" : "test_rpc_call_eth_sendRawTransaction",
  "fullName" : "integration.tests.basic.test_transactions.TestRpcCallsTransactions#test_rpc_call_eth_sendRawTransaction",
  "historyId" : "f2266f2fcf46a3382764047e40d95c33",
  "time" : {
    "start" : 1646682952933,
    "stop" : 1646682955394,
    "duration" : 2461
  },
  "description" : "Verify implemented rpc calls work eth_sendRawTransaction",
  "descriptionHtml" : "<p>Verify implemented rpc calls work eth_sendRawTransaction</p>\n",
  "status" : "broken",
  "statusMessage" : "TypeError: Object of type HexBytes is not JSON serializable",
  "statusTrace" : "self = <integration.tests.basic.test_transactions.TestRpcCallsTransactions object at 0x7f8e4ff883a0>\n\n    @allure.step(\n        \"test: verify implemented rpc calls work eth_sendRawTransaction\")\n    def test_rpc_call_eth_sendRawTransaction(self):\n        \"\"\"Verify implemented rpc calls work eth_sendRawTransaction\"\"\"\n        sender_account = self.create_account_with_balance(GREAT_AMOUNT)\n        recipient_account = self.create_account_with_balance(\n            FIRST_FAUCET_REQUEST_AMOUNT)\n    \n        # TODO: chain id\n        transaction = {\n            \"from\":\n            sender_account.address,\n            \"to\":\n            recipient_account.address,\n            \"value\":\n            self.web3_client.toWei(SAMPLE_AMOUNT, \"ether\"),\n            \"chainId\":\n            111,\n            \"gasPrice\":\n            self.web3_client.gas_price(),\n            \"gas\":\n            0,\n            \"nonce\":\n            self.web3_client.eth.get_transaction_count(sender_account.address),\n        }\n        transaction[\"gas\"] = self.web3_client.eth.estimate_gas(transaction)\n    \n        #\n        print(transaction)\n        print(sender_account.key)\n        #\n    \n        signed_tx = self.web3_client.eth.account.sign_transaction(\n            transaction, sender_account.key)\n        params = [signed_tx]\n    \n        #\n        print(signed_tx)\n        #\n    \n        model = RpcRequestFactory.get_send_raw_trx(params=params)\n>       response = self.jsonrpc_requester.request_json_rpc(model)\n\nintegration/tests/basic/test_transactions.py:96: \n_ _ _ _ _ _ _ _ _ _ _ _ _ _ _ _ _ _ _ _ _ _ _ _ _ _ _ _ _ _ _ _ _ _ _ _ _ _ _ _ \nintegration/tests/basic/helpers/json_rpc_requester.py:20: in request_json_rpc\n    return self._session.post(self._url, json=dataclasses.asdict(data))\n/opt/hostedtoolcache/Python/3.9.10/x64/lib/python3.9/site-packages/requests/sessions.py:577: in post\n    return self.request('POST', url, data=data, json=json, **kwargs)\n/opt/hostedtoolcache/Python/3.9.10/x64/lib/python3.9/site-packages/requests/sessions.py:515: in request\n    prep = self.prepare_request(req)\n/opt/hostedtoolcache/Python/3.9.10/x64/lib/python3.9/site-packages/requests/sessions.py:443: in prepare_request\n    p.prepare(\n/opt/hostedtoolcache/Python/3.9.10/x64/lib/python3.9/site-packages/requests/models.py:321: in prepare\n    self.prepare_body(data, files, json)\n/opt/hostedtoolcache/Python/3.9.10/x64/lib/python3.9/site-packages/requests/models.py:473: in prepare_body\n    body = complexjson.dumps(json, allow_nan=False)\n/opt/hostedtoolcache/Python/3.9.10/x64/lib/python3.9/json/__init__.py:234: in dumps\n    return cls(\n/opt/hostedtoolcache/Python/3.9.10/x64/lib/python3.9/json/encoder.py:199: in encode\n    chunks = self.iterencode(o, _one_shot=True)\n/opt/hostedtoolcache/Python/3.9.10/x64/lib/python3.9/json/encoder.py:257: in iterencode\n    return _iterencode(o, 0)\n_ _ _ _ _ _ _ _ _ _ _ _ _ _ _ _ _ _ _ _ _ _ _ _ _ _ _ _ _ _ _ _ _ _ _ _ _ _ _ _ \n\nself = <json.encoder.JSONEncoder object at 0x7f8e4ff9bfd0>\no = HexBytes('0xf86e80857b5c0663a0823a9894ae9fd209a2226412bb73f42760102df994f82af1884563918244f4000080820102a05290a61787273e0bffe4db8165227ada0f07d2ae6189a538ef1a6dbd68f1fcdfa017ace9bc66ef5b04c9b2e28391000c87d2b405080f8f145db65a8bb0ee42e978')\n\n    def default(self, o):\n        \"\"\"Implement this method in a subclass such that it returns\n        a serializable object for ``o``, or calls the base implementation\n        (to raise a ``TypeError``).\n    \n        For example, to support arbitrary iterators, you could\n        implement default like this::\n    \n            def default(self, o):\n                try:\n                    iterable = iter(o)\n                except TypeError:\n                    pass\n                else:\n                    return list(iterable)\n                # Let the base class default method raise the TypeError\n                return JSONEncoder.default(self, o)\n    \n        \"\"\"\n>       raise TypeError(f'Object of type {o.__class__.__name__} '\n                        f'is not JSON serializable')\nE       TypeError: Object of type HexBytes is not JSON serializable\n\n/opt/hostedtoolcache/Python/3.9.10/x64/lib/python3.9/json/encoder.py:179: TypeError",
  "flaky" : false,
  "newFailed" : false,
  "newBroken" : true,
  "newPassed" : false,
  "retriesCount" : 0,
  "retriesStatusChange" : false,
  "beforeStages" : [ {
    "name" : "web3_client",
    "time" : {
      "start" : 1646682874846,
      "stop" : 1646682874847,
      "duration" : 1
    },
    "status" : "passed",
    "steps" : [ ],
    "attachments" : [ ],
    "parameters" : [ ],
    "stepsCount" : 0,
    "attachmentsCount" : 0,
    "shouldDisplayMessage" : false,
    "hasContent" : false
  }, {
    "name" : "pytestconfig",
    "time" : {
      "start" : 1646682874846,
      "stop" : 1646682874846,
      "duration" : 0
    },
    "status" : "passed",
    "steps" : [ ],
    "attachments" : [ ],
    "parameters" : [ ],
    "stepsCount" : 0,
    "attachmentsCount" : 0,
    "shouldDisplayMessage" : false,
    "hasContent" : false
  }, {
    "name" : "allure_environment",
    "time" : {
      "start" : 1646682874847,
      "stop" : 1646682875940,
      "duration" : 1093
    },
    "status" : "passed",
    "steps" : [ ],
    "attachments" : [ ],
    "parameters" : [ ],
    "stepsCount" : 0,
    "attachmentsCount" : 0,
    "shouldDisplayMessage" : false,
    "hasContent" : false
  }, {
    "name" : "faucet",
    "time" : {
      "start" : 1646682875941,
      "stop" : 1646682875941,
      "duration" : 0
    },
    "status" : "passed",
    "steps" : [ ],
    "attachments" : [ ],
    "parameters" : [ ],
    "stepsCount" : 0,
    "attachmentsCount" : 0,
    "shouldDisplayMessage" : false,
    "hasContent" : false
  }, {
    "name" : "jsonrpc_requester",
    "time" : {
      "start" : 1646682875941,
      "stop" : 1646682875941,
      "duration" : 0
    },
    "status" : "passed",
    "steps" : [ ],
    "attachments" : [ ],
    "parameters" : [ ],
    "stepsCount" : 0,
    "attachmentsCount" : 0,
    "shouldDisplayMessage" : false,
    "hasContent" : false
  }, {
    "name" : "operator",
    "time" : {
      "start" : 1646682875941,
      "stop" : 1646682875941,
      "duration" : 0
    },
    "status" : "passed",
    "steps" : [ ],
    "attachments" : [ ],
    "parameters" : [ ],
    "stepsCount" : 0,
    "attachmentsCount" : 0,
    "shouldDisplayMessage" : false,
    "hasContent" : false
  }, {
    "name" : "sol_client",
    "time" : {
      "start" : 1646682875942,
      "stop" : 1646682875942,
      "duration" : 0
    },
    "status" : "passed",
    "steps" : [ ],
    "attachments" : [ ],
    "parameters" : [ ],
    "stepsCount" : 0,
    "attachmentsCount" : 0,
    "shouldDisplayMessage" : false,
    "hasContent" : false
  }, {
    "name" : "prepare_account",
    "time" : {
      "start" : 1646682943978,
      "stop" : 1646682949914,
      "duration" : 5936
    },
    "status" : "passed",
    "steps" : [ {
      "name" : "Create account for tests",
      "time" : {
        "start" : 1646682943978,
        "stop" : 1646682943983,
        "duration" : 5
      },
      "status" : "passed",
      "steps" : [ ],
      "attachments" : [ ],
      "parameters" : [ ],
      "stepsCount" : 0,
      "attachmentsCount" : 0,
      "shouldDisplayMessage" : false,
      "hasContent" : false
    }, {
      "name" : "Request 1000 NEON from faucet for 0xF4D2B656287724297d0B2c33a101A557a9Be2337",
      "time" : {
        "start" : 1646682943983,
        "stop" : 1646682944816,
        "duration" : 833
      },
      "status" : "passed",
      "steps" : [ ],
      "attachments" : [ ],
      "parameters" : [ ],
      "stepsCount" : 0,
      "attachmentsCount" : 0,
      "shouldDisplayMessage" : false,
      "hasContent" : false
    }, {
      "name" : "Operator initial balance: 0.002279996269589557827 NEON 74071246.6416578 SOL",
      "time" : {
        "start" : 1646682949914,
        "stop" : 1646682949914,
        "duration" : 0
      },
      "status" : "passed",
      "steps" : [ ],
      "attachments" : [ ],
      "parameters" : [ ],
      "stepsCount" : 0,
      "attachmentsCount" : 0,
      "shouldDisplayMessage" : false,
      "hasContent" : false
    } ],
    "attachments" : [ ],
    "parameters" : [ ],
    "stepsCount" : 3,
    "attachmentsCount" : 0,
    "shouldDisplayMessage" : false,
    "hasContent" : true
  }, {
    "name" : "prepare_account",
    "time" : {
      "start" : 1646682952932,
      "stop" : 1646682952932,
      "duration" : 0
    },
    "status" : "passed",
    "steps" : [ ],
    "attachments" : [ ],
    "parameters" : [ ],
    "stepsCount" : 0,
    "attachmentsCount" : 0,
    "shouldDisplayMessage" : false,
    "hasContent" : false
  }, {
    "name" : "prepare",
    "time" : {
      "start" : 1646682952932,
      "stop" : 1646682952932,
      "duration" : 0
    },
    "status" : "passed",
    "steps" : [ ],
    "attachments" : [ ],
    "parameters" : [ ],
    "stepsCount" : 0,
    "attachmentsCount" : 0,
    "shouldDisplayMessage" : false,
    "hasContent" : false
  }, {
    "name" : "prepare_json_rpc_requester",
    "time" : {
      "start" : 1646682952932,
      "stop" : 1646682952932,
      "duration" : 0
    },
    "status" : "passed",
    "steps" : [ ],
    "attachments" : [ ],
    "parameters" : [ ],
    "stepsCount" : 0,
    "attachmentsCount" : 0,
    "shouldDisplayMessage" : false,
    "hasContent" : false
  } ],
  "testStage" : {
    "description" : "Verify implemented rpc calls work eth_sendRawTransaction",
    "status" : "broken",
    "statusMessage" : "TypeError: Object of type HexBytes is not JSON serializable",
    "statusTrace" : "self = <integration.tests.basic.test_transactions.TestRpcCallsTransactions object at 0x7f8e4ff883a0>\n\n    @allure.step(\n        \"test: verify implemented rpc calls work eth_sendRawTransaction\")\n    def test_rpc_call_eth_sendRawTransaction(self):\n        \"\"\"Verify implemented rpc calls work eth_sendRawTransaction\"\"\"\n        sender_account = self.create_account_with_balance(GREAT_AMOUNT)\n        recipient_account = self.create_account_with_balance(\n            FIRST_FAUCET_REQUEST_AMOUNT)\n    \n        # TODO: chain id\n        transaction = {\n            \"from\":\n            sender_account.address,\n            \"to\":\n            recipient_account.address,\n            \"value\":\n            self.web3_client.toWei(SAMPLE_AMOUNT, \"ether\"),\n            \"chainId\":\n            111,\n            \"gasPrice\":\n            self.web3_client.gas_price(),\n            \"gas\":\n            0,\n            \"nonce\":\n            self.web3_client.eth.get_transaction_count(sender_account.address),\n        }\n        transaction[\"gas\"] = self.web3_client.eth.estimate_gas(transaction)\n    \n        #\n        print(transaction)\n        print(sender_account.key)\n        #\n    \n        signed_tx = self.web3_client.eth.account.sign_transaction(\n            transaction, sender_account.key)\n        params = [signed_tx]\n    \n        #\n        print(signed_tx)\n        #\n    \n        model = RpcRequestFactory.get_send_raw_trx(params=params)\n>       response = self.jsonrpc_requester.request_json_rpc(model)\n\nintegration/tests/basic/test_transactions.py:96: \n_ _ _ _ _ _ _ _ _ _ _ _ _ _ _ _ _ _ _ _ _ _ _ _ _ _ _ _ _ _ _ _ _ _ _ _ _ _ _ _ \nintegration/tests/basic/helpers/json_rpc_requester.py:20: in request_json_rpc\n    return self._session.post(self._url, json=dataclasses.asdict(data))\n/opt/hostedtoolcache/Python/3.9.10/x64/lib/python3.9/site-packages/requests/sessions.py:577: in post\n    return self.request('POST', url, data=data, json=json, **kwargs)\n/opt/hostedtoolcache/Python/3.9.10/x64/lib/python3.9/site-packages/requests/sessions.py:515: in request\n    prep = self.prepare_request(req)\n/opt/hostedtoolcache/Python/3.9.10/x64/lib/python3.9/site-packages/requests/sessions.py:443: in prepare_request\n    p.prepare(\n/opt/hostedtoolcache/Python/3.9.10/x64/lib/python3.9/site-packages/requests/models.py:321: in prepare\n    self.prepare_body(data, files, json)\n/opt/hostedtoolcache/Python/3.9.10/x64/lib/python3.9/site-packages/requests/models.py:473: in prepare_body\n    body = complexjson.dumps(json, allow_nan=False)\n/opt/hostedtoolcache/Python/3.9.10/x64/lib/python3.9/json/__init__.py:234: in dumps\n    return cls(\n/opt/hostedtoolcache/Python/3.9.10/x64/lib/python3.9/json/encoder.py:199: in encode\n    chunks = self.iterencode(o, _one_shot=True)\n/opt/hostedtoolcache/Python/3.9.10/x64/lib/python3.9/json/encoder.py:257: in iterencode\n    return _iterencode(o, 0)\n_ _ _ _ _ _ _ _ _ _ _ _ _ _ _ _ _ _ _ _ _ _ _ _ _ _ _ _ _ _ _ _ _ _ _ _ _ _ _ _ \n\nself = <json.encoder.JSONEncoder object at 0x7f8e4ff9bfd0>\no = HexBytes('0xf86e80857b5c0663a0823a9894ae9fd209a2226412bb73f42760102df994f82af1884563918244f4000080820102a05290a61787273e0bffe4db8165227ada0f07d2ae6189a538ef1a6dbd68f1fcdfa017ace9bc66ef5b04c9b2e28391000c87d2b405080f8f145db65a8bb0ee42e978')\n\n    def default(self, o):\n        \"\"\"Implement this method in a subclass such that it returns\n        a serializable object for ``o``, or calls the base implementation\n        (to raise a ``TypeError``).\n    \n        For example, to support arbitrary iterators, you could\n        implement default like this::\n    \n            def default(self, o):\n                try:\n                    iterable = iter(o)\n                except TypeError:\n                    pass\n                else:\n                    return list(iterable)\n                # Let the base class default method raise the TypeError\n                return JSONEncoder.default(self, o)\n    \n        \"\"\"\n>       raise TypeError(f'Object of type {o.__class__.__name__} '\n                        f'is not JSON serializable')\nE       TypeError: Object of type HexBytes is not JSON serializable\n\n/opt/hostedtoolcache/Python/3.9.10/x64/lib/python3.9/json/encoder.py:179: TypeError",
    "steps" : [ {
      "name" : "test: verify implemented rpc calls work eth_sendRawTransaction",
      "time" : {
        "start" : 1646682952933,
        "stop" : 1646682955393,
        "duration" : 2460
      },
      "status" : "broken",
      "statusMessage" : "TypeError: Object of type HexBytes is not JSON serializable\n",
      "statusTrace" : "  File \"/opt/hostedtoolcache/Python/3.9.10/x64/lib/python3.9/site-packages/allure_commons/_allure.py\", line 172, in impl\n    return func(*a, **kw)\n  File \"/home/runner/work/neon-tests/neon-tests/integration/tests/basic/test_transactions.py\", line 96, in test_rpc_call_eth_sendRawTransaction\n    response = self.jsonrpc_requester.request_json_rpc(model)\n  File \"/opt/hostedtoolcache/Python/3.9.10/x64/lib/python3.9/site-packages/allure_commons/_allure.py\", line 172, in impl\n    return func(*a, **kw)\n  File \"/home/runner/work/neon-tests/neon-tests/integration/tests/basic/helpers/json_rpc_requester.py\", line 20, in request_json_rpc\n    return self._session.post(self._url, json=dataclasses.asdict(data))\n  File \"/opt/hostedtoolcache/Python/3.9.10/x64/lib/python3.9/site-packages/requests/sessions.py\", line 577, in post\n    return self.request('POST', url, data=data, json=json, **kwargs)\n  File \"/opt/hostedtoolcache/Python/3.9.10/x64/lib/python3.9/site-packages/requests/sessions.py\", line 515, in request\n    prep = self.prepare_request(req)\n  File \"/opt/hostedtoolcache/Python/3.9.10/x64/lib/python3.9/site-packages/requests/sessions.py\", line 443, in prepare_request\n    p.prepare(\n  File \"/opt/hostedtoolcache/Python/3.9.10/x64/lib/python3.9/site-packages/requests/models.py\", line 321, in prepare\n    self.prepare_body(data, files, json)\n  File \"/opt/hostedtoolcache/Python/3.9.10/x64/lib/python3.9/site-packages/requests/models.py\", line 473, in prepare_body\n    body = complexjson.dumps(json, allow_nan=False)\n  File \"/opt/hostedtoolcache/Python/3.9.10/x64/lib/python3.9/json/__init__.py\", line 234, in dumps\n    return cls(\n  File \"/opt/hostedtoolcache/Python/3.9.10/x64/lib/python3.9/json/encoder.py\", line 199, in encode\n    chunks = self.iterencode(o, _one_shot=True)\n  File \"/opt/hostedtoolcache/Python/3.9.10/x64/lib/python3.9/json/encoder.py\", line 257, in iterencode\n    return _iterencode(o, 0)\n  File \"/opt/hostedtoolcache/Python/3.9.10/x64/lib/python3.9/json/encoder.py\", line 179, in default\n    raise TypeError(f'Object of type {o.__class__.__name__} '\n",
      "steps" : [ {
        "name" : "creating a new account with balance",
        "time" : {
          "start" : 1646682952933,
          "stop" : 1646682953608,
          "duration" : 675
        },
        "status" : "passed",
        "steps" : [ {
          "name" : "creating a new account",
          "time" : {
            "start" : 1646682952933,
            "stop" : 1646682952938,
            "duration" : 5
          },
          "status" : "passed",
          "steps" : [ ],
          "attachments" : [ ],
          "parameters" : [ ],
          "stepsCount" : 0,
          "attachmentsCount" : 0,
          "shouldDisplayMessage" : false,
          "hasContent" : false
        }, {
          "name" : "requesting faucet for Neon",
          "time" : {
            "start" : 1646682952938,
            "stop" : 1646682953608,
            "duration" : 670
          },
          "status" : "passed",
          "steps" : [ ],
          "attachments" : [ ],
          "parameters" : [ {
            "name" : "wallet",
            "value" : "'0xc36938613ab2E1d9cCD5654ff7172A5eE86cdD0D'"
          }, {
            "name" : "amount",
            "value" : "1000"
          } ],
          "stepsCount" : 0,
          "attachmentsCount" : 0,
          "shouldDisplayMessage" : false,
          "hasContent" : true
        } ],
        "attachments" : [ ],
        "parameters" : [ {
          "name" : "amount",
          "value" : "1000"
        } ],
        "stepsCount" : 2,
        "attachmentsCount" : 0,
        "shouldDisplayMessage" : false,
        "hasContent" : true
      }, {
        "name" : "creating a new account with balance",
        "time" : {
          "start" : 1646682953609,
          "stop" : 1646682954284,
          "duration" : 675
        },
        "status" : "passed",
        "steps" : [ {
          "name" : "creating a new account",
          "time" : {
            "start" : 1646682953609,
            "stop" : 1646682953613,
            "duration" : 4
          },
          "status" : "passed",
          "steps" : [ ],
          "attachments" : [ ],
          "parameters" : [ ],
          "stepsCount" : 0,
          "attachmentsCount" : 0,
          "shouldDisplayMessage" : false,
          "hasContent" : false
        }, {
          "name" : "requesting faucet for Neon",
          "time" : {
            "start" : 1646682953614,
            "stop" : 1646682954284,
            "duration" : 670
          },
          "status" : "passed",
          "steps" : [ ],
          "attachments" : [ ],
          "parameters" : [ {
            "name" : "wallet",
            "value" : "'0xAE9fD209a2226412bb73f42760102DF994F82aF1'"
          }, {
            "name" : "amount",
            "value" : "5"
          } ],
          "stepsCount" : 0,
          "attachmentsCount" : 0,
          "shouldDisplayMessage" : false,
          "hasContent" : true
        } ],
        "attachments" : [ ],
        "parameters" : [ {
          "name" : "amount",
          "value" : "5"
        } ],
        "stepsCount" : 2,
        "attachmentsCount" : 0,
        "shouldDisplayMessage" : false,
        "hasContent" : true
      }, {
        "name" : "the model built",
        "time" : {
          "start" : 1646682955295,
          "stop" : 1646682955295,
          "duration" : 0
        },
        "status" : "passed",
        "steps" : [ ],
        "attachments" : [ ],
        "parameters" : [ ],
        "stepsCount" : 0,
        "attachmentsCount" : 0,
        "shouldDisplayMessage" : false,
        "hasContent" : false
      }, {
        "name" : "requesting Json-RPC",
        "time" : {
          "start" : 1646682955295,
          "stop" : 1646682955393,
          "duration" : 98
        },
        "status" : "broken",
        "statusMessage" : "TypeError: Object of type HexBytes is not JSON serializable\n",
        "statusTrace" : "  File \"/opt/hostedtoolcache/Python/3.9.10/x64/lib/python3.9/site-packages/allure_commons/_allure.py\", line 172, in impl\n    return func(*a, **kw)\n  File \"/home/runner/work/neon-tests/neon-tests/integration/tests/basic/helpers/json_rpc_requester.py\", line 20, in request_json_rpc\n    return self._session.post(self._url, json=dataclasses.asdict(data))\n  File \"/opt/hostedtoolcache/Python/3.9.10/x64/lib/python3.9/site-packages/requests/sessions.py\", line 577, in post\n    return self.request('POST', url, data=data, json=json, **kwargs)\n  File \"/opt/hostedtoolcache/Python/3.9.10/x64/lib/python3.9/site-packages/requests/sessions.py\", line 515, in request\n    prep = self.prepare_request(req)\n  File \"/opt/hostedtoolcache/Python/3.9.10/x64/lib/python3.9/site-packages/requests/sessions.py\", line 443, in prepare_request\n    p.prepare(\n  File \"/opt/hostedtoolcache/Python/3.9.10/x64/lib/python3.9/site-packages/requests/models.py\", line 321, in prepare\n    self.prepare_body(data, files, json)\n  File \"/opt/hostedtoolcache/Python/3.9.10/x64/lib/python3.9/site-packages/requests/models.py\", line 473, in prepare_body\n    body = complexjson.dumps(json, allow_nan=False)\n  File \"/opt/hostedtoolcache/Python/3.9.10/x64/lib/python3.9/json/__init__.py\", line 234, in dumps\n    return cls(\n  File \"/opt/hostedtoolcache/Python/3.9.10/x64/lib/python3.9/json/encoder.py\", line 199, in encode\n    chunks = self.iterencode(o, _one_shot=True)\n  File \"/opt/hostedtoolcache/Python/3.9.10/x64/lib/python3.9/json/encoder.py\", line 257, in iterencode\n    return _iterencode(o, 0)\n  File \"/opt/hostedtoolcache/Python/3.9.10/x64/lib/python3.9/json/encoder.py\", line 179, in default\n    raise TypeError(f'Object of type {o.__class__.__name__} '\n",
        "steps" : [ {
          "name" : "getting response",
          "time" : {
            "start" : 1646682955295,
            "stop" : 1646682955296,
            "duration" : 1
          },
          "status" : "broken",
          "statusMessage" : "TypeError: Object of type HexBytes is not JSON serializable\n",
          "statusTrace" : "  File \"/home/runner/work/neon-tests/neon-tests/integration/tests/basic/helpers/json_rpc_requester.py\", line 20, in request_json_rpc\n    return self._session.post(self._url, json=dataclasses.asdict(data))\n  File \"/opt/hostedtoolcache/Python/3.9.10/x64/lib/python3.9/site-packages/requests/sessions.py\", line 577, in post\n    return self.request('POST', url, data=data, json=json, **kwargs)\n  File \"/opt/hostedtoolcache/Python/3.9.10/x64/lib/python3.9/site-packages/requests/sessions.py\", line 515, in request\n    prep = self.prepare_request(req)\n  File \"/opt/hostedtoolcache/Python/3.9.10/x64/lib/python3.9/site-packages/requests/sessions.py\", line 443, in prepare_request\n    p.prepare(\n  File \"/opt/hostedtoolcache/Python/3.9.10/x64/lib/python3.9/site-packages/requests/models.py\", line 321, in prepare\n    self.prepare_body(data, files, json)\n  File \"/opt/hostedtoolcache/Python/3.9.10/x64/lib/python3.9/site-packages/requests/models.py\", line 473, in prepare_body\n    body = complexjson.dumps(json, allow_nan=False)\n  File \"/opt/hostedtoolcache/Python/3.9.10/x64/lib/python3.9/json/__init__.py\", line 234, in dumps\n    return cls(\n  File \"/opt/hostedtoolcache/Python/3.9.10/x64/lib/python3.9/json/encoder.py\", line 199, in encode\n    chunks = self.iterencode(o, _one_shot=True)\n  File \"/opt/hostedtoolcache/Python/3.9.10/x64/lib/python3.9/json/encoder.py\", line 257, in iterencode\n    return _iterencode(o, 0)\n  File \"/opt/hostedtoolcache/Python/3.9.10/x64/lib/python3.9/json/encoder.py\", line 179, in default\n    raise TypeError(f'Object of type {o.__class__.__name__} '\n",
          "steps" : [ ],
          "attachments" : [ ],
          "parameters" : [ ],
          "stepsCount" : 0,
          "attachmentsCount" : 0,
          "shouldDisplayMessage" : true,
          "hasContent" : true
        } ],
        "attachments" : [ ],
        "parameters" : [ {
          "name" : "data",
          "value" : "JsonRpcRequest(id=88, method='eth_sendRawTransaction', params=[SignedTransaction(rawTransaction=HexBytes('0xf86e80857b5c0663a0823a9894ae9fd209a2226412bb73f42760102df994f82af1884563918244f4000080820102a05290a61787273e0bffe4db8165227ada0f07d2ae6189a538ef1a6dbd68f1fcdfa017ace9bc66ef5b04c9b2e28391000c87d2b405080f8f145db65a8bb0ee42e978'), hash=HexBytes('0xf375b02f0460fa9da0ae1b8376fea586b2c49389ac5ba6d8ef3b5dec5b5612bf'), r=37345225885361574518296472527226376417726884831304571654518605356547578133727, s=10708706398766103571866385585125108961253565263195783008604485828443193403768, v=258)], jsonrpc='2.0')"
        } ],
        "stepsCount" : 1,
        "attachmentsCount" : 0,
        "shouldDisplayMessage" : false,
        "hasContent" : true
      } ],
      "attachments" : [ ],
      "parameters" : [ ],
      "stepsCount" : 9,
      "attachmentsCount" : 0,
      "shouldDisplayMessage" : false,
      "hasContent" : true
    } ],
    "attachments" : [ {
      "uid" : "5e96d4b2b3bc0760",
      "name" : "stdout",
      "source" : "5e96d4b2b3bc0760.txt",
      "type" : "text/plain",
      "size" : 846
    } ],
    "parameters" : [ ],
    "stepsCount" : 10,
    "attachmentsCount" : 1,
    "shouldDisplayMessage" : true,
    "hasContent" : true
  },
  "afterStages" : [ {
    "name" : "prepare_account::0",
    "time" : {
      "start" : 1646682955469,
      "stop" : 1646682960737,
      "duration" : 5268
    },
    "status" : "passed",
    "steps" : [ {
      "name" : "Operator end balance: 0.002279996277536931327 NEON 74071246.63069451 SOL",
      "time" : {
        "start" : 1646682960571,
        "stop" : 1646682960571,
        "duration" : 0
      },
      "status" : "passed",
      "steps" : [ ],
      "attachments" : [ ],
      "parameters" : [ ],
      "stepsCount" : 0,
      "attachmentsCount" : 0,
      "shouldDisplayMessage" : false,
      "hasContent" : false
    }, {
      "name" : "Account end balance: 1000 NEON",
      "time" : {
        "start" : 1646682960737,
        "stop" : 1646682960737,
        "duration" : 0
      },
      "status" : "passed",
      "steps" : [ ],
      "attachments" : [ ],
      "parameters" : [ ],
      "stepsCount" : 0,
      "attachmentsCount" : 0,
      "shouldDisplayMessage" : false,
      "hasContent" : false
    } ],
    "attachments" : [ ],
    "parameters" : [ ],
    "stepsCount" : 2,
    "attachmentsCount" : 0,
    "shouldDisplayMessage" : false,
    "hasContent" : true
  }, {
    "name" : "allure_environment::0",
    "time" : {
      "start" : 1646682995115,
      "stop" : 1646682995115,
      "duration" : 0
    },
    "status" : "passed",
    "steps" : [ ],
    "attachments" : [ ],
    "parameters" : [ ],
    "stepsCount" : 0,
    "attachmentsCount" : 0,
    "shouldDisplayMessage" : false,
    "hasContent" : false
  } ],
  "labels" : [ {
    "name" : "story",
    "value" : "Basic: Json-RPC call tests - transactions"
  }, {
    "name" : "parentSuite",
    "value" : "integration.tests.basic"
  }, {
    "name" : "suite",
    "value" : "test_transactions"
  }, {
    "name" : "subSuite",
    "value" : "TestRpcCallsTransactions"
  }, {
    "name" : "host",
    "value" : "fv-az449-688"
  }, {
    "name" : "thread",
    "value" : "1777-MainThread"
  }, {
    "name" : "framework",
    "value" : "pytest"
  }, {
    "name" : "language",
    "value" : "cpython3"
  }, {
    "name" : "package",
    "value" : "integration.tests.basic.test_transactions"
  }, {
    "name" : "resultFormat",
    "value" : "allure2"
  } ],
  "parameters" : [ ],
  "links" : [ ],
  "hidden" : false,
  "retry" : false,
  "extra" : {
    "severity" : "normal",
    "retries" : [ ],
    "categories" : [ {
      "name" : "Test defects",
      "matchedStatuses" : [ ],
      "flaky" : false
    } ],
    "history" : {
      "statistic" : {
        "failed" : 8,
        "broken" : 1,
        "skipped" : 0,
        "passed" : 0,
        "unknown" : 0,
        "total" : 9
      },
      "items" : [ {
        "uid" : "b3b4fae7087f507b",
        "reportUrl" : "https://apetrovskiy.github.io/neon-tests/release-stand/feature/254h/339//#testresult/b3b4fae7087f507b",
        "status" : "failed",
        "statusDetails" : "AssertionError: The response type is error response\nassert False\n +  where False = isinstance(JsonRpcErrorResponse(id=52, error={'code': -32000, 'message': 'eth_sendRawTransaction() takes 2 positional arguments but 3 were given'}, jsonrpc='2.0'), JsonRpcResponse)",
        "time" : {
          "start" : 1646678300211,
          "stop" : 1646678301714,
          "duration" : 1503
        }
      }, {
        "uid" : "f9d95642512e2bbc",
        "reportUrl" : "https://apetrovskiy.github.io/neon-tests/release-stand/feature/254h/337//#testresult/f9d95642512e2bbc",
        "status" : "failed",
        "statusDetails" : "AssertionError: The response type is error response\nassert False\n +  where False = isinstance(JsonRpcErrorResponse(id=15, error={'code': -32000, 'message': 'eth_sendRawTransaction() takes 2 positional arguments but 3 were given'}, jsonrpc='2.0'), JsonRpcResponse)",
        "time" : {
          "start" : 1646678130168,
          "stop" : 1646678131575,
          "duration" : 1407
        }
      }, {
        "uid" : "55aae1078cf23834",
        "reportUrl" : "https://apetrovskiy.github.io/neon-tests/release-stand/feature/254h/335//#testresult/55aae1078cf23834",
        "status" : "failed",
        "statusDetails" : "AssertionError: The response type is error response\nassert False\n +  where False = isinstance(JsonRpcErrorResponse(id=96, error={'code': -32000, 'message': 'eth_sendRawTransaction() takes 2 positional arguments but 3 were given'}, jsonrpc='2.0'), JsonRpcResponse)",
        "time" : {
          "start" : 1646677131957,
          "stop" : 1646677133467,
          "duration" : 1510
        }
      }, {
        "uid" : "76e2d74ed3959f1f",
        "reportUrl" : "https://apetrovskiy.github.io/neon-tests/release-stand/feature/254h/333//#testresult/76e2d74ed3959f1f",
        "status" : "failed",
        "statusDetails" : "AssertionError: The response type is error response\nassert False\n +  where False = isinstance(JsonRpcErrorResponse(id=29, error={'code': -32000, 'message': 'eth_sendRawTransaction() takes 2 positional arguments but 3 were given'}, jsonrpc='2.0'), JsonRpcResponse)",
        "time" : {
          "start" : 1646676637728,
          "stop" : 1646676639223,
          "duration" : 1495
        }
      }, {
        "uid" : "8a487dbce25ab7b6",
        "reportUrl" : "https://apetrovskiy.github.io/neon-tests/release-stand/feature/254h/331//#testresult/8a487dbce25ab7b6",
        "status" : "failed",
        "statusDetails" : "AssertionError: The response type is error response\nassert False\n +  where False = isinstance(JsonRpcErrorResponse(id=38, error={'code': -32000, 'message': 'eth_sendRawTransaction() takes 2 positional arguments but 3 were given'}, jsonrpc='2.0'), JsonRpcResponse)",
        "time" : {
          "start" : 1646675911479,
          "stop" : 1646675912789,
          "duration" : 1310
        }
      }, {
        "uid" : "99b2fcca17b2be62",
        "reportUrl" : "https://apetrovskiy.github.io/neon-tests/release-stand/feature/254h/329//#testresult/99b2fcca17b2be62",
        "status" : "failed",
        "statusDetails" : "AssertionError: The response type is error response\nassert False\n +  where False = isinstance(JsonRpcErrorResponse(id=15, error={'code': -32000, 'message': 'eth_sendRawTransaction() takes 2 positional arguments but 3 were given'}, jsonrpc='2.0'), JsonRpcResponse)",
        "time" : {
          "start" : 1646674352863,
          "stop" : 1646674354371,
          "duration" : 1508
        }
      }, {
        "uid" : "6ec08112d9ced1fa",
        "reportUrl" : "https://apetrovskiy.github.io/neon-tests/release-stand/feature/254h/327//#testresult/6ec08112d9ced1fa",
        "status" : "failed",
        "statusDetails" : "AssertionError: The response type is error response\nassert False\n +  where False = isinstance(JsonRpcErrorResponse(id=46, error={'code': -32000, 'message': 'eth_sendRawTransaction() takes 2 positional arguments but 3 were given'}, jsonrpc='2.0'), JsonRpcResponse)",
        "time" : {
          "start" : 1646673713101,
          "stop" : 1646673714412,
          "duration" : 1311
        }
      }, {
        "uid" : "d01cf3c5aafbee5c",
        "reportUrl" : "https://apetrovskiy.github.io/neon-tests/release-stand/feature/254h/325//#testresult/d01cf3c5aafbee5c",
        "status" : "failed",
        "statusDetails" : "AssertionError: The response type is error response\nassert False\n +  where False = isinstance(JsonRpcErrorResponse(id=95, error={'code': -32000, 'message': 'eth_sendRawTransaction() takes 2 positional arguments but 3 were given'}, jsonrpc='2.0'), JsonRpcResponse)",
        "time" : {
          "start" : 1646672605034,
          "stop" : 1646672606346,
          "duration" : 1312
        }
      } ]
    },
    "tags" : [ ]
  },
  "source" : "183679597ba91839.json",
  "parameterValues" : [ ]
}