{
  "uid" : "b82e2ad3b0e71a20",
  "name" : "test_rpc_call_eth_getTransactionCount",
  "fullName" : "integration.tests.basic.test_transactions.TestRpcCallsTransactions#test_rpc_call_eth_getTransactionCount",
  "historyId" : "203fb24ab3840d60203239a580c20ac7",
  "time" : {
    "start" : 1647670846700,
    "stop" : 1647670847433,
    "duration" : 733
  },
  "description" : "Verify implemented rpc calls work eth_getTransactionCount",
  "descriptionHtml" : "<p>Verify implemented rpc calls work eth_getTransactionCount</p>\n",
  "status" : "broken",
  "statusMessage" : "ValueError: {'code': -32000, 'message': 'connection already closed'}",
  "statusTrace" : "self = <integration.tests.basic.test_transactions.TestRpcCallsTransactions object at 0x7f7928b74160>\nprepare_accounts = None\n\n    def test_rpc_call_eth_getTransactionCount(self, prepare_accounts):\n        \"\"\"Verify implemented rpc calls work eth_getTransactionCount\"\"\"\n    \n>       self.transfer_neon(self.sender_account, self.recipient_account,\n                           InputData.SAMPLE_AMOUNT.value)\n\nintegration/tests/basic/test_transactions.py:35: \n_ _ _ _ _ _ _ _ _ _ _ _ _ _ _ _ _ _ _ _ _ _ _ _ _ _ _ _ _ _ _ _ _ _ _ _ _ _ _ _ \nintegration/tests/basic/helpers/basic.py:119: in transfer_neon\n    return self.process_transaction(sender_account, recipient_account,\nintegration/tests/basic/helpers/basic.py:88: in process_transaction\n    return self.web3_client.send_neon(sender_account,\nutils/web3client.py:64: in send_neon\n    tx = self._web3.eth.send_raw_transaction(signed_tx.rawTransaction)\n/opt/hostedtoolcache/Python/3.9.10/x64/lib/python3.9/site-packages/web3/eth.py:783: in send_raw_transaction\n    return self._send_raw_transaction(transaction)\n/opt/hostedtoolcache/Python/3.9.10/x64/lib/python3.9/site-packages/web3/module.py:57: in caller\n    result = w3.manager.request_blocking(method_str,\n/opt/hostedtoolcache/Python/3.9.10/x64/lib/python3.9/site-packages/web3/manager.py:198: in request_blocking\n    return self.formatted_response(response,\n_ _ _ _ _ _ _ _ _ _ _ _ _ _ _ _ _ _ _ _ _ _ _ _ _ _ _ _ _ _ _ _ _ _ _ _ _ _ _ _ \n\nself = <web3.manager.RequestManager object at 0x7f7929030370>\nresponse = {'error': {'code': -32000, 'message': 'connection already closed'}, 'id': 134, 'jsonrpc': '2.0'}\nparams = ('0xf86d80856496a31600825208945e74f6c8515542b440f1fdd3100f52e957db527f87470de4df82000080820102a0479ad3b5fe9eff218fef72f86ea52142bc54233ce92b7252b512f923f59eec23a05e036f6c776df8885ac2a8c3ff49b99ed14cb9b1f3f70082429d8b4af463950e',)\nerror_formatters = <cyfunction identity at 0x7f792e3acee0>\nnull_result_formatters = <cyfunction identity at 0x7f792e3acee0>\n\n    def formatted_response(\n        self,\n        response: RPCResponse,\n        params: Any,\n        error_formatters: Optional[Callable[..., Any]] = None,\n        null_result_formatters: Optional[Callable[..., Any]] = None,\n    ) -> Any:\n        if \"error\" in response:\n            apply_error_formatters(error_formatters, response)\n>           raise ValueError(response[\"error\"])\nE           ValueError: {'code': -32000, 'message': 'connection already closed'}\n\n/opt/hostedtoolcache/Python/3.9.10/x64/lib/python3.9/site-packages/web3/manager.py:171: ValueError",
  "flaky" : false,
  "newFailed" : false,
  "newBroken" : false,
  "newPassed" : false,
  "retriesCount" : 0,
  "retriesStatusChange" : false,
  "beforeStages" : [ {
    "name" : "pytestconfig",
    "time" : {
      "start" : 1647670719044,
      "stop" : 1647670719045,
      "duration" : 1
    },
    "status" : "passed",
    "steps" : [ ],
    "attachments" : [ ],
    "parameters" : [ ],
    "stepsCount" : 0,
    "attachmentsCount" : 0,
    "shouldDisplayMessage" : false,
    "hasContent" : false
  }, {
    "name" : "web3_client",
    "time" : {
      "start" : 1647670719045,
      "stop" : 1647670719046,
      "duration" : 1
    },
    "status" : "passed",
    "steps" : [ ],
    "attachments" : [ ],
    "parameters" : [ ],
    "stepsCount" : 0,
    "attachmentsCount" : 0,
    "shouldDisplayMessage" : false,
    "hasContent" : false
  }, {
    "name" : "allure_environment",
    "time" : {
      "start" : 1647670719046,
      "stop" : 1647670719681,
      "duration" : 635
    },
    "status" : "passed",
    "steps" : [ ],
    "attachments" : [ ],
    "parameters" : [ ],
    "stepsCount" : 0,
    "attachmentsCount" : 0,
    "shouldDisplayMessage" : false,
    "hasContent" : false
  }, {
    "name" : "jsonrpc_requester",
    "time" : {
      "start" : 1647670719682,
      "stop" : 1647670719682,
      "duration" : 0
    },
    "status" : "passed",
    "steps" : [ ],
    "attachments" : [ ],
    "parameters" : [ ],
    "stepsCount" : 0,
    "attachmentsCount" : 0,
    "shouldDisplayMessage" : false,
    "hasContent" : false
  }, {
    "name" : "faucet",
    "time" : {
      "start" : 1647670719682,
      "stop" : 1647670719682,
      "duration" : 0
    },
    "status" : "passed",
    "steps" : [ ],
    "attachments" : [ ],
    "parameters" : [ ],
    "stepsCount" : 0,
    "attachmentsCount" : 0,
    "shouldDisplayMessage" : false,
    "hasContent" : false
  }, {
    "name" : "sol_client",
    "time" : {
      "start" : 1647670719683,
      "stop" : 1647670719683,
      "duration" : 0
    },
    "status" : "passed",
    "steps" : [ ],
    "attachments" : [ ],
    "parameters" : [ ],
    "stepsCount" : 0,
    "attachmentsCount" : 0,
    "shouldDisplayMessage" : false,
    "hasContent" : false
  }, {
    "name" : "operator",
    "time" : {
      "start" : 1647670719683,
      "stop" : 1647670719683,
      "duration" : 0
    },
    "status" : "passed",
    "steps" : [ ],
    "attachments" : [ ],
    "parameters" : [ ],
    "stepsCount" : 0,
    "attachmentsCount" : 0,
    "shouldDisplayMessage" : false,
    "hasContent" : false
  }, {
    "name" : "prepare_account",
    "time" : {
      "start" : 1647670844339,
      "stop" : 1647670845472,
      "duration" : 1133
    },
    "status" : "passed",
    "steps" : [ {
      "name" : "Create account for tests",
      "time" : {
        "start" : 1647670844339,
        "stop" : 1647670844344,
        "duration" : 5
      },
      "status" : "passed",
      "steps" : [ ],
      "attachments" : [ ],
      "parameters" : [ ],
      "stepsCount" : 0,
      "attachmentsCount" : 0,
      "shouldDisplayMessage" : false,
      "hasContent" : false
    }, {
      "name" : "Request 1000 NEON from faucet for 0x925ec4F5Af2Cb8361c14D8911a7827808CD1AC73",
      "time" : {
        "start" : 1647670844344,
        "stop" : 1647670845062,
        "duration" : 718
      },
      "status" : "passed",
      "steps" : [ ],
      "attachments" : [ ],
      "parameters" : [ ],
      "stepsCount" : 0,
      "attachmentsCount" : 0,
      "shouldDisplayMessage" : false,
      "hasContent" : false
    }, {
      "name" : "Operator initial balance: 993259690.0 NEON 4960.280328915 SOL",
      "time" : {
        "start" : 1647670845472,
        "stop" : 1647670845472,
        "duration" : 0
      },
      "status" : "passed",
      "steps" : [ ],
      "attachments" : [ ],
      "parameters" : [ ],
      "stepsCount" : 0,
      "attachmentsCount" : 0,
      "shouldDisplayMessage" : false,
      "hasContent" : false
    } ],
    "attachments" : [ ],
    "parameters" : [ ],
    "stepsCount" : 3,
    "attachmentsCount" : 0,
    "shouldDisplayMessage" : false,
    "hasContent" : true
  }, {
    "name" : "prepare",
    "time" : {
      "start" : 1647670844339,
      "stop" : 1647670844339,
      "duration" : 0
    },
    "status" : "passed",
    "steps" : [ ],
    "attachments" : [ ],
    "parameters" : [ ],
    "stepsCount" : 0,
    "attachmentsCount" : 0,
    "shouldDisplayMessage" : false,
    "hasContent" : false
  }, {
    "name" : "prepare_account",
    "time" : {
      "start" : 1647670845472,
      "stop" : 1647670845473,
      "duration" : 1
    },
    "status" : "passed",
    "steps" : [ ],
    "attachments" : [ ],
    "parameters" : [ ],
    "stepsCount" : 0,
    "attachmentsCount" : 0,
    "shouldDisplayMessage" : false,
    "hasContent" : false
  }, {
    "name" : "prepare_accounts",
    "time" : {
      "start" : 1647670845473,
      "stop" : 1647670846699,
      "duration" : 1226
    },
    "status" : "passed",
    "steps" : [ ],
    "attachments" : [ ],
    "parameters" : [ ],
    "stepsCount" : 0,
    "attachmentsCount" : 0,
    "shouldDisplayMessage" : false,
    "hasContent" : false
  }, {
    "name" : "prepare_json_rpc_requester",
    "time" : {
      "start" : 1647670845473,
      "stop" : 1647670845473,
      "duration" : 0
    },
    "status" : "passed",
    "steps" : [ ],
    "attachments" : [ ],
    "parameters" : [ ],
    "stepsCount" : 0,
    "attachmentsCount" : 0,
    "shouldDisplayMessage" : false,
    "hasContent" : false
  } ],
  "testStage" : {
    "description" : "Verify implemented rpc calls work eth_getTransactionCount",
    "status" : "broken",
    "statusMessage" : "ValueError: {'code': -32000, 'message': 'connection already closed'}",
    "statusTrace" : "self = <integration.tests.basic.test_transactions.TestRpcCallsTransactions object at 0x7f7928b74160>\nprepare_accounts = None\n\n    def test_rpc_call_eth_getTransactionCount(self, prepare_accounts):\n        \"\"\"Verify implemented rpc calls work eth_getTransactionCount\"\"\"\n    \n>       self.transfer_neon(self.sender_account, self.recipient_account,\n                           InputData.SAMPLE_AMOUNT.value)\n\nintegration/tests/basic/test_transactions.py:35: \n_ _ _ _ _ _ _ _ _ _ _ _ _ _ _ _ _ _ _ _ _ _ _ _ _ _ _ _ _ _ _ _ _ _ _ _ _ _ _ _ \nintegration/tests/basic/helpers/basic.py:119: in transfer_neon\n    return self.process_transaction(sender_account, recipient_account,\nintegration/tests/basic/helpers/basic.py:88: in process_transaction\n    return self.web3_client.send_neon(sender_account,\nutils/web3client.py:64: in send_neon\n    tx = self._web3.eth.send_raw_transaction(signed_tx.rawTransaction)\n/opt/hostedtoolcache/Python/3.9.10/x64/lib/python3.9/site-packages/web3/eth.py:783: in send_raw_transaction\n    return self._send_raw_transaction(transaction)\n/opt/hostedtoolcache/Python/3.9.10/x64/lib/python3.9/site-packages/web3/module.py:57: in caller\n    result = w3.manager.request_blocking(method_str,\n/opt/hostedtoolcache/Python/3.9.10/x64/lib/python3.9/site-packages/web3/manager.py:198: in request_blocking\n    return self.formatted_response(response,\n_ _ _ _ _ _ _ _ _ _ _ _ _ _ _ _ _ _ _ _ _ _ _ _ _ _ _ _ _ _ _ _ _ _ _ _ _ _ _ _ \n\nself = <web3.manager.RequestManager object at 0x7f7929030370>\nresponse = {'error': {'code': -32000, 'message': 'connection already closed'}, 'id': 134, 'jsonrpc': '2.0'}\nparams = ('0xf86d80856496a31600825208945e74f6c8515542b440f1fdd3100f52e957db527f87470de4df82000080820102a0479ad3b5fe9eff218fef72f86ea52142bc54233ce92b7252b512f923f59eec23a05e036f6c776df8885ac2a8c3ff49b99ed14cb9b1f3f70082429d8b4af463950e',)\nerror_formatters = <cyfunction identity at 0x7f792e3acee0>\nnull_result_formatters = <cyfunction identity at 0x7f792e3acee0>\n\n    def formatted_response(\n        self,\n        response: RPCResponse,\n        params: Any,\n        error_formatters: Optional[Callable[..., Any]] = None,\n        null_result_formatters: Optional[Callable[..., Any]] = None,\n    ) -> Any:\n        if \"error\" in response:\n            apply_error_formatters(error_formatters, response)\n>           raise ValueError(response[\"error\"])\nE           ValueError: {'code': -32000, 'message': 'connection already closed'}\n\n/opt/hostedtoolcache/Python/3.9.10/x64/lib/python3.9/site-packages/web3/manager.py:171: ValueError",
    "steps" : [ {
      "name" : "Sending 0.02 from 0x39bd7D8c13F0Afc64B049FB16400bF8531487096 to 0x5e74f6c8515542B440f1fdd3100F52e957Db527f",
      "time" : {
        "start" : 1647670846701,
        "stop" : 1647670847432,
        "duration" : 731
      },
      "status" : "broken",
      "statusMessage" : "ValueError: {'code': -32000, 'message': 'connection already closed'}\n",
      "statusTrace" : "  File \"/home/runner/work/neon-tests/neon-tests/integration/tests/basic/helpers/basic.py\", line 88, in process_transaction\n    return self.web3_client.send_neon(sender_account,\n  File \"/home/runner/work/neon-tests/neon-tests/utils/web3client.py\", line 64, in send_neon\n    tx = self._web3.eth.send_raw_transaction(signed_tx.rawTransaction)\n  File \"/opt/hostedtoolcache/Python/3.9.10/x64/lib/python3.9/site-packages/web3/eth.py\", line 783, in send_raw_transaction\n    return self._send_raw_transaction(transaction)\n  File \"/opt/hostedtoolcache/Python/3.9.10/x64/lib/python3.9/site-packages/web3/module.py\", line 57, in caller\n    result = w3.manager.request_blocking(method_str,\n  File \"/opt/hostedtoolcache/Python/3.9.10/x64/lib/python3.9/site-packages/web3/manager.py\", line 198, in request_blocking\n    return self.formatted_response(response,\n  File \"/opt/hostedtoolcache/Python/3.9.10/x64/lib/python3.9/site-packages/web3/manager.py\", line 171, in formatted_response\n    raise ValueError(response[\"error\"])\n",
      "steps" : [ ],
      "attachments" : [ ],
      "parameters" : [ ],
      "stepsCount" : 0,
      "attachmentsCount" : 0,
      "shouldDisplayMessage" : true,
      "hasContent" : true
    } ],
    "attachments" : [ ],
    "parameters" : [ ],
    "stepsCount" : 1,
    "attachmentsCount" : 0,
    "shouldDisplayMessage" : true,
    "hasContent" : true
  },
  "afterStages" : [ {
    "name" : "prepare_accounts::0",
    "time" : {
      "start" : 1647670847470,
      "stop" : 1647670847470,
      "duration" : 0
    },
    "status" : "passed",
    "steps" : [ ],
    "attachments" : [ ],
    "parameters" : [ ],
    "stepsCount" : 0,
    "attachmentsCount" : 0,
    "shouldDisplayMessage" : false,
    "hasContent" : false
  }, {
    "name" : "prepare_account::0",
    "time" : {
      "start" : 1647670854629,
      "stop" : 1647670855148,
      "duration" : 519
    },
    "status" : "passed",
    "steps" : [ {
      "name" : "Operator end balance: 993148599.0 NEON 4960.247449075 SOL",
      "time" : {
        "start" : 1647670855038,
        "stop" : 1647670855038,
        "duration" : 0
      },
      "status" : "passed",
      "steps" : [ ],
      "attachments" : [ ],
      "parameters" : [ ],
      "stepsCount" : 0,
      "attachmentsCount" : 0,
      "shouldDisplayMessage" : false,
      "hasContent" : false
    }, {
      "name" : "Account end balance: 1000 NEON",
      "time" : {
        "start" : 1647670855148,
        "stop" : 1647670855148,
        "duration" : 0
      },
      "status" : "passed",
      "steps" : [ ],
      "attachments" : [ ],
      "parameters" : [ ],
      "stepsCount" : 0,
      "attachmentsCount" : 0,
      "shouldDisplayMessage" : false,
      "hasContent" : false
    } ],
    "attachments" : [ ],
    "parameters" : [ ],
    "stepsCount" : 2,
    "attachmentsCount" : 0,
    "shouldDisplayMessage" : false,
    "hasContent" : true
  }, {
    "name" : "allure_environment::0",
    "time" : {
      "start" : 1647670874449,
      "stop" : 1647670874449,
      "duration" : 0
    },
    "status" : "passed",
    "steps" : [ ],
    "attachments" : [ ],
    "parameters" : [ ],
    "stepsCount" : 0,
    "attachmentsCount" : 0,
    "shouldDisplayMessage" : false,
    "hasContent" : false
  } ],
  "labels" : [ {
    "name" : "story",
    "value" : "Basic: Json-RPC call tests - transactions"
  }, {
    "name" : "parentSuite",
    "value" : "integration.tests.basic"
  }, {
    "name" : "suite",
    "value" : "test_transactions"
  }, {
    "name" : "subSuite",
    "value" : "TestRpcCallsTransactions"
  }, {
    "name" : "host",
    "value" : "fv-az132-224"
  }, {
    "name" : "thread",
    "value" : "1782-MainThread"
  }, {
    "name" : "framework",
    "value" : "pytest"
  }, {
    "name" : "language",
    "value" : "cpython3"
  }, {
    "name" : "package",
    "value" : "integration.tests.basic.test_transactions"
  }, {
    "name" : "resultFormat",
    "value" : "allure2"
  } ],
  "parameters" : [ ],
  "links" : [ ],
  "hidden" : false,
  "retry" : false,
  "extra" : {
    "severity" : "normal",
    "retries" : [ ],
    "categories" : [ {
      "name" : "Test defects",
      "matchedStatuses" : [ ],
      "flaky" : false
    } ],
    "history" : {
      "statistic" : {
        "failed" : 0,
        "broken" : 4,
        "skipped" : 0,
        "passed" : 0,
        "unknown" : 0,
        "total" : 4
      },
      "items" : [ {
        "uid" : "9b4380880ee2611e",
        "reportUrl" : "https://apetrovskiy.github.io/neon-tests/release-stand/feature/254t/665//#testresult/9b4380880ee2611e",
        "status" : "broken",
        "statusDetails" : "ValueError: InvalidArgument",
        "time" : {
          "start" : 1647660153231,
          "stop" : 1647660156029,
          "duration" : 2798
        }
      }, {
        "uid" : "cd7e0674242f89a9",
        "reportUrl" : "https://apetrovskiy.github.io/neon-tests/release-stand/feature/254t/662//#testresult/cd7e0674242f89a9",
        "status" : "broken",
        "statusDetails" : "ValueError: {'code': -32002, 'message': 'Verifying nonce before send transaction: Error processing Instruction 1: invalid program argument', 'data': {'logs': ['/src/entrypoint.rs Invalid Ethereum transaction nonce: acc 82, trx 81']}}",
        "time" : {
          "start" : 1647658483385,
          "stop" : 1647658485064,
          "duration" : 1679
        }
      }, {
        "uid" : "b1f91b61837bfad7",
        "reportUrl" : "https://apetrovskiy.github.io/neon-tests/release-stand/feature/254t/659//#testresult/b1f91b61837bfad7",
        "status" : "broken",
        "statusDetails" : "ValueError: {'code': -32002, 'message': 'Verifying nonce before send transaction: Error processing Instruction 1: invalid program argument', 'data': {'logs': ['/src/entrypoint.rs Invalid Ethereum transaction nonce: acc 67, trx 66']}}",
        "time" : {
          "start" : 1647658446474,
          "stop" : 1647658447434,
          "duration" : 960
        }
      } ]
    },
    "tags" : [ ]
  },
  "source" : "b82e2ad3b0e71a20.json",
  "parameterValues" : [ ]
}