{'from': '0x38B69B365C296C340F35aB74f10B9D9D094a0619', 'to': '0xa0Df9F5B3282304E2Aabb3ad84373Be0F6ACE825', 'value': 5000000000000000000, 'chainId': 111, 'gasPrice': 406092940000, 'gas': 15000, 'nonce': 0}
b'TW,\x90\x8f\xd4\x0er\xe2\x15\x0c\xe0&.k{)1\xc4q\x1a\xf0\x96\x0f\xee\n\x16\x07SN\xf8\x99'
SignedTransaction(rawTransaction=HexBytes('0xf86e80855e8d0682e0823a9894a0df9f5b3282304e2aabb3ad84373be0f6ace825884563918244f4000080820101a04e0ffdc153bfa5cf7ec5edb39173ff3c06ddd85738566199fcdb3c20cb6a3ffea00665977bbe7a29fa5cbb1d5f2f3ca83230d6613e231a67386dfa3fbd8a4d8999'), hash=HexBytes('0xc68b60523ba2383f80a9e1ee8b2e2344b4419b8b342adbf60ba2dd66dd613002'), r=35308656249381658329122900160590354097292917105919967240825496852551621558270, s=2893374144873611344221621590144801973504302457373584143130194678625229179289, v=257)
