{
  "uid" : "a901ad18701db8be",
  "name" : "test_rpc_call_eth_sendRawTransaction",
  "fullName" : "integration.tests.basic.test_transactions.TestRpcCallsTransactions#test_rpc_call_eth_sendRawTransaction",
  "historyId" : "f2266f2fcf46a3382764047e40d95c33",
  "time" : {
    "start" : 1647243641348,
    "stop" : 1647243642707,
    "duration" : 1359
  },
  "description" : "Verify implemented rpc calls work eth_sendRawTransaction",
  "descriptionHtml" : "<p>Verify implemented rpc calls work eth_sendRawTransaction</p>\n",
  "status" : "broken",
  "statusMessage" : "IndexError: Replacement index 2 out of range for positional args tuple",
  "statusTrace" : "self = <integration.tests.basic.test_transactions.TestRpcCallsTransactions object at 0x7f9404de48e0>\nprepare_accounts = None\n\n    @allure.step(\n        \"test: verify implemented rpc calls work eth_sendRawTransaction\")\n    def test_rpc_call_eth_sendRawTransaction(self, prepare_accounts):\n        \"\"\"Verify implemented rpc calls work eth_sendRawTransaction\"\"\"\n    \n        # TODO: chain id\n        transaction = {\n            \"from\":\n            self.sender_account.address,\n            \"to\":\n            self.recipient_account.address,\n            \"value\":\n            self.web3_client.toWei(InputData.SAMPLE_AMOUNT.value, \"ether\"),\n            \"chainId\":\n            111,\n            \"gasPrice\":\n            self.web3_client.gas_price(),\n            \"gas\":\n            0,\n            \"nonce\":\n            self.web3_client.eth.get_transaction_count(\n                self.sender_account.address),\n        }\n        transaction[\"gas\"] = self.web3_client.eth.estimate_gas(transaction)\n    \n        signed_tx = self.web3_client.eth.account.sign_transaction(\n            transaction, self.sender_account.key)\n    \n        params = [signed_tx.rawTransaction.hex()]\n    \n        model = RpcRequestFactory.get_send_raw_trx(params=params)\n        response = self.jsonrpc_requester.request_json_rpc(model)\n>       actual_result = self.jsonrpc_requester.deserialize_response(response)\n\nintegration/tests/basic/test_transactions.py:82: \n_ _ _ _ _ _ _ _ _ _ _ _ _ _ _ _ _ _ _ _ _ _ _ _ _ _ _ _ _ _ _ _ _ _ _ _ _ _ _ _ \n\nself = <integration.tests.basic.helpers.json_rpc_requester.JsonRpcRequester object at 0x7f9405136970>\nresponse = <Response [200]>, type = None\n\n    def deserialize_response(\n            self,\n            response: Response,\n            type: Type = None) -> Union[JsonRpcResponse, JsonRpcErrorResponse]:\n        str_data = self.stringify(response.json())\n        if 'result' in str_data:\n>           return self.deserialize_successful_response(response=response,\nE           IndexError: Replacement index 2 out of range for positional args tuple\n\nintegration/tests/basic/helpers/json_rpc_requester.py:27: IndexError",
  "flaky" : false,
  "newFailed" : false,
  "newBroken" : true,
  "newPassed" : false,
  "retriesCount" : 0,
  "retriesStatusChange" : false,
  "beforeStages" : [ {
    "name" : "pytestconfig",
    "time" : {
      "start" : 1647243438845,
      "stop" : 1647243438845,
      "duration" : 0
    },
    "status" : "passed",
    "steps" : [ ],
    "attachments" : [ ],
    "parameters" : [ ],
    "attachmentsCount" : 0,
    "shouldDisplayMessage" : false,
    "hasContent" : false,
    "stepsCount" : 0
  }, {
    "name" : "web3_client",
    "time" : {
      "start" : 1647243438845,
      "stop" : 1647243438846,
      "duration" : 1
    },
    "status" : "passed",
    "steps" : [ ],
    "attachments" : [ ],
    "parameters" : [ ],
    "attachmentsCount" : 0,
    "shouldDisplayMessage" : false,
    "hasContent" : false,
    "stepsCount" : 0
  }, {
    "name" : "allure_environment",
    "time" : {
      "start" : 1647243438847,
      "stop" : 1647243439985,
      "duration" : 1138
    },
    "status" : "passed",
    "steps" : [ ],
    "attachments" : [ ],
    "parameters" : [ ],
    "attachmentsCount" : 0,
    "shouldDisplayMessage" : false,
    "hasContent" : false,
    "stepsCount" : 0
  }, {
    "name" : "operator",
    "time" : {
      "start" : 1647243439986,
      "stop" : 1647243439986,
      "duration" : 0
    },
    "status" : "passed",
    "steps" : [ ],
    "attachments" : [ ],
    "parameters" : [ ],
    "attachmentsCount" : 0,
    "shouldDisplayMessage" : false,
    "hasContent" : false,
    "stepsCount" : 0
  }, {
    "name" : "jsonrpc_requester",
    "time" : {
      "start" : 1647243439986,
      "stop" : 1647243439986,
      "duration" : 0
    },
    "status" : "passed",
    "steps" : [ ],
    "attachments" : [ ],
    "parameters" : [ ],
    "attachmentsCount" : 0,
    "shouldDisplayMessage" : false,
    "hasContent" : false,
    "stepsCount" : 0
  }, {
    "name" : "faucet",
    "time" : {
      "start" : 1647243439986,
      "stop" : 1647243439986,
      "duration" : 0
    },
    "status" : "passed",
    "steps" : [ ],
    "attachments" : [ ],
    "parameters" : [ ],
    "attachmentsCount" : 0,
    "shouldDisplayMessage" : false,
    "hasContent" : false,
    "stepsCount" : 0
  }, {
    "name" : "sol_client",
    "time" : {
      "start" : 1647243439986,
      "stop" : 1647243439987,
      "duration" : 1
    },
    "status" : "passed",
    "steps" : [ ],
    "attachments" : [ ],
    "parameters" : [ ],
    "attachmentsCount" : 0,
    "shouldDisplayMessage" : false,
    "hasContent" : false,
    "stepsCount" : 0
  }, {
    "name" : "prepare_account",
    "time" : {
      "start" : 1647243628371,
      "stop" : 1647243636646,
      "duration" : 8275
    },
    "status" : "passed",
    "steps" : [ {
      "name" : "Create account for tests",
      "time" : {
        "start" : 1647243628372,
        "stop" : 1647243628376,
        "duration" : 4
      },
      "status" : "passed",
      "steps" : [ ],
      "attachments" : [ ],
      "parameters" : [ ],
      "attachmentsCount" : 0,
      "shouldDisplayMessage" : false,
      "hasContent" : false,
      "stepsCount" : 0
    }, {
      "name" : "Request 1000 NEON from faucet for 0x6030Bc9202CBDd993CFA66FE149D47ff692325A0",
      "time" : {
        "start" : 1647243628376,
        "stop" : 1647243629223,
        "duration" : 847
      },
      "status" : "passed",
      "steps" : [ ],
      "attachments" : [ ],
      "parameters" : [ ],
      "attachmentsCount" : 0,
      "shouldDisplayMessage" : false,
      "hasContent" : false,
      "stepsCount" : 0
    }, {
      "name" : "Operator initial balance: 0.00220483638370387681344 NEON 74064669.83076507 SOL",
      "time" : {
        "start" : 1647243636646,
        "stop" : 1647243636646,
        "duration" : 0
      },
      "status" : "passed",
      "steps" : [ ],
      "attachments" : [ ],
      "parameters" : [ ],
      "attachmentsCount" : 0,
      "shouldDisplayMessage" : false,
      "hasContent" : false,
      "stepsCount" : 0
    } ],
    "attachments" : [ ],
    "parameters" : [ ],
    "attachmentsCount" : 0,
    "shouldDisplayMessage" : false,
    "hasContent" : true,
    "stepsCount" : 3
  }, {
    "name" : "prepare",
    "time" : {
      "start" : 1647243639989,
      "stop" : 1647243639990,
      "duration" : 1
    },
    "status" : "passed",
    "steps" : [ ],
    "attachments" : [ ],
    "parameters" : [ ],
    "attachmentsCount" : 0,
    "shouldDisplayMessage" : false,
    "hasContent" : false,
    "stepsCount" : 0
  }, {
    "name" : "prepare_account",
    "time" : {
      "start" : 1647243639990,
      "stop" : 1647243639990,
      "duration" : 0
    },
    "status" : "passed",
    "steps" : [ ],
    "attachments" : [ ],
    "parameters" : [ ],
    "attachmentsCount" : 0,
    "shouldDisplayMessage" : false,
    "hasContent" : false,
    "stepsCount" : 0
  }, {
    "name" : "prepare_json_rpc_requester",
    "time" : {
      "start" : 1647243639990,
      "stop" : 1647243639990,
      "duration" : 0
    },
    "status" : "passed",
    "steps" : [ ],
    "attachments" : [ ],
    "parameters" : [ ],
    "attachmentsCount" : 0,
    "shouldDisplayMessage" : false,
    "hasContent" : false,
    "stepsCount" : 0
  }, {
    "name" : "prepare_accounts",
    "time" : {
      "start" : 1647243639990,
      "stop" : 1647243641347,
      "duration" : 1357
    },
    "status" : "passed",
    "steps" : [ {
      "name" : "creating a new account with balance",
      "time" : {
        "start" : 1647243639990,
        "stop" : 1647243640667,
        "duration" : 677
      },
      "status" : "passed",
      "steps" : [ {
        "name" : "creating a new account",
        "time" : {
          "start" : 1647243639990,
          "stop" : 1647243639995,
          "duration" : 5
        },
        "status" : "passed",
        "steps" : [ ],
        "attachments" : [ ],
        "parameters" : [ ],
        "attachmentsCount" : 0,
        "shouldDisplayMessage" : false,
        "hasContent" : false,
        "stepsCount" : 0
      }, {
        "name" : "requesting faucet for Neon",
        "time" : {
          "start" : 1647243639995,
          "stop" : 1647243640667,
          "duration" : 672
        },
        "status" : "passed",
        "steps" : [ ],
        "attachments" : [ ],
        "parameters" : [ {
          "name" : "wallet",
          "value" : "'0xC9a8101e3787c2308898A1Ba739E96e8A56c55c6'"
        }, {
          "name" : "amount",
          "value" : "5"
        } ],
        "attachmentsCount" : 0,
        "shouldDisplayMessage" : false,
        "hasContent" : true,
        "stepsCount" : 0
      } ],
      "attachments" : [ ],
      "parameters" : [ {
        "name" : "amount",
        "value" : "5"
      } ],
      "attachmentsCount" : 0,
      "shouldDisplayMessage" : false,
      "hasContent" : true,
      "stepsCount" : 2
    }, {
      "name" : "creating a new account with balance",
      "time" : {
        "start" : 1647243640667,
        "stop" : 1647243641347,
        "duration" : 680
      },
      "status" : "passed",
      "steps" : [ {
        "name" : "creating a new account",
        "time" : {
          "start" : 1647243640668,
          "stop" : 1647243640674,
          "duration" : 6
        },
        "status" : "passed",
        "steps" : [ ],
        "attachments" : [ ],
        "parameters" : [ ],
        "attachmentsCount" : 0,
        "shouldDisplayMessage" : false,
        "hasContent" : false,
        "stepsCount" : 0
      }, {
        "name" : "requesting faucet for Neon",
        "time" : {
          "start" : 1647243640674,
          "stop" : 1647243641347,
          "duration" : 673
        },
        "status" : "passed",
        "steps" : [ ],
        "attachments" : [ ],
        "parameters" : [ {
          "name" : "wallet",
          "value" : "'0x46588344Aa99E356BEeEDFa6Fe169F40e00952B1'"
        }, {
          "name" : "amount",
          "value" : "5"
        } ],
        "attachmentsCount" : 0,
        "shouldDisplayMessage" : false,
        "hasContent" : true,
        "stepsCount" : 0
      } ],
      "attachments" : [ ],
      "parameters" : [ {
        "name" : "amount",
        "value" : "5"
      } ],
      "attachmentsCount" : 0,
      "shouldDisplayMessage" : false,
      "hasContent" : true,
      "stepsCount" : 2
    } ],
    "attachments" : [ ],
    "parameters" : [ ],
    "attachmentsCount" : 0,
    "shouldDisplayMessage" : false,
    "hasContent" : true,
    "stepsCount" : 6
  } ],
  "testStage" : {
    "description" : "Verify implemented rpc calls work eth_sendRawTransaction",
    "status" : "broken",
    "statusMessage" : "IndexError: Replacement index 2 out of range for positional args tuple",
    "statusTrace" : "self = <integration.tests.basic.test_transactions.TestRpcCallsTransactions object at 0x7f9404de48e0>\nprepare_accounts = None\n\n    @allure.step(\n        \"test: verify implemented rpc calls work eth_sendRawTransaction\")\n    def test_rpc_call_eth_sendRawTransaction(self, prepare_accounts):\n        \"\"\"Verify implemented rpc calls work eth_sendRawTransaction\"\"\"\n    \n        # TODO: chain id\n        transaction = {\n            \"from\":\n            self.sender_account.address,\n            \"to\":\n            self.recipient_account.address,\n            \"value\":\n            self.web3_client.toWei(InputData.SAMPLE_AMOUNT.value, \"ether\"),\n            \"chainId\":\n            111,\n            \"gasPrice\":\n            self.web3_client.gas_price(),\n            \"gas\":\n            0,\n            \"nonce\":\n            self.web3_client.eth.get_transaction_count(\n                self.sender_account.address),\n        }\n        transaction[\"gas\"] = self.web3_client.eth.estimate_gas(transaction)\n    \n        signed_tx = self.web3_client.eth.account.sign_transaction(\n            transaction, self.sender_account.key)\n    \n        params = [signed_tx.rawTransaction.hex()]\n    \n        model = RpcRequestFactory.get_send_raw_trx(params=params)\n        response = self.jsonrpc_requester.request_json_rpc(model)\n>       actual_result = self.jsonrpc_requester.deserialize_response(response)\n\nintegration/tests/basic/test_transactions.py:82: \n_ _ _ _ _ _ _ _ _ _ _ _ _ _ _ _ _ _ _ _ _ _ _ _ _ _ _ _ _ _ _ _ _ _ _ _ _ _ _ _ \n\nself = <integration.tests.basic.helpers.json_rpc_requester.JsonRpcRequester object at 0x7f9405136970>\nresponse = <Response [200]>, type = None\n\n    def deserialize_response(\n            self,\n            response: Response,\n            type: Type = None) -> Union[JsonRpcResponse, JsonRpcErrorResponse]:\n        str_data = self.stringify(response.json())\n        if 'result' in str_data:\n>           return self.deserialize_successful_response(response=response,\nE           IndexError: Replacement index 2 out of range for positional args tuple\n\nintegration/tests/basic/helpers/json_rpc_requester.py:27: IndexError",
    "steps" : [ {
      "name" : "test: verify implemented rpc calls work eth_sendRawTransaction",
      "time" : {
        "start" : 1647243641348,
        "stop" : 1647243642706,
        "duration" : 1358
      },
      "status" : "broken",
      "statusMessage" : "IndexError: Replacement index 2 out of range for positional args tuple\n",
      "statusTrace" : "  File \"/opt/hostedtoolcache/Python/3.9.10/x64/lib/python3.9/site-packages/allure_commons/_allure.py\", line 172, in impl\n    return func(*a, **kw)\n  File \"/home/runner/work/neon-tests/neon-tests/integration/tests/basic/test_transactions.py\", line 82, in test_rpc_call_eth_sendRawTransaction\n    actual_result = self.jsonrpc_requester.deserialize_response(response)\n  File \"/home/runner/work/neon-tests/neon-tests/integration/tests/basic/helpers/json_rpc_requester.py\", line 27, in deserialize_response\n    return self.deserialize_successful_response(response=response,\n  File \"/opt/hostedtoolcache/Python/3.9.10/x64/lib/python3.9/site-packages/allure_commons/_allure.py\", line 171, in impl\n    with StepContext(self.title.format(*args, **params), params):\n",
      "steps" : [ {
        "name" : "requesting Json-RPC",
        "time" : {
          "start" : 1647243642218,
          "stop" : 1647243642706,
          "duration" : 488
        },
        "status" : "passed",
        "steps" : [ ],
        "attachments" : [ ],
        "parameters" : [ {
          "name" : "data",
          "value" : "JsonRpcRequest(id=0, method='eth_sendRawTransaction', params=['0xf86e80855a30762480823a989446588344aa99e356beeedfa6fe169f40e00952b1883782dace9d90000080820102a0ca51de7dd44c6be6ecac17625828dc77995c0bef9be344594db6c42ac2dc6c8aa03d0ef16c248b957ec1f980b2210286fcf46ede25142cd4db6e4dbb8aae374e21'], jsonrpc='2.0')"
        } ],
        "attachmentsCount" : 0,
        "shouldDisplayMessage" : false,
        "hasContent" : true,
        "stepsCount" : 0
      }, {
        "name" : "showing as JSON",
        "time" : {
          "start" : 1647243642706,
          "stop" : 1647243642706,
          "duration" : 0
        },
        "status" : "passed",
        "steps" : [ ],
        "attachments" : [ ],
        "parameters" : [ {
          "name" : "data",
          "value" : "{'jsonrpc': '2.0', 'id': 0, 'result': '0x94de4f68b55a44c591c04383a8ef4bb3488b758828252e67dee76ecd402d710e'}"
        } ],
        "attachmentsCount" : 0,
        "shouldDisplayMessage" : false,
        "hasContent" : true,
        "stepsCount" : 0
      } ],
      "attachments" : [ ],
      "parameters" : [ {
        "name" : "prepare_accounts",
        "value" : "None"
      } ],
      "attachmentsCount" : 0,
      "shouldDisplayMessage" : true,
      "hasContent" : true,
      "stepsCount" : 2
    } ],
    "attachments" : [ ],
    "parameters" : [ ],
    "attachmentsCount" : 0,
    "shouldDisplayMessage" : true,
    "hasContent" : true,
    "stepsCount" : 3
  },
  "afterStages" : [ {
    "name" : "prepare_accounts::0",
    "time" : {
      "start" : 1647243642712,
      "stop" : 1647243642712,
      "duration" : 0
    },
    "status" : "passed",
    "steps" : [ ],
    "attachments" : [ ],
    "parameters" : [ ],
    "attachmentsCount" : 0,
    "shouldDisplayMessage" : false,
    "hasContent" : false,
    "stepsCount" : 0
  }, {
    "name" : "prepare_account::0",
    "time" : {
      "start" : 1647243649032,
      "stop" : 1647243656618,
      "duration" : 7586
    },
    "status" : "passed",
    "steps" : [ {
      "name" : "Operator end balance: 0.00220483643018708948544 NEON 74064669.80719948 SOL",
      "time" : {
        "start" : 1647243656448,
        "stop" : 1647243656448,
        "duration" : 0
      },
      "status" : "passed",
      "steps" : [ ],
      "attachments" : [ ],
      "parameters" : [ ],
      "attachmentsCount" : 0,
      "shouldDisplayMessage" : false,
      "hasContent" : false,
      "stepsCount" : 0
    }, {
      "name" : "Account end balance: 1000 NEON",
      "time" : {
        "start" : 1647243656617,
        "stop" : 1647243656618,
        "duration" : 1
      },
      "status" : "passed",
      "steps" : [ ],
      "attachments" : [ ],
      "parameters" : [ ],
      "attachmentsCount" : 0,
      "shouldDisplayMessage" : false,
      "hasContent" : false,
      "stepsCount" : 0
    } ],
    "attachments" : [ ],
    "parameters" : [ ],
    "attachmentsCount" : 0,
    "shouldDisplayMessage" : false,
    "hasContent" : true,
    "stepsCount" : 2
  }, {
    "name" : "allure_environment::0",
    "time" : {
      "start" : 1647243699072,
      "stop" : 1647243699072,
      "duration" : 0
    },
    "status" : "passed",
    "steps" : [ ],
    "attachments" : [ ],
    "parameters" : [ ],
    "attachmentsCount" : 0,
    "shouldDisplayMessage" : false,
    "hasContent" : false,
    "stepsCount" : 0
  } ],
  "labels" : [ {
    "name" : "story",
    "value" : "Basic: Json-RPC call tests - transactions"
  }, {
    "name" : "parentSuite",
    "value" : "integration.tests.basic"
  }, {
    "name" : "suite",
    "value" : "test_transactions"
  }, {
    "name" : "subSuite",
    "value" : "TestRpcCallsTransactions"
  }, {
    "name" : "host",
    "value" : "fv-az449-204"
  }, {
    "name" : "thread",
    "value" : "1727-MainThread"
  }, {
    "name" : "framework",
    "value" : "pytest"
  }, {
    "name" : "language",
    "value" : "cpython3"
  }, {
    "name" : "package",
    "value" : "integration.tests.basic.test_transactions"
  }, {
    "name" : "resultFormat",
    "value" : "allure2"
  } ],
  "parameters" : [ ],
  "links" : [ ],
  "hidden" : false,
  "retry" : false,
  "extra" : {
    "severity" : "normal",
    "retries" : [ ],
    "categories" : [ {
      "name" : "Test defects",
      "matchedStatuses" : [ ],
      "flaky" : false
    } ],
    "history" : {
      "statistic" : {
        "failed" : 0,
        "broken" : 1,
        "skipped" : 0,
        "passed" : 5,
        "unknown" : 0,
        "total" : 6
      },
      "items" : [ {
        "uid" : "15db567c2681fc14",
        "reportUrl" : "https://apetrovskiy.github.io/neon-tests/release-stand/feature/254q/517//#testresult/15db567c2681fc14",
        "status" : "passed",
        "time" : {
          "start" : 1647242997847,
          "stop" : 1647242999594,
          "duration" : 1747
        }
      }, {
        "uid" : "b1077149add85c2",
        "reportUrl" : "https://apetrovskiy.github.io/neon-tests/release-stand/feature/254q/515//#testresult/b1077149add85c2",
        "status" : "passed",
        "time" : {
          "start" : 1647242794856,
          "stop" : 1647242795981,
          "duration" : 1125
        }
      }, {
        "uid" : "ce8bcc330b0b0415",
        "reportUrl" : "https://apetrovskiy.github.io/neon-tests/release-stand/feature/254q/511//#testresult/ce8bcc330b0b0415",
        "status" : "passed",
        "time" : {
          "start" : 1647241773246,
          "stop" : 1647241774723,
          "duration" : 1477
        }
      }, {
        "uid" : "d801edb15aabbf84",
        "reportUrl" : "https://apetrovskiy.github.io/neon-tests/release-stand/feature/254q/507//#testresult/d801edb15aabbf84",
        "status" : "passed",
        "time" : {
          "start" : 1647239581724,
          "stop" : 1647239582976,
          "duration" : 1252
        }
      }, {
        "uid" : "760e586ff032ad1",
        "reportUrl" : "https://apetrovskiy.github.io/neon-tests/release-stand/feature/254q/509//#testresult/760e586ff032ad1",
        "status" : "passed",
        "time" : {
          "start" : 1647239641164,
          "stop" : 1647239642894,
          "duration" : 1730
        }
      } ]
    },
    "tags" : [ ]
  },
  "source" : "a901ad18701db8be.json",
  "parameterValues" : [ ]
}