{'from': '0x6Ed441373eeEa5f73b9f7486bBE9c6abb0E8bFD7', 'to': '0x4b560Fd8294D0994457Cf5e0AE4F9859B4Da0350', 'value': 5000000000000000000, 'chainId': 111, 'gasPrice': 401623200000, 'gas': 15000, 'nonce': 0}
b'3\x81=\xd6\xb0\xdf>c_j\xec\n\x7f\xdf\x89\x85\x9c\xeb\xc0I\x18\xf1\xe5\xf2D\x84\xce\x91\xcf\xf5\x9b\x8c'
SignedTransaction(rawTransaction=HexBytes('0xf86e80855d829bb100823a98944b560fd8294d0994457cf5e0ae4f9859b4da0350884563918244f4000080820102a046c31c6c94eafc96224e975fcb31bb3fdf09987b4989e841e1e6fea14df2dae4a071ee275fcda69adf35047e8977a16407f7f64be27a9e9ba5664f8bc0379eb524'), hash=HexBytes('0xda9cd6e10e79417fa2aec8359caf0e05cada8ada45578fcb2fc0d98a4a4490a6'), r=32006630754715269392799953107271974144900279098710852048372248327856032242404, s=51532133242286372668660488240712891516939650985767723553719825328346482259236, v=258)
