{
  "uid" : "34c680102816b7dc",
  "name" : "test_rpc_call_eth_get_transaction_by_hash",
  "fullName" : "integration.tests.basic.test_rpc_calls.TestRpcCalls#test_rpc_call_eth_get_transaction_by_hash",
  "historyId" : "abc16b2e9722cc05f7a455bd4152a100",
  "time" : {
    "start" : 1652694698263,
    "stop" : 1652694698796,
    "duration" : 533
  },
  "description" : "Verify implemented rpc calls work eth_getTransactionByHash",
  "descriptionHtml" : "<p>Verify implemented rpc calls work eth_getTransactionByHash</p>\n",
  "status" : "broken",
  "statusMessage" : "ValueError: {'code': -32002, 'message': 'nonce too low: address 0x1d65d3af00984d78d8eb9f9d6e5e333423e01291, tx: 1 state: 2'}",
  "statusTrace" : "self = <integration.tests.basic.test_rpc_calls.TestRpcCalls object at 0x7f1751f598e0>\n\n    def test_rpc_call_eth_get_transaction_by_hash(self):\n        \"\"\"Verify implemented rpc calls work eth_getTransactionByHash\"\"\"\n    \n>       tx_receipt = self.process_transaction(\n            self.sender_account, self.recipient_account, input_data.InputData.SAMPLE_AMOUNT.value\n        )\n\nintegration/tests/basic/test_rpc_calls.py:278: \n_ _ _ _ _ _ _ _ _ _ _ _ _ _ _ _ _ _ _ _ _ _ _ _ _ _ _ _ _ _ _ _ _ _ _ _ _ _ _ _ \nintegration/tests/basic/helpers/basic.py:78: in process_transaction\n    return self.web3_client.send_neon(sender_account, recipient_account, amount)\nutils/web3client.py:78: in send_neon\n    tx = self._web3.eth.send_raw_transaction(signed_tx.rawTransaction)\n/opt/hostedtoolcache/Python/3.9.12/x64/lib/python3.9/site-packages/web3/eth.py:783: in send_raw_transaction\n    return self._send_raw_transaction(transaction)\n/opt/hostedtoolcache/Python/3.9.12/x64/lib/python3.9/site-packages/web3/module.py:57: in caller\n    result = w3.manager.request_blocking(method_str,\n/opt/hostedtoolcache/Python/3.9.12/x64/lib/python3.9/site-packages/web3/manager.py:198: in request_blocking\n    return self.formatted_response(response,\n_ _ _ _ _ _ _ _ _ _ _ _ _ _ _ _ _ _ _ _ _ _ _ _ _ _ _ _ _ _ _ _ _ _ _ _ _ _ _ _ \n\nself = <web3.manager.RequestManager object at 0x7f1753281670>\nresponse = {'error': {'code': -32002, 'message': 'nonce too low: address 0x1d65d3af00984d78d8eb9f9d6e5e333423e01291, tx: 1 state: 2'}, 'id': 35, 'jsonrpc': '2.0'}\nparams = ('0xf86f01853ba2e7a30082520894033028cc81755967909fb7f66df8a5f9e9d234ad87470de4df82000080841d3581bfa0eb79b9f71653cf56f62d596fa064a1465e87c19d039fa3717d448beb88f20d4ea072ad13cdb8153242ee2a07ea8f05b8787d7424b6aeaee78cf3d64602ce55cc49',)\nerror_formatters = <cyfunction identity at 0x7f1758d4f040>\nnull_result_formatters = <cyfunction identity at 0x7f1758d4f040>\n\n    def formatted_response(\n        self,\n        response: RPCResponse,\n        params: Any,\n        error_formatters: Optional[Callable[..., Any]] = None,\n        null_result_formatters: Optional[Callable[..., Any]] = None,\n    ) -> Any:\n        if \"error\" in response:\n            apply_error_formatters(error_formatters, response)\n>           raise ValueError(response[\"error\"])\nE           ValueError: {'code': -32002, 'message': 'nonce too low: address 0x1d65d3af00984d78d8eb9f9d6e5e333423e01291, tx: 1 state: 2'}\n\n/opt/hostedtoolcache/Python/3.9.12/x64/lib/python3.9/site-packages/web3/manager.py:171: ValueError",
  "flaky" : false,
  "newFailed" : false,
  "newBroken" : false,
  "newPassed" : false,
  "retriesCount" : 0,
  "retriesStatusChange" : false,
  "beforeStages" : [ {
    "name" : "web3_client",
    "time" : {
      "start" : 1652694668749,
      "stop" : 1652694668750,
      "duration" : 1
    },
    "status" : "passed",
    "steps" : [ ],
    "attachments" : [ ],
    "parameters" : [ ],
    "stepsCount" : 0,
    "attachmentsCount" : 0,
    "shouldDisplayMessage" : false,
    "hasContent" : false
  }, {
    "name" : "pytestconfig",
    "time" : {
      "start" : 1652694668749,
      "stop" : 1652694668749,
      "duration" : 0
    },
    "status" : "passed",
    "steps" : [ ],
    "attachments" : [ ],
    "parameters" : [ ],
    "stepsCount" : 0,
    "attachmentsCount" : 0,
    "shouldDisplayMessage" : false,
    "hasContent" : false
  }, {
    "name" : "allure_environment",
    "time" : {
      "start" : 1652694668751,
      "stop" : 1652694669351,
      "duration" : 600
    },
    "status" : "passed",
    "steps" : [ ],
    "attachments" : [ ],
    "parameters" : [ ],
    "stepsCount" : 0,
    "attachmentsCount" : 0,
    "shouldDisplayMessage" : false,
    "hasContent" : false
  }, {
    "name" : "faucet",
    "time" : {
      "start" : 1652694669351,
      "stop" : 1652694669351,
      "duration" : 0
    },
    "status" : "passed",
    "steps" : [ ],
    "attachments" : [ ],
    "parameters" : [ ],
    "stepsCount" : 0,
    "attachmentsCount" : 0,
    "shouldDisplayMessage" : false,
    "hasContent" : false
  }, {
    "name" : "json_rpc_client",
    "time" : {
      "start" : 1652694669351,
      "stop" : 1652694669351,
      "duration" : 0
    },
    "status" : "passed",
    "steps" : [ ],
    "attachments" : [ ],
    "parameters" : [ ],
    "stepsCount" : 0,
    "attachmentsCount" : 0,
    "shouldDisplayMessage" : false,
    "hasContent" : false
  }, {
    "name" : "sol_client",
    "time" : {
      "start" : 1652694669351,
      "stop" : 1652694669351,
      "duration" : 0
    },
    "status" : "passed",
    "steps" : [ ],
    "attachments" : [ ],
    "parameters" : [ ],
    "stepsCount" : 0,
    "attachmentsCount" : 0,
    "shouldDisplayMessage" : false,
    "hasContent" : false
  }, {
    "name" : "operator",
    "time" : {
      "start" : 1652694669351,
      "stop" : 1652694669351,
      "duration" : 0
    },
    "status" : "passed",
    "steps" : [ ],
    "attachments" : [ ],
    "parameters" : [ ],
    "stepsCount" : 0,
    "attachmentsCount" : 0,
    "shouldDisplayMessage" : false,
    "hasContent" : false
  }, {
    "name" : "prepare_account",
    "time" : {
      "start" : 1652694669352,
      "stop" : 1652694676504,
      "duration" : 7152
    },
    "status" : "passed",
    "steps" : [ {
      "name" : "Create account for tests",
      "time" : {
        "start" : 1652694669352,
        "stop" : 1652694669363,
        "duration" : 11
      },
      "status" : "passed",
      "steps" : [ ],
      "attachments" : [ ],
      "parameters" : [ ],
      "stepsCount" : 0,
      "attachmentsCount" : 0,
      "shouldDisplayMessage" : false,
      "hasContent" : false
    }, {
      "name" : "Request 10000 NEON from faucet for 0xC6d2f974E9028F7e7c7A058da1bDc05A67c9CAE4",
      "time" : {
        "start" : 1652694669363,
        "stop" : 1652694671535,
        "duration" : 2172
      },
      "status" : "passed",
      "steps" : [ ],
      "attachments" : [ ],
      "parameters" : [ ],
      "stepsCount" : 0,
      "attachmentsCount" : 0,
      "shouldDisplayMessage" : false,
      "hasContent" : false
    }, {
      "name" : "Operator initial balance: 0.0 NEON 10065.153079436 SOL",
      "time" : {
        "start" : 1652694676504,
        "stop" : 1652694676504,
        "duration" : 0
      },
      "status" : "passed",
      "steps" : [ ],
      "attachments" : [ ],
      "parameters" : [ ],
      "stepsCount" : 0,
      "attachmentsCount" : 0,
      "shouldDisplayMessage" : false,
      "hasContent" : false
    } ],
    "attachments" : [ ],
    "parameters" : [ ],
    "stepsCount" : 3,
    "attachmentsCount" : 0,
    "shouldDisplayMessage" : false,
    "hasContent" : true
  }, {
    "name" : "prepare",
    "time" : {
      "start" : 1652694698263,
      "stop" : 1652694698263,
      "duration" : 0
    },
    "status" : "passed",
    "steps" : [ ],
    "attachments" : [ ],
    "parameters" : [ ],
    "stepsCount" : 0,
    "attachmentsCount" : 0,
    "shouldDisplayMessage" : false,
    "hasContent" : false
  }, {
    "name" : "prepare_account",
    "time" : {
      "start" : 1652694698263,
      "stop" : 1652694698263,
      "duration" : 0
    },
    "status" : "passed",
    "steps" : [ ],
    "attachments" : [ ],
    "parameters" : [ ],
    "stepsCount" : 0,
    "attachmentsCount" : 0,
    "shouldDisplayMessage" : false,
    "hasContent" : false
  }, {
    "name" : "prepare_env",
    "time" : {
      "start" : 1652694698263,
      "stop" : 1652694698263,
      "duration" : 0
    },
    "status" : "passed",
    "steps" : [ ],
    "attachments" : [ ],
    "parameters" : [ ],
    "stepsCount" : 0,
    "attachmentsCount" : 0,
    "shouldDisplayMessage" : false,
    "hasContent" : false
  } ],
  "testStage" : {
    "description" : "Verify implemented rpc calls work eth_getTransactionByHash",
    "status" : "broken",
    "statusMessage" : "ValueError: {'code': -32002, 'message': 'nonce too low: address 0x1d65d3af00984d78d8eb9f9d6e5e333423e01291, tx: 1 state: 2'}",
    "statusTrace" : "self = <integration.tests.basic.test_rpc_calls.TestRpcCalls object at 0x7f1751f598e0>\n\n    def test_rpc_call_eth_get_transaction_by_hash(self):\n        \"\"\"Verify implemented rpc calls work eth_getTransactionByHash\"\"\"\n    \n>       tx_receipt = self.process_transaction(\n            self.sender_account, self.recipient_account, input_data.InputData.SAMPLE_AMOUNT.value\n        )\n\nintegration/tests/basic/test_rpc_calls.py:278: \n_ _ _ _ _ _ _ _ _ _ _ _ _ _ _ _ _ _ _ _ _ _ _ _ _ _ _ _ _ _ _ _ _ _ _ _ _ _ _ _ \nintegration/tests/basic/helpers/basic.py:78: in process_transaction\n    return self.web3_client.send_neon(sender_account, recipient_account, amount)\nutils/web3client.py:78: in send_neon\n    tx = self._web3.eth.send_raw_transaction(signed_tx.rawTransaction)\n/opt/hostedtoolcache/Python/3.9.12/x64/lib/python3.9/site-packages/web3/eth.py:783: in send_raw_transaction\n    return self._send_raw_transaction(transaction)\n/opt/hostedtoolcache/Python/3.9.12/x64/lib/python3.9/site-packages/web3/module.py:57: in caller\n    result = w3.manager.request_blocking(method_str,\n/opt/hostedtoolcache/Python/3.9.12/x64/lib/python3.9/site-packages/web3/manager.py:198: in request_blocking\n    return self.formatted_response(response,\n_ _ _ _ _ _ _ _ _ _ _ _ _ _ _ _ _ _ _ _ _ _ _ _ _ _ _ _ _ _ _ _ _ _ _ _ _ _ _ _ \n\nself = <web3.manager.RequestManager object at 0x7f1753281670>\nresponse = {'error': {'code': -32002, 'message': 'nonce too low: address 0x1d65d3af00984d78d8eb9f9d6e5e333423e01291, tx: 1 state: 2'}, 'id': 35, 'jsonrpc': '2.0'}\nparams = ('0xf86f01853ba2e7a30082520894033028cc81755967909fb7f66df8a5f9e9d234ad87470de4df82000080841d3581bfa0eb79b9f71653cf56f62d596fa064a1465e87c19d039fa3717d448beb88f20d4ea072ad13cdb8153242ee2a07ea8f05b8787d7424b6aeaee78cf3d64602ce55cc49',)\nerror_formatters = <cyfunction identity at 0x7f1758d4f040>\nnull_result_formatters = <cyfunction identity at 0x7f1758d4f040>\n\n    def formatted_response(\n        self,\n        response: RPCResponse,\n        params: Any,\n        error_formatters: Optional[Callable[..., Any]] = None,\n        null_result_formatters: Optional[Callable[..., Any]] = None,\n    ) -> Any:\n        if \"error\" in response:\n            apply_error_formatters(error_formatters, response)\n>           raise ValueError(response[\"error\"])\nE           ValueError: {'code': -32002, 'message': 'nonce too low: address 0x1d65d3af00984d78d8eb9f9d6e5e333423e01291, tx: 1 state: 2'}\n\n/opt/hostedtoolcache/Python/3.9.12/x64/lib/python3.9/site-packages/web3/manager.py:171: ValueError",
    "steps" : [ {
      "name" : "Sending 0.02 from 0x1d65d3AF00984D78d8eb9f9D6E5e333423e01291 to 0x033028CC81755967909FB7f66df8a5f9e9D234AD",
      "time" : {
        "start" : 1652694698264,
        "stop" : 1652694698795,
        "duration" : 531
      },
      "status" : "broken",
      "statusMessage" : "ValueError: {'code': -32002, 'message': 'nonce too low: address 0x1d65d3af00984d78d8eb9f9d6e5e333423e01291, tx: 1 state: 2'}\n",
      "statusTrace" : "  File \"/home/runner/work/neon-tests/neon-tests/integration/tests/basic/helpers/basic.py\", line 78, in process_transaction\n    return self.web3_client.send_neon(sender_account, recipient_account, amount)\n  File \"/home/runner/work/neon-tests/neon-tests/utils/web3client.py\", line 78, in send_neon\n    tx = self._web3.eth.send_raw_transaction(signed_tx.rawTransaction)\n  File \"/opt/hostedtoolcache/Python/3.9.12/x64/lib/python3.9/site-packages/web3/eth.py\", line 783, in send_raw_transaction\n    return self._send_raw_transaction(transaction)\n  File \"/opt/hostedtoolcache/Python/3.9.12/x64/lib/python3.9/site-packages/web3/module.py\", line 57, in caller\n    result = w3.manager.request_blocking(method_str,\n  File \"/opt/hostedtoolcache/Python/3.9.12/x64/lib/python3.9/site-packages/web3/manager.py\", line 198, in request_blocking\n    return self.formatted_response(response,\n  File \"/opt/hostedtoolcache/Python/3.9.12/x64/lib/python3.9/site-packages/web3/manager.py\", line 171, in formatted_response\n    raise ValueError(response[\"error\"])\n",
      "steps" : [ ],
      "attachments" : [ ],
      "parameters" : [ ],
      "stepsCount" : 0,
      "attachmentsCount" : 0,
      "shouldDisplayMessage" : true,
      "hasContent" : true
    } ],
    "attachments" : [ ],
    "parameters" : [ ],
    "stepsCount" : 1,
    "attachmentsCount" : 0,
    "shouldDisplayMessage" : true,
    "hasContent" : true
  },
  "afterStages" : [ {
    "name" : "prepare_account::0",
    "time" : {
      "start" : 1652694710839,
      "stop" : 1652694715820,
      "duration" : 4981
    },
    "status" : "passed",
    "steps" : [ {
      "name" : "Operator end balance: 0.0 NEON 10065.153079436 SOL",
      "time" : {
        "start" : 1652694715758,
        "stop" : 1652694715758,
        "duration" : 0
      },
      "status" : "passed",
      "steps" : [ ],
      "attachments" : [ ],
      "parameters" : [ ],
      "stepsCount" : 0,
      "attachmentsCount" : 0,
      "shouldDisplayMessage" : false,
      "hasContent" : false
    }, {
      "name" : "Account end balance: 10000 NEON",
      "time" : {
        "start" : 1652694715820,
        "stop" : 1652694715820,
        "duration" : 0
      },
      "status" : "passed",
      "steps" : [ ],
      "attachments" : [ ],
      "parameters" : [ ],
      "stepsCount" : 0,
      "attachmentsCount" : 0,
      "shouldDisplayMessage" : false,
      "hasContent" : false
    } ],
    "attachments" : [ ],
    "parameters" : [ ],
    "stepsCount" : 2,
    "attachmentsCount" : 0,
    "shouldDisplayMessage" : false,
    "hasContent" : true
  }, {
    "name" : "allure_environment::0",
    "time" : {
      "start" : 1652695167963,
      "stop" : 1652695167963,
      "duration" : 0
    },
    "status" : "passed",
    "steps" : [ ],
    "attachments" : [ ],
    "parameters" : [ ],
    "stepsCount" : 0,
    "attachmentsCount" : 0,
    "shouldDisplayMessage" : false,
    "hasContent" : false
  } ],
  "labels" : [ {
    "name" : "story",
    "value" : "Basic: Json-RPC call tests"
  }, {
    "name" : "parentSuite",
    "value" : "integration.tests.basic"
  }, {
    "name" : "suite",
    "value" : "test_rpc_calls"
  }, {
    "name" : "subSuite",
    "value" : "TestRpcCalls"
  }, {
    "name" : "host",
    "value" : "fv-az173-358"
  }, {
    "name" : "thread",
    "value" : "1786-MainThread"
  }, {
    "name" : "framework",
    "value" : "pytest"
  }, {
    "name" : "language",
    "value" : "cpython3"
  }, {
    "name" : "package",
    "value" : "integration.tests.basic.test_rpc_calls"
  }, {
    "name" : "resultFormat",
    "value" : "allure2"
  } ],
  "parameters" : [ ],
  "links" : [ ],
  "hidden" : false,
  "retry" : false,
  "extra" : {
    "severity" : "normal",
    "retries" : [ ],
    "categories" : [ {
      "name" : "Test defects",
      "matchedStatuses" : [ ],
      "flaky" : false
    } ],
    "history" : {
      "statistic" : {
        "failed" : 0,
        "broken" : 4,
        "skipped" : 0,
        "passed" : 0,
        "unknown" : 0,
        "total" : 4
      },
      "items" : [ {
        "uid" : "b11a916886f22f5d",
        "reportUrl" : "https://apetrovskiy.github.io/neon-tests/devnet/feature/25p/1146//#testresult/b11a916886f22f5d",
        "status" : "broken",
        "statusDetails" : "TypeError: 'bool' object is not callable",
        "time" : {
          "start" : 1652693956476,
          "stop" : 1652693956476,
          "duration" : 0
        }
      }, {
        "uid" : "5cd4ef5b16c04d01",
        "reportUrl" : "https://apetrovskiy.github.io/neon-tests/devnet/feature/25p/1144//#testresult/5cd4ef5b16c04d01",
        "status" : "broken",
        "statusDetails" : "AttributeError: 'bool' object has no attribute 'status_code'",
        "time" : {
          "start" : 1652693560555,
          "stop" : 1652693560555,
          "duration" : 0
        }
      }, {
        "uid" : "40f03d94ed72384a",
        "reportUrl" : "https://apetrovskiy.github.io/neon-tests/devnet/feature/25p/1142//#testresult/40f03d94ed72384a",
        "status" : "broken",
        "statusDetails" : "NameError: name 'HttpStatus' is not defined",
        "time" : {
          "start" : 1652693058136,
          "stop" : 1652693058136,
          "duration" : 0
        }
      } ]
    },
    "tags" : [ ]
  },
  "source" : "34c680102816b7dc.json",
  "parameterValues" : [ ]
}