{
  "uid" : "16186e85b9657b74",
  "name" : "test_send_neon_from_one_account_to_another[1.1]",
  "fullName" : "integration.tests.basic.test_transfers.TestTransfer#test_send_neon_from_one_account_to_another",
  "historyId" : "ff2420b6a43fdd9d117c55d476cfa1b5",
  "time" : {
    "start" : 1647660167551,
    "stop" : 1647660170209,
    "duration" : 2658
  },
  "description" : "Send neon from one account to another",
  "descriptionHtml" : "<p>Send neon from one account to another</p>\n",
  "status" : "broken",
  "statusMessage" : "ValueError: InvalidArgument",
  "statusTrace" : "self = <integration.tests.basic.test_transfers.TestTransfer object at 0x7efdf0e33eb0>\namount = 1.1, prepare_accounts = None\n\n    @pytest.mark.parametrize(\"amount\", TRANSFER_AMOUNT_DATA)\n    def test_send_neon_from_one_account_to_another(self, amount: Union[int,\n                                                                       float],\n                                                   prepare_accounts):\n        \"\"\"Send neon from one account to another\"\"\"\n    \n>       tx_receipt = self.transfer_neon(self.sender_account,\n                                        self.recipient_account, amount)\n\nintegration/tests/basic/test_transfers.py:25: \n_ _ _ _ _ _ _ _ _ _ _ _ _ _ _ _ _ _ _ _ _ _ _ _ _ _ _ _ _ _ _ _ _ _ _ _ _ _ _ _ \nintegration/tests/basic/helpers/basic.py:119: in transfer_neon\n    return self.process_transaction(sender_account, recipient_account,\nintegration/tests/basic/helpers/basic.py:88: in process_transaction\n    return self.web3_client.send_neon(sender_account,\nutils/web3client.py:64: in send_neon\n    tx = self._web3.eth.send_raw_transaction(signed_tx.rawTransaction)\n/opt/hostedtoolcache/Python/3.9.10/x64/lib/python3.9/site-packages/web3/eth.py:783: in send_raw_transaction\n    return self._send_raw_transaction(transaction)\n/opt/hostedtoolcache/Python/3.9.10/x64/lib/python3.9/site-packages/web3/module.py:57: in caller\n    result = w3.manager.request_blocking(method_str,\n/opt/hostedtoolcache/Python/3.9.10/x64/lib/python3.9/site-packages/web3/manager.py:198: in request_blocking\n    return self.formatted_response(response,\n_ _ _ _ _ _ _ _ _ _ _ _ _ _ _ _ _ _ _ _ _ _ _ _ _ _ _ _ _ _ _ _ _ _ _ _ _ _ _ _ \n\nself = <web3.manager.RequestManager object at 0x7efdf1284340>\nresponse = {'error': 'InvalidArgument', 'id': 58, 'jsonrpc': '2.0'}\nparams = ('0xf8716e8564c99032008318182094414171bb622143a9a76ee5a51340a65087259b02880f43fc2c04ee000080841d3581c0a0dbf41a1d0752d2cef0571368324d79962e2f7ddaa129f7e45b25a230e6e1b230a02dcae846d4daa4894f62e7fc1034008cb8f2199aecce3bf82a3238314accc319',)\nerror_formatters = <cyfunction identity at 0x7efdf65ffee0>\nnull_result_formatters = <cyfunction identity at 0x7efdf65ffee0>\n\n    def formatted_response(\n        self,\n        response: RPCResponse,\n        params: Any,\n        error_formatters: Optional[Callable[..., Any]] = None,\n        null_result_formatters: Optional[Callable[..., Any]] = None,\n    ) -> Any:\n        if \"error\" in response:\n            apply_error_formatters(error_formatters, response)\n>           raise ValueError(response[\"error\"])\nE           ValueError: InvalidArgument\n\n/opt/hostedtoolcache/Python/3.9.10/x64/lib/python3.9/site-packages/web3/manager.py:171: ValueError",
  "flaky" : false,
  "newFailed" : false,
  "newBroken" : false,
  "newPassed" : false,
  "retriesCount" : 0,
  "retriesStatusChange" : false,
  "beforeStages" : [ {
    "name" : "pytestconfig",
    "time" : {
      "start" : 1647660141410,
      "stop" : 1647660141410,
      "duration" : 0
    },
    "status" : "passed",
    "steps" : [ ],
    "attachments" : [ ],
    "parameters" : [ ],
    "stepsCount" : 0,
    "attachmentsCount" : 0,
    "shouldDisplayMessage" : false,
    "hasContent" : false
  }, {
    "name" : "web3_client",
    "time" : {
      "start" : 1647660141410,
      "stop" : 1647660141412,
      "duration" : 2
    },
    "status" : "passed",
    "steps" : [ ],
    "attachments" : [ ],
    "parameters" : [ ],
    "stepsCount" : 0,
    "attachmentsCount" : 0,
    "shouldDisplayMessage" : false,
    "hasContent" : false
  }, {
    "name" : "allure_environment",
    "time" : {
      "start" : 1647660141412,
      "stop" : 1647660142134,
      "duration" : 722
    },
    "status" : "passed",
    "steps" : [ ],
    "attachments" : [ ],
    "parameters" : [ ],
    "stepsCount" : 0,
    "attachmentsCount" : 0,
    "shouldDisplayMessage" : false,
    "hasContent" : false
  }, {
    "name" : "faucet",
    "time" : {
      "start" : 1647660142134,
      "stop" : 1647660142134,
      "duration" : 0
    },
    "status" : "passed",
    "steps" : [ ],
    "attachments" : [ ],
    "parameters" : [ ],
    "stepsCount" : 0,
    "attachmentsCount" : 0,
    "shouldDisplayMessage" : false,
    "hasContent" : false
  }, {
    "name" : "jsonrpc_requester",
    "time" : {
      "start" : 1647660142134,
      "stop" : 1647660142135,
      "duration" : 1
    },
    "status" : "passed",
    "steps" : [ ],
    "attachments" : [ ],
    "parameters" : [ ],
    "stepsCount" : 0,
    "attachmentsCount" : 0,
    "shouldDisplayMessage" : false,
    "hasContent" : false
  }, {
    "name" : "sol_client",
    "time" : {
      "start" : 1647660142135,
      "stop" : 1647660142135,
      "duration" : 0
    },
    "status" : "passed",
    "steps" : [ ],
    "attachments" : [ ],
    "parameters" : [ ],
    "stepsCount" : 0,
    "attachmentsCount" : 0,
    "shouldDisplayMessage" : false,
    "hasContent" : false
  }, {
    "name" : "operator",
    "time" : {
      "start" : 1647660142135,
      "stop" : 1647660142135,
      "duration" : 0
    },
    "status" : "passed",
    "steps" : [ ],
    "attachments" : [ ],
    "parameters" : [ ],
    "stepsCount" : 0,
    "attachmentsCount" : 0,
    "shouldDisplayMessage" : false,
    "hasContent" : false
  }, {
    "name" : "prepare_accounts",
    "time" : {
      "start" : 1647660167546,
      "stop" : 1647660167551,
      "duration" : 5
    },
    "status" : "passed",
    "steps" : [ ],
    "attachments" : [ ],
    "parameters" : [ ],
    "stepsCount" : 0,
    "attachmentsCount" : 0,
    "shouldDisplayMessage" : false,
    "hasContent" : false
  }, {
    "name" : "prepare_json_rpc_requester",
    "time" : {
      "start" : 1647660167546,
      "stop" : 1647660167546,
      "duration" : 0
    },
    "status" : "passed",
    "steps" : [ ],
    "attachments" : [ ],
    "parameters" : [ ],
    "stepsCount" : 0,
    "attachmentsCount" : 0,
    "shouldDisplayMessage" : false,
    "hasContent" : false
  }, {
    "name" : "prepare",
    "time" : {
      "start" : 1647660167546,
      "stop" : 1647660167546,
      "duration" : 0
    },
    "status" : "passed",
    "steps" : [ ],
    "attachments" : [ ],
    "parameters" : [ ],
    "stepsCount" : 0,
    "attachmentsCount" : 0,
    "shouldDisplayMessage" : false,
    "hasContent" : false
  } ],
  "testStage" : {
    "description" : "Send neon from one account to another",
    "status" : "broken",
    "statusMessage" : "ValueError: InvalidArgument",
    "statusTrace" : "self = <integration.tests.basic.test_transfers.TestTransfer object at 0x7efdf0e33eb0>\namount = 1.1, prepare_accounts = None\n\n    @pytest.mark.parametrize(\"amount\", TRANSFER_AMOUNT_DATA)\n    def test_send_neon_from_one_account_to_another(self, amount: Union[int,\n                                                                       float],\n                                                   prepare_accounts):\n        \"\"\"Send neon from one account to another\"\"\"\n    \n>       tx_receipt = self.transfer_neon(self.sender_account,\n                                        self.recipient_account, amount)\n\nintegration/tests/basic/test_transfers.py:25: \n_ _ _ _ _ _ _ _ _ _ _ _ _ _ _ _ _ _ _ _ _ _ _ _ _ _ _ _ _ _ _ _ _ _ _ _ _ _ _ _ \nintegration/tests/basic/helpers/basic.py:119: in transfer_neon\n    return self.process_transaction(sender_account, recipient_account,\nintegration/tests/basic/helpers/basic.py:88: in process_transaction\n    return self.web3_client.send_neon(sender_account,\nutils/web3client.py:64: in send_neon\n    tx = self._web3.eth.send_raw_transaction(signed_tx.rawTransaction)\n/opt/hostedtoolcache/Python/3.9.10/x64/lib/python3.9/site-packages/web3/eth.py:783: in send_raw_transaction\n    return self._send_raw_transaction(transaction)\n/opt/hostedtoolcache/Python/3.9.10/x64/lib/python3.9/site-packages/web3/module.py:57: in caller\n    result = w3.manager.request_blocking(method_str,\n/opt/hostedtoolcache/Python/3.9.10/x64/lib/python3.9/site-packages/web3/manager.py:198: in request_blocking\n    return self.formatted_response(response,\n_ _ _ _ _ _ _ _ _ _ _ _ _ _ _ _ _ _ _ _ _ _ _ _ _ _ _ _ _ _ _ _ _ _ _ _ _ _ _ _ \n\nself = <web3.manager.RequestManager object at 0x7efdf1284340>\nresponse = {'error': 'InvalidArgument', 'id': 58, 'jsonrpc': '2.0'}\nparams = ('0xf8716e8564c99032008318182094414171bb622143a9a76ee5a51340a65087259b02880f43fc2c04ee000080841d3581c0a0dbf41a1d0752d2cef0571368324d79962e2f7ddaa129f7e45b25a230e6e1b230a02dcae846d4daa4894f62e7fc1034008cb8f2199aecce3bf82a3238314accc319',)\nerror_formatters = <cyfunction identity at 0x7efdf65ffee0>\nnull_result_formatters = <cyfunction identity at 0x7efdf65ffee0>\n\n    def formatted_response(\n        self,\n        response: RPCResponse,\n        params: Any,\n        error_formatters: Optional[Callable[..., Any]] = None,\n        null_result_formatters: Optional[Callable[..., Any]] = None,\n    ) -> Any:\n        if \"error\" in response:\n            apply_error_formatters(error_formatters, response)\n>           raise ValueError(response[\"error\"])\nE           ValueError: InvalidArgument\n\n/opt/hostedtoolcache/Python/3.9.10/x64/lib/python3.9/site-packages/web3/manager.py:171: ValueError",
    "steps" : [ {
      "name" : "Sending 1.1 from 0x10bA76E88cd03842eb45875e66a0CfD995Ab4D4A to 0x414171BB622143a9A76eE5a51340A65087259b02",
      "time" : {
        "start" : 1647660167552,
        "stop" : 1647660170209,
        "duration" : 2657
      },
      "status" : "broken",
      "statusMessage" : "ValueError: InvalidArgument\n",
      "statusTrace" : "  File \"/home/runner/work/neon-tests/neon-tests/integration/tests/basic/helpers/basic.py\", line 88, in process_transaction\n    return self.web3_client.send_neon(sender_account,\n  File \"/home/runner/work/neon-tests/neon-tests/utils/web3client.py\", line 64, in send_neon\n    tx = self._web3.eth.send_raw_transaction(signed_tx.rawTransaction)\n  File \"/opt/hostedtoolcache/Python/3.9.10/x64/lib/python3.9/site-packages/web3/eth.py\", line 783, in send_raw_transaction\n    return self._send_raw_transaction(transaction)\n  File \"/opt/hostedtoolcache/Python/3.9.10/x64/lib/python3.9/site-packages/web3/module.py\", line 57, in caller\n    result = w3.manager.request_blocking(method_str,\n  File \"/opt/hostedtoolcache/Python/3.9.10/x64/lib/python3.9/site-packages/web3/manager.py\", line 198, in request_blocking\n    return self.formatted_response(response,\n  File \"/opt/hostedtoolcache/Python/3.9.10/x64/lib/python3.9/site-packages/web3/manager.py\", line 171, in formatted_response\n    raise ValueError(response[\"error\"])\n",
      "steps" : [ ],
      "attachments" : [ ],
      "parameters" : [ ],
      "stepsCount" : 0,
      "attachmentsCount" : 0,
      "shouldDisplayMessage" : true,
      "hasContent" : true
    } ],
    "attachments" : [ ],
    "parameters" : [ ],
    "stepsCount" : 1,
    "attachmentsCount" : 0,
    "shouldDisplayMessage" : true,
    "hasContent" : true
  },
  "afterStages" : [ {
    "name" : "prepare_accounts::0",
    "time" : {
      "start" : 1647660170280,
      "stop" : 1647660170280,
      "duration" : 0
    },
    "status" : "passed",
    "steps" : [ ],
    "attachments" : [ ],
    "parameters" : [ ],
    "stepsCount" : 0,
    "attachmentsCount" : 0,
    "shouldDisplayMessage" : false,
    "hasContent" : false
  }, {
    "name" : "allure_environment::0",
    "time" : {
      "start" : 1647660177869,
      "stop" : 1647660177869,
      "duration" : 0
    },
    "status" : "passed",
    "steps" : [ ],
    "attachments" : [ ],
    "parameters" : [ ],
    "stepsCount" : 0,
    "attachmentsCount" : 0,
    "shouldDisplayMessage" : false,
    "hasContent" : false
  } ],
  "labels" : [ {
    "name" : "story",
    "value" : "Basic: transfer tests"
  }, {
    "name" : "parentSuite",
    "value" : "integration.tests.basic"
  }, {
    "name" : "suite",
    "value" : "test_transfers"
  }, {
    "name" : "subSuite",
    "value" : "TestTransfer"
  }, {
    "name" : "host",
    "value" : "fv-az445-625"
  }, {
    "name" : "thread",
    "value" : "1772-MainThread"
  }, {
    "name" : "framework",
    "value" : "pytest"
  }, {
    "name" : "language",
    "value" : "cpython3"
  }, {
    "name" : "package",
    "value" : "integration.tests.basic.test_transfers"
  }, {
    "name" : "resultFormat",
    "value" : "allure2"
  } ],
  "parameters" : [ {
    "name" : "amount",
    "value" : "1.1"
  } ],
  "links" : [ ],
  "hidden" : false,
  "retry" : false,
  "extra" : {
    "severity" : "normal",
    "retries" : [ ],
    "categories" : [ {
      "name" : "Test defects",
      "matchedStatuses" : [ ],
      "flaky" : false
    } ],
    "history" : {
      "statistic" : {
        "failed" : 0,
        "broken" : 3,
        "skipped" : 0,
        "passed" : 0,
        "unknown" : 0,
        "total" : 3
      },
      "items" : [ {
        "uid" : "fc4b698a63021b7d",
        "reportUrl" : "https://apetrovskiy.github.io/neon-tests/release-stand/feature/254t/662//#testresult/fc4b698a63021b7d",
        "status" : "broken",
        "statusDetails" : "ValueError: {'code': -32002, 'message': 'Verifying nonce before send transaction: Error processing Instruction 1: invalid program argument', 'data': {'logs': ['/src/entrypoint.rs Invalid Ethereum transaction nonce: acc 88, trx 87']}}",
        "time" : {
          "start" : 1647658498922,
          "stop" : 1647658501337,
          "duration" : 2415
        }
      }, {
        "uid" : "2c8290c157d47737",
        "reportUrl" : "https://apetrovskiy.github.io/neon-tests/release-stand/feature/254t/659//#testresult/2c8290c157d47737",
        "status" : "broken",
        "statusDetails" : "ValueError: InvalidArgument",
        "time" : {
          "start" : 1647658460598,
          "stop" : 1647658464049,
          "duration" : 3451
        }
      } ]
    },
    "tags" : [ ]
  },
  "source" : "16186e85b9657b74.json",
  "parameterValues" : [ "1.1" ]
}