{
  "uid" : "9b4380880ee2611e",
  "name" : "test_rpc_call_eth_getTransactionCount",
  "fullName" : "integration.tests.basic.test_transactions.TestRpcCallsTransactions#test_rpc_call_eth_getTransactionCount",
  "historyId" : "203fb24ab3840d60203239a580c20ac7",
  "time" : {
    "start" : 1647660153231,
    "stop" : 1647660156029,
    "duration" : 2798
  },
  "description" : "Verify implemented rpc calls work eth_getTransactionCount",
  "descriptionHtml" : "<p>Verify implemented rpc calls work eth_getTransactionCount</p>\n",
  "status" : "broken",
  "statusMessage" : "ValueError: InvalidArgument",
  "statusTrace" : "self = <integration.tests.basic.test_transactions.TestRpcCallsTransactions object at 0x7efdf0eece20>\nprepare_accounts = None\n\n    def test_rpc_call_eth_getTransactionCount(self, prepare_accounts):\n        \"\"\"Verify implemented rpc calls work eth_getTransactionCount\"\"\"\n    \n>       self.transfer_neon(self.sender_account, self.recipient_account,\n                           InputData.SAMPLE_AMOUNT.value)\n\nintegration/tests/basic/test_transactions.py:35: \n_ _ _ _ _ _ _ _ _ _ _ _ _ _ _ _ _ _ _ _ _ _ _ _ _ _ _ _ _ _ _ _ _ _ _ _ _ _ _ _ \nintegration/tests/basic/helpers/basic.py:119: in transfer_neon\n    return self.process_transaction(sender_account, recipient_account,\nintegration/tests/basic/helpers/basic.py:88: in process_transaction\n    return self.web3_client.send_neon(sender_account,\nutils/web3client.py:64: in send_neon\n    tx = self._web3.eth.send_raw_transaction(signed_tx.rawTransaction)\n/opt/hostedtoolcache/Python/3.9.10/x64/lib/python3.9/site-packages/web3/eth.py:783: in send_raw_transaction\n    return self._send_raw_transaction(transaction)\n/opt/hostedtoolcache/Python/3.9.10/x64/lib/python3.9/site-packages/web3/module.py:57: in caller\n    result = w3.manager.request_blocking(method_str,\n/opt/hostedtoolcache/Python/3.9.10/x64/lib/python3.9/site-packages/web3/manager.py:198: in request_blocking\n    return self.formatted_response(response,\n_ _ _ _ _ _ _ _ _ _ _ _ _ _ _ _ _ _ _ _ _ _ _ _ _ _ _ _ _ _ _ _ _ _ _ _ _ _ _ _ \n\nself = <web3.manager.RequestManager object at 0x7efdf1284340>\nresponse = {'error': 'InvalidArgument', 'id': 23, 'jsonrpc': '2.0'}\nparams = ('0xf870688564c9903200831818209459054c30bc706675d766a8f1172470f90be01e0e87470de4df82000080841d3581c0a0f7ed6051ca6223ba2578e6b1a2c5615bbced9ad3656b22c52790387081648c67a039c7d5999220dae2fae70d8b171166bb78c66104b39fda0356c9be38c6a82305',)\nerror_formatters = <cyfunction identity at 0x7efdf65ffee0>\nnull_result_formatters = <cyfunction identity at 0x7efdf65ffee0>\n\n    def formatted_response(\n        self,\n        response: RPCResponse,\n        params: Any,\n        error_formatters: Optional[Callable[..., Any]] = None,\n        null_result_formatters: Optional[Callable[..., Any]] = None,\n    ) -> Any:\n        if \"error\" in response:\n            apply_error_formatters(error_formatters, response)\n>           raise ValueError(response[\"error\"])\nE           ValueError: InvalidArgument\n\n/opt/hostedtoolcache/Python/3.9.10/x64/lib/python3.9/site-packages/web3/manager.py:171: ValueError",
  "flaky" : false,
  "newFailed" : false,
  "newBroken" : false,
  "newPassed" : false,
  "retriesCount" : 0,
  "retriesStatusChange" : false,
  "beforeStages" : [ {
    "name" : "pytestconfig",
    "time" : {
      "start" : 1647660141410,
      "stop" : 1647660141410,
      "duration" : 0
    },
    "status" : "passed",
    "steps" : [ ],
    "attachments" : [ ],
    "parameters" : [ ],
    "stepsCount" : 0,
    "attachmentsCount" : 0,
    "shouldDisplayMessage" : false,
    "hasContent" : false
  }, {
    "name" : "web3_client",
    "time" : {
      "start" : 1647660141410,
      "stop" : 1647660141412,
      "duration" : 2
    },
    "status" : "passed",
    "steps" : [ ],
    "attachments" : [ ],
    "parameters" : [ ],
    "stepsCount" : 0,
    "attachmentsCount" : 0,
    "shouldDisplayMessage" : false,
    "hasContent" : false
  }, {
    "name" : "allure_environment",
    "time" : {
      "start" : 1647660141412,
      "stop" : 1647660142134,
      "duration" : 722
    },
    "status" : "passed",
    "steps" : [ ],
    "attachments" : [ ],
    "parameters" : [ ],
    "stepsCount" : 0,
    "attachmentsCount" : 0,
    "shouldDisplayMessage" : false,
    "hasContent" : false
  }, {
    "name" : "faucet",
    "time" : {
      "start" : 1647660142134,
      "stop" : 1647660142134,
      "duration" : 0
    },
    "status" : "passed",
    "steps" : [ ],
    "attachments" : [ ],
    "parameters" : [ ],
    "stepsCount" : 0,
    "attachmentsCount" : 0,
    "shouldDisplayMessage" : false,
    "hasContent" : false
  }, {
    "name" : "jsonrpc_requester",
    "time" : {
      "start" : 1647660142134,
      "stop" : 1647660142135,
      "duration" : 1
    },
    "status" : "passed",
    "steps" : [ ],
    "attachments" : [ ],
    "parameters" : [ ],
    "stepsCount" : 0,
    "attachmentsCount" : 0,
    "shouldDisplayMessage" : false,
    "hasContent" : false
  }, {
    "name" : "sol_client",
    "time" : {
      "start" : 1647660142135,
      "stop" : 1647660142135,
      "duration" : 0
    },
    "status" : "passed",
    "steps" : [ ],
    "attachments" : [ ],
    "parameters" : [ ],
    "stepsCount" : 0,
    "attachmentsCount" : 0,
    "shouldDisplayMessage" : false,
    "hasContent" : false
  }, {
    "name" : "operator",
    "time" : {
      "start" : 1647660142135,
      "stop" : 1647660142135,
      "duration" : 0
    },
    "status" : "passed",
    "steps" : [ ],
    "attachments" : [ ],
    "parameters" : [ ],
    "stepsCount" : 0,
    "attachmentsCount" : 0,
    "shouldDisplayMessage" : false,
    "hasContent" : false
  }, {
    "name" : "prepare",
    "time" : {
      "start" : 1647660153225,
      "stop" : 1647660153226,
      "duration" : 1
    },
    "status" : "passed",
    "steps" : [ ],
    "attachments" : [ ],
    "parameters" : [ ],
    "stepsCount" : 0,
    "attachmentsCount" : 0,
    "shouldDisplayMessage" : false,
    "hasContent" : false
  }, {
    "name" : "prepare_json_rpc_requester",
    "time" : {
      "start" : 1647660153226,
      "stop" : 1647660153226,
      "duration" : 0
    },
    "status" : "passed",
    "steps" : [ ],
    "attachments" : [ ],
    "parameters" : [ ],
    "stepsCount" : 0,
    "attachmentsCount" : 0,
    "shouldDisplayMessage" : false,
    "hasContent" : false
  }, {
    "name" : "prepare_accounts",
    "time" : {
      "start" : 1647660153226,
      "stop" : 1647660153230,
      "duration" : 4
    },
    "status" : "passed",
    "steps" : [ ],
    "attachments" : [ ],
    "parameters" : [ ],
    "stepsCount" : 0,
    "attachmentsCount" : 0,
    "shouldDisplayMessage" : false,
    "hasContent" : false
  } ],
  "testStage" : {
    "description" : "Verify implemented rpc calls work eth_getTransactionCount",
    "status" : "broken",
    "statusMessage" : "ValueError: InvalidArgument",
    "statusTrace" : "self = <integration.tests.basic.test_transactions.TestRpcCallsTransactions object at 0x7efdf0eece20>\nprepare_accounts = None\n\n    def test_rpc_call_eth_getTransactionCount(self, prepare_accounts):\n        \"\"\"Verify implemented rpc calls work eth_getTransactionCount\"\"\"\n    \n>       self.transfer_neon(self.sender_account, self.recipient_account,\n                           InputData.SAMPLE_AMOUNT.value)\n\nintegration/tests/basic/test_transactions.py:35: \n_ _ _ _ _ _ _ _ _ _ _ _ _ _ _ _ _ _ _ _ _ _ _ _ _ _ _ _ _ _ _ _ _ _ _ _ _ _ _ _ \nintegration/tests/basic/helpers/basic.py:119: in transfer_neon\n    return self.process_transaction(sender_account, recipient_account,\nintegration/tests/basic/helpers/basic.py:88: in process_transaction\n    return self.web3_client.send_neon(sender_account,\nutils/web3client.py:64: in send_neon\n    tx = self._web3.eth.send_raw_transaction(signed_tx.rawTransaction)\n/opt/hostedtoolcache/Python/3.9.10/x64/lib/python3.9/site-packages/web3/eth.py:783: in send_raw_transaction\n    return self._send_raw_transaction(transaction)\n/opt/hostedtoolcache/Python/3.9.10/x64/lib/python3.9/site-packages/web3/module.py:57: in caller\n    result = w3.manager.request_blocking(method_str,\n/opt/hostedtoolcache/Python/3.9.10/x64/lib/python3.9/site-packages/web3/manager.py:198: in request_blocking\n    return self.formatted_response(response,\n_ _ _ _ _ _ _ _ _ _ _ _ _ _ _ _ _ _ _ _ _ _ _ _ _ _ _ _ _ _ _ _ _ _ _ _ _ _ _ _ \n\nself = <web3.manager.RequestManager object at 0x7efdf1284340>\nresponse = {'error': 'InvalidArgument', 'id': 23, 'jsonrpc': '2.0'}\nparams = ('0xf870688564c9903200831818209459054c30bc706675d766a8f1172470f90be01e0e87470de4df82000080841d3581c0a0f7ed6051ca6223ba2578e6b1a2c5615bbced9ad3656b22c52790387081648c67a039c7d5999220dae2fae70d8b171166bb78c66104b39fda0356c9be38c6a82305',)\nerror_formatters = <cyfunction identity at 0x7efdf65ffee0>\nnull_result_formatters = <cyfunction identity at 0x7efdf65ffee0>\n\n    def formatted_response(\n        self,\n        response: RPCResponse,\n        params: Any,\n        error_formatters: Optional[Callable[..., Any]] = None,\n        null_result_formatters: Optional[Callable[..., Any]] = None,\n    ) -> Any:\n        if \"error\" in response:\n            apply_error_formatters(error_formatters, response)\n>           raise ValueError(response[\"error\"])\nE           ValueError: InvalidArgument\n\n/opt/hostedtoolcache/Python/3.9.10/x64/lib/python3.9/site-packages/web3/manager.py:171: ValueError",
    "steps" : [ {
      "name" : "Sending 0.02 from 0x10bA76E88cd03842eb45875e66a0CfD995Ab4D4A to 0x59054c30bc706675d766A8f1172470f90bE01E0E",
      "time" : {
        "start" : 1647660153231,
        "stop" : 1647660156029,
        "duration" : 2798
      },
      "status" : "broken",
      "statusMessage" : "ValueError: InvalidArgument\n",
      "statusTrace" : "  File \"/home/runner/work/neon-tests/neon-tests/integration/tests/basic/helpers/basic.py\", line 88, in process_transaction\n    return self.web3_client.send_neon(sender_account,\n  File \"/home/runner/work/neon-tests/neon-tests/utils/web3client.py\", line 64, in send_neon\n    tx = self._web3.eth.send_raw_transaction(signed_tx.rawTransaction)\n  File \"/opt/hostedtoolcache/Python/3.9.10/x64/lib/python3.9/site-packages/web3/eth.py\", line 783, in send_raw_transaction\n    return self._send_raw_transaction(transaction)\n  File \"/opt/hostedtoolcache/Python/3.9.10/x64/lib/python3.9/site-packages/web3/module.py\", line 57, in caller\n    result = w3.manager.request_blocking(method_str,\n  File \"/opt/hostedtoolcache/Python/3.9.10/x64/lib/python3.9/site-packages/web3/manager.py\", line 198, in request_blocking\n    return self.formatted_response(response,\n  File \"/opt/hostedtoolcache/Python/3.9.10/x64/lib/python3.9/site-packages/web3/manager.py\", line 171, in formatted_response\n    raise ValueError(response[\"error\"])\n",
      "steps" : [ ],
      "attachments" : [ ],
      "parameters" : [ ],
      "stepsCount" : 0,
      "attachmentsCount" : 0,
      "shouldDisplayMessage" : true,
      "hasContent" : true
    } ],
    "attachments" : [ ],
    "parameters" : [ ],
    "stepsCount" : 1,
    "attachmentsCount" : 0,
    "shouldDisplayMessage" : true,
    "hasContent" : true
  },
  "afterStages" : [ {
    "name" : "prepare_accounts::0",
    "time" : {
      "start" : 1647660156061,
      "stop" : 1647660156061,
      "duration" : 0
    },
    "status" : "passed",
    "steps" : [ ],
    "attachments" : [ ],
    "parameters" : [ ],
    "stepsCount" : 0,
    "attachmentsCount" : 0,
    "shouldDisplayMessage" : false,
    "hasContent" : false
  }, {
    "name" : "allure_environment::0",
    "time" : {
      "start" : 1647660177869,
      "stop" : 1647660177869,
      "duration" : 0
    },
    "status" : "passed",
    "steps" : [ ],
    "attachments" : [ ],
    "parameters" : [ ],
    "stepsCount" : 0,
    "attachmentsCount" : 0,
    "shouldDisplayMessage" : false,
    "hasContent" : false
  } ],
  "labels" : [ {
    "name" : "story",
    "value" : "Basic: Json-RPC call tests - transactions"
  }, {
    "name" : "parentSuite",
    "value" : "integration.tests.basic"
  }, {
    "name" : "suite",
    "value" : "test_transactions"
  }, {
    "name" : "subSuite",
    "value" : "TestRpcCallsTransactions"
  }, {
    "name" : "host",
    "value" : "fv-az445-625"
  }, {
    "name" : "thread",
    "value" : "1772-MainThread"
  }, {
    "name" : "framework",
    "value" : "pytest"
  }, {
    "name" : "language",
    "value" : "cpython3"
  }, {
    "name" : "package",
    "value" : "integration.tests.basic.test_transactions"
  }, {
    "name" : "resultFormat",
    "value" : "allure2"
  } ],
  "parameters" : [ ],
  "links" : [ ],
  "hidden" : false,
  "retry" : false,
  "extra" : {
    "severity" : "normal",
    "retries" : [ ],
    "categories" : [ {
      "name" : "Test defects",
      "matchedStatuses" : [ ],
      "flaky" : false
    } ],
    "history" : {
      "statistic" : {
        "failed" : 0,
        "broken" : 3,
        "skipped" : 0,
        "passed" : 0,
        "unknown" : 0,
        "total" : 3
      },
      "items" : [ {
        "uid" : "cd7e0674242f89a9",
        "reportUrl" : "https://apetrovskiy.github.io/neon-tests/release-stand/feature/254t/662//#testresult/cd7e0674242f89a9",
        "status" : "broken",
        "statusDetails" : "ValueError: {'code': -32002, 'message': 'Verifying nonce before send transaction: Error processing Instruction 1: invalid program argument', 'data': {'logs': ['/src/entrypoint.rs Invalid Ethereum transaction nonce: acc 82, trx 81']}}",
        "time" : {
          "start" : 1647658483385,
          "stop" : 1647658485064,
          "duration" : 1679
        }
      }, {
        "uid" : "b1f91b61837bfad7",
        "reportUrl" : "https://apetrovskiy.github.io/neon-tests/release-stand/feature/254t/659//#testresult/b1f91b61837bfad7",
        "status" : "broken",
        "statusDetails" : "ValueError: {'code': -32002, 'message': 'Verifying nonce before send transaction: Error processing Instruction 1: invalid program argument', 'data': {'logs': ['/src/entrypoint.rs Invalid Ethereum transaction nonce: acc 67, trx 66']}}",
        "time" : {
          "start" : 1647658446474,
          "stop" : 1647658447434,
          "duration" : 960
        }
      } ]
    },
    "tags" : [ ]
  },
  "source" : "9b4380880ee2611e.json",
  "parameterValues" : [ ]
}