{'from': '0xc36938613ab2E1d9cCD5654ff7172A5eE86cdD0D', 'to': '0xAE9fD209a2226412bb73f42760102DF994F82aF1', 'value': 5000000000000000000, 'chainId': 111, 'gasPrice': 529824900000, 'gas': 15000, 'nonce': 0}
b'O\x12\xc0J\x11\xb3\xf2\xd7\xf0\x10\xcb`\xda\x18\xcd\x9e\xba\xc8\xc0\x04\xdd\x0cG\xf3\x95Mt\xc1\x88\xff\xd6\xed'
SignedTransaction(rawTransaction=HexBytes('0xf86e80857b5c0663a0823a9894ae9fd209a2226412bb73f42760102df994f82af1884563918244f4000080820102a05290a61787273e0bffe4db8165227ada0f07d2ae6189a538ef1a6dbd68f1fcdfa017ace9bc66ef5b04c9b2e28391000c87d2b405080f8f145db65a8bb0ee42e978'), hash=HexBytes('0xf375b02f0460fa9da0ae1b8376fea586b2c49389ac5ba6d8ef3b5dec5b5612bf'), r=37345225885361574518296472527226376417726884831304571654518605356547578133727, s=10708706398766103571866385585125108961253565263195783008604485828443193403768, v=258)
