{'from': '0x3fb42863B4Ac5fD1F7a24850cA75eA6864C0ced7', 'to': '0x967e729B6ffC6Dc44a6d243cAf6fb2578f1b9dEa', 'value': 5000000000000000000, 'chainId': 111, 'gasPrice': 406153440000, 'gas': 15000, 'nonce': 0}
b'\xf1m\x03|Hl{\xf5\xb5Q\x90%\xe0\xb0\x92\x8c\x18\xb4G`\xecs\xe9\xce\xe1\x03\x1bg\x02\x13\x8d\x85'
SignedTransaction(rawTransaction=HexBytes('0xf86e80855e90a1ab00823a9894967e729b6ffc6dc44a6d243caf6fb2578f1b9dea884563918244f4000080820102a014085a9470ffe7490dd90bc9d2c8430eb7f34bddaef20040f8dcab8c7c87075da05cf91a5df5a75897bfe6e36999b4c6567f4caba22082729c19131c8a3a90225b'), hash=HexBytes('0xbc0b99f1d8ebe7f4c937cdd3a384197d3d25b5fb5502aabd11b46f8646af7530'), r=9061016907327121974802538581717960679532936401789387552842069634065218602845, s=42052908967340735665240387032054386664831804706675519801301438177903127831131, v=258)
